{
  "_format": "hh-sol-artifact-1",
  "contractName": "DiveBar",
  "sourceName": "contracts/DiveBar.sol",
  "abi": [
    {
      "inputs": [],
      "stateMutability": "payable",
      "type": "constructor"
    },
    {
      "inputs": [],
      "name": "OnlySimulatedBackend",
      "type": "error"
    },
    {
      "anonymous": false,
      "inputs": [
        {
          "indexed": true,
          "internalType": "address",
          "name": "sender",
          "type": "address"
        },
        {
          "indexed": false,
          "internalType": "uint256",
          "name": "amount",
          "type": "uint256"
        }
      ],
      "name": "Deposit",
      "type": "event"
    },
    {
      "anonymous": false,
      "inputs": [
        {
          "indexed": true,
          "internalType": "address",
          "name": "receiver",
          "type": "address"
        },
        {
          "indexed": false,
          "internalType": "uint256",
          "name": "amount",
          "type": "uint256"
        }
      ],
      "name": "Payout",
      "type": "event"
    },
    {
      "anonymous": false,
      "inputs": [
        {
          "indexed": true,
          "internalType": "address",
          "name": "sender",
          "type": "address"
        },
        {
          "indexed": false,
          "internalType": "uint256",
          "name": "amount",
          "type": "uint256"
        }
      ],
      "name": "Withdraw",
      "type": "event"
    },
    {
      "stateMutability": "payable",
      "type": "fallback"
    },
    {
      "inputs": [],
      "name": "adminCallHandleGameOver",
      "outputs": [],
      "stateMutability": "nonpayable",
      "type": "function"
    },
    {
      "inputs": [
        {
          "internalType": "uint256",
          "name": "_time",
          "type": "uint256"
        }
      ],
      "name": "adminSetTime",
      "outputs": [],
      "stateMutability": "nonpayable",
      "type": "function"
    },
    {
      "inputs": [
        {
          "internalType": "bytes",
          "name": "",
          "type": "bytes"
        }
      ],
      "name": "checkUpkeep",
      "outputs": [
        {
          "internalType": "bool",
          "name": "upkeepNeeded",
          "type": "bool"
        },
        {
          "internalType": "bytes",
          "name": "",
          "type": "bytes"
        }
      ],
      "stateMutability": "nonpayable",
      "type": "function"
    },
    {
      "inputs": [],
      "name": "getBalance",
      "outputs": [
        {
          "internalType": "uint256",
          "name": "",
          "type": "uint256"
        }
      ],
      "stateMutability": "view",
      "type": "function"
    },
    {
      "inputs": [],
      "name": "getGameInfo",
      "outputs": [
        {
          "internalType": "uint256",
          "name": "id",
          "type": "uint256"
        },
        {
          "internalType": "uint256",
          "name": "timeLimit",
          "type": "uint256"
        },
        {
          "internalType": "uint256",
          "name": "minDeposit",
          "type": "uint256"
        },
        {
          "internalType": "uint256",
          "name": "pot",
          "type": "uint256"
        },
        {
          "internalType": "uint256",
          "name": "avg",
          "type": "uint256"
        },
        {
          "internalType": "uint256",
          "name": "playersSize",
          "type": "uint256"
        },
        {
          "internalType": "uint256",
          "name": "createdAt",
          "type": "uint256"
        },
        {
          "internalType": "uint256",
          "name": "endingAt",
          "type": "uint256"
        }
      ],
      "stateMutability": "view",
      "type": "function"
    },
    {
      "inputs": [],
      "name": "getPayout",
      "outputs": [],
      "stateMutability": "payable",
      "type": "function"
    },
    {
      "inputs": [
        {
          "internalType": "address",
          "name": "_addr",
          "type": "address"
        }
      ],
      "name": "getPlayer",
      "outputs": [
        {
          "internalType": "uint256",
          "name": "bet",
          "type": "uint256"
        },
        {
          "internalType": "uint256",
          "name": "timestamp",
          "type": "uint256"
        }
      ],
      "stateMutability": "view",
      "type": "function"
    },
    {
      "inputs": [
        {
          "internalType": "address",
          "name": "_addr",
          "type": "address"
        }
      ],
      "name": "getUserBalance",
      "outputs": [
        {
          "internalType": "uint256",
          "name": "",
          "type": "uint256"
        }
      ],
      "stateMutability": "view",
      "type": "function"
    },
    {
      "inputs": [],
      "name": "owner",
      "outputs": [
        {
          "internalType": "address payable",
          "name": "",
          "type": "address"
        }
      ],
      "stateMutability": "view",
      "type": "function"
    },
    {
      "inputs": [
        {
          "internalType": "bytes",
          "name": "",
          "type": "bytes"
        }
      ],
      "name": "performUpkeep",
      "outputs": [],
      "stateMutability": "nonpayable",
      "type": "function"
    },
    {
      "inputs": [
        {
          "internalType": "uint256",
          "name": "_amount",
          "type": "uint256"
        }
      ],
      "name": "withdraw",
      "outputs": [],
      "stateMutability": "nonpayable",
      "type": "function"
    },
    {
      "stateMutability": "payable",
      "type": "receive"
    }
  ],
  "bytecode": "0x6080604052600060015561012c600255600160008190555033600360006101000a81548173ffffffffffffffffffffffffffffffffffffffff021916908373ffffffffffffffffffffffffffffffffffffffff160217905550600154600560006001548152602001908152602001600020600001819055506002546005600060015481526020019081526020016000206001018190555066038d7ea4c68000600560006001548152602001908152602001600020600201819055506000600560006001548152602001908152602001600020600301819055506000600560006001548152602001908152602001600020600401819055506000600560006001548152602001908152602001600020600501819055504260056000600154815260200190815260200160002060060181905550600560006001548152602001908152602001600020600101544262000157919062000179565b600560006001548152602001908152602001600020600701819055506200020f565b60006200018682620001d6565b91506200019383620001d6565b9250827fffffffffffffffffffffffffffffffffffffffffffffffffffffffffffffffff03821115620001cb57620001ca620001e0565b5b828201905092915050565b6000819050919050565b7f4e487b7100000000000000000000000000000000000000000000000000000000600052601160045260246000fd5b61342c806200021f6000396000f3fe6080604052600436106100a05760003560e01c8063477348921161006457806347734892146105515780635c12cd4b1461058e5780636e04ff0d146105cc5780637d065c931461060a5780638da5cb5b14610614578063d757a4a11461063f57610477565b806312065fe0146104795780631746bd1b146104a457806325d0c53d146104d65780632e1a7d4d146104ff5780634585e33b1461052857610477565b366104775760056000600154815260200190815260200160002060020154341015610100576040517f08c379a00000000000000000000000000000000000000000000000000000000081526004016100f790612b46565b60405180910390fd5b600060056000600154815260200190815260200160002060090160003373ffffffffffffffffffffffffffffffffffffffff1673ffffffffffffffffffffffffffffffffffffffff1681526020019081526020016000205414610198576040517f08c379a000000000000000000000000000000000000000000000000000000000815260040161018f90612bc6565b60405180910390fd5b4260056000600154815260200190815260200160002060070154116101f2576040517f08c379a00000000000000000000000000000000000000000000000000000000081526004016101e990612b86565b60405180910390fd5b60405180608001604052803373ffffffffffffffffffffffffffffffffffffffff16815260200134815260200142815260200161022f6000610656565b81525060056000600154815260200190815260200160002060080160006001600560006001548152602001908152602001600020600501546102719190612deb565b815260200190815260200160002060008201518160000160006101000a81548173ffffffffffffffffffffffffffffffffffffffff021916908373ffffffffffffffffffffffffffffffffffffffff16021790555060208201518160010155604082015181600201556060820151816003016000820151816000015550509050506001600560006001548152602001908152602001600020600501546103179190612deb565b60056000600154815260200190815260200160002060090160003373ffffffffffffffffffffffffffffffffffffffff1673ffffffffffffffffffffffffffffffffffffffff16815260200190815260200160002081905550600160056000600154815260200190815260200160002060050160008282546103999190612deb565b925050819055503460056000600154815260200190815260200160002060030160008282546103c89190612deb565b92505081905550600560006001548152602001908152602001600020600501546005600060015481526020019081526020016000206003015461040b9190612e41565b600560006001548152602001908152602001600020600401819055503373ffffffffffffffffffffffffffffffffffffffff167fe1fffcc4923d04b559f4d29a8bfc6cda04eb5b0d3c460751c2402c5c5cc9109c3460405161046d9190612ce6565b60405180910390a2005b005b34801561048557600080fd5b5061048e6106d3565b60405161049b9190612ce6565b60405180910390f35b3480156104b057600080fd5b506104b96106db565b6040516104cd989796959493929190612d2a565b60405180910390f35b3480156104e257600080fd5b506104fd60048036038101906104f89190612589565b6107c9565b005b34801561050b57600080fd5b5061052660048036038101906105219190612589565b610863565b005b34801561053457600080fd5b5061054f600480360381019061054a9190612544565b61098b565b005b34801561055d57600080fd5b506105786004803603810190610573919061251b565b610997565b6040516105859190612ce6565b60405180910390f35b34801561059a57600080fd5b506105b560048036038101906105b0919061251b565b6109e0565b6040516105c3929190612d01565b60405180910390f35b3480156105d857600080fd5b506105f360048036038101906105ee9190612544565b610b89565b60405161060192919061296f565b60405180910390f35b610612610bb2565b005b34801561062057600080fd5b50610629610cc4565b6040516106369190612954565b60405180910390f35b34801561064b57600080fd5b50610654610cea565b005b61065e612494565b610666610d84565b8211156106a8576040517f08c379a000000000000000000000000000000000000000000000000000000000815260040161069f90612b06565b60405180910390fd5b604051806020016040528069d3c21bcecceda1000000846106c99190612e72565b8152509050919050565b600047905090565b6000806000806000806000806005600060015481526020019081526020016000206000015460056000600154815260200190815260200160002060010154600560006001548152602001908152602001600020600201546005600060015481526020019081526020016000206003015460056000600154815260200190815260200160002060040154600560006001548152602001908152602001600020600501546005600060015481526020019081526020016000206006015460056000600154815260200190815260200160002060070154975097509750975097509750975097509091929394959697565b600360009054906101000a900473ffffffffffffffffffffffffffffffffffffffff1673ffffffffffffffffffffffffffffffffffffffff163373ffffffffffffffffffffffffffffffffffffffff1614610859576040517f08c379a000000000000000000000000000000000000000000000000000000000815260040161085090612cc6565b60405180910390fd5b8060028190555050565b600360009054906101000a900473ffffffffffffffffffffffffffffffffffffffff1673ffffffffffffffffffffffffffffffffffffffff163373ffffffffffffffffffffffffffffffffffffffff16146108f3576040517f08c379a00000000000000000000000000000000000000000000000000000000081526004016108ea90612cc6565b60405180910390fd5b3373ffffffffffffffffffffffffffffffffffffffff166108fc829081150290604051600060405180830381858888f19350505050158015610939573d6000803e3d6000fd5b503373ffffffffffffffffffffffffffffffffffffffff167f884edad9ce6fa2440d8a54cc123490eb96d2768479d49ff9c7366125a9424364826040516109809190612ce6565b60405180910390a250565b610993610da3565b5050565b6000600460008373ffffffffffffffffffffffffffffffffffffffff1673ffffffffffffffffffffffffffffffffffffffff168152602001908152602001600020549050919050565b600080600060056000600154815260200190815260200160002060090160008573ffffffffffffffffffffffffffffffffffffffff1673ffffffffffffffffffffffffffffffffffffffff168152602001908152602001600020541415610a7c576040517f08c379a0000000000000000000000000000000000000000000000000000000008152600401610a7390612ca6565b60405180910390fd5b600560006001548152602001908152602001600020600801600060056000600154815260200190815260200160002060090160008673ffffffffffffffffffffffffffffffffffffffff1673ffffffffffffffffffffffffffffffffffffffff16815260200190815260200160002054815260200190815260200160002060010154600560006001548152602001908152602001600020600801600060056000600154815260200190815260200160002060090160008773ffffffffffffffffffffffffffffffffffffffff1673ffffffffffffffffffffffffffffffffffffffff1681526020019081526020016000205481526020019081526020016000206002015491509150915091565b600060604260056000600154815260200190815260200160002060070154111591509250929050565b6000600460003373ffffffffffffffffffffffffffffffffffffffff1673ffffffffffffffffffffffffffffffffffffffff1681526020019081526020016000205411610c34576040517f08c379a0000000000000000000000000000000000000000000000000000000008152600401610c2b90612b66565b60405180910390fd5b610c7d33600460003373ffffffffffffffffffffffffffffffffffffffff1673ffffffffffffffffffffffffffffffffffffffff16815260200190815260200160002054610f4a565b6000600460003373ffffffffffffffffffffffffffffffffffffffff1673ffffffffffffffffffffffffffffffffffffffff16815260200190815260200160002081905550565b600360009054906101000a900473ffffffffffffffffffffffffffffffffffffffff1681565b600360009054906101000a900473ffffffffffffffffffffffffffffffffffffffff1673ffffffffffffffffffffffffffffffffffffffff163373ffffffffffffffffffffffffffffffffffffffff1614610d7a576040517f08c379a0000000000000000000000000000000000000000000000000000000008152600401610d7190612cc6565b60405180910390fd5b610d82610da3565b565b60007601357c299a88ea76a58924d52ce4f26a85af186c2b9e74905090565b6000610dad610ffe565b14610ded576040517f08c379a0000000000000000000000000000000000000000000000000000000008152600401610de490612b26565b60405180910390fd5b60006005600060015481526020019081526020016000206005015414610e1657610e15611052565b5b6001806000828254610e289190612deb565b92505081905550600154600560006001548152602001908152602001600020600001819055506002546005600060015481526020019081526020016000206001018190555066038d7ea4c680006005600060015481526020019081526020016000206002018190555060006005600060015481526020019081526020016000206003018190555060006005600060015481526020019081526020016000206004018190555060006005600060015481526020019081526020016000206005018190555042600560006001548152602001908152602001600020600601819055506005600060015481526020019081526020016000206001015442610f2c9190612deb565b60056000600154815260200190815260200160002060070181905550565b6000808373ffffffffffffffffffffffffffffffffffffffff1683604051610f719061293f565b60006040518083038185875af1925050503d8060008114610fae576040519150601f19603f3d011682016040523d82523d6000602084013e610fb3565b606091505b509150915081610ff8576040517f08c379a0000000000000000000000000000000000000000000000000000000008152600401610fef90612ae6565b60405180910390fd5b50505050565b6000426005600060015481526020019081526020016000206007015411611028576000905061104f565b426005600060015481526020019081526020016000206007015461104c9190612ecc565b90505b90565b6110a96040518060400160405280601a81526020017f506179696e67206f75742077696e6e657273206f662067616d65000000000000815250600560006001548152602001908152602001600020600001546119b8565b60008060006110b86000610656565b9050600080600190505b6005600060015481526020019081526020016000206005015481116111a35760056000600154815260200190815260200160002060040154600560006001548152602001908152602001600020600801600083815260200190815260200160002060010154101561117b5760018561113a9190612deb565b9450600560006001548152602001908152602001600020600801600082815260200190815260200160002060010154826111749190612deb565b9150611190565b61118d8361118883611a54565b611b3b565b92505b808061119b90612f8d565b9150506110c2565b506111e36040518060400160405280600b81526020017f6e756d4c6f736572733a20000000000000000000000000000000000000000000815250856119b8565b6112226040518060400160405280600b81526020017f6c6f73657273506f743a20000000000000000000000000000000000000000000815250826119b8565b83600560006001548152602001908152602001600020600501546112469190612ecc565b92506112876040518060400160405280600c81526020017f6e756d57696e6e6572733a200000000000000000000000000000000000000000815250846119b8565b60008314156112d7576112ce6040518060400160405280600a81526020017f4e6f2077696e6e65727300000000000000000000000000000000000000000000815250611bba565b505050506119b6565b6000600190505b60056000600154815260200190815260200160002060050154811161183257600560006001548152602001908152602001600020600401546005600060015481526020019081526020016000206008016000838152602001908152602001600020600101541061181f576113bd6040518060400160405280601b81526020017f2d2d2d2d2d2d2d2d2d2d2d2d2057696e6e657220506c61796572200000000000815250826040518060400160405280600d81526020017f202d2d2d2d2d2d2d2d2d2d2d2d00000000000000000000000000000000000000815250611c53565b60008083146114505761144d6114486114376113d886611cf2565b6114326114246005600060015481526020019081526020016000206008016000898152602001908152602001600020600301604051806020016040529081600082015481525050611d10565b61142d8a611d10565b611d1e565b611d54565b61144360636064611d1e565b611d54565b611d10565b90505b60008160056000600154815260200190815260200160002060080160008581526020019081526020016000206001015461148a9190612deb565b90506114f76040518060400160405280600581526020017f6265743a200000000000000000000000000000000000000000000000000000008152506005600060015481526020019081526020016000206008016000868152602001908152602001600020600101546119b8565b6115656040518060400160405280600d81526020017f63757276655765696768743a20000000000000000000000000000000000000008152506005600060015481526020019081526020016000206008016000868152602001908152602001600020600301600001546119b8565b6115a86040518060400160405280601c81526020017f77696e6e657273546f74616c437572766557656967687453756d3a200000000081525086600001516119b8565b6115e76040518060400160405280601981526020017f77696e6e696e67732066726f6d206c6f73657220706f743a2000000000000000815250836119b8565b6116266040518060400160405280600881526020017f7061796f75743a20000000000000000000000000000000000000000000000000815250826119b8565b8060046000600560006001548152602001908152602001600020600801600087815260200190815260200160002060000160009054906101000a900473ffffffffffffffffffffffffffffffffffffffff1673ffffffffffffffffffffffffffffffffffffffff1673ffffffffffffffffffffffffffffffffffffffff16815260200190815260200160002060008282546116c19190612deb565b925050819055508060056000600154815260200190815260200160002060030160008282546116f09190612ecc565b92505081905550600560006001548152602001908152602001600020600801600084815260200190815260200160002060000160009054906101000a900473ffffffffffffffffffffffffffffffffffffffff1673ffffffffffffffffffffffffffffffffffffffff167f5afeca38b2064c23a692c4cf353015d80ab3ecc417b4f893f372690c11fbd9a6826040516117899190612ce6565b60405180910390a261181c6040518060400160405280601081526020017f5061796f75742073656e7420746f3a2000000000000000000000000000000000815250600560006001548152602001908152602001600020600801600086815260200190815260200160002060000160009054906101000a900473ffffffffffffffffffffffffffffffffffffffff166120ed565b50505b808061182a90612f8d565b9150506112de565b5061188a6040518060400160405280600581526020017f506f743a20000000000000000000000000000000000000000000000000000000815250600560006001548152602001908152602001600020600301546119b8565b600060056000600154815260200190815260200160002060030154111561199b57600060056000600154815260200190815260200160002060030181905550600360009054906101000a900473ffffffffffffffffffffffffffffffffffffffff1673ffffffffffffffffffffffffffffffffffffffff167f5afeca38b2064c23a692c4cf353015d80ab3ecc417b4f893f372690c11fbd9a6346040516119319190612ce6565b60405180910390a261199a6040518060400160405280601881526020017f52656d61696e696e6720706f7420737765707420746f3a200000000000000000815250600360009054906101000a900473ffffffffffffffffffffffffffffffffffffffff166120ed565b5b60009350600092506119ab612494565b915060009050505050505b565b611a5082826040516024016119ce9291906129f1565b6040516020818303038152906040527f9710a9d0000000000000000000000000000000000000000000000000000000007bffffffffffffffffffffffffffffffffffffffffffffffffffffffff19166020820180517bffffffffffffffffffffffffffffffffffffffffffffffffffffffff8381831617835250505050612189565b5050565b611a5c612494565b60018210158015611a855750600560006001548152602001908152602001600020600501548211155b611ac4576040517f08c379a0000000000000000000000000000000000000000000000000000000008152600401611abb90612be6565b60405180910390fd5b6000611ae88360056000600154815260200190815260200160002060050154611d1e565b90506000611af5826121b2565b9050806005600060015481526020019081526020016000206008016000868152602001908152602001600020600301600082015181600001559050508092505050919050565b611b43612494565b600082600001518460000151611b599190612deb565b90508360000151811015611ba2576040517f08c379a0000000000000000000000000000000000000000000000000000000008152600401611b9990612c26565b60405180910390fd5b60405180602001604052808281525091505092915050565b611c5081604051602401611bce919061299f565b6040516020818303038152906040527f41304fac000000000000000000000000000000000000000000000000000000007bffffffffffffffffffffffffffffffffffffffffffffffffffffffff19166020820180517bffffffffffffffffffffffffffffffffffffffffffffffffffffffff8381831617835250505050612189565b50565b611ced838383604051602401611c6b93929190612a21565b6040516020818303038152906040527fa3f5c739000000000000000000000000000000000000000000000000000000007bffffffffffffffffffffffffffffffffffffffffffffffffffffffff19166020820180517bffffffffffffffffffffffffffffffffffffffffffffffffffffffff8381831617835250505050612189565b505050565b611cfa612494565b6040518060200160405280838152509050919050565b600081600001519050919050565b611d26612494565b6000611d3184610656565b90506000611d3e84610656565b9050611d4a828261224b565b9250505092915050565b611d5c612494565b600083600001511480611d73575060008260000151145b15611d8f576040518060200160405280600081525090506120e7565b69d3c21bcecceda100000082600001511415611dad578290506120e7565b69d3c21bcecceda100000083600001511415611dcb578190506120e7565b600069d3c21bcecceda1000000611de18561233b565b60000151611def9190612e41565b90506000611dfc8561237d565b600001519050600069d3c21bcecceda1000000611e188661233b565b60000151611e269190612e41565b90506000611e338661237d565b60000151905060008285611e479190612e72565b905060008514611e9f57828582611e5e9190612e41565b14611e9e576040517f08c379a0000000000000000000000000000000000000000000000000000000008152600401611e9590612a66565b60405180910390fd5b5b600069d3c21bcecceda100000082611eb79190612e72565b905060008214611f195769d3c21bcecceda10000008282611ed89190612e41565b14611f18576040517f08c379a0000000000000000000000000000000000000000000000000000000008152600401611f0f90612c46565b60405180910390fd5b5b80915060008486611f2a9190612e72565b905060008614611f8257848682611f419190612e41565b14611f81576040517f08c379a0000000000000000000000000000000000000000000000000000000008152600401611f7890612c86565b60405180910390fd5b5b60008488611f909190612e72565b905060008814611fe857848882611fa79190612e41565b14611fe7576040517f08c379a0000000000000000000000000000000000000000000000000000000008152600401611fde90612c06565b60405180910390fd5b5b611ff06123ce565b87611ffb9190612e41565b96506120056123ce565b856120109190612e41565b9450600085886120209190612e72565b905060008814612078578588826120379190612e41565b14612077576040517f08c379a000000000000000000000000000000000000000000000000000000000815260040161206e90612aa6565b60405180910390fd5b5b600060405180602001604052808781525090506120a381604051806020016040528087815250611b3b565b90506120bd81604051806020016040528086815250611b3b565b90506120d781604051806020016040528085815250611b3b565b9050809a50505050505050505050505b92915050565b61218582826040516024016121039291906129c1565b6040516020818303038152906040527f319af333000000000000000000000000000000000000000000000000000000007bffffffffffffffffffffffffffffffffffffffffffffffffffffffff19166020820180517bffffffffffffffffffffffffffffffffffffffffffffffffffffffff8381831617835250505050612189565b5050565b60008151905060006a636f6e736f6c652e6c6f679050602083016000808483855afa5050505050565b6121ba612494565b60008260000151101580156121dc57506121db826121d66123db565b612401565b5b61221b576040517f08c379a000000000000000000000000000000000000000000000000000000000815260040161221290612c66565b60405180910390fd5b600061223061222a8485611d54565b84611d54565b905061224361223d6123db565b82612417565b915050919050565b612253612494565b60008260000151141561229b576040517f08c379a000000000000000000000000000000000000000000000000000000000815260040161229290612ac6565b60405180910390fd5b600069d3c21bcecceda100000084600001516122b79190612e72565b9050836000015169d3c21bcecceda1000000826122d49190612e41565b14612314576040517f08c379a000000000000000000000000000000000000000000000000000000000815260040161230b90612ba6565b60405180910390fd5b604051806020016040528084600001518361232f9190612e41565b81525091505092915050565b612343612494565b604051806020016040528069d3c21bcecceda10000008085600001516123699190612e41565b6123739190612e72565b8152509050919050565b612385612494565b604051806020016040528069d3c21bcecceda10000008085600001516123ab9190612e41565b6123b59190612e72565b84600001516123c49190612ecc565b8152509050919050565b600064e8d4a51000905090565b6123e3612494565b604051806020016040528069d3c21bcecceda1000000815250905090565b6000816000015183600001511115905092915050565b61241f612494565b81600001518360000151101561246a576040517f08c379a000000000000000000000000000000000000000000000000000000000815260040161246190612a86565b60405180910390fd5b6040518060200160405280836000015185600001516124899190612ecc565b815250905092915050565b6040518060200160405280600081525090565b6000813590506124b6816133c8565b92915050565b60008083601f8401126124ce57600080fd5b8235905067ffffffffffffffff8111156124e757600080fd5b6020830191508360018202830111156124ff57600080fd5b9250929050565b600081359050612515816133df565b92915050565b60006020828403121561252d57600080fd5b600061253b848285016124a7565b91505092915050565b6000806020838503121561255757600080fd5b600083013567ffffffffffffffff81111561257157600080fd5b61257d858286016124bc565b92509250509250929050565b60006020828403121561259b57600080fd5b60006125a984828501612506565b91505092915050565b6125bb81612f12565b82525050565b6125ca81612f00565b82525050565b6125d981612f24565b82525050565b60006125ea82612da8565b6125f48185612dbe565b9350612604818560208601612f5a565b61260d81613034565b840191505092915050565b600061262382612db3565b61262d8185612dda565b935061263d818560208601612f5a565b61264681613034565b840191505092915050565b600061265e601683612dda565b915061266982613045565b602082019050919050565b6000612681601f83612dda565b915061268c8261306e565b602082019050919050565b60006126a4601683612dda565b91506126af82613097565b602082019050919050565b60006126c7601183612dda565b91506126d2826130c0565b602082019050919050565b60006126ea601483612dda565b91506126f5826130e9565b602082019050919050565b600061270d603683612dda565b915061271882613112565b604082019050919050565b6000612730601483612dda565b915061273b82613161565b602082019050919050565b6000612753603c83612dda565b915061275e8261318a565b604082019050919050565b6000612776601483612dda565b9150612781826131d9565b602082019050919050565b6000612799601283612dda565b91506127a482613202565b602082019050919050565b60006127bc601283612dda565b91506127c78261322b565b602082019050919050565b60006127df601b83612dda565b91506127ea82613254565b602082019050919050565b6000612802601a83612dda565b915061280d8261327d565b602082019050919050565b6000612825601683612dda565b9150612830826132a6565b602082019050919050565b6000612848600083612dcf565b9150612853826132cf565b600082019050919050565b600061286b601583612dda565b9150612876826132d2565b602082019050919050565b600061288e601f83612dda565b9150612899826132fb565b602082019050919050565b60006128b1601383612dda565b91506128bc82613324565b602082019050919050565b60006128d4601683612dda565b91506128df8261334d565b602082019050919050565b60006128f7601983612dda565b915061290282613376565b602082019050919050565b600061291a601683612dda565b91506129258261339f565b602082019050919050565b61293981612f50565b82525050565b600061294a8261283b565b9150819050919050565b600060208201905061296960008301846125b2565b92915050565b600060408201905061298460008301856125d0565b818103602083015261299681846125df565b90509392505050565b600060208201905081810360008301526129b98184612618565b905092915050565b600060408201905081810360008301526129db8185612618565b90506129ea60208301846125c1565b9392505050565b60006040820190508181036000830152612a0b8185612618565b9050612a1a6020830184612930565b9392505050565b60006060820190508181036000830152612a3b8186612618565b9050612a4a6020830185612930565b8181036040830152612a5c8184612618565b9050949350505050565b60006020820190508181036000830152612a7f81612651565b9050919050565b60006020820190508181036000830152612a9f81612674565b9050919050565b60006020820190508181036000830152612abf81612697565b9050919050565b60006020820190508181036000830152612adf816126ba565b9050919050565b60006020820190508181036000830152612aff816126dd565b9050919050565b60006020820190508181036000830152612b1f81612700565b9050919050565b60006020820190508181036000830152612b3f81612723565b9050919050565b60006020820190508181036000830152612b5f81612746565b9050919050565b60006020820190508181036000830152612b7f81612769565b9050919050565b60006020820190508181036000830152612b9f8161278c565b9050919050565b60006020820190508181036000830152612bbf816127af565b9050919050565b60006020820190508181036000830152612bdf816127d2565b9050919050565b60006020820190508181036000830152612bff816127f5565b9050919050565b60006020820190508181036000830152612c1f81612818565b9050919050565b60006020820190508181036000830152612c3f8161285e565b9050919050565b60006020820190508181036000830152612c5f81612881565b9050919050565b60006020820190508181036000830152612c7f816128a4565b9050919050565b60006020820190508181036000830152612c9f816128c7565b9050919050565b60006020820190508181036000830152612cbf816128ea565b9050919050565b60006020820190508181036000830152612cdf8161290d565b9050919050565b6000602082019050612cfb6000830184612930565b92915050565b6000604082019050612d166000830185612930565b612d236020830184612930565b9392505050565b600061010082019050612d40600083018b612930565b612d4d602083018a612930565b612d5a6040830189612930565b612d676060830188612930565b612d746080830187612930565b612d8160a0830186612930565b612d8e60c0830185612930565b612d9b60e0830184612930565b9998505050505050505050565b600081519050919050565b600081519050919050565b600082825260208201905092915050565b600081905092915050565b600082825260208201905092915050565b6000612df682612f50565b9150612e0183612f50565b9250827fffffffffffffffffffffffffffffffffffffffffffffffffffffffffffffffff03821115612e3657612e35612fd6565b5b828201905092915050565b6000612e4c82612f50565b9150612e5783612f50565b925082612e6757612e66613005565b5b828204905092915050565b6000612e7d82612f50565b9150612e8883612f50565b9250817fffffffffffffffffffffffffffffffffffffffffffffffffffffffffffffffff0483118215151615612ec157612ec0612fd6565b5b828202905092915050565b6000612ed782612f50565b9150612ee283612f50565b925082821015612ef557612ef4612fd6565b5b828203905092915050565b6000612f0b82612f30565b9050919050565b6000612f1d82612f30565b9050919050565b60008115159050919050565b600073ffffffffffffffffffffffffffffffffffffffff82169050919050565b6000819050919050565b60005b83811015612f78578082015181840152602081019050612f5d565b83811115612f87576000848401525b50505050565b6000612f9882612f50565b91507fffffffffffffffffffffffffffffffffffffffffffffffffffffffffffffffff821415612fcb57612fca612fd6565b5b600182019050919050565b7f4e487b7100000000000000000000000000000000000000000000000000000000600052601160045260246000fd5b7f4e487b7100000000000000000000000000000000000000000000000000000000600052601260045260246000fd5b6000601f19601f8301169050919050565b7f6f766572666c6f77207831793120646574656374656400000000000000000000600082015250565b7f737562737472616374696f6e20756e646572666c6f7720646574656374656400600082015250565b7f6f766572666c6f77207832793220646574656374656400000000000000000000600082015250565b7f63616e2774206469766964652062792030000000000000000000000000000000600082015250565b7f4661696c656420746f2073656e64204574686572000000000000000000000000600082015250565b7f63616e277420637265617465206669786964697479206e756d626572206c617260008201527f676572207468616e206d61784e65774669786564282900000000000000000000602082015250565b7f47616d65206973206e6f74206f76657220796574000000000000000000000000600082015250565b7f4465706f736974206d7573742062652067726561746572207468616e206f722060008201527f657175616c20746f20746865206d696e696d756d206465706f73697400000000602082015250565b7f596f752068617665206e6f2077696e6e696e6773000000000000000000000000600082015250565b7f5468652067616d652068617320656e6465640000000000000000000000000000600082015250565b7f6f766572666c6f77206174206469766964650000000000000000000000000000600082015250565b7f596f752061726520616c726561647920696e207468652067616d650000000000600082015250565b7f506c6179657220696e646578206f7574206f6620626f756e6473000000000000600082015250565b7f6f766572666c6f77207831793220646574656374656400000000000000000000600082015250565b50565b7f616464206f766572666c6f772064657465637465640000000000000000000000600082015250565b7f6f766572666c6f772078317931202a2066697865643120646574656374656400600082015250565b7f496e646578206f7574206f6620626f756e647300000000000000000000000000600082015250565b7f6f766572666c6f77207832793120646574656374656400000000000000000000600082015250565b7f506c61796572206973206e6f7420696e207468652067616d6500000000000000600082015250565b7f53656e646572206e6f7420617574686f72697a65642e00000000000000000000600082015250565b6133d181612f00565b81146133dc57600080fd5b50565b6133e881612f50565b81146133f357600080fd5b5056fea26469706673582212207bd58c24fe7e958c514b3d8defd3464829e38843c96974d38e7fecc3b7ed3fa764736f6c63430008040033",
  "linkReferences": {},
  "deployedLinkReferences": {}
}