{
	"data": {
		"bytecode": {
			"linkReferences": {},
			"object": "60806040526000600155620f4240600255600160008190555033600360006101000a81548173ffffffffffffffffffffffffffffffffffffffff021916908373ffffffffffffffffffffffffffffffffffffffff16021790555060015460056000600154815260200190815260200160002060000181905550600f6005600060015481526020019081526020016000206001018190555066038d7ea4c68000600560006001548152602001908152602001600020600201819055506000600560006001548152602001908152602001600020600301819055506000600560006001548152602001908152602001600020600401819055506000600560006001548152602001908152602001600020600501819055504260056000600154815260200190815260200160002060060181905550600560006001548152602001908152602001600020600101544262000157919062000179565b600560006001548152602001908152602001600020600701819055506200020f565b60006200018682620001d6565b91506200019383620001d6565b9250827fffffffffffffffffffffffffffffffffffffffffffffffffffffffffffffffff03821115620001cb57620001ca620001e0565b5b828201905092915050565b6000819050919050565b7f4e487b7100000000000000000000000000000000000000000000000000000000600052601160045260246000fd5b612e40806200021f6000396000f3fe6080604052600436106100a05760003560e01c80637d065c93116100645780637d065c93146105415780638da5cb5b1461054b578063940ebef714610576578063ad99014c146105a1578063c1ace04b146105cc578063c59580a3146105f757610477565b8063038ce42d1461047957806312065fe01461049057806316105405146104bb5780631746bd1b146104e65780632e1a7d4d1461051857610477565b366104775760056000600154815260200190815260200160002060020154341015610100576040517f08c379a00000000000000000000000000000000000000000000000000000000081526004016100f790612626565b60405180910390fd5b600060056000600154815260200190815260200160002060090160003373ffffffffffffffffffffffffffffffffffffffff1673ffffffffffffffffffffffffffffffffffffffff1681526020019081526020016000205414610198576040517f08c379a000000000000000000000000000000000000000000000000000000000815260040161018f906126a6565b60405180910390fd5b4260056000600154815260200190815260200160002060070154116101f2576040517f08c379a00000000000000000000000000000000000000000000000000000000081526004016101e990612666565b60405180910390fd5b60405180608001604052803373ffffffffffffffffffffffffffffffffffffffff16815260200134815260200142815260200161022f6000610622565b81525060056000600154815260200190815260200160002060080160006001600560006001548152602001908152602001600020600501546102719190612846565b815260200190815260200160002060008201518160000160006101000a81548173ffffffffffffffffffffffffffffffffffffffff021916908373ffffffffffffffffffffffffffffffffffffffff16021790555060208201518160010155604082015181600201556060820151816003016000820151816000015550509050506001600560006001548152602001908152602001600020600501546103179190612846565b60056000600154815260200190815260200160002060090160003373ffffffffffffffffffffffffffffffffffffffff1673ffffffffffffffffffffffffffffffffffffffff16815260200190815260200160002081905550600160056000600154815260200190815260200160002060050160008282546103999190612846565b925050819055503460056000600154815260200190815260200160002060030160008282546103c89190612846565b92505081905550600560006001548152602001908152602001600020600501546005600060015481526020019081526020016000206003015461040b919061289c565b600560006001548152602001908152602001600020600401819055503373ffffffffffffffffffffffffffffffffffffffff167fe1fffcc4923d04b559f4d29a8bfc6cda04eb5b0d3c460751c2402c5c5cc9109c3460405161046d9190612786565b60405180910390a2005b005b34801561048557600080fd5b5061048e61069f565b005b34801561049c57600080fd5b506104a5610824565b6040516104b29190612786565b60405180910390f35b3480156104c757600080fd5b506104d061082c565b6040516104dd9190612786565b60405180910390f35b3480156104f257600080fd5b506104fb610831565b60405161050f9897969594939291906127a1565b60405180910390f35b34801561052457600080fd5b5061053f600480360381019061053a91906120e0565b61091f565b005b610549610a47565b005b34801561055757600080fd5b50610560610b14565b60405161056d9190612444565b60405180910390f35b34801561058257600080fd5b5061058b610b3a565b6040516105989190612786565b60405180910390f35b3480156105ad57600080fd5b506105b6610b8e565b6040516105c39190612786565b60405180910390f35b3480156105d857600080fd5b506105e1610b93565b6040516105ee9190612786565b60405180910390f35b34801561060357600080fd5b5061060c610b9e565b6040516106199190612786565b60405180910390f35b61062a6120b8565b610632610ba3565b821115610674576040517f08c379a000000000000000000000000000000000000000000000000000000000815260040161066b906125c6565b60405180910390fd5b604051806020016040528069d3c21bcecceda10000008461069591906128cd565b8152509050919050565b60006106a9610b3a565b146106e9576040517f08c379a00000000000000000000000000000000000000000000000000000000081526004016106e0906125e6565b60405180910390fd5b6106f1610bc2565b60018060008282546107039190612846565b9250508190555060015460056000600154815260200190815260200160002060000181905550600f6005600060015481526020019081526020016000206001018190555066038d7ea4c6800060056000600154815260200190815260200160002060020181905550600060056000600154815260200190815260200160002060030181905550600060056000600154815260200190815260200160002060040181905550600060056000600154815260200190815260200160002060050181905550426005600060015481526020019081526020016000206006018190555060056000600154815260200190815260200160002060010154426108069190612846565b60056000600154815260200190815260200160002060070181905550565b600047905090565b600081565b6000806000806000806000806005600060015481526020019081526020016000206000015460056000600154815260200190815260200160002060010154600560006001548152602001908152602001600020600201546005600060015481526020019081526020016000206003015460056000600154815260200190815260200160002060040154600560006001548152602001908152602001600020600501546005600060015481526020019081526020016000206006015460056000600154815260200190815260200160002060070154975097509750975097509750975097509091929394959697565b600360009054906101000a900473ffffffffffffffffffffffffffffffffffffffff1673ffffffffffffffffffffffffffffffffffffffff163373ffffffffffffffffffffffffffffffffffffffff16146109af576040517f08c379a00000000000000000000000000000000000000000000000000000000081526004016109a690612606565b60405180910390fd5b3373ffffffffffffffffffffffffffffffffffffffff166108fc829081150290604051600060405180830381858888f193505050501580156109f5573d6000803e3d6000fd5b503373ffffffffffffffffffffffffffffffffffffffff167f884edad9ce6fa2440d8a54cc123490eb96d2768479d49ff9c7366125a942436482604051610a3c9190612786565b60405180910390a250565b6000600460003373ffffffffffffffffffffffffffffffffffffffff1673ffffffffffffffffffffffffffffffffffffffff1681526020019081526020016000205411610ac9576040517f08c379a0000000000000000000000000000000000000000000000000000000008152600401610ac090612646565b60405180910390fd5b610b1233600460003373ffffffffffffffffffffffffffffffffffffffff1673ffffffffffffffffffffffffffffffffffffffff16815260200190815260200160002054611528565b565b600360009054906101000a900473ffffffffffffffffffffffffffffffffffffffff1681565b6000426005600060015481526020019081526020016000206007015411610b645760009050610b8b565b4260056000600154815260200190815260200160002060070154610b889190612927565b90505b90565b600081565b66038d7ea4c6800081565b600081565b60007601357c299a88ea76a58924d52ce4f26a85af186c2b9e74905090565b610c196040518060400160405280601a81526020017f506179696e67206f75742077696e6e657273206f662067616d65000000000000815250600560006001548152602001908152602001600020600001546115dc565b6000806000610c286000610622565b9050600080600190505b600560006001548152602001908152602001600020600501548111610d1357600560006001548152602001908152602001600020600401546005600060015481526020019081526020016000206008016000838152602001908152602001600020600101541015610ceb57600185610caa9190612846565b945060056000600154815260200190815260200160002060080160008281526020019081526020016000206001015482610ce49190612846565b9150610d00565b610cfd83610cf883611678565b61175f565b92505b8080610d0b906129dc565b915050610c32565b50610d536040518060400160405280600b81526020017f6e756d4c6f736572733a20000000000000000000000000000000000000000000815250856115dc565b610d926040518060400160405280600b81526020017f6c6f73657273506f743a20000000000000000000000000000000000000000000815250826115dc565b8360056000600154815260200190815260200160002060050154610db69190612927565b9250610df76040518060400160405280600c81526020017f6e756d57696e6e6572733a200000000000000000000000000000000000000000815250846115dc565b6000831415610e4757610e3e6040518060400160405280600a81526020017f4e6f2077696e6e657273000000000000000000000000000000000000000000008152506117de565b50505050611526565b6000600190505b6005600060015481526020019081526020016000206005015481116113a257600560006001548152602001908152602001600020600401546005600060015481526020019081526020016000206008016000838152602001908152602001600020600101541061138f57610f2d6040518060400160405280601b81526020017f2d2d2d2d2d2d2d2d2d2d2d2d2057696e6e657220506c61796572200000000000815250826040518060400160405280600d81526020017f202d2d2d2d2d2d2d2d2d2d2d2d00000000000000000000000000000000000000815250611877565b6000808314610fc057610fbd610fb8610fa7610f4886611916565b610fa2610f946005600060015481526020019081526020016000206008016000898152602001908152602001600020600301604051806020016040529081600082015481525050611934565b610f9d8a611934565b611942565b611978565b610fb360636064611942565b611978565b611934565b90505b600081600560006001548152602001908152602001600020600801600085815260200190815260200160002060010154610ffa9190612846565b90506110676040518060400160405280600581526020017f6265743a200000000000000000000000000000000000000000000000000000008152506005600060015481526020019081526020016000206008016000868152602001908152602001600020600101546115dc565b6110d56040518060400160405280600d81526020017f63757276655765696768743a20000000000000000000000000000000000000008152506005600060015481526020019081526020016000206008016000868152602001908152602001600020600301600001546115dc565b6111186040518060400160405280601c81526020017f77696e6e657273546f74616c437572766557656967687453756d3a200000000081525086600001516115dc565b6111576040518060400160405280601981526020017f77696e6e696e67732066726f6d206c6f73657220706f743a2000000000000000815250836115dc565b6111966040518060400160405280600881526020017f7061796f75743a20000000000000000000000000000000000000000000000000815250826115dc565b8060046000600560006001548152602001908152602001600020600801600087815260200190815260200160002060000160009054906101000a900473ffffffffffffffffffffffffffffffffffffffff1673ffffffffffffffffffffffffffffffffffffffff1673ffffffffffffffffffffffffffffffffffffffff16815260200190815260200160002060008282546112319190612846565b925050819055508060056000600154815260200190815260200160002060030160008282546112609190612927565b92505081905550600560006001548152602001908152602001600020600801600084815260200190815260200160002060000160009054906101000a900473ffffffffffffffffffffffffffffffffffffffff1673ffffffffffffffffffffffffffffffffffffffff167f5afeca38b2064c23a692c4cf353015d80ab3ecc417b4f893f372690c11fbd9a6826040516112f99190612786565b60405180910390a261138c6040518060400160405280601081526020017f5061796f75742073656e7420746f3a2000000000000000000000000000000000815250600560006001548152602001908152602001600020600801600086815260200190815260200160002060000160009054906101000a900473ffffffffffffffffffffffffffffffffffffffff16611d11565b50505b808061139a906129dc565b915050610e4e565b506113fa6040518060400160405280600581526020017f506f743a20000000000000000000000000000000000000000000000000000000815250600560006001548152602001908152602001600020600301546115dc565b600060056000600154815260200190815260200160002060030154111561150b57600060056000600154815260200190815260200160002060030181905550600360009054906101000a900473ffffffffffffffffffffffffffffffffffffffff1673ffffffffffffffffffffffffffffffffffffffff167f5afeca38b2064c23a692c4cf353015d80ab3ecc417b4f893f372690c11fbd9a6346040516114a19190612786565b60405180910390a261150a6040518060400160405280601881526020017f52656d61696e696e6720706f7420737765707420746f3a200000000000000000815250600360009054906101000a900473ffffffffffffffffffffffffffffffffffffffff16611d11565b5b600093506000925061151b6120b8565b915060009050505050505b565b6000808373ffffffffffffffffffffffffffffffffffffffff168360405161154f9061242f565b60006040518083038185875af1925050503d806000811461158c576040519150601f19603f3d011682016040523d82523d6000602084013e611591565b606091505b5091509150816115d6576040517f08c379a00000000000000000000000000000000000000000000000000000000081526004016115cd906125a6565b60405180910390fd5b50505050565b61167482826040516024016115f29291906124b1565b6040516020818303038152906040527f9710a9d0000000000000000000000000000000000000000000000000000000007bffffffffffffffffffffffffffffffffffffffffffffffffffffffff19166020820180517bffffffffffffffffffffffffffffffffffffffffffffffffffffffff8381831617835250505050611dad565b5050565b6116806120b8565b600182101580156116a95750600560006001548152602001908152602001600020600501548211155b6116e8576040517f08c379a00000000000000000000000000000000000000000000000000000000081526004016116df906126c6565b60405180910390fd5b600061170c8360056000600154815260200190815260200160002060050154611942565b9050600061171982611dd6565b9050806005600060015481526020019081526020016000206008016000868152602001908152602001600020600301600082015181600001559050508092505050919050565b6117676120b8565b60008260000151846000015161177d9190612846565b905083600001518110156117c6576040517f08c379a00000000000000000000000000000000000000000000000000000000081526004016117bd90612706565b60405180910390fd5b60405180602001604052808281525091505092915050565b611874816040516024016117f2919061245f565b6040516020818303038152906040527f41304fac000000000000000000000000000000000000000000000000000000007bffffffffffffffffffffffffffffffffffffffffffffffffffffffff19166020820180517bffffffffffffffffffffffffffffffffffffffffffffffffffffffff8381831617835250505050611dad565b50565b61191183838360405160240161188f939291906124e1565b6040516020818303038152906040527fa3f5c739000000000000000000000000000000000000000000000000000000007bffffffffffffffffffffffffffffffffffffffffffffffffffffffff19166020820180517bffffffffffffffffffffffffffffffffffffffffffffffffffffffff8381831617835250505050611dad565b505050565b61191e6120b8565b6040518060200160405280838152509050919050565b600081600001519050919050565b61194a6120b8565b600061195584610622565b9050600061196284610622565b905061196e8282611e6f565b9250505092915050565b6119806120b8565b600083600001511480611997575060008260000151145b156119b357604051806020016040528060008152509050611d0b565b69d3c21bcecceda1000000826000015114156119d157829050611d0b565b69d3c21bcecceda1000000836000015114156119ef57819050611d0b565b600069d3c21bcecceda1000000611a0585611f5f565b60000151611a13919061289c565b90506000611a2085611fa1565b600001519050600069d3c21bcecceda1000000611a3c86611f5f565b60000151611a4a919061289c565b90506000611a5786611fa1565b60000151905060008285611a6b91906128cd565b905060008514611ac357828582611a82919061289c565b14611ac2576040517f08c379a0000000000000000000000000000000000000000000000000000000008152600401611ab990612526565b60405180910390fd5b5b600069d3c21bcecceda100000082611adb91906128cd565b905060008214611b3d5769d3c21bcecceda10000008282611afc919061289c565b14611b3c576040517f08c379a0000000000000000000000000000000000000000000000000000000008152600401611b3390612726565b60405180910390fd5b5b80915060008486611b4e91906128cd565b905060008614611ba657848682611b65919061289c565b14611ba5576040517f08c379a0000000000000000000000000000000000000000000000000000000008152600401611b9c90612766565b60405180910390fd5b5b60008488611bb491906128cd565b905060008814611c0c57848882611bcb919061289c565b14611c0b576040517f08c379a0000000000000000000000000000000000000000000000000000000008152600401611c02906126e6565b60405180910390fd5b5b611c14611ff2565b87611c1f919061289c565b9650611c29611ff2565b85611c34919061289c565b945060008588611c4491906128cd565b905060008814611c9c57858882611c5b919061289c565b14611c9b576040517f08c379a0000000000000000000000000000000000000000000000000000000008152600401611c9290612566565b60405180910390fd5b5b60006040518060200160405280878152509050611cc78160405180602001604052808781525061175f565b9050611ce18160405180602001604052808681525061175f565b9050611cfb8160405180602001604052808581525061175f565b9050809a50505050505050505050505b92915050565b611da98282604051602401611d27929190612481565b6040516020818303038152906040527f319af333000000000000000000000000000000000000000000000000000000007bffffffffffffffffffffffffffffffffffffffffffffffffffffffff19166020820180517bffffffffffffffffffffffffffffffffffffffffffffffffffffffff8381831617835250505050611dad565b5050565b60008151905060006a636f6e736f6c652e6c6f679050602083016000808483855afa5050505050565b611dde6120b8565b6000826000015110158015611e005750611dff82611dfa611fff565b612025565b5b611e3f576040517f08c379a0000000000000000000000000000000000000000000000000000000008152600401611e3690612746565b60405180910390fd5b6000611e54611e4e8485611978565b84611978565b9050611e67611e61611fff565b8261203b565b915050919050565b611e776120b8565b600082600001511415611ebf576040517f08c379a0000000000000000000000000000000000000000000000000000000008152600401611eb690612586565b60405180910390fd5b600069d3c21bcecceda10000008460000151611edb91906128cd565b9050836000015169d3c21bcecceda100000082611ef8919061289c565b14611f38576040517f08c379a0000000000000000000000000000000000000000000000000000000008152600401611f2f90612686565b60405180910390fd5b6040518060200160405280846000015183611f53919061289c565b81525091505092915050565b611f676120b8565b604051806020016040528069d3c21bcecceda1000000808560000151611f8d919061289c565b611f9791906128cd565b8152509050919050565b611fa96120b8565b604051806020016040528069d3c21bcecceda1000000808560000151611fcf919061289c565b611fd991906128cd565b8460000151611fe89190612927565b8152509050919050565b600064e8d4a51000905090565b6120076120b8565b604051806020016040528069d3c21bcecceda1000000815250905090565b6000816000015183600001511115905092915050565b6120436120b8565b81600001518360000151101561208e576040517f08c379a000000000000000000000000000000000000000000000000000000000815260040161208590612546565b60405180910390fd5b6040518060200160405280836000015185600001516120ad9190612927565b815250905092915050565b6040518060200160405280600081525090565b6000813590506120da81612df3565b92915050565b6000602082840312156120f6576120f5612a83565b5b6000612104848285016120cb565b91505092915050565b6121168161296d565b82525050565b6121258161295b565b82525050565b60006121368261281f565b6121408185612835565b93506121508185602086016129a9565b61215981612a88565b840191505092915050565b6000612171601683612835565b915061217c82612a99565b602082019050919050565b6000612194601f83612835565b915061219f82612ac2565b602082019050919050565b60006121b7601683612835565b91506121c282612aeb565b602082019050919050565b60006121da601183612835565b91506121e582612b14565b602082019050919050565b60006121fd601483612835565b915061220882612b3d565b602082019050919050565b6000612220603683612835565b915061222b82612b66565b604082019050919050565b6000612243601483612835565b915061224e82612bb5565b602082019050919050565b6000612266601383612835565b915061227182612bde565b602082019050919050565b6000612289603c83612835565b915061229482612c07565b604082019050919050565b60006122ac601483612835565b91506122b782612c56565b602082019050919050565b60006122cf601283612835565b91506122da82612c7f565b602082019050919050565b60006122f2601283612835565b91506122fd82612ca8565b602082019050919050565b6000612315601b83612835565b915061232082612cd1565b602082019050919050565b6000612338601a83612835565b915061234382612cfa565b602082019050919050565b600061235b601683612835565b915061236682612d23565b602082019050919050565b600061237e60008361282a565b915061238982612d4c565b600082019050919050565b60006123a1601583612835565b91506123ac82612d4f565b602082019050919050565b60006123c4601f83612835565b91506123cf82612d78565b602082019050919050565b60006123e7601383612835565b91506123f282612da1565b602082019050919050565b600061240a601683612835565b915061241582612dca565b602082019050919050565b6124298161299f565b82525050565b600061243a82612371565b9150819050919050565b6000602082019050612459600083018461210d565b92915050565b60006020820190508181036000830152612479818461212b565b905092915050565b6000604082019050818103600083015261249b818561212b565b90506124aa602083018461211c565b9392505050565b600060408201905081810360008301526124cb818561212b565b90506124da6020830184612420565b9392505050565b600060608201905081810360008301526124fb818661212b565b905061250a6020830185612420565b818103604083015261251c818461212b565b9050949350505050565b6000602082019050818103600083015261253f81612164565b9050919050565b6000602082019050818103600083015261255f81612187565b9050919050565b6000602082019050818103600083015261257f816121aa565b9050919050565b6000602082019050818103600083015261259f816121cd565b9050919050565b600060208201905081810360008301526125bf816121f0565b9050919050565b600060208201905081810360008301526125df81612213565b9050919050565b600060208201905081810360008301526125ff81612236565b9050919050565b6000602082019050818103600083015261261f81612259565b9050919050565b6000602082019050818103600083015261263f8161227c565b9050919050565b6000602082019050818103600083015261265f8161229f565b9050919050565b6000602082019050818103600083015261267f816122c2565b9050919050565b6000602082019050818103600083015261269f816122e5565b9050919050565b600060208201905081810360008301526126bf81612308565b9050919050565b600060208201905081810360008301526126df8161232b565b9050919050565b600060208201905081810360008301526126ff8161234e565b9050919050565b6000602082019050818103600083015261271f81612394565b9050919050565b6000602082019050818103600083015261273f816123b7565b9050919050565b6000602082019050818103600083015261275f816123da565b9050919050565b6000602082019050818103600083015261277f816123fd565b9050919050565b600060208201905061279b6000830184612420565b92915050565b6000610100820190506127b7600083018b612420565b6127c4602083018a612420565b6127d16040830189612420565b6127de6060830188612420565b6127eb6080830187612420565b6127f860a0830186612420565b61280560c0830185612420565b61281260e0830184612420565b9998505050505050505050565b600081519050919050565b600081905092915050565b600082825260208201905092915050565b60006128518261299f565b915061285c8361299f565b9250827fffffffffffffffffffffffffffffffffffffffffffffffffffffffffffffffff0382111561289157612890612a25565b5b828201905092915050565b60006128a78261299f565b91506128b28361299f565b9250826128c2576128c1612a54565b5b828204905092915050565b60006128d88261299f565b91506128e38361299f565b9250817fffffffffffffffffffffffffffffffffffffffffffffffffffffffffffffffff048311821515161561291c5761291b612a25565b5b828202905092915050565b60006129328261299f565b915061293d8361299f565b9250828210156129505761294f612a25565b5b828203905092915050565b60006129668261297f565b9050919050565b60006129788261297f565b9050919050565b600073ffffffffffffffffffffffffffffffffffffffff82169050919050565b6000819050919050565b60005b838110156129c75780820151818401526020810190506129ac565b838111156129d6576000848401525b50505050565b60006129e78261299f565b91507fffffffffffffffffffffffffffffffffffffffffffffffffffffffffffffffff821415612a1a57612a19612a25565b5b600182019050919050565b7f4e487b7100000000000000000000000000000000000000000000000000000000600052601160045260246000fd5b7f4e487b7100000000000000000000000000000000000000000000000000000000600052601260045260246000fd5b600080fd5b6000601f19601f8301169050919050565b7f6f766572666c6f77207831793120646574656374656400000000000000000000600082015250565b7f737562737472616374696f6e20756e646572666c6f7720646574656374656400600082015250565b7f6f766572666c6f77207832793220646574656374656400000000000000000000600082015250565b7f63616e2774206469766964652062792030000000000000000000000000000000600082015250565b7f4661696c656420746f2073656e64204574686572000000000000000000000000600082015250565b7f63616e277420637265617465206669786964697479206e756d626572206c617260008201527f676572207468616e206d61784e65774669786564282900000000000000000000602082015250565b7f47616d65206973206e6f74206f76657220796574000000000000000000000000600082015250565b7f63616c6c6572206973206e6f74206f776e657200000000000000000000000000600082015250565b7f4465706f736974206d7573742062652067726561746572207468616e206f722060008201527f657175616c20746f20746865206d696e696d756d206465706f73697400000000602082015250565b7f596f752068617665206e6f2077696e6e696e6773000000000000000000000000600082015250565b7f5468652067616d652068617320656e6465640000000000000000000000000000600082015250565b7f6f766572666c6f77206174206469766964650000000000000000000000000000600082015250565b7f596f752061726520616c726561647920696e207468652067616d650000000000600082015250565b7f506c6179657220696e646578206f7574206f6620626f756e6473000000000000600082015250565b7f6f766572666c6f77207831793220646574656374656400000000000000000000600082015250565b50565b7f616464206f766572666c6f772064657465637465640000000000000000000000600082015250565b7f6f766572666c6f772078317931202a2066697865643120646574656374656400600082015250565b7f496e646578206f7574206f6620626f756e647300000000000000000000000000600082015250565b7f6f766572666c6f77207832793120646574656374656400000000000000000000600082015250565b612dfc8161299f565b8114612e0757600080fd5b5056fea2646970667358221220f3568fe5a4f636b9332555fd6acc16ddac64db5541e8bc1d320f3dd44c09d48664736f6c63430008070033",
			"opcodes": "PUSH1 0x80 PUSH1 0x40 MSTORE PUSH1 0x0 PUSH1 0x1 SSTORE PUSH3 0xF4240 PUSH1 0x2 SSTORE PUSH1 0x1 PUSH1 0x0 DUP2 SWAP1 SSTORE POP CALLER PUSH1 0x3 PUSH1 0x0 PUSH2 0x100 EXP DUP2 SLOAD DUP2 PUSH20 0xFFFFFFFFFFFFFFFFFFFFFFFFFFFFFFFFFFFFFFFF MUL NOT AND SWAP1 DUP4 PUSH20 0xFFFFFFFFFFFFFFFFFFFFFFFFFFFFFFFFFFFFFFFF AND MUL OR SWAP1 SSTORE POP PUSH1 0x1 SLOAD PUSH1 0x5 PUSH1 0x0 PUSH1 0x1 SLOAD DUP2 MSTORE PUSH1 0x20 ADD SWAP1 DUP2 MSTORE PUSH1 0x20 ADD PUSH1 0x0 KECCAK256 PUSH1 0x0 ADD DUP2 SWAP1 SSTORE POP PUSH1 0xF PUSH1 0x5 PUSH1 0x0 PUSH1 0x1 SLOAD DUP2 MSTORE PUSH1 0x20 ADD SWAP1 DUP2 MSTORE PUSH1 0x20 ADD PUSH1 0x0 KECCAK256 PUSH1 0x1 ADD DUP2 SWAP1 SSTORE POP PUSH7 0x38D7EA4C68000 PUSH1 0x5 PUSH1 0x0 PUSH1 0x1 SLOAD DUP2 MSTORE PUSH1 0x20 ADD SWAP1 DUP2 MSTORE PUSH1 0x20 ADD PUSH1 0x0 KECCAK256 PUSH1 0x2 ADD DUP2 SWAP1 SSTORE POP PUSH1 0x0 PUSH1 0x5 PUSH1 0x0 PUSH1 0x1 SLOAD DUP2 MSTORE PUSH1 0x20 ADD SWAP1 DUP2 MSTORE PUSH1 0x20 ADD PUSH1 0x0 KECCAK256 PUSH1 0x3 ADD DUP2 SWAP1 SSTORE POP PUSH1 0x0 PUSH1 0x5 PUSH1 0x0 PUSH1 0x1 SLOAD DUP2 MSTORE PUSH1 0x20 ADD SWAP1 DUP2 MSTORE PUSH1 0x20 ADD PUSH1 0x0 KECCAK256 PUSH1 0x4 ADD DUP2 SWAP1 SSTORE POP PUSH1 0x0 PUSH1 0x5 PUSH1 0x0 PUSH1 0x1 SLOAD DUP2 MSTORE PUSH1 0x20 ADD SWAP1 DUP2 MSTORE PUSH1 0x20 ADD PUSH1 0x0 KECCAK256 PUSH1 0x5 ADD DUP2 SWAP1 SSTORE POP TIMESTAMP PUSH1 0x5 PUSH1 0x0 PUSH1 0x1 SLOAD DUP2 MSTORE PUSH1 0x20 ADD SWAP1 DUP2 MSTORE PUSH1 0x20 ADD PUSH1 0x0 KECCAK256 PUSH1 0x6 ADD DUP2 SWAP1 SSTORE POP PUSH1 0x5 PUSH1 0x0 PUSH1 0x1 SLOAD DUP2 MSTORE PUSH1 0x20 ADD SWAP1 DUP2 MSTORE PUSH1 0x20 ADD PUSH1 0x0 KECCAK256 PUSH1 0x1 ADD SLOAD TIMESTAMP PUSH3 0x157 SWAP2 SWAP1 PUSH3 0x179 JUMP JUMPDEST PUSH1 0x5 PUSH1 0x0 PUSH1 0x1 SLOAD DUP2 MSTORE PUSH1 0x20 ADD SWAP1 DUP2 MSTORE PUSH1 0x20 ADD PUSH1 0x0 KECCAK256 PUSH1 0x7 ADD DUP2 SWAP1 SSTORE POP PUSH3 0x20F JUMP JUMPDEST PUSH1 0x0 PUSH3 0x186 DUP3 PUSH3 0x1D6 JUMP JUMPDEST SWAP2 POP PUSH3 0x193 DUP4 PUSH3 0x1D6 JUMP JUMPDEST SWAP3 POP DUP3 PUSH32 0xFFFFFFFFFFFFFFFFFFFFFFFFFFFFFFFFFFFFFFFFFFFFFFFFFFFFFFFFFFFFFFFF SUB DUP3 GT ISZERO PUSH3 0x1CB JUMPI PUSH3 0x1CA PUSH3 0x1E0 JUMP JUMPDEST JUMPDEST DUP3 DUP3 ADD SWAP1 POP SWAP3 SWAP2 POP POP JUMP JUMPDEST PUSH1 0x0 DUP2 SWAP1 POP SWAP2 SWAP1 POP JUMP JUMPDEST PUSH32 0x4E487B7100000000000000000000000000000000000000000000000000000000 PUSH1 0x0 MSTORE PUSH1 0x11 PUSH1 0x4 MSTORE PUSH1 0x24 PUSH1 0x0 REVERT JUMPDEST PUSH2 0x2E40 DUP1 PUSH3 0x21F PUSH1 0x0 CODECOPY PUSH1 0x0 RETURN INVALID PUSH1 0x80 PUSH1 0x40 MSTORE PUSH1 0x4 CALLDATASIZE LT PUSH2 0xA0 JUMPI PUSH1 0x0 CALLDATALOAD PUSH1 0xE0 SHR DUP1 PUSH4 0x7D065C93 GT PUSH2 0x64 JUMPI DUP1 PUSH4 0x7D065C93 EQ PUSH2 0x541 JUMPI DUP1 PUSH4 0x8DA5CB5B EQ PUSH2 0x54B JUMPI DUP1 PUSH4 0x940EBEF7 EQ PUSH2 0x576 JUMPI DUP1 PUSH4 0xAD99014C EQ PUSH2 0x5A1 JUMPI DUP1 PUSH4 0xC1ACE04B EQ PUSH2 0x5CC JUMPI DUP1 PUSH4 0xC59580A3 EQ PUSH2 0x5F7 JUMPI PUSH2 0x477 JUMP JUMPDEST DUP1 PUSH4 0x38CE42D EQ PUSH2 0x479 JUMPI DUP1 PUSH4 0x12065FE0 EQ PUSH2 0x490 JUMPI DUP1 PUSH4 0x16105405 EQ PUSH2 0x4BB JUMPI DUP1 PUSH4 0x1746BD1B EQ PUSH2 0x4E6 JUMPI DUP1 PUSH4 0x2E1A7D4D EQ PUSH2 0x518 JUMPI PUSH2 0x477 JUMP JUMPDEST CALLDATASIZE PUSH2 0x477 JUMPI PUSH1 0x5 PUSH1 0x0 PUSH1 0x1 SLOAD DUP2 MSTORE PUSH1 0x20 ADD SWAP1 DUP2 MSTORE PUSH1 0x20 ADD PUSH1 0x0 KECCAK256 PUSH1 0x2 ADD SLOAD CALLVALUE LT ISZERO PUSH2 0x100 JUMPI PUSH1 0x40 MLOAD PUSH32 0x8C379A000000000000000000000000000000000000000000000000000000000 DUP2 MSTORE PUSH1 0x4 ADD PUSH2 0xF7 SWAP1 PUSH2 0x2626 JUMP JUMPDEST PUSH1 0x40 MLOAD DUP1 SWAP2 SUB SWAP1 REVERT JUMPDEST PUSH1 0x0 PUSH1 0x5 PUSH1 0x0 PUSH1 0x1 SLOAD DUP2 MSTORE PUSH1 0x20 ADD SWAP1 DUP2 MSTORE PUSH1 0x20 ADD PUSH1 0x0 KECCAK256 PUSH1 0x9 ADD PUSH1 0x0 CALLER PUSH20 0xFFFFFFFFFFFFFFFFFFFFFFFFFFFFFFFFFFFFFFFF AND PUSH20 0xFFFFFFFFFFFFFFFFFFFFFFFFFFFFFFFFFFFFFFFF AND DUP2 MSTORE PUSH1 0x20 ADD SWAP1 DUP2 MSTORE PUSH1 0x20 ADD PUSH1 0x0 KECCAK256 SLOAD EQ PUSH2 0x198 JUMPI PUSH1 0x40 MLOAD PUSH32 0x8C379A000000000000000000000000000000000000000000000000000000000 DUP2 MSTORE PUSH1 0x4 ADD PUSH2 0x18F SWAP1 PUSH2 0x26A6 JUMP JUMPDEST PUSH1 0x40 MLOAD DUP1 SWAP2 SUB SWAP1 REVERT JUMPDEST TIMESTAMP PUSH1 0x5 PUSH1 0x0 PUSH1 0x1 SLOAD DUP2 MSTORE PUSH1 0x20 ADD SWAP1 DUP2 MSTORE PUSH1 0x20 ADD PUSH1 0x0 KECCAK256 PUSH1 0x7 ADD SLOAD GT PUSH2 0x1F2 JUMPI PUSH1 0x40 MLOAD PUSH32 0x8C379A000000000000000000000000000000000000000000000000000000000 DUP2 MSTORE PUSH1 0x4 ADD PUSH2 0x1E9 SWAP1 PUSH2 0x2666 JUMP JUMPDEST PUSH1 0x40 MLOAD DUP1 SWAP2 SUB SWAP1 REVERT JUMPDEST PUSH1 0x40 MLOAD DUP1 PUSH1 0x80 ADD PUSH1 0x40 MSTORE DUP1 CALLER PUSH20 0xFFFFFFFFFFFFFFFFFFFFFFFFFFFFFFFFFFFFFFFF AND DUP2 MSTORE PUSH1 0x20 ADD CALLVALUE DUP2 MSTORE PUSH1 0x20 ADD TIMESTAMP DUP2 MSTORE PUSH1 0x20 ADD PUSH2 0x22F PUSH1 0x0 PUSH2 0x622 JUMP JUMPDEST DUP2 MSTORE POP PUSH1 0x5 PUSH1 0x0 PUSH1 0x1 SLOAD DUP2 MSTORE PUSH1 0x20 ADD SWAP1 DUP2 MSTORE PUSH1 0x20 ADD PUSH1 0x0 KECCAK256 PUSH1 0x8 ADD PUSH1 0x0 PUSH1 0x1 PUSH1 0x5 PUSH1 0x0 PUSH1 0x1 SLOAD DUP2 MSTORE PUSH1 0x20 ADD SWAP1 DUP2 MSTORE PUSH1 0x20 ADD PUSH1 0x0 KECCAK256 PUSH1 0x5 ADD SLOAD PUSH2 0x271 SWAP2 SWAP1 PUSH2 0x2846 JUMP JUMPDEST DUP2 MSTORE PUSH1 0x20 ADD SWAP1 DUP2 MSTORE PUSH1 0x20 ADD PUSH1 0x0 KECCAK256 PUSH1 0x0 DUP3 ADD MLOAD DUP2 PUSH1 0x0 ADD PUSH1 0x0 PUSH2 0x100 EXP DUP2 SLOAD DUP2 PUSH20 0xFFFFFFFFFFFFFFFFFFFFFFFFFFFFFFFFFFFFFFFF MUL NOT AND SWAP1 DUP4 PUSH20 0xFFFFFFFFFFFFFFFFFFFFFFFFFFFFFFFFFFFFFFFF AND MUL OR SWAP1 SSTORE POP PUSH1 0x20 DUP3 ADD MLOAD DUP2 PUSH1 0x1 ADD SSTORE PUSH1 0x40 DUP3 ADD MLOAD DUP2 PUSH1 0x2 ADD SSTORE PUSH1 0x60 DUP3 ADD MLOAD DUP2 PUSH1 0x3 ADD PUSH1 0x0 DUP3 ADD MLOAD DUP2 PUSH1 0x0 ADD SSTORE POP POP SWAP1 POP POP PUSH1 0x1 PUSH1 0x5 PUSH1 0x0 PUSH1 0x1 SLOAD DUP2 MSTORE PUSH1 0x20 ADD SWAP1 DUP2 MSTORE PUSH1 0x20 ADD PUSH1 0x0 KECCAK256 PUSH1 0x5 ADD SLOAD PUSH2 0x317 SWAP2 SWAP1 PUSH2 0x2846 JUMP JUMPDEST PUSH1 0x5 PUSH1 0x0 PUSH1 0x1 SLOAD DUP2 MSTORE PUSH1 0x20 ADD SWAP1 DUP2 MSTORE PUSH1 0x20 ADD PUSH1 0x0 KECCAK256 PUSH1 0x9 ADD PUSH1 0x0 CALLER PUSH20 0xFFFFFFFFFFFFFFFFFFFFFFFFFFFFFFFFFFFFFFFF AND PUSH20 0xFFFFFFFFFFFFFFFFFFFFFFFFFFFFFFFFFFFFFFFF AND DUP2 MSTORE PUSH1 0x20 ADD SWAP1 DUP2 MSTORE PUSH1 0x20 ADD PUSH1 0x0 KECCAK256 DUP2 SWAP1 SSTORE POP PUSH1 0x1 PUSH1 0x5 PUSH1 0x0 PUSH1 0x1 SLOAD DUP2 MSTORE PUSH1 0x20 ADD SWAP1 DUP2 MSTORE PUSH1 0x20 ADD PUSH1 0x0 KECCAK256 PUSH1 0x5 ADD PUSH1 0x0 DUP3 DUP3 SLOAD PUSH2 0x399 SWAP2 SWAP1 PUSH2 0x2846 JUMP JUMPDEST SWAP3 POP POP DUP2 SWAP1 SSTORE POP CALLVALUE PUSH1 0x5 PUSH1 0x0 PUSH1 0x1 SLOAD DUP2 MSTORE PUSH1 0x20 ADD SWAP1 DUP2 MSTORE PUSH1 0x20 ADD PUSH1 0x0 KECCAK256 PUSH1 0x3 ADD PUSH1 0x0 DUP3 DUP3 SLOAD PUSH2 0x3C8 SWAP2 SWAP1 PUSH2 0x2846 JUMP JUMPDEST SWAP3 POP POP DUP2 SWAP1 SSTORE POP PUSH1 0x5 PUSH1 0x0 PUSH1 0x1 SLOAD DUP2 MSTORE PUSH1 0x20 ADD SWAP1 DUP2 MSTORE PUSH1 0x20 ADD PUSH1 0x0 KECCAK256 PUSH1 0x5 ADD SLOAD PUSH1 0x5 PUSH1 0x0 PUSH1 0x1 SLOAD DUP2 MSTORE PUSH1 0x20 ADD SWAP1 DUP2 MSTORE PUSH1 0x20 ADD PUSH1 0x0 KECCAK256 PUSH1 0x3 ADD SLOAD PUSH2 0x40B SWAP2 SWAP1 PUSH2 0x289C JUMP JUMPDEST PUSH1 0x5 PUSH1 0x0 PUSH1 0x1 SLOAD DUP2 MSTORE PUSH1 0x20 ADD SWAP1 DUP2 MSTORE PUSH1 0x20 ADD PUSH1 0x0 KECCAK256 PUSH1 0x4 ADD DUP2 SWAP1 SSTORE POP CALLER PUSH20 0xFFFFFFFFFFFFFFFFFFFFFFFFFFFFFFFFFFFFFFFF AND PUSH32 0xE1FFFCC4923D04B559F4D29A8BFC6CDA04EB5B0D3C460751C2402C5C5CC9109C CALLVALUE PUSH1 0x40 MLOAD PUSH2 0x46D SWAP2 SWAP1 PUSH2 0x2786 JUMP JUMPDEST PUSH1 0x40 MLOAD DUP1 SWAP2 SUB SWAP1 LOG2 STOP JUMPDEST STOP JUMPDEST CALLVALUE DUP1 ISZERO PUSH2 0x485 JUMPI PUSH1 0x0 DUP1 REVERT JUMPDEST POP PUSH2 0x48E PUSH2 0x69F JUMP JUMPDEST STOP JUMPDEST CALLVALUE DUP1 ISZERO PUSH2 0x49C JUMPI PUSH1 0x0 DUP1 REVERT JUMPDEST POP PUSH2 0x4A5 PUSH2 0x824 JUMP JUMPDEST PUSH1 0x40 MLOAD PUSH2 0x4B2 SWAP2 SWAP1 PUSH2 0x2786 JUMP JUMPDEST PUSH1 0x40 MLOAD DUP1 SWAP2 SUB SWAP1 RETURN JUMPDEST CALLVALUE DUP1 ISZERO PUSH2 0x4C7 JUMPI PUSH1 0x0 DUP1 REVERT JUMPDEST POP PUSH2 0x4D0 PUSH2 0x82C JUMP JUMPDEST PUSH1 0x40 MLOAD PUSH2 0x4DD SWAP2 SWAP1 PUSH2 0x2786 JUMP JUMPDEST PUSH1 0x40 MLOAD DUP1 SWAP2 SUB SWAP1 RETURN JUMPDEST CALLVALUE DUP1 ISZERO PUSH2 0x4F2 JUMPI PUSH1 0x0 DUP1 REVERT JUMPDEST POP PUSH2 0x4FB PUSH2 0x831 JUMP JUMPDEST PUSH1 0x40 MLOAD PUSH2 0x50F SWAP9 SWAP8 SWAP7 SWAP6 SWAP5 SWAP4 SWAP3 SWAP2 SWAP1 PUSH2 0x27A1 JUMP JUMPDEST PUSH1 0x40 MLOAD DUP1 SWAP2 SUB SWAP1 RETURN JUMPDEST CALLVALUE DUP1 ISZERO PUSH2 0x524 JUMPI PUSH1 0x0 DUP1 REVERT JUMPDEST POP PUSH2 0x53F PUSH1 0x4 DUP1 CALLDATASIZE SUB DUP2 ADD SWAP1 PUSH2 0x53A SWAP2 SWAP1 PUSH2 0x20E0 JUMP JUMPDEST PUSH2 0x91F JUMP JUMPDEST STOP JUMPDEST PUSH2 0x549 PUSH2 0xA47 JUMP JUMPDEST STOP JUMPDEST CALLVALUE DUP1 ISZERO PUSH2 0x557 JUMPI PUSH1 0x0 DUP1 REVERT JUMPDEST POP PUSH2 0x560 PUSH2 0xB14 JUMP JUMPDEST PUSH1 0x40 MLOAD PUSH2 0x56D SWAP2 SWAP1 PUSH2 0x2444 JUMP JUMPDEST PUSH1 0x40 MLOAD DUP1 SWAP2 SUB SWAP1 RETURN JUMPDEST CALLVALUE DUP1 ISZERO PUSH2 0x582 JUMPI PUSH1 0x0 DUP1 REVERT JUMPDEST POP PUSH2 0x58B PUSH2 0xB3A JUMP JUMPDEST PUSH1 0x40 MLOAD PUSH2 0x598 SWAP2 SWAP1 PUSH2 0x2786 JUMP JUMPDEST PUSH1 0x40 MLOAD DUP1 SWAP2 SUB SWAP1 RETURN JUMPDEST CALLVALUE DUP1 ISZERO PUSH2 0x5AD JUMPI PUSH1 0x0 DUP1 REVERT JUMPDEST POP PUSH2 0x5B6 PUSH2 0xB8E JUMP JUMPDEST PUSH1 0x40 MLOAD PUSH2 0x5C3 SWAP2 SWAP1 PUSH2 0x2786 JUMP JUMPDEST PUSH1 0x40 MLOAD DUP1 SWAP2 SUB SWAP1 RETURN JUMPDEST CALLVALUE DUP1 ISZERO PUSH2 0x5D8 JUMPI PUSH1 0x0 DUP1 REVERT JUMPDEST POP PUSH2 0x5E1 PUSH2 0xB93 JUMP JUMPDEST PUSH1 0x40 MLOAD PUSH2 0x5EE SWAP2 SWAP1 PUSH2 0x2786 JUMP JUMPDEST PUSH1 0x40 MLOAD DUP1 SWAP2 SUB SWAP1 RETURN JUMPDEST CALLVALUE DUP1 ISZERO PUSH2 0x603 JUMPI PUSH1 0x0 DUP1 REVERT JUMPDEST POP PUSH2 0x60C PUSH2 0xB9E JUMP JUMPDEST PUSH1 0x40 MLOAD PUSH2 0x619 SWAP2 SWAP1 PUSH2 0x2786 JUMP JUMPDEST PUSH1 0x40 MLOAD DUP1 SWAP2 SUB SWAP1 RETURN JUMPDEST PUSH2 0x62A PUSH2 0x20B8 JUMP JUMPDEST PUSH2 0x632 PUSH2 0xBA3 JUMP JUMPDEST DUP3 GT ISZERO PUSH2 0x674 JUMPI PUSH1 0x40 MLOAD PUSH32 0x8C379A000000000000000000000000000000000000000000000000000000000 DUP2 MSTORE PUSH1 0x4 ADD PUSH2 0x66B SWAP1 PUSH2 0x25C6 JUMP JUMPDEST PUSH1 0x40 MLOAD DUP1 SWAP2 SUB SWAP1 REVERT JUMPDEST PUSH1 0x40 MLOAD DUP1 PUSH1 0x20 ADD PUSH1 0x40 MSTORE DUP1 PUSH10 0xD3C21BCECCEDA1000000 DUP5 PUSH2 0x695 SWAP2 SWAP1 PUSH2 0x28CD JUMP JUMPDEST DUP2 MSTORE POP SWAP1 POP SWAP2 SWAP1 POP JUMP JUMPDEST PUSH1 0x0 PUSH2 0x6A9 PUSH2 0xB3A JUMP JUMPDEST EQ PUSH2 0x6E9 JUMPI PUSH1 0x40 MLOAD PUSH32 0x8C379A000000000000000000000000000000000000000000000000000000000 DUP2 MSTORE PUSH1 0x4 ADD PUSH2 0x6E0 SWAP1 PUSH2 0x25E6 JUMP JUMPDEST PUSH1 0x40 MLOAD DUP1 SWAP2 SUB SWAP1 REVERT JUMPDEST PUSH2 0x6F1 PUSH2 0xBC2 JUMP JUMPDEST PUSH1 0x1 DUP1 PUSH1 0x0 DUP3 DUP3 SLOAD PUSH2 0x703 SWAP2 SWAP1 PUSH2 0x2846 JUMP JUMPDEST SWAP3 POP POP DUP2 SWAP1 SSTORE POP PUSH1 0x1 SLOAD PUSH1 0x5 PUSH1 0x0 PUSH1 0x1 SLOAD DUP2 MSTORE PUSH1 0x20 ADD SWAP1 DUP2 MSTORE PUSH1 0x20 ADD PUSH1 0x0 KECCAK256 PUSH1 0x0 ADD DUP2 SWAP1 SSTORE POP PUSH1 0xF PUSH1 0x5 PUSH1 0x0 PUSH1 0x1 SLOAD DUP2 MSTORE PUSH1 0x20 ADD SWAP1 DUP2 MSTORE PUSH1 0x20 ADD PUSH1 0x0 KECCAK256 PUSH1 0x1 ADD DUP2 SWAP1 SSTORE POP PUSH7 0x38D7EA4C68000 PUSH1 0x5 PUSH1 0x0 PUSH1 0x1 SLOAD DUP2 MSTORE PUSH1 0x20 ADD SWAP1 DUP2 MSTORE PUSH1 0x20 ADD PUSH1 0x0 KECCAK256 PUSH1 0x2 ADD DUP2 SWAP1 SSTORE POP PUSH1 0x0 PUSH1 0x5 PUSH1 0x0 PUSH1 0x1 SLOAD DUP2 MSTORE PUSH1 0x20 ADD SWAP1 DUP2 MSTORE PUSH1 0x20 ADD PUSH1 0x0 KECCAK256 PUSH1 0x3 ADD DUP2 SWAP1 SSTORE POP PUSH1 0x0 PUSH1 0x5 PUSH1 0x0 PUSH1 0x1 SLOAD DUP2 MSTORE PUSH1 0x20 ADD SWAP1 DUP2 MSTORE PUSH1 0x20 ADD PUSH1 0x0 KECCAK256 PUSH1 0x4 ADD DUP2 SWAP1 SSTORE POP PUSH1 0x0 PUSH1 0x5 PUSH1 0x0 PUSH1 0x1 SLOAD DUP2 MSTORE PUSH1 0x20 ADD SWAP1 DUP2 MSTORE PUSH1 0x20 ADD PUSH1 0x0 KECCAK256 PUSH1 0x5 ADD DUP2 SWAP1 SSTORE POP TIMESTAMP PUSH1 0x5 PUSH1 0x0 PUSH1 0x1 SLOAD DUP2 MSTORE PUSH1 0x20 ADD SWAP1 DUP2 MSTORE PUSH1 0x20 ADD PUSH1 0x0 KECCAK256 PUSH1 0x6 ADD DUP2 SWAP1 SSTORE POP PUSH1 0x5 PUSH1 0x0 PUSH1 0x1 SLOAD DUP2 MSTORE PUSH1 0x20 ADD SWAP1 DUP2 MSTORE PUSH1 0x20 ADD PUSH1 0x0 KECCAK256 PUSH1 0x1 ADD SLOAD TIMESTAMP PUSH2 0x806 SWAP2 SWAP1 PUSH2 0x2846 JUMP JUMPDEST PUSH1 0x5 PUSH1 0x0 PUSH1 0x1 SLOAD DUP2 MSTORE PUSH1 0x20 ADD SWAP1 DUP2 MSTORE PUSH1 0x20 ADD PUSH1 0x0 KECCAK256 PUSH1 0x7 ADD DUP2 SWAP1 SSTORE POP JUMP JUMPDEST PUSH1 0x0 SELFBALANCE SWAP1 POP SWAP1 JUMP JUMPDEST PUSH1 0x0 DUP2 JUMP JUMPDEST PUSH1 0x0 DUP1 PUSH1 0x0 DUP1 PUSH1 0x0 DUP1 PUSH1 0x0 DUP1 PUSH1 0x5 PUSH1 0x0 PUSH1 0x1 SLOAD DUP2 MSTORE PUSH1 0x20 ADD SWAP1 DUP2 MSTORE PUSH1 0x20 ADD PUSH1 0x0 KECCAK256 PUSH1 0x0 ADD SLOAD PUSH1 0x5 PUSH1 0x0 PUSH1 0x1 SLOAD DUP2 MSTORE PUSH1 0x20 ADD SWAP1 DUP2 MSTORE PUSH1 0x20 ADD PUSH1 0x0 KECCAK256 PUSH1 0x1 ADD SLOAD PUSH1 0x5 PUSH1 0x0 PUSH1 0x1 SLOAD DUP2 MSTORE PUSH1 0x20 ADD SWAP1 DUP2 MSTORE PUSH1 0x20 ADD PUSH1 0x0 KECCAK256 PUSH1 0x2 ADD SLOAD PUSH1 0x5 PUSH1 0x0 PUSH1 0x1 SLOAD DUP2 MSTORE PUSH1 0x20 ADD SWAP1 DUP2 MSTORE PUSH1 0x20 ADD PUSH1 0x0 KECCAK256 PUSH1 0x3 ADD SLOAD PUSH1 0x5 PUSH1 0x0 PUSH1 0x1 SLOAD DUP2 MSTORE PUSH1 0x20 ADD SWAP1 DUP2 MSTORE PUSH1 0x20 ADD PUSH1 0x0 KECCAK256 PUSH1 0x4 ADD SLOAD PUSH1 0x5 PUSH1 0x0 PUSH1 0x1 SLOAD DUP2 MSTORE PUSH1 0x20 ADD SWAP1 DUP2 MSTORE PUSH1 0x20 ADD PUSH1 0x0 KECCAK256 PUSH1 0x5 ADD SLOAD PUSH1 0x5 PUSH1 0x0 PUSH1 0x1 SLOAD DUP2 MSTORE PUSH1 0x20 ADD SWAP1 DUP2 MSTORE PUSH1 0x20 ADD PUSH1 0x0 KECCAK256 PUSH1 0x6 ADD SLOAD PUSH1 0x5 PUSH1 0x0 PUSH1 0x1 SLOAD DUP2 MSTORE PUSH1 0x20 ADD SWAP1 DUP2 MSTORE PUSH1 0x20 ADD PUSH1 0x0 KECCAK256 PUSH1 0x7 ADD SLOAD SWAP8 POP SWAP8 POP SWAP8 POP SWAP8 POP SWAP8 POP SWAP8 POP SWAP8 POP SWAP8 POP SWAP1 SWAP2 SWAP3 SWAP4 SWAP5 SWAP6 SWAP7 SWAP8 JUMP JUMPDEST PUSH1 0x3 PUSH1 0x0 SWAP1 SLOAD SWAP1 PUSH2 0x100 EXP SWAP1 DIV PUSH20 0xFFFFFFFFFFFFFFFFFFFFFFFFFFFFFFFFFFFFFFFF AND PUSH20 0xFFFFFFFFFFFFFFFFFFFFFFFFFFFFFFFFFFFFFFFF AND CALLER PUSH20 0xFFFFFFFFFFFFFFFFFFFFFFFFFFFFFFFFFFFFFFFF AND EQ PUSH2 0x9AF JUMPI PUSH1 0x40 MLOAD PUSH32 0x8C379A000000000000000000000000000000000000000000000000000000000 DUP2 MSTORE PUSH1 0x4 ADD PUSH2 0x9A6 SWAP1 PUSH2 0x2606 JUMP JUMPDEST PUSH1 0x40 MLOAD DUP1 SWAP2 SUB SWAP1 REVERT JUMPDEST CALLER PUSH20 0xFFFFFFFFFFFFFFFFFFFFFFFFFFFFFFFFFFFFFFFF AND PUSH2 0x8FC DUP3 SWAP1 DUP2 ISZERO MUL SWAP1 PUSH1 0x40 MLOAD PUSH1 0x0 PUSH1 0x40 MLOAD DUP1 DUP4 SUB DUP2 DUP6 DUP9 DUP9 CALL SWAP4 POP POP POP POP ISZERO DUP1 ISZERO PUSH2 0x9F5 JUMPI RETURNDATASIZE PUSH1 0x0 DUP1 RETURNDATACOPY RETURNDATASIZE PUSH1 0x0 REVERT JUMPDEST POP CALLER PUSH20 0xFFFFFFFFFFFFFFFFFFFFFFFFFFFFFFFFFFFFFFFF AND PUSH32 0x884EDAD9CE6FA2440D8A54CC123490EB96D2768479D49FF9C7366125A9424364 DUP3 PUSH1 0x40 MLOAD PUSH2 0xA3C SWAP2 SWAP1 PUSH2 0x2786 JUMP JUMPDEST PUSH1 0x40 MLOAD DUP1 SWAP2 SUB SWAP1 LOG2 POP JUMP JUMPDEST PUSH1 0x0 PUSH1 0x4 PUSH1 0x0 CALLER PUSH20 0xFFFFFFFFFFFFFFFFFFFFFFFFFFFFFFFFFFFFFFFF AND PUSH20 0xFFFFFFFFFFFFFFFFFFFFFFFFFFFFFFFFFFFFFFFF AND DUP2 MSTORE PUSH1 0x20 ADD SWAP1 DUP2 MSTORE PUSH1 0x20 ADD PUSH1 0x0 KECCAK256 SLOAD GT PUSH2 0xAC9 JUMPI PUSH1 0x40 MLOAD PUSH32 0x8C379A000000000000000000000000000000000000000000000000000000000 DUP2 MSTORE PUSH1 0x4 ADD PUSH2 0xAC0 SWAP1 PUSH2 0x2646 JUMP JUMPDEST PUSH1 0x40 MLOAD DUP1 SWAP2 SUB SWAP1 REVERT JUMPDEST PUSH2 0xB12 CALLER PUSH1 0x4 PUSH1 0x0 CALLER PUSH20 0xFFFFFFFFFFFFFFFFFFFFFFFFFFFFFFFFFFFFFFFF AND PUSH20 0xFFFFFFFFFFFFFFFFFFFFFFFFFFFFFFFFFFFFFFFF AND DUP2 MSTORE PUSH1 0x20 ADD SWAP1 DUP2 MSTORE PUSH1 0x20 ADD PUSH1 0x0 KECCAK256 SLOAD PUSH2 0x1528 JUMP JUMPDEST JUMP JUMPDEST PUSH1 0x3 PUSH1 0x0 SWAP1 SLOAD SWAP1 PUSH2 0x100 EXP SWAP1 DIV PUSH20 0xFFFFFFFFFFFFFFFFFFFFFFFFFFFFFFFFFFFFFFFF AND DUP2 JUMP JUMPDEST PUSH1 0x0 TIMESTAMP PUSH1 0x5 PUSH1 0x0 PUSH1 0x1 SLOAD DUP2 MSTORE PUSH1 0x20 ADD SWAP1 DUP2 MSTORE PUSH1 0x20 ADD PUSH1 0x0 KECCAK256 PUSH1 0x7 ADD SLOAD GT PUSH2 0xB64 JUMPI PUSH1 0x0 SWAP1 POP PUSH2 0xB8B JUMP JUMPDEST TIMESTAMP PUSH1 0x5 PUSH1 0x0 PUSH1 0x1 SLOAD DUP2 MSTORE PUSH1 0x20 ADD SWAP1 DUP2 MSTORE PUSH1 0x20 ADD PUSH1 0x0 KECCAK256 PUSH1 0x7 ADD SLOAD PUSH2 0xB88 SWAP2 SWAP1 PUSH2 0x2927 JUMP JUMPDEST SWAP1 POP JUMPDEST SWAP1 JUMP JUMPDEST PUSH1 0x0 DUP2 JUMP JUMPDEST PUSH7 0x38D7EA4C68000 DUP2 JUMP JUMPDEST PUSH1 0x0 DUP2 JUMP JUMPDEST PUSH1 0x0 PUSH23 0x1357C299A88EA76A58924D52CE4F26A85AF186C2B9E74 SWAP1 POP SWAP1 JUMP JUMPDEST PUSH2 0xC19 PUSH1 0x40 MLOAD DUP1 PUSH1 0x40 ADD PUSH1 0x40 MSTORE DUP1 PUSH1 0x1A DUP2 MSTORE PUSH1 0x20 ADD PUSH32 0x506179696E67206F75742077696E6E657273206F662067616D65000000000000 DUP2 MSTORE POP PUSH1 0x5 PUSH1 0x0 PUSH1 0x1 SLOAD DUP2 MSTORE PUSH1 0x20 ADD SWAP1 DUP2 MSTORE PUSH1 0x20 ADD PUSH1 0x0 KECCAK256 PUSH1 0x0 ADD SLOAD PUSH2 0x15DC JUMP JUMPDEST PUSH1 0x0 DUP1 PUSH1 0x0 PUSH2 0xC28 PUSH1 0x0 PUSH2 0x622 JUMP JUMPDEST SWAP1 POP PUSH1 0x0 DUP1 PUSH1 0x1 SWAP1 POP JUMPDEST PUSH1 0x5 PUSH1 0x0 PUSH1 0x1 SLOAD DUP2 MSTORE PUSH1 0x20 ADD SWAP1 DUP2 MSTORE PUSH1 0x20 ADD PUSH1 0x0 KECCAK256 PUSH1 0x5 ADD SLOAD DUP2 GT PUSH2 0xD13 JUMPI PUSH1 0x5 PUSH1 0x0 PUSH1 0x1 SLOAD DUP2 MSTORE PUSH1 0x20 ADD SWAP1 DUP2 MSTORE PUSH1 0x20 ADD PUSH1 0x0 KECCAK256 PUSH1 0x4 ADD SLOAD PUSH1 0x5 PUSH1 0x0 PUSH1 0x1 SLOAD DUP2 MSTORE PUSH1 0x20 ADD SWAP1 DUP2 MSTORE PUSH1 0x20 ADD PUSH1 0x0 KECCAK256 PUSH1 0x8 ADD PUSH1 0x0 DUP4 DUP2 MSTORE PUSH1 0x20 ADD SWAP1 DUP2 MSTORE PUSH1 0x20 ADD PUSH1 0x0 KECCAK256 PUSH1 0x1 ADD SLOAD LT ISZERO PUSH2 0xCEB JUMPI PUSH1 0x1 DUP6 PUSH2 0xCAA SWAP2 SWAP1 PUSH2 0x2846 JUMP JUMPDEST SWAP5 POP PUSH1 0x5 PUSH1 0x0 PUSH1 0x1 SLOAD DUP2 MSTORE PUSH1 0x20 ADD SWAP1 DUP2 MSTORE PUSH1 0x20 ADD PUSH1 0x0 KECCAK256 PUSH1 0x8 ADD PUSH1 0x0 DUP3 DUP2 MSTORE PUSH1 0x20 ADD SWAP1 DUP2 MSTORE PUSH1 0x20 ADD PUSH1 0x0 KECCAK256 PUSH1 0x1 ADD SLOAD DUP3 PUSH2 0xCE4 SWAP2 SWAP1 PUSH2 0x2846 JUMP JUMPDEST SWAP2 POP PUSH2 0xD00 JUMP JUMPDEST PUSH2 0xCFD DUP4 PUSH2 0xCF8 DUP4 PUSH2 0x1678 JUMP JUMPDEST PUSH2 0x175F JUMP JUMPDEST SWAP3 POP JUMPDEST DUP1 DUP1 PUSH2 0xD0B SWAP1 PUSH2 0x29DC JUMP JUMPDEST SWAP2 POP POP PUSH2 0xC32 JUMP JUMPDEST POP PUSH2 0xD53 PUSH1 0x40 MLOAD DUP1 PUSH1 0x40 ADD PUSH1 0x40 MSTORE DUP1 PUSH1 0xB DUP2 MSTORE PUSH1 0x20 ADD PUSH32 0x6E756D4C6F736572733A20000000000000000000000000000000000000000000 DUP2 MSTORE POP DUP6 PUSH2 0x15DC JUMP JUMPDEST PUSH2 0xD92 PUSH1 0x40 MLOAD DUP1 PUSH1 0x40 ADD PUSH1 0x40 MSTORE DUP1 PUSH1 0xB DUP2 MSTORE PUSH1 0x20 ADD PUSH32 0x6C6F73657273506F743A20000000000000000000000000000000000000000000 DUP2 MSTORE POP DUP3 PUSH2 0x15DC JUMP JUMPDEST DUP4 PUSH1 0x5 PUSH1 0x0 PUSH1 0x1 SLOAD DUP2 MSTORE PUSH1 0x20 ADD SWAP1 DUP2 MSTORE PUSH1 0x20 ADD PUSH1 0x0 KECCAK256 PUSH1 0x5 ADD SLOAD PUSH2 0xDB6 SWAP2 SWAP1 PUSH2 0x2927 JUMP JUMPDEST SWAP3 POP PUSH2 0xDF7 PUSH1 0x40 MLOAD DUP1 PUSH1 0x40 ADD PUSH1 0x40 MSTORE DUP1 PUSH1 0xC DUP2 MSTORE PUSH1 0x20 ADD PUSH32 0x6E756D57696E6E6572733A200000000000000000000000000000000000000000 DUP2 MSTORE POP DUP5 PUSH2 0x15DC JUMP JUMPDEST PUSH1 0x0 DUP4 EQ ISZERO PUSH2 0xE47 JUMPI PUSH2 0xE3E PUSH1 0x40 MLOAD DUP1 PUSH1 0x40 ADD PUSH1 0x40 MSTORE DUP1 PUSH1 0xA DUP2 MSTORE PUSH1 0x20 ADD PUSH32 0x4E6F2077696E6E65727300000000000000000000000000000000000000000000 DUP2 MSTORE POP PUSH2 0x17DE JUMP JUMPDEST POP POP POP POP PUSH2 0x1526 JUMP JUMPDEST PUSH1 0x0 PUSH1 0x1 SWAP1 POP JUMPDEST PUSH1 0x5 PUSH1 0x0 PUSH1 0x1 SLOAD DUP2 MSTORE PUSH1 0x20 ADD SWAP1 DUP2 MSTORE PUSH1 0x20 ADD PUSH1 0x0 KECCAK256 PUSH1 0x5 ADD SLOAD DUP2 GT PUSH2 0x13A2 JUMPI PUSH1 0x5 PUSH1 0x0 PUSH1 0x1 SLOAD DUP2 MSTORE PUSH1 0x20 ADD SWAP1 DUP2 MSTORE PUSH1 0x20 ADD PUSH1 0x0 KECCAK256 PUSH1 0x4 ADD SLOAD PUSH1 0x5 PUSH1 0x0 PUSH1 0x1 SLOAD DUP2 MSTORE PUSH1 0x20 ADD SWAP1 DUP2 MSTORE PUSH1 0x20 ADD PUSH1 0x0 KECCAK256 PUSH1 0x8 ADD PUSH1 0x0 DUP4 DUP2 MSTORE PUSH1 0x20 ADD SWAP1 DUP2 MSTORE PUSH1 0x20 ADD PUSH1 0x0 KECCAK256 PUSH1 0x1 ADD SLOAD LT PUSH2 0x138F JUMPI PUSH2 0xF2D PUSH1 0x40 MLOAD DUP1 PUSH1 0x40 ADD PUSH1 0x40 MSTORE DUP1 PUSH1 0x1B DUP2 MSTORE PUSH1 0x20 ADD PUSH32 0x2D2D2D2D2D2D2D2D2D2D2D2D2057696E6E657220506C61796572200000000000 DUP2 MSTORE POP DUP3 PUSH1 0x40 MLOAD DUP1 PUSH1 0x40 ADD PUSH1 0x40 MSTORE DUP1 PUSH1 0xD DUP2 MSTORE PUSH1 0x20 ADD PUSH32 0x202D2D2D2D2D2D2D2D2D2D2D2D00000000000000000000000000000000000000 DUP2 MSTORE POP PUSH2 0x1877 JUMP JUMPDEST PUSH1 0x0 DUP1 DUP4 EQ PUSH2 0xFC0 JUMPI PUSH2 0xFBD PUSH2 0xFB8 PUSH2 0xFA7 PUSH2 0xF48 DUP7 PUSH2 0x1916 JUMP JUMPDEST PUSH2 0xFA2 PUSH2 0xF94 PUSH1 0x5 PUSH1 0x0 PUSH1 0x1 SLOAD DUP2 MSTORE PUSH1 0x20 ADD SWAP1 DUP2 MSTORE PUSH1 0x20 ADD PUSH1 0x0 KECCAK256 PUSH1 0x8 ADD PUSH1 0x0 DUP10 DUP2 MSTORE PUSH1 0x20 ADD SWAP1 DUP2 MSTORE PUSH1 0x20 ADD PUSH1 0x0 KECCAK256 PUSH1 0x3 ADD PUSH1 0x40 MLOAD DUP1 PUSH1 0x20 ADD PUSH1 0x40 MSTORE SWAP1 DUP2 PUSH1 0x0 DUP3 ADD SLOAD DUP2 MSTORE POP POP PUSH2 0x1934 JUMP JUMPDEST PUSH2 0xF9D DUP11 PUSH2 0x1934 JUMP JUMPDEST PUSH2 0x1942 JUMP JUMPDEST PUSH2 0x1978 JUMP JUMPDEST PUSH2 0xFB3 PUSH1 0x63 PUSH1 0x64 PUSH2 0x1942 JUMP JUMPDEST PUSH2 0x1978 JUMP JUMPDEST PUSH2 0x1934 JUMP JUMPDEST SWAP1 POP JUMPDEST PUSH1 0x0 DUP2 PUSH1 0x5 PUSH1 0x0 PUSH1 0x1 SLOAD DUP2 MSTORE PUSH1 0x20 ADD SWAP1 DUP2 MSTORE PUSH1 0x20 ADD PUSH1 0x0 KECCAK256 PUSH1 0x8 ADD PUSH1 0x0 DUP6 DUP2 MSTORE PUSH1 0x20 ADD SWAP1 DUP2 MSTORE PUSH1 0x20 ADD PUSH1 0x0 KECCAK256 PUSH1 0x1 ADD SLOAD PUSH2 0xFFA SWAP2 SWAP1 PUSH2 0x2846 JUMP JUMPDEST SWAP1 POP PUSH2 0x1067 PUSH1 0x40 MLOAD DUP1 PUSH1 0x40 ADD PUSH1 0x40 MSTORE DUP1 PUSH1 0x5 DUP2 MSTORE PUSH1 0x20 ADD PUSH32 0x6265743A20000000000000000000000000000000000000000000000000000000 DUP2 MSTORE POP PUSH1 0x5 PUSH1 0x0 PUSH1 0x1 SLOAD DUP2 MSTORE PUSH1 0x20 ADD SWAP1 DUP2 MSTORE PUSH1 0x20 ADD PUSH1 0x0 KECCAK256 PUSH1 0x8 ADD PUSH1 0x0 DUP7 DUP2 MSTORE PUSH1 0x20 ADD SWAP1 DUP2 MSTORE PUSH1 0x20 ADD PUSH1 0x0 KECCAK256 PUSH1 0x1 ADD SLOAD PUSH2 0x15DC JUMP JUMPDEST PUSH2 0x10D5 PUSH1 0x40 MLOAD DUP1 PUSH1 0x40 ADD PUSH1 0x40 MSTORE DUP1 PUSH1 0xD DUP2 MSTORE PUSH1 0x20 ADD PUSH32 0x63757276655765696768743A2000000000000000000000000000000000000000 DUP2 MSTORE POP PUSH1 0x5 PUSH1 0x0 PUSH1 0x1 SLOAD DUP2 MSTORE PUSH1 0x20 ADD SWAP1 DUP2 MSTORE PUSH1 0x20 ADD PUSH1 0x0 KECCAK256 PUSH1 0x8 ADD PUSH1 0x0 DUP7 DUP2 MSTORE PUSH1 0x20 ADD SWAP1 DUP2 MSTORE PUSH1 0x20 ADD PUSH1 0x0 KECCAK256 PUSH1 0x3 ADD PUSH1 0x0 ADD SLOAD PUSH2 0x15DC JUMP JUMPDEST PUSH2 0x1118 PUSH1 0x40 MLOAD DUP1 PUSH1 0x40 ADD PUSH1 0x40 MSTORE DUP1 PUSH1 0x1C DUP2 MSTORE PUSH1 0x20 ADD PUSH32 0x77696E6E657273546F74616C437572766557656967687453756D3A2000000000 DUP2 MSTORE POP DUP7 PUSH1 0x0 ADD MLOAD PUSH2 0x15DC JUMP JUMPDEST PUSH2 0x1157 PUSH1 0x40 MLOAD DUP1 PUSH1 0x40 ADD PUSH1 0x40 MSTORE DUP1 PUSH1 0x19 DUP2 MSTORE PUSH1 0x20 ADD PUSH32 0x77696E6E696E67732066726F6D206C6F73657220706F743A2000000000000000 DUP2 MSTORE POP DUP4 PUSH2 0x15DC JUMP JUMPDEST PUSH2 0x1196 PUSH1 0x40 MLOAD DUP1 PUSH1 0x40 ADD PUSH1 0x40 MSTORE DUP1 PUSH1 0x8 DUP2 MSTORE PUSH1 0x20 ADD PUSH32 0x7061796F75743A20000000000000000000000000000000000000000000000000 DUP2 MSTORE POP DUP3 PUSH2 0x15DC JUMP JUMPDEST DUP1 PUSH1 0x4 PUSH1 0x0 PUSH1 0x5 PUSH1 0x0 PUSH1 0x1 SLOAD DUP2 MSTORE PUSH1 0x20 ADD SWAP1 DUP2 MSTORE PUSH1 0x20 ADD PUSH1 0x0 KECCAK256 PUSH1 0x8 ADD PUSH1 0x0 DUP8 DUP2 MSTORE PUSH1 0x20 ADD SWAP1 DUP2 MSTORE PUSH1 0x20 ADD PUSH1 0x0 KECCAK256 PUSH1 0x0 ADD PUSH1 0x0 SWAP1 SLOAD SWAP1 PUSH2 0x100 EXP SWAP1 DIV PUSH20 0xFFFFFFFFFFFFFFFFFFFFFFFFFFFFFFFFFFFFFFFF AND PUSH20 0xFFFFFFFFFFFFFFFFFFFFFFFFFFFFFFFFFFFFFFFF AND PUSH20 0xFFFFFFFFFFFFFFFFFFFFFFFFFFFFFFFFFFFFFFFF AND DUP2 MSTORE PUSH1 0x20 ADD SWAP1 DUP2 MSTORE PUSH1 0x20 ADD PUSH1 0x0 KECCAK256 PUSH1 0x0 DUP3 DUP3 SLOAD PUSH2 0x1231 SWAP2 SWAP1 PUSH2 0x2846 JUMP JUMPDEST SWAP3 POP POP DUP2 SWAP1 SSTORE POP DUP1 PUSH1 0x5 PUSH1 0x0 PUSH1 0x1 SLOAD DUP2 MSTORE PUSH1 0x20 ADD SWAP1 DUP2 MSTORE PUSH1 0x20 ADD PUSH1 0x0 KECCAK256 PUSH1 0x3 ADD PUSH1 0x0 DUP3 DUP3 SLOAD PUSH2 0x1260 SWAP2 SWAP1 PUSH2 0x2927 JUMP JUMPDEST SWAP3 POP POP DUP2 SWAP1 SSTORE POP PUSH1 0x5 PUSH1 0x0 PUSH1 0x1 SLOAD DUP2 MSTORE PUSH1 0x20 ADD SWAP1 DUP2 MSTORE PUSH1 0x20 ADD PUSH1 0x0 KECCAK256 PUSH1 0x8 ADD PUSH1 0x0 DUP5 DUP2 MSTORE PUSH1 0x20 ADD SWAP1 DUP2 MSTORE PUSH1 0x20 ADD PUSH1 0x0 KECCAK256 PUSH1 0x0 ADD PUSH1 0x0 SWAP1 SLOAD SWAP1 PUSH2 0x100 EXP SWAP1 DIV PUSH20 0xFFFFFFFFFFFFFFFFFFFFFFFFFFFFFFFFFFFFFFFF AND PUSH20 0xFFFFFFFFFFFFFFFFFFFFFFFFFFFFFFFFFFFFFFFF AND PUSH32 0x5AFECA38B2064C23A692C4CF353015D80AB3ECC417B4F893F372690C11FBD9A6 DUP3 PUSH1 0x40 MLOAD PUSH2 0x12F9 SWAP2 SWAP1 PUSH2 0x2786 JUMP JUMPDEST PUSH1 0x40 MLOAD DUP1 SWAP2 SUB SWAP1 LOG2 PUSH2 0x138C PUSH1 0x40 MLOAD DUP1 PUSH1 0x40 ADD PUSH1 0x40 MSTORE DUP1 PUSH1 0x10 DUP2 MSTORE PUSH1 0x20 ADD PUSH32 0x5061796F75742073656E7420746F3A2000000000000000000000000000000000 DUP2 MSTORE POP PUSH1 0x5 PUSH1 0x0 PUSH1 0x1 SLOAD DUP2 MSTORE PUSH1 0x20 ADD SWAP1 DUP2 MSTORE PUSH1 0x20 ADD PUSH1 0x0 KECCAK256 PUSH1 0x8 ADD PUSH1 0x0 DUP7 DUP2 MSTORE PUSH1 0x20 ADD SWAP1 DUP2 MSTORE PUSH1 0x20 ADD PUSH1 0x0 KECCAK256 PUSH1 0x0 ADD PUSH1 0x0 SWAP1 SLOAD SWAP1 PUSH2 0x100 EXP SWAP1 DIV PUSH20 0xFFFFFFFFFFFFFFFFFFFFFFFFFFFFFFFFFFFFFFFF AND PUSH2 0x1D11 JUMP JUMPDEST POP POP JUMPDEST DUP1 DUP1 PUSH2 0x139A SWAP1 PUSH2 0x29DC JUMP JUMPDEST SWAP2 POP POP PUSH2 0xE4E JUMP JUMPDEST POP PUSH2 0x13FA PUSH1 0x40 MLOAD DUP1 PUSH1 0x40 ADD PUSH1 0x40 MSTORE DUP1 PUSH1 0x5 DUP2 MSTORE PUSH1 0x20 ADD PUSH32 0x506F743A20000000000000000000000000000000000000000000000000000000 DUP2 MSTORE POP PUSH1 0x5 PUSH1 0x0 PUSH1 0x1 SLOAD DUP2 MSTORE PUSH1 0x20 ADD SWAP1 DUP2 MSTORE PUSH1 0x20 ADD PUSH1 0x0 KECCAK256 PUSH1 0x3 ADD SLOAD PUSH2 0x15DC JUMP JUMPDEST PUSH1 0x0 PUSH1 0x5 PUSH1 0x0 PUSH1 0x1 SLOAD DUP2 MSTORE PUSH1 0x20 ADD SWAP1 DUP2 MSTORE PUSH1 0x20 ADD PUSH1 0x0 KECCAK256 PUSH1 0x3 ADD SLOAD GT ISZERO PUSH2 0x150B JUMPI PUSH1 0x0 PUSH1 0x5 PUSH1 0x0 PUSH1 0x1 SLOAD DUP2 MSTORE PUSH1 0x20 ADD SWAP1 DUP2 MSTORE PUSH1 0x20 ADD PUSH1 0x0 KECCAK256 PUSH1 0x3 ADD DUP2 SWAP1 SSTORE POP PUSH1 0x3 PUSH1 0x0 SWAP1 SLOAD SWAP1 PUSH2 0x100 EXP SWAP1 DIV PUSH20 0xFFFFFFFFFFFFFFFFFFFFFFFFFFFFFFFFFFFFFFFF AND PUSH20 0xFFFFFFFFFFFFFFFFFFFFFFFFFFFFFFFFFFFFFFFF AND PUSH32 0x5AFECA38B2064C23A692C4CF353015D80AB3ECC417B4F893F372690C11FBD9A6 CALLVALUE PUSH1 0x40 MLOAD PUSH2 0x14A1 SWAP2 SWAP1 PUSH2 0x2786 JUMP JUMPDEST PUSH1 0x40 MLOAD DUP1 SWAP2 SUB SWAP1 LOG2 PUSH2 0x150A PUSH1 0x40 MLOAD DUP1 PUSH1 0x40 ADD PUSH1 0x40 MSTORE DUP1 PUSH1 0x18 DUP2 MSTORE PUSH1 0x20 ADD PUSH32 0x52656D61696E696E6720706F7420737765707420746F3A200000000000000000 DUP2 MSTORE POP PUSH1 0x3 PUSH1 0x0 SWAP1 SLOAD SWAP1 PUSH2 0x100 EXP SWAP1 DIV PUSH20 0xFFFFFFFFFFFFFFFFFFFFFFFFFFFFFFFFFFFFFFFF AND PUSH2 0x1D11 JUMP JUMPDEST JUMPDEST PUSH1 0x0 SWAP4 POP PUSH1 0x0 SWAP3 POP PUSH2 0x151B PUSH2 0x20B8 JUMP JUMPDEST SWAP2 POP PUSH1 0x0 SWAP1 POP POP POP POP POP JUMPDEST JUMP JUMPDEST PUSH1 0x0 DUP1 DUP4 PUSH20 0xFFFFFFFFFFFFFFFFFFFFFFFFFFFFFFFFFFFFFFFF AND DUP4 PUSH1 0x40 MLOAD PUSH2 0x154F SWAP1 PUSH2 0x242F JUMP JUMPDEST PUSH1 0x0 PUSH1 0x40 MLOAD DUP1 DUP4 SUB DUP2 DUP6 DUP8 GAS CALL SWAP3 POP POP POP RETURNDATASIZE DUP1 PUSH1 0x0 DUP2 EQ PUSH2 0x158C JUMPI PUSH1 0x40 MLOAD SWAP2 POP PUSH1 0x1F NOT PUSH1 0x3F RETURNDATASIZE ADD AND DUP3 ADD PUSH1 0x40 MSTORE RETURNDATASIZE DUP3 MSTORE RETURNDATASIZE PUSH1 0x0 PUSH1 0x20 DUP5 ADD RETURNDATACOPY PUSH2 0x1591 JUMP JUMPDEST PUSH1 0x60 SWAP2 POP JUMPDEST POP SWAP2 POP SWAP2 POP DUP2 PUSH2 0x15D6 JUMPI PUSH1 0x40 MLOAD PUSH32 0x8C379A000000000000000000000000000000000000000000000000000000000 DUP2 MSTORE PUSH1 0x4 ADD PUSH2 0x15CD SWAP1 PUSH2 0x25A6 JUMP JUMPDEST PUSH1 0x40 MLOAD DUP1 SWAP2 SUB SWAP1 REVERT JUMPDEST POP POP POP POP JUMP JUMPDEST PUSH2 0x1674 DUP3 DUP3 PUSH1 0x40 MLOAD PUSH1 0x24 ADD PUSH2 0x15F2 SWAP3 SWAP2 SWAP1 PUSH2 0x24B1 JUMP JUMPDEST PUSH1 0x40 MLOAD PUSH1 0x20 DUP2 DUP4 SUB SUB DUP2 MSTORE SWAP1 PUSH1 0x40 MSTORE PUSH32 0x9710A9D000000000000000000000000000000000000000000000000000000000 PUSH28 0xFFFFFFFFFFFFFFFFFFFFFFFFFFFFFFFFFFFFFFFFFFFFFFFFFFFFFFFF NOT AND PUSH1 0x20 DUP3 ADD DUP1 MLOAD PUSH28 0xFFFFFFFFFFFFFFFFFFFFFFFFFFFFFFFFFFFFFFFFFFFFFFFFFFFFFFFF DUP4 DUP2 DUP4 AND OR DUP4 MSTORE POP POP POP POP PUSH2 0x1DAD JUMP JUMPDEST POP POP JUMP JUMPDEST PUSH2 0x1680 PUSH2 0x20B8 JUMP JUMPDEST PUSH1 0x1 DUP3 LT ISZERO DUP1 ISZERO PUSH2 0x16A9 JUMPI POP PUSH1 0x5 PUSH1 0x0 PUSH1 0x1 SLOAD DUP2 MSTORE PUSH1 0x20 ADD SWAP1 DUP2 MSTORE PUSH1 0x20 ADD PUSH1 0x0 KECCAK256 PUSH1 0x5 ADD SLOAD DUP3 GT ISZERO JUMPDEST PUSH2 0x16E8 JUMPI PUSH1 0x40 MLOAD PUSH32 0x8C379A000000000000000000000000000000000000000000000000000000000 DUP2 MSTORE PUSH1 0x4 ADD PUSH2 0x16DF SWAP1 PUSH2 0x26C6 JUMP JUMPDEST PUSH1 0x40 MLOAD DUP1 SWAP2 SUB SWAP1 REVERT JUMPDEST PUSH1 0x0 PUSH2 0x170C DUP4 PUSH1 0x5 PUSH1 0x0 PUSH1 0x1 SLOAD DUP2 MSTORE PUSH1 0x20 ADD SWAP1 DUP2 MSTORE PUSH1 0x20 ADD PUSH1 0x0 KECCAK256 PUSH1 0x5 ADD SLOAD PUSH2 0x1942 JUMP JUMPDEST SWAP1 POP PUSH1 0x0 PUSH2 0x1719 DUP3 PUSH2 0x1DD6 JUMP JUMPDEST SWAP1 POP DUP1 PUSH1 0x5 PUSH1 0x0 PUSH1 0x1 SLOAD DUP2 MSTORE PUSH1 0x20 ADD SWAP1 DUP2 MSTORE PUSH1 0x20 ADD PUSH1 0x0 KECCAK256 PUSH1 0x8 ADD PUSH1 0x0 DUP7 DUP2 MSTORE PUSH1 0x20 ADD SWAP1 DUP2 MSTORE PUSH1 0x20 ADD PUSH1 0x0 KECCAK256 PUSH1 0x3 ADD PUSH1 0x0 DUP3 ADD MLOAD DUP2 PUSH1 0x0 ADD SSTORE SWAP1 POP POP DUP1 SWAP3 POP POP POP SWAP2 SWAP1 POP JUMP JUMPDEST PUSH2 0x1767 PUSH2 0x20B8 JUMP JUMPDEST PUSH1 0x0 DUP3 PUSH1 0x0 ADD MLOAD DUP5 PUSH1 0x0 ADD MLOAD PUSH2 0x177D SWAP2 SWAP1 PUSH2 0x2846 JUMP JUMPDEST SWAP1 POP DUP4 PUSH1 0x0 ADD MLOAD DUP2 LT ISZERO PUSH2 0x17C6 JUMPI PUSH1 0x40 MLOAD PUSH32 0x8C379A000000000000000000000000000000000000000000000000000000000 DUP2 MSTORE PUSH1 0x4 ADD PUSH2 0x17BD SWAP1 PUSH2 0x2706 JUMP JUMPDEST PUSH1 0x40 MLOAD DUP1 SWAP2 SUB SWAP1 REVERT JUMPDEST PUSH1 0x40 MLOAD DUP1 PUSH1 0x20 ADD PUSH1 0x40 MSTORE DUP1 DUP3 DUP2 MSTORE POP SWAP2 POP POP SWAP3 SWAP2 POP POP JUMP JUMPDEST PUSH2 0x1874 DUP2 PUSH1 0x40 MLOAD PUSH1 0x24 ADD PUSH2 0x17F2 SWAP2 SWAP1 PUSH2 0x245F JUMP JUMPDEST PUSH1 0x40 MLOAD PUSH1 0x20 DUP2 DUP4 SUB SUB DUP2 MSTORE SWAP1 PUSH1 0x40 MSTORE PUSH32 0x41304FAC00000000000000000000000000000000000000000000000000000000 PUSH28 0xFFFFFFFFFFFFFFFFFFFFFFFFFFFFFFFFFFFFFFFFFFFFFFFFFFFFFFFF NOT AND PUSH1 0x20 DUP3 ADD DUP1 MLOAD PUSH28 0xFFFFFFFFFFFFFFFFFFFFFFFFFFFFFFFFFFFFFFFFFFFFFFFFFFFFFFFF DUP4 DUP2 DUP4 AND OR DUP4 MSTORE POP POP POP POP PUSH2 0x1DAD JUMP JUMPDEST POP JUMP JUMPDEST PUSH2 0x1911 DUP4 DUP4 DUP4 PUSH1 0x40 MLOAD PUSH1 0x24 ADD PUSH2 0x188F SWAP4 SWAP3 SWAP2 SWAP1 PUSH2 0x24E1 JUMP JUMPDEST PUSH1 0x40 MLOAD PUSH1 0x20 DUP2 DUP4 SUB SUB DUP2 MSTORE SWAP1 PUSH1 0x40 MSTORE PUSH32 0xA3F5C73900000000000000000000000000000000000000000000000000000000 PUSH28 0xFFFFFFFFFFFFFFFFFFFFFFFFFFFFFFFFFFFFFFFFFFFFFFFFFFFFFFFF NOT AND PUSH1 0x20 DUP3 ADD DUP1 MLOAD PUSH28 0xFFFFFFFFFFFFFFFFFFFFFFFFFFFFFFFFFFFFFFFFFFFFFFFFFFFFFFFF DUP4 DUP2 DUP4 AND OR DUP4 MSTORE POP POP POP POP PUSH2 0x1DAD JUMP JUMPDEST POP POP POP JUMP JUMPDEST PUSH2 0x191E PUSH2 0x20B8 JUMP JUMPDEST PUSH1 0x40 MLOAD DUP1 PUSH1 0x20 ADD PUSH1 0x40 MSTORE DUP1 DUP4 DUP2 MSTORE POP SWAP1 POP SWAP2 SWAP1 POP JUMP JUMPDEST PUSH1 0x0 DUP2 PUSH1 0x0 ADD MLOAD SWAP1 POP SWAP2 SWAP1 POP JUMP JUMPDEST PUSH2 0x194A PUSH2 0x20B8 JUMP JUMPDEST PUSH1 0x0 PUSH2 0x1955 DUP5 PUSH2 0x622 JUMP JUMPDEST SWAP1 POP PUSH1 0x0 PUSH2 0x1962 DUP5 PUSH2 0x622 JUMP JUMPDEST SWAP1 POP PUSH2 0x196E DUP3 DUP3 PUSH2 0x1E6F JUMP JUMPDEST SWAP3 POP POP POP SWAP3 SWAP2 POP POP JUMP JUMPDEST PUSH2 0x1980 PUSH2 0x20B8 JUMP JUMPDEST PUSH1 0x0 DUP4 PUSH1 0x0 ADD MLOAD EQ DUP1 PUSH2 0x1997 JUMPI POP PUSH1 0x0 DUP3 PUSH1 0x0 ADD MLOAD EQ JUMPDEST ISZERO PUSH2 0x19B3 JUMPI PUSH1 0x40 MLOAD DUP1 PUSH1 0x20 ADD PUSH1 0x40 MSTORE DUP1 PUSH1 0x0 DUP2 MSTORE POP SWAP1 POP PUSH2 0x1D0B JUMP JUMPDEST PUSH10 0xD3C21BCECCEDA1000000 DUP3 PUSH1 0x0 ADD MLOAD EQ ISZERO PUSH2 0x19D1 JUMPI DUP3 SWAP1 POP PUSH2 0x1D0B JUMP JUMPDEST PUSH10 0xD3C21BCECCEDA1000000 DUP4 PUSH1 0x0 ADD MLOAD EQ ISZERO PUSH2 0x19EF JUMPI DUP2 SWAP1 POP PUSH2 0x1D0B JUMP JUMPDEST PUSH1 0x0 PUSH10 0xD3C21BCECCEDA1000000 PUSH2 0x1A05 DUP6 PUSH2 0x1F5F JUMP JUMPDEST PUSH1 0x0 ADD MLOAD PUSH2 0x1A13 SWAP2 SWAP1 PUSH2 0x289C JUMP JUMPDEST SWAP1 POP PUSH1 0x0 PUSH2 0x1A20 DUP6 PUSH2 0x1FA1 JUMP JUMPDEST PUSH1 0x0 ADD MLOAD SWAP1 POP PUSH1 0x0 PUSH10 0xD3C21BCECCEDA1000000 PUSH2 0x1A3C DUP7 PUSH2 0x1F5F JUMP JUMPDEST PUSH1 0x0 ADD MLOAD PUSH2 0x1A4A SWAP2 SWAP1 PUSH2 0x289C JUMP JUMPDEST SWAP1 POP PUSH1 0x0 PUSH2 0x1A57 DUP7 PUSH2 0x1FA1 JUMP JUMPDEST PUSH1 0x0 ADD MLOAD SWAP1 POP PUSH1 0x0 DUP3 DUP6 PUSH2 0x1A6B SWAP2 SWAP1 PUSH2 0x28CD JUMP JUMPDEST SWAP1 POP PUSH1 0x0 DUP6 EQ PUSH2 0x1AC3 JUMPI DUP3 DUP6 DUP3 PUSH2 0x1A82 SWAP2 SWAP1 PUSH2 0x289C JUMP JUMPDEST EQ PUSH2 0x1AC2 JUMPI PUSH1 0x40 MLOAD PUSH32 0x8C379A000000000000000000000000000000000000000000000000000000000 DUP2 MSTORE PUSH1 0x4 ADD PUSH2 0x1AB9 SWAP1 PUSH2 0x2526 JUMP JUMPDEST PUSH1 0x40 MLOAD DUP1 SWAP2 SUB SWAP1 REVERT JUMPDEST JUMPDEST PUSH1 0x0 PUSH10 0xD3C21BCECCEDA1000000 DUP3 PUSH2 0x1ADB SWAP2 SWAP1 PUSH2 0x28CD JUMP JUMPDEST SWAP1 POP PUSH1 0x0 DUP3 EQ PUSH2 0x1B3D JUMPI PUSH10 0xD3C21BCECCEDA1000000 DUP3 DUP3 PUSH2 0x1AFC SWAP2 SWAP1 PUSH2 0x289C JUMP JUMPDEST EQ PUSH2 0x1B3C JUMPI PUSH1 0x40 MLOAD PUSH32 0x8C379A000000000000000000000000000000000000000000000000000000000 DUP2 MSTORE PUSH1 0x4 ADD PUSH2 0x1B33 SWAP1 PUSH2 0x2726 JUMP JUMPDEST PUSH1 0x40 MLOAD DUP1 SWAP2 SUB SWAP1 REVERT JUMPDEST JUMPDEST DUP1 SWAP2 POP PUSH1 0x0 DUP5 DUP7 PUSH2 0x1B4E SWAP2 SWAP1 PUSH2 0x28CD JUMP JUMPDEST SWAP1 POP PUSH1 0x0 DUP7 EQ PUSH2 0x1BA6 JUMPI DUP5 DUP7 DUP3 PUSH2 0x1B65 SWAP2 SWAP1 PUSH2 0x289C JUMP JUMPDEST EQ PUSH2 0x1BA5 JUMPI PUSH1 0x40 MLOAD PUSH32 0x8C379A000000000000000000000000000000000000000000000000000000000 DUP2 MSTORE PUSH1 0x4 ADD PUSH2 0x1B9C SWAP1 PUSH2 0x2766 JUMP JUMPDEST PUSH1 0x40 MLOAD DUP1 SWAP2 SUB SWAP1 REVERT JUMPDEST JUMPDEST PUSH1 0x0 DUP5 DUP9 PUSH2 0x1BB4 SWAP2 SWAP1 PUSH2 0x28CD JUMP JUMPDEST SWAP1 POP PUSH1 0x0 DUP9 EQ PUSH2 0x1C0C JUMPI DUP5 DUP9 DUP3 PUSH2 0x1BCB SWAP2 SWAP1 PUSH2 0x289C JUMP JUMPDEST EQ PUSH2 0x1C0B JUMPI PUSH1 0x40 MLOAD PUSH32 0x8C379A000000000000000000000000000000000000000000000000000000000 DUP2 MSTORE PUSH1 0x4 ADD PUSH2 0x1C02 SWAP1 PUSH2 0x26E6 JUMP JUMPDEST PUSH1 0x40 MLOAD DUP1 SWAP2 SUB SWAP1 REVERT JUMPDEST JUMPDEST PUSH2 0x1C14 PUSH2 0x1FF2 JUMP JUMPDEST DUP8 PUSH2 0x1C1F SWAP2 SWAP1 PUSH2 0x289C JUMP JUMPDEST SWAP7 POP PUSH2 0x1C29 PUSH2 0x1FF2 JUMP JUMPDEST DUP6 PUSH2 0x1C34 SWAP2 SWAP1 PUSH2 0x289C JUMP JUMPDEST SWAP5 POP PUSH1 0x0 DUP6 DUP9 PUSH2 0x1C44 SWAP2 SWAP1 PUSH2 0x28CD JUMP JUMPDEST SWAP1 POP PUSH1 0x0 DUP9 EQ PUSH2 0x1C9C JUMPI DUP6 DUP9 DUP3 PUSH2 0x1C5B SWAP2 SWAP1 PUSH2 0x289C JUMP JUMPDEST EQ PUSH2 0x1C9B JUMPI PUSH1 0x40 MLOAD PUSH32 0x8C379A000000000000000000000000000000000000000000000000000000000 DUP2 MSTORE PUSH1 0x4 ADD PUSH2 0x1C92 SWAP1 PUSH2 0x2566 JUMP JUMPDEST PUSH1 0x40 MLOAD DUP1 SWAP2 SUB SWAP1 REVERT JUMPDEST JUMPDEST PUSH1 0x0 PUSH1 0x40 MLOAD DUP1 PUSH1 0x20 ADD PUSH1 0x40 MSTORE DUP1 DUP8 DUP2 MSTORE POP SWAP1 POP PUSH2 0x1CC7 DUP2 PUSH1 0x40 MLOAD DUP1 PUSH1 0x20 ADD PUSH1 0x40 MSTORE DUP1 DUP8 DUP2 MSTORE POP PUSH2 0x175F JUMP JUMPDEST SWAP1 POP PUSH2 0x1CE1 DUP2 PUSH1 0x40 MLOAD DUP1 PUSH1 0x20 ADD PUSH1 0x40 MSTORE DUP1 DUP7 DUP2 MSTORE POP PUSH2 0x175F JUMP JUMPDEST SWAP1 POP PUSH2 0x1CFB DUP2 PUSH1 0x40 MLOAD DUP1 PUSH1 0x20 ADD PUSH1 0x40 MSTORE DUP1 DUP6 DUP2 MSTORE POP PUSH2 0x175F JUMP JUMPDEST SWAP1 POP DUP1 SWAP11 POP POP POP POP POP POP POP POP POP POP POP JUMPDEST SWAP3 SWAP2 POP POP JUMP JUMPDEST PUSH2 0x1DA9 DUP3 DUP3 PUSH1 0x40 MLOAD PUSH1 0x24 ADD PUSH2 0x1D27 SWAP3 SWAP2 SWAP1 PUSH2 0x2481 JUMP JUMPDEST PUSH1 0x40 MLOAD PUSH1 0x20 DUP2 DUP4 SUB SUB DUP2 MSTORE SWAP1 PUSH1 0x40 MSTORE PUSH32 0x319AF33300000000000000000000000000000000000000000000000000000000 PUSH28 0xFFFFFFFFFFFFFFFFFFFFFFFFFFFFFFFFFFFFFFFFFFFFFFFFFFFFFFFF NOT AND PUSH1 0x20 DUP3 ADD DUP1 MLOAD PUSH28 0xFFFFFFFFFFFFFFFFFFFFFFFFFFFFFFFFFFFFFFFFFFFFFFFFFFFFFFFF DUP4 DUP2 DUP4 AND OR DUP4 MSTORE POP POP POP POP PUSH2 0x1DAD JUMP JUMPDEST POP POP JUMP JUMPDEST PUSH1 0x0 DUP2 MLOAD SWAP1 POP PUSH1 0x0 PUSH11 0x636F6E736F6C652E6C6F67 SWAP1 POP PUSH1 0x20 DUP4 ADD PUSH1 0x0 DUP1 DUP5 DUP4 DUP6 GAS STATICCALL POP POP POP POP POP JUMP JUMPDEST PUSH2 0x1DDE PUSH2 0x20B8 JUMP JUMPDEST PUSH1 0x0 DUP3 PUSH1 0x0 ADD MLOAD LT ISZERO DUP1 ISZERO PUSH2 0x1E00 JUMPI POP PUSH2 0x1DFF DUP3 PUSH2 0x1DFA PUSH2 0x1FFF JUMP JUMPDEST PUSH2 0x2025 JUMP JUMPDEST JUMPDEST PUSH2 0x1E3F JUMPI PUSH1 0x40 MLOAD PUSH32 0x8C379A000000000000000000000000000000000000000000000000000000000 DUP2 MSTORE PUSH1 0x4 ADD PUSH2 0x1E36 SWAP1 PUSH2 0x2746 JUMP JUMPDEST PUSH1 0x40 MLOAD DUP1 SWAP2 SUB SWAP1 REVERT JUMPDEST PUSH1 0x0 PUSH2 0x1E54 PUSH2 0x1E4E DUP5 DUP6 PUSH2 0x1978 JUMP JUMPDEST DUP5 PUSH2 0x1978 JUMP JUMPDEST SWAP1 POP PUSH2 0x1E67 PUSH2 0x1E61 PUSH2 0x1FFF JUMP JUMPDEST DUP3 PUSH2 0x203B JUMP JUMPDEST SWAP2 POP POP SWAP2 SWAP1 POP JUMP JUMPDEST PUSH2 0x1E77 PUSH2 0x20B8 JUMP JUMPDEST PUSH1 0x0 DUP3 PUSH1 0x0 ADD MLOAD EQ ISZERO PUSH2 0x1EBF JUMPI PUSH1 0x40 MLOAD PUSH32 0x8C379A000000000000000000000000000000000000000000000000000000000 DUP2 MSTORE PUSH1 0x4 ADD PUSH2 0x1EB6 SWAP1 PUSH2 0x2586 JUMP JUMPDEST PUSH1 0x40 MLOAD DUP1 SWAP2 SUB SWAP1 REVERT JUMPDEST PUSH1 0x0 PUSH10 0xD3C21BCECCEDA1000000 DUP5 PUSH1 0x0 ADD MLOAD PUSH2 0x1EDB SWAP2 SWAP1 PUSH2 0x28CD JUMP JUMPDEST SWAP1 POP DUP4 PUSH1 0x0 ADD MLOAD PUSH10 0xD3C21BCECCEDA1000000 DUP3 PUSH2 0x1EF8 SWAP2 SWAP1 PUSH2 0x289C JUMP JUMPDEST EQ PUSH2 0x1F38 JUMPI PUSH1 0x40 MLOAD PUSH32 0x8C379A000000000000000000000000000000000000000000000000000000000 DUP2 MSTORE PUSH1 0x4 ADD PUSH2 0x1F2F SWAP1 PUSH2 0x2686 JUMP JUMPDEST PUSH1 0x40 MLOAD DUP1 SWAP2 SUB SWAP1 REVERT JUMPDEST PUSH1 0x40 MLOAD DUP1 PUSH1 0x20 ADD PUSH1 0x40 MSTORE DUP1 DUP5 PUSH1 0x0 ADD MLOAD DUP4 PUSH2 0x1F53 SWAP2 SWAP1 PUSH2 0x289C JUMP JUMPDEST DUP2 MSTORE POP SWAP2 POP POP SWAP3 SWAP2 POP POP JUMP JUMPDEST PUSH2 0x1F67 PUSH2 0x20B8 JUMP JUMPDEST PUSH1 0x40 MLOAD DUP1 PUSH1 0x20 ADD PUSH1 0x40 MSTORE DUP1 PUSH10 0xD3C21BCECCEDA1000000 DUP1 DUP6 PUSH1 0x0 ADD MLOAD PUSH2 0x1F8D SWAP2 SWAP1 PUSH2 0x289C JUMP JUMPDEST PUSH2 0x1F97 SWAP2 SWAP1 PUSH2 0x28CD JUMP JUMPDEST DUP2 MSTORE POP SWAP1 POP SWAP2 SWAP1 POP JUMP JUMPDEST PUSH2 0x1FA9 PUSH2 0x20B8 JUMP JUMPDEST PUSH1 0x40 MLOAD DUP1 PUSH1 0x20 ADD PUSH1 0x40 MSTORE DUP1 PUSH10 0xD3C21BCECCEDA1000000 DUP1 DUP6 PUSH1 0x0 ADD MLOAD PUSH2 0x1FCF SWAP2 SWAP1 PUSH2 0x289C JUMP JUMPDEST PUSH2 0x1FD9 SWAP2 SWAP1 PUSH2 0x28CD JUMP JUMPDEST DUP5 PUSH1 0x0 ADD MLOAD PUSH2 0x1FE8 SWAP2 SWAP1 PUSH2 0x2927 JUMP JUMPDEST DUP2 MSTORE POP SWAP1 POP SWAP2 SWAP1 POP JUMP JUMPDEST PUSH1 0x0 PUSH5 0xE8D4A51000 SWAP1 POP SWAP1 JUMP JUMPDEST PUSH2 0x2007 PUSH2 0x20B8 JUMP JUMPDEST PUSH1 0x40 MLOAD DUP1 PUSH1 0x20 ADD PUSH1 0x40 MSTORE DUP1 PUSH10 0xD3C21BCECCEDA1000000 DUP2 MSTORE POP SWAP1 POP SWAP1 JUMP JUMPDEST PUSH1 0x0 DUP2 PUSH1 0x0 ADD MLOAD DUP4 PUSH1 0x0 ADD MLOAD GT ISZERO SWAP1 POP SWAP3 SWAP2 POP POP JUMP JUMPDEST PUSH2 0x2043 PUSH2 0x20B8 JUMP JUMPDEST DUP2 PUSH1 0x0 ADD MLOAD DUP4 PUSH1 0x0 ADD MLOAD LT ISZERO PUSH2 0x208E JUMPI PUSH1 0x40 MLOAD PUSH32 0x8C379A000000000000000000000000000000000000000000000000000000000 DUP2 MSTORE PUSH1 0x4 ADD PUSH2 0x2085 SWAP1 PUSH2 0x2546 JUMP JUMPDEST PUSH1 0x40 MLOAD DUP1 SWAP2 SUB SWAP1 REVERT JUMPDEST PUSH1 0x40 MLOAD DUP1 PUSH1 0x20 ADD PUSH1 0x40 MSTORE DUP1 DUP4 PUSH1 0x0 ADD MLOAD DUP6 PUSH1 0x0 ADD MLOAD PUSH2 0x20AD SWAP2 SWAP1 PUSH2 0x2927 JUMP JUMPDEST DUP2 MSTORE POP SWAP1 POP SWAP3 SWAP2 POP POP JUMP JUMPDEST PUSH1 0x40 MLOAD DUP1 PUSH1 0x20 ADD PUSH1 0x40 MSTORE DUP1 PUSH1 0x0 DUP2 MSTORE POP SWAP1 JUMP JUMPDEST PUSH1 0x0 DUP2 CALLDATALOAD SWAP1 POP PUSH2 0x20DA DUP2 PUSH2 0x2DF3 JUMP JUMPDEST SWAP3 SWAP2 POP POP JUMP JUMPDEST PUSH1 0x0 PUSH1 0x20 DUP3 DUP5 SUB SLT ISZERO PUSH2 0x20F6 JUMPI PUSH2 0x20F5 PUSH2 0x2A83 JUMP JUMPDEST JUMPDEST PUSH1 0x0 PUSH2 0x2104 DUP5 DUP3 DUP6 ADD PUSH2 0x20CB JUMP JUMPDEST SWAP2 POP POP SWAP3 SWAP2 POP POP JUMP JUMPDEST PUSH2 0x2116 DUP2 PUSH2 0x296D JUMP JUMPDEST DUP3 MSTORE POP POP JUMP JUMPDEST PUSH2 0x2125 DUP2 PUSH2 0x295B JUMP JUMPDEST DUP3 MSTORE POP POP JUMP JUMPDEST PUSH1 0x0 PUSH2 0x2136 DUP3 PUSH2 0x281F JUMP JUMPDEST PUSH2 0x2140 DUP2 DUP6 PUSH2 0x2835 JUMP JUMPDEST SWAP4 POP PUSH2 0x2150 DUP2 DUP6 PUSH1 0x20 DUP7 ADD PUSH2 0x29A9 JUMP JUMPDEST PUSH2 0x2159 DUP2 PUSH2 0x2A88 JUMP JUMPDEST DUP5 ADD SWAP2 POP POP SWAP3 SWAP2 POP POP JUMP JUMPDEST PUSH1 0x0 PUSH2 0x2171 PUSH1 0x16 DUP4 PUSH2 0x2835 JUMP JUMPDEST SWAP2 POP PUSH2 0x217C DUP3 PUSH2 0x2A99 JUMP JUMPDEST PUSH1 0x20 DUP3 ADD SWAP1 POP SWAP2 SWAP1 POP JUMP JUMPDEST PUSH1 0x0 PUSH2 0x2194 PUSH1 0x1F DUP4 PUSH2 0x2835 JUMP JUMPDEST SWAP2 POP PUSH2 0x219F DUP3 PUSH2 0x2AC2 JUMP JUMPDEST PUSH1 0x20 DUP3 ADD SWAP1 POP SWAP2 SWAP1 POP JUMP JUMPDEST PUSH1 0x0 PUSH2 0x21B7 PUSH1 0x16 DUP4 PUSH2 0x2835 JUMP JUMPDEST SWAP2 POP PUSH2 0x21C2 DUP3 PUSH2 0x2AEB JUMP JUMPDEST PUSH1 0x20 DUP3 ADD SWAP1 POP SWAP2 SWAP1 POP JUMP JUMPDEST PUSH1 0x0 PUSH2 0x21DA PUSH1 0x11 DUP4 PUSH2 0x2835 JUMP JUMPDEST SWAP2 POP PUSH2 0x21E5 DUP3 PUSH2 0x2B14 JUMP JUMPDEST PUSH1 0x20 DUP3 ADD SWAP1 POP SWAP2 SWAP1 POP JUMP JUMPDEST PUSH1 0x0 PUSH2 0x21FD PUSH1 0x14 DUP4 PUSH2 0x2835 JUMP JUMPDEST SWAP2 POP PUSH2 0x2208 DUP3 PUSH2 0x2B3D JUMP JUMPDEST PUSH1 0x20 DUP3 ADD SWAP1 POP SWAP2 SWAP1 POP JUMP JUMPDEST PUSH1 0x0 PUSH2 0x2220 PUSH1 0x36 DUP4 PUSH2 0x2835 JUMP JUMPDEST SWAP2 POP PUSH2 0x222B DUP3 PUSH2 0x2B66 JUMP JUMPDEST PUSH1 0x40 DUP3 ADD SWAP1 POP SWAP2 SWAP1 POP JUMP JUMPDEST PUSH1 0x0 PUSH2 0x2243 PUSH1 0x14 DUP4 PUSH2 0x2835 JUMP JUMPDEST SWAP2 POP PUSH2 0x224E DUP3 PUSH2 0x2BB5 JUMP JUMPDEST PUSH1 0x20 DUP3 ADD SWAP1 POP SWAP2 SWAP1 POP JUMP JUMPDEST PUSH1 0x0 PUSH2 0x2266 PUSH1 0x13 DUP4 PUSH2 0x2835 JUMP JUMPDEST SWAP2 POP PUSH2 0x2271 DUP3 PUSH2 0x2BDE JUMP JUMPDEST PUSH1 0x20 DUP3 ADD SWAP1 POP SWAP2 SWAP1 POP JUMP JUMPDEST PUSH1 0x0 PUSH2 0x2289 PUSH1 0x3C DUP4 PUSH2 0x2835 JUMP JUMPDEST SWAP2 POP PUSH2 0x2294 DUP3 PUSH2 0x2C07 JUMP JUMPDEST PUSH1 0x40 DUP3 ADD SWAP1 POP SWAP2 SWAP1 POP JUMP JUMPDEST PUSH1 0x0 PUSH2 0x22AC PUSH1 0x14 DUP4 PUSH2 0x2835 JUMP JUMPDEST SWAP2 POP PUSH2 0x22B7 DUP3 PUSH2 0x2C56 JUMP JUMPDEST PUSH1 0x20 DUP3 ADD SWAP1 POP SWAP2 SWAP1 POP JUMP JUMPDEST PUSH1 0x0 PUSH2 0x22CF PUSH1 0x12 DUP4 PUSH2 0x2835 JUMP JUMPDEST SWAP2 POP PUSH2 0x22DA DUP3 PUSH2 0x2C7F JUMP JUMPDEST PUSH1 0x20 DUP3 ADD SWAP1 POP SWAP2 SWAP1 POP JUMP JUMPDEST PUSH1 0x0 PUSH2 0x22F2 PUSH1 0x12 DUP4 PUSH2 0x2835 JUMP JUMPDEST SWAP2 POP PUSH2 0x22FD DUP3 PUSH2 0x2CA8 JUMP JUMPDEST PUSH1 0x20 DUP3 ADD SWAP1 POP SWAP2 SWAP1 POP JUMP JUMPDEST PUSH1 0x0 PUSH2 0x2315 PUSH1 0x1B DUP4 PUSH2 0x2835 JUMP JUMPDEST SWAP2 POP PUSH2 0x2320 DUP3 PUSH2 0x2CD1 JUMP JUMPDEST PUSH1 0x20 DUP3 ADD SWAP1 POP SWAP2 SWAP1 POP JUMP JUMPDEST PUSH1 0x0 PUSH2 0x2338 PUSH1 0x1A DUP4 PUSH2 0x2835 JUMP JUMPDEST SWAP2 POP PUSH2 0x2343 DUP3 PUSH2 0x2CFA JUMP JUMPDEST PUSH1 0x20 DUP3 ADD SWAP1 POP SWAP2 SWAP1 POP JUMP JUMPDEST PUSH1 0x0 PUSH2 0x235B PUSH1 0x16 DUP4 PUSH2 0x2835 JUMP JUMPDEST SWAP2 POP PUSH2 0x2366 DUP3 PUSH2 0x2D23 JUMP JUMPDEST PUSH1 0x20 DUP3 ADD SWAP1 POP SWAP2 SWAP1 POP JUMP JUMPDEST PUSH1 0x0 PUSH2 0x237E PUSH1 0x0 DUP4 PUSH2 0x282A JUMP JUMPDEST SWAP2 POP PUSH2 0x2389 DUP3 PUSH2 0x2D4C JUMP JUMPDEST PUSH1 0x0 DUP3 ADD SWAP1 POP SWAP2 SWAP1 POP JUMP JUMPDEST PUSH1 0x0 PUSH2 0x23A1 PUSH1 0x15 DUP4 PUSH2 0x2835 JUMP JUMPDEST SWAP2 POP PUSH2 0x23AC DUP3 PUSH2 0x2D4F JUMP JUMPDEST PUSH1 0x20 DUP3 ADD SWAP1 POP SWAP2 SWAP1 POP JUMP JUMPDEST PUSH1 0x0 PUSH2 0x23C4 PUSH1 0x1F DUP4 PUSH2 0x2835 JUMP JUMPDEST SWAP2 POP PUSH2 0x23CF DUP3 PUSH2 0x2D78 JUMP JUMPDEST PUSH1 0x20 DUP3 ADD SWAP1 POP SWAP2 SWAP1 POP JUMP JUMPDEST PUSH1 0x0 PUSH2 0x23E7 PUSH1 0x13 DUP4 PUSH2 0x2835 JUMP JUMPDEST SWAP2 POP PUSH2 0x23F2 DUP3 PUSH2 0x2DA1 JUMP JUMPDEST PUSH1 0x20 DUP3 ADD SWAP1 POP SWAP2 SWAP1 POP JUMP JUMPDEST PUSH1 0x0 PUSH2 0x240A PUSH1 0x16 DUP4 PUSH2 0x2835 JUMP JUMPDEST SWAP2 POP PUSH2 0x2415 DUP3 PUSH2 0x2DCA JUMP JUMPDEST PUSH1 0x20 DUP3 ADD SWAP1 POP SWAP2 SWAP1 POP JUMP JUMPDEST PUSH2 0x2429 DUP2 PUSH2 0x299F JUMP JUMPDEST DUP3 MSTORE POP POP JUMP JUMPDEST PUSH1 0x0 PUSH2 0x243A DUP3 PUSH2 0x2371 JUMP JUMPDEST SWAP2 POP DUP2 SWAP1 POP SWAP2 SWAP1 POP JUMP JUMPDEST PUSH1 0x0 PUSH1 0x20 DUP3 ADD SWAP1 POP PUSH2 0x2459 PUSH1 0x0 DUP4 ADD DUP5 PUSH2 0x210D JUMP JUMPDEST SWAP3 SWAP2 POP POP JUMP JUMPDEST PUSH1 0x0 PUSH1 0x20 DUP3 ADD SWAP1 POP DUP2 DUP2 SUB PUSH1 0x0 DUP4 ADD MSTORE PUSH2 0x2479 DUP2 DUP5 PUSH2 0x212B JUMP JUMPDEST SWAP1 POP SWAP3 SWAP2 POP POP JUMP JUMPDEST PUSH1 0x0 PUSH1 0x40 DUP3 ADD SWAP1 POP DUP2 DUP2 SUB PUSH1 0x0 DUP4 ADD MSTORE PUSH2 0x249B DUP2 DUP6 PUSH2 0x212B JUMP JUMPDEST SWAP1 POP PUSH2 0x24AA PUSH1 0x20 DUP4 ADD DUP5 PUSH2 0x211C JUMP JUMPDEST SWAP4 SWAP3 POP POP POP JUMP JUMPDEST PUSH1 0x0 PUSH1 0x40 DUP3 ADD SWAP1 POP DUP2 DUP2 SUB PUSH1 0x0 DUP4 ADD MSTORE PUSH2 0x24CB DUP2 DUP6 PUSH2 0x212B JUMP JUMPDEST SWAP1 POP PUSH2 0x24DA PUSH1 0x20 DUP4 ADD DUP5 PUSH2 0x2420 JUMP JUMPDEST SWAP4 SWAP3 POP POP POP JUMP JUMPDEST PUSH1 0x0 PUSH1 0x60 DUP3 ADD SWAP1 POP DUP2 DUP2 SUB PUSH1 0x0 DUP4 ADD MSTORE PUSH2 0x24FB DUP2 DUP7 PUSH2 0x212B JUMP JUMPDEST SWAP1 POP PUSH2 0x250A PUSH1 0x20 DUP4 ADD DUP6 PUSH2 0x2420 JUMP JUMPDEST DUP2 DUP2 SUB PUSH1 0x40 DUP4 ADD MSTORE PUSH2 0x251C DUP2 DUP5 PUSH2 0x212B JUMP JUMPDEST SWAP1 POP SWAP5 SWAP4 POP POP POP POP JUMP JUMPDEST PUSH1 0x0 PUSH1 0x20 DUP3 ADD SWAP1 POP DUP2 DUP2 SUB PUSH1 0x0 DUP4 ADD MSTORE PUSH2 0x253F DUP2 PUSH2 0x2164 JUMP JUMPDEST SWAP1 POP SWAP2 SWAP1 POP JUMP JUMPDEST PUSH1 0x0 PUSH1 0x20 DUP3 ADD SWAP1 POP DUP2 DUP2 SUB PUSH1 0x0 DUP4 ADD MSTORE PUSH2 0x255F DUP2 PUSH2 0x2187 JUMP JUMPDEST SWAP1 POP SWAP2 SWAP1 POP JUMP JUMPDEST PUSH1 0x0 PUSH1 0x20 DUP3 ADD SWAP1 POP DUP2 DUP2 SUB PUSH1 0x0 DUP4 ADD MSTORE PUSH2 0x257F DUP2 PUSH2 0x21AA JUMP JUMPDEST SWAP1 POP SWAP2 SWAP1 POP JUMP JUMPDEST PUSH1 0x0 PUSH1 0x20 DUP3 ADD SWAP1 POP DUP2 DUP2 SUB PUSH1 0x0 DUP4 ADD MSTORE PUSH2 0x259F DUP2 PUSH2 0x21CD JUMP JUMPDEST SWAP1 POP SWAP2 SWAP1 POP JUMP JUMPDEST PUSH1 0x0 PUSH1 0x20 DUP3 ADD SWAP1 POP DUP2 DUP2 SUB PUSH1 0x0 DUP4 ADD MSTORE PUSH2 0x25BF DUP2 PUSH2 0x21F0 JUMP JUMPDEST SWAP1 POP SWAP2 SWAP1 POP JUMP JUMPDEST PUSH1 0x0 PUSH1 0x20 DUP3 ADD SWAP1 POP DUP2 DUP2 SUB PUSH1 0x0 DUP4 ADD MSTORE PUSH2 0x25DF DUP2 PUSH2 0x2213 JUMP JUMPDEST SWAP1 POP SWAP2 SWAP1 POP JUMP JUMPDEST PUSH1 0x0 PUSH1 0x20 DUP3 ADD SWAP1 POP DUP2 DUP2 SUB PUSH1 0x0 DUP4 ADD MSTORE PUSH2 0x25FF DUP2 PUSH2 0x2236 JUMP JUMPDEST SWAP1 POP SWAP2 SWAP1 POP JUMP JUMPDEST PUSH1 0x0 PUSH1 0x20 DUP3 ADD SWAP1 POP DUP2 DUP2 SUB PUSH1 0x0 DUP4 ADD MSTORE PUSH2 0x261F DUP2 PUSH2 0x2259 JUMP JUMPDEST SWAP1 POP SWAP2 SWAP1 POP JUMP JUMPDEST PUSH1 0x0 PUSH1 0x20 DUP3 ADD SWAP1 POP DUP2 DUP2 SUB PUSH1 0x0 DUP4 ADD MSTORE PUSH2 0x263F DUP2 PUSH2 0x227C JUMP JUMPDEST SWAP1 POP SWAP2 SWAP1 POP JUMP JUMPDEST PUSH1 0x0 PUSH1 0x20 DUP3 ADD SWAP1 POP DUP2 DUP2 SUB PUSH1 0x0 DUP4 ADD MSTORE PUSH2 0x265F DUP2 PUSH2 0x229F JUMP JUMPDEST SWAP1 POP SWAP2 SWAP1 POP JUMP JUMPDEST PUSH1 0x0 PUSH1 0x20 DUP3 ADD SWAP1 POP DUP2 DUP2 SUB PUSH1 0x0 DUP4 ADD MSTORE PUSH2 0x267F DUP2 PUSH2 0x22C2 JUMP JUMPDEST SWAP1 POP SWAP2 SWAP1 POP JUMP JUMPDEST PUSH1 0x0 PUSH1 0x20 DUP3 ADD SWAP1 POP DUP2 DUP2 SUB PUSH1 0x0 DUP4 ADD MSTORE PUSH2 0x269F DUP2 PUSH2 0x22E5 JUMP JUMPDEST SWAP1 POP SWAP2 SWAP1 POP JUMP JUMPDEST PUSH1 0x0 PUSH1 0x20 DUP3 ADD SWAP1 POP DUP2 DUP2 SUB PUSH1 0x0 DUP4 ADD MSTORE PUSH2 0x26BF DUP2 PUSH2 0x2308 JUMP JUMPDEST SWAP1 POP SWAP2 SWAP1 POP JUMP JUMPDEST PUSH1 0x0 PUSH1 0x20 DUP3 ADD SWAP1 POP DUP2 DUP2 SUB PUSH1 0x0 DUP4 ADD MSTORE PUSH2 0x26DF DUP2 PUSH2 0x232B JUMP JUMPDEST SWAP1 POP SWAP2 SWAP1 POP JUMP JUMPDEST PUSH1 0x0 PUSH1 0x20 DUP3 ADD SWAP1 POP DUP2 DUP2 SUB PUSH1 0x0 DUP4 ADD MSTORE PUSH2 0x26FF DUP2 PUSH2 0x234E JUMP JUMPDEST SWAP1 POP SWAP2 SWAP1 POP JUMP JUMPDEST PUSH1 0x0 PUSH1 0x20 DUP3 ADD SWAP1 POP DUP2 DUP2 SUB PUSH1 0x0 DUP4 ADD MSTORE PUSH2 0x271F DUP2 PUSH2 0x2394 JUMP JUMPDEST SWAP1 POP SWAP2 SWAP1 POP JUMP JUMPDEST PUSH1 0x0 PUSH1 0x20 DUP3 ADD SWAP1 POP DUP2 DUP2 SUB PUSH1 0x0 DUP4 ADD MSTORE PUSH2 0x273F DUP2 PUSH2 0x23B7 JUMP JUMPDEST SWAP1 POP SWAP2 SWAP1 POP JUMP JUMPDEST PUSH1 0x0 PUSH1 0x20 DUP3 ADD SWAP1 POP DUP2 DUP2 SUB PUSH1 0x0 DUP4 ADD MSTORE PUSH2 0x275F DUP2 PUSH2 0x23DA JUMP JUMPDEST SWAP1 POP SWAP2 SWAP1 POP JUMP JUMPDEST PUSH1 0x0 PUSH1 0x20 DUP3 ADD SWAP1 POP DUP2 DUP2 SUB PUSH1 0x0 DUP4 ADD MSTORE PUSH2 0x277F DUP2 PUSH2 0x23FD JUMP JUMPDEST SWAP1 POP SWAP2 SWAP1 POP JUMP JUMPDEST PUSH1 0x0 PUSH1 0x20 DUP3 ADD SWAP1 POP PUSH2 0x279B PUSH1 0x0 DUP4 ADD DUP5 PUSH2 0x2420 JUMP JUMPDEST SWAP3 SWAP2 POP POP JUMP JUMPDEST PUSH1 0x0 PUSH2 0x100 DUP3 ADD SWAP1 POP PUSH2 0x27B7 PUSH1 0x0 DUP4 ADD DUP12 PUSH2 0x2420 JUMP JUMPDEST PUSH2 0x27C4 PUSH1 0x20 DUP4 ADD DUP11 PUSH2 0x2420 JUMP JUMPDEST PUSH2 0x27D1 PUSH1 0x40 DUP4 ADD DUP10 PUSH2 0x2420 JUMP JUMPDEST PUSH2 0x27DE PUSH1 0x60 DUP4 ADD DUP9 PUSH2 0x2420 JUMP JUMPDEST PUSH2 0x27EB PUSH1 0x80 DUP4 ADD DUP8 PUSH2 0x2420 JUMP JUMPDEST PUSH2 0x27F8 PUSH1 0xA0 DUP4 ADD DUP7 PUSH2 0x2420 JUMP JUMPDEST PUSH2 0x2805 PUSH1 0xC0 DUP4 ADD DUP6 PUSH2 0x2420 JUMP JUMPDEST PUSH2 0x2812 PUSH1 0xE0 DUP4 ADD DUP5 PUSH2 0x2420 JUMP JUMPDEST SWAP10 SWAP9 POP POP POP POP POP POP POP POP POP JUMP JUMPDEST PUSH1 0x0 DUP2 MLOAD SWAP1 POP SWAP2 SWAP1 POP JUMP JUMPDEST PUSH1 0x0 DUP2 SWAP1 POP SWAP3 SWAP2 POP POP JUMP JUMPDEST PUSH1 0x0 DUP3 DUP3 MSTORE PUSH1 0x20 DUP3 ADD SWAP1 POP SWAP3 SWAP2 POP POP JUMP JUMPDEST PUSH1 0x0 PUSH2 0x2851 DUP3 PUSH2 0x299F JUMP JUMPDEST SWAP2 POP PUSH2 0x285C DUP4 PUSH2 0x299F JUMP JUMPDEST SWAP3 POP DUP3 PUSH32 0xFFFFFFFFFFFFFFFFFFFFFFFFFFFFFFFFFFFFFFFFFFFFFFFFFFFFFFFFFFFFFFFF SUB DUP3 GT ISZERO PUSH2 0x2891 JUMPI PUSH2 0x2890 PUSH2 0x2A25 JUMP JUMPDEST JUMPDEST DUP3 DUP3 ADD SWAP1 POP SWAP3 SWAP2 POP POP JUMP JUMPDEST PUSH1 0x0 PUSH2 0x28A7 DUP3 PUSH2 0x299F JUMP JUMPDEST SWAP2 POP PUSH2 0x28B2 DUP4 PUSH2 0x299F JUMP JUMPDEST SWAP3 POP DUP3 PUSH2 0x28C2 JUMPI PUSH2 0x28C1 PUSH2 0x2A54 JUMP JUMPDEST JUMPDEST DUP3 DUP3 DIV SWAP1 POP SWAP3 SWAP2 POP POP JUMP JUMPDEST PUSH1 0x0 PUSH2 0x28D8 DUP3 PUSH2 0x299F JUMP JUMPDEST SWAP2 POP PUSH2 0x28E3 DUP4 PUSH2 0x299F JUMP JUMPDEST SWAP3 POP DUP2 PUSH32 0xFFFFFFFFFFFFFFFFFFFFFFFFFFFFFFFFFFFFFFFFFFFFFFFFFFFFFFFFFFFFFFFF DIV DUP4 GT DUP3 ISZERO ISZERO AND ISZERO PUSH2 0x291C JUMPI PUSH2 0x291B PUSH2 0x2A25 JUMP JUMPDEST JUMPDEST DUP3 DUP3 MUL SWAP1 POP SWAP3 SWAP2 POP POP JUMP JUMPDEST PUSH1 0x0 PUSH2 0x2932 DUP3 PUSH2 0x299F JUMP JUMPDEST SWAP2 POP PUSH2 0x293D DUP4 PUSH2 0x299F JUMP JUMPDEST SWAP3 POP DUP3 DUP3 LT ISZERO PUSH2 0x2950 JUMPI PUSH2 0x294F PUSH2 0x2A25 JUMP JUMPDEST JUMPDEST DUP3 DUP3 SUB SWAP1 POP SWAP3 SWAP2 POP POP JUMP JUMPDEST PUSH1 0x0 PUSH2 0x2966 DUP3 PUSH2 0x297F JUMP JUMPDEST SWAP1 POP SWAP2 SWAP1 POP JUMP JUMPDEST PUSH1 0x0 PUSH2 0x2978 DUP3 PUSH2 0x297F JUMP JUMPDEST SWAP1 POP SWAP2 SWAP1 POP JUMP JUMPDEST PUSH1 0x0 PUSH20 0xFFFFFFFFFFFFFFFFFFFFFFFFFFFFFFFFFFFFFFFF DUP3 AND SWAP1 POP SWAP2 SWAP1 POP JUMP JUMPDEST PUSH1 0x0 DUP2 SWAP1 POP SWAP2 SWAP1 POP JUMP JUMPDEST PUSH1 0x0 JUMPDEST DUP4 DUP2 LT ISZERO PUSH2 0x29C7 JUMPI DUP1 DUP3 ADD MLOAD DUP2 DUP5 ADD MSTORE PUSH1 0x20 DUP2 ADD SWAP1 POP PUSH2 0x29AC JUMP JUMPDEST DUP4 DUP2 GT ISZERO PUSH2 0x29D6 JUMPI PUSH1 0x0 DUP5 DUP5 ADD MSTORE JUMPDEST POP POP POP POP JUMP JUMPDEST PUSH1 0x0 PUSH2 0x29E7 DUP3 PUSH2 0x299F JUMP JUMPDEST SWAP2 POP PUSH32 0xFFFFFFFFFFFFFFFFFFFFFFFFFFFFFFFFFFFFFFFFFFFFFFFFFFFFFFFFFFFFFFFF DUP3 EQ ISZERO PUSH2 0x2A1A JUMPI PUSH2 0x2A19 PUSH2 0x2A25 JUMP JUMPDEST JUMPDEST PUSH1 0x1 DUP3 ADD SWAP1 POP SWAP2 SWAP1 POP JUMP JUMPDEST PUSH32 0x4E487B7100000000000000000000000000000000000000000000000000000000 PUSH1 0x0 MSTORE PUSH1 0x11 PUSH1 0x4 MSTORE PUSH1 0x24 PUSH1 0x0 REVERT JUMPDEST PUSH32 0x4E487B7100000000000000000000000000000000000000000000000000000000 PUSH1 0x0 MSTORE PUSH1 0x12 PUSH1 0x4 MSTORE PUSH1 0x24 PUSH1 0x0 REVERT JUMPDEST PUSH1 0x0 DUP1 REVERT JUMPDEST PUSH1 0x0 PUSH1 0x1F NOT PUSH1 0x1F DUP4 ADD AND SWAP1 POP SWAP2 SWAP1 POP JUMP JUMPDEST PUSH32 0x6F766572666C6F77207831793120646574656374656400000000000000000000 PUSH1 0x0 DUP3 ADD MSTORE POP JUMP JUMPDEST PUSH32 0x737562737472616374696F6E20756E646572666C6F7720646574656374656400 PUSH1 0x0 DUP3 ADD MSTORE POP JUMP JUMPDEST PUSH32 0x6F766572666C6F77207832793220646574656374656400000000000000000000 PUSH1 0x0 DUP3 ADD MSTORE POP JUMP JUMPDEST PUSH32 0x63616E2774206469766964652062792030000000000000000000000000000000 PUSH1 0x0 DUP3 ADD MSTORE POP JUMP JUMPDEST PUSH32 0x4661696C656420746F2073656E64204574686572000000000000000000000000 PUSH1 0x0 DUP3 ADD MSTORE POP JUMP JUMPDEST PUSH32 0x63616E277420637265617465206669786964697479206E756D626572206C6172 PUSH1 0x0 DUP3 ADD MSTORE PUSH32 0x676572207468616E206D61784E65774669786564282900000000000000000000 PUSH1 0x20 DUP3 ADD MSTORE POP JUMP JUMPDEST PUSH32 0x47616D65206973206E6F74206F76657220796574000000000000000000000000 PUSH1 0x0 DUP3 ADD MSTORE POP JUMP JUMPDEST PUSH32 0x63616C6C6572206973206E6F74206F776E657200000000000000000000000000 PUSH1 0x0 DUP3 ADD MSTORE POP JUMP JUMPDEST PUSH32 0x4465706F736974206D7573742062652067726561746572207468616E206F7220 PUSH1 0x0 DUP3 ADD MSTORE PUSH32 0x657175616C20746F20746865206D696E696D756D206465706F73697400000000 PUSH1 0x20 DUP3 ADD MSTORE POP JUMP JUMPDEST PUSH32 0x596F752068617665206E6F2077696E6E696E6773000000000000000000000000 PUSH1 0x0 DUP3 ADD MSTORE POP JUMP JUMPDEST PUSH32 0x5468652067616D652068617320656E6465640000000000000000000000000000 PUSH1 0x0 DUP3 ADD MSTORE POP JUMP JUMPDEST PUSH32 0x6F766572666C6F77206174206469766964650000000000000000000000000000 PUSH1 0x0 DUP3 ADD MSTORE POP JUMP JUMPDEST PUSH32 0x596F752061726520616C726561647920696E207468652067616D650000000000 PUSH1 0x0 DUP3 ADD MSTORE POP JUMP JUMPDEST PUSH32 0x506C6179657220696E646578206F7574206F6620626F756E6473000000000000 PUSH1 0x0 DUP3 ADD MSTORE POP JUMP JUMPDEST PUSH32 0x6F766572666C6F77207831793220646574656374656400000000000000000000 PUSH1 0x0 DUP3 ADD MSTORE POP JUMP JUMPDEST POP JUMP JUMPDEST PUSH32 0x616464206F766572666C6F772064657465637465640000000000000000000000 PUSH1 0x0 DUP3 ADD MSTORE POP JUMP JUMPDEST PUSH32 0x6F766572666C6F772078317931202A2066697865643120646574656374656400 PUSH1 0x0 DUP3 ADD MSTORE POP JUMP JUMPDEST PUSH32 0x496E646578206F7574206F6620626F756E647300000000000000000000000000 PUSH1 0x0 DUP3 ADD MSTORE POP JUMP JUMPDEST PUSH32 0x6F766572666C6F77207832793120646574656374656400000000000000000000 PUSH1 0x0 DUP3 ADD MSTORE POP JUMP JUMPDEST PUSH2 0x2DFC DUP2 PUSH2 0x299F JUMP JUMPDEST DUP2 EQ PUSH2 0x2E07 JUMPI PUSH1 0x0 DUP1 REVERT JUMPDEST POP JUMP INVALID LOG2 PUSH5 0x6970667358 0x22 SLT KECCAK256 RETURN JUMP DUP16 0xE5 LOG4 0xF6 CALLDATASIZE 0xB9 CALLER 0x25 SSTORE REVERT PUSH11 0xCC16DDAC64DB5541E8BC1D ORIGIN 0xF RETURNDATASIZE 0xD4 0x4C MULMOD 0xD4 DUP7 PUSH5 0x736F6C6343 STOP ADDMOD SMOD STOP CALLER "
		},
		"gasEstimates": {
			"creation": {
				"codeDepositCost": "2368000",
				"executionCost": "infinite",
				"totalCost": "infinite"
			},
			"external": {
				"": "196",
				"DEFAULT_AVG()": "374",
				"DEFAULT_MIN_DEPOSIT()": "417",
				"DEFAULT_PLAYERS_SIZE()": "395",
				"DEFAULT_POT()": "439",
				"getBalance()": "362",
				"getGameInfo()": "infinite",
				"getPayout()": "infinite",
				"handleGameOver()": "infinite",
				"owner()": "2536",
				"secondsRemaining()": "infinite",
				"withdraw(uint256)": "infinite"
			},
			"internal": {
				"calculatePlayerAbsWeight(uint256)": "infinite",
				"normalizedTimePenaltyCurve(struct FixidityLib.Fraction memory)": "infinite",
				"payoutWinnings()": "infinite",
				"sendViaCall(address payable,uint256)": "infinite"
			}
		},
		"methodIdentifiers": {
			"DEFAULT_AVG()": "16105405",
			"DEFAULT_MIN_DEPOSIT()": "c1ace04b",
			"DEFAULT_PLAYERS_SIZE()": "ad99014c",
			"DEFAULT_POT()": "c59580a3",
			"getBalance()": "12065fe0",
			"getGameInfo()": "1746bd1b",
			"getPayout()": "7d065c93",
			"handleGameOver()": "038ce42d",
			"owner()": "8da5cb5b",
			"secondsRemaining()": "940ebef7",
			"withdraw(uint256)": "2e1a7d4d"
		}
	},
	"abi": [
		{
			"inputs": [],
			"stateMutability": "payable",
			"type": "constructor"
		},
		{
			"anonymous": false,
			"inputs": [
				{
					"indexed": true,
					"internalType": "address",
					"name": "sender",
					"type": "address"
				},
				{
					"indexed": false,
					"internalType": "uint256",
					"name": "amount",
					"type": "uint256"
				}
			],
			"name": "Deposit",
			"type": "event"
		},
		{
			"anonymous": false,
			"inputs": [
				{
					"indexed": true,
					"internalType": "address",
					"name": "receiver",
					"type": "address"
				},
				{
					"indexed": false,
					"internalType": "uint256",
					"name": "amount",
					"type": "uint256"
				}
			],
			"name": "Payout",
			"type": "event"
		},
		{
			"anonymous": false,
			"inputs": [
				{
					"indexed": true,
					"internalType": "address",
					"name": "sender",
					"type": "address"
				},
				{
					"indexed": false,
					"internalType": "uint256",
					"name": "amount",
					"type": "uint256"
				}
			],
			"name": "Withdraw",
			"type": "event"
		},
		{
			"stateMutability": "payable",
			"type": "fallback"
		},
		{
			"inputs": [],
			"name": "DEFAULT_AVG",
			"outputs": [
				{
					"internalType": "uint256",
					"name": "",
					"type": "uint256"
				}
			],
			"stateMutability": "view",
			"type": "function"
		},
		{
			"inputs": [],
			"name": "DEFAULT_MIN_DEPOSIT",
			"outputs": [
				{
					"internalType": "uint256",
					"name": "",
					"type": "uint256"
				}
			],
			"stateMutability": "view",
			"type": "function"
		},
		{
			"inputs": [],
			"name": "DEFAULT_PLAYERS_SIZE",
			"outputs": [
				{
					"internalType": "uint256",
					"name": "",
					"type": "uint256"
				}
			],
			"stateMutability": "view",
			"type": "function"
		},
		{
			"inputs": [],
			"name": "DEFAULT_POT",
			"outputs": [
				{
					"internalType": "uint256",
					"name": "",
					"type": "uint256"
				}
			],
			"stateMutability": "view",
			"type": "function"
		},
		{
			"inputs": [],
			"name": "getBalance",
			"outputs": [
				{
					"internalType": "uint256",
					"name": "",
					"type": "uint256"
				}
			],
			"stateMutability": "view",
			"type": "function"
		},
		{
			"inputs": [],
			"name": "getGameInfo",
			"outputs": [
				{
					"internalType": "uint256",
					"name": "id",
					"type": "uint256"
				},
				{
					"internalType": "uint256",
					"name": "timeLimit",
					"type": "uint256"
				},
				{
					"internalType": "uint256",
					"name": "minDeposit",
					"type": "uint256"
				},
				{
					"internalType": "uint256",
					"name": "pot",
					"type": "uint256"
				},
				{
					"internalType": "uint256",
					"name": "avg",
					"type": "uint256"
				},
				{
					"internalType": "uint256",
					"name": "playersSize",
					"type": "uint256"
				},
				{
					"internalType": "uint256",
					"name": "createdAt",
					"type": "uint256"
				},
				{
					"internalType": "uint256",
					"name": "endingAt",
					"type": "uint256"
				}
			],
			"stateMutability": "view",
			"type": "function"
		},
		{
			"inputs": [],
			"name": "getPayout",
			"outputs": [],
			"stateMutability": "payable",
			"type": "function"
		},
		{
			"inputs": [],
			"name": "handleGameOver",
			"outputs": [],
			"stateMutability": "nonpayable",
			"type": "function"
		},
		{
			"inputs": [],
			"name": "owner",
			"outputs": [
				{
					"internalType": "address payable",
					"name": "",
					"type": "address"
				}
			],
			"stateMutability": "view",
			"type": "function"
		},
		{
			"inputs": [],
			"name": "secondsRemaining",
			"outputs": [
				{
					"internalType": "uint256",
					"name": "",
					"type": "uint256"
				}
			],
			"stateMutability": "view",
			"type": "function"
		},
		{
			"inputs": [
				{
					"internalType": "uint256",
					"name": "_amount",
					"type": "uint256"
				}
			],
			"name": "withdraw",
			"outputs": [],
			"stateMutability": "nonpayable",
			"type": "function"
		},
		{
			"stateMutability": "payable",
			"type": "receive"
		}
	]
}