{
	"data": {
		"bytecode": {
			"linkReferences": {},
			"object": "6080604052600060015561012c6002556000600355600160008190555033600460006101000a81548173ffffffffffffffffffffffffffffffffffffffff021916908373ffffffffffffffffffffffffffffffffffffffff160217905550600154600660006001548152602001908152602001600020600001819055506002546006600060015481526020019081526020016000206001018190555066038d7ea4c6800060066000600154815260200190815260200160002060020181905550600060066000600154815260200190815260200160002060030181905550620000f460006200019c60201b620006d51760201c565b60066000600154815260200190815260200160002060070160008201518160000155905050600060066000600154815260200190815260200160002060040181905550426006600060015481526020019081526020016000206005018190555060066000600154815260200190815260200160002060010154426200017a9190620002b4565b60066000600154815260200190815260200160002060060181905550620003fa565b620001a662000247565b620001b66200022860201b60201c565b821115620001fb576040517f08c379a0000000000000000000000000000000000000000000000000000000008152600401620001f29062000281565b60405180910390fd5b604051806020016040528069d3c21bcecceda1000000846200021e919062000311565b8152509050919050565b60007601357c299a88ea76a58924d52ce4f26a85af186c2b9e74905090565b6040518060200160405280600081525090565b600062000269603683620002a3565b91506200027682620003ab565b604082019050919050565b600060208201905081810360008301526200029c816200025a565b9050919050565b600082825260208201905092915050565b6000620002c18262000372565b9150620002ce8362000372565b9250827fffffffffffffffffffffffffffffffffffffffffffffffffffffffffffffffff038211156200030657620003056200037c565b5b828201905092915050565b60006200031e8262000372565b91506200032b8362000372565b9250817fffffffffffffffffffffffffffffffffffffffffffffffffffffffffffffffff04831182151516156200036757620003666200037c565b5b828202905092915050565b6000819050919050565b7f4e487b7100000000000000000000000000000000000000000000000000000000600052601160045260246000fd5b7f63616e277420637265617465206669786964697479206e756d626572206c617260008201527f676572207468616e206d61784e65774669786564282900000000000000000000602082015250565b6138e3806200040a6000396000f3fe6080604052600436106100c65760003560e01c8063477348921161007f5780637d065c93116100595780637d065c931461067257806383197ef01461067c5780638da5cb5b14610693578063d757a4a1146106be576104b4565b806347734892146105b95780635c12cd4b146105f65780636e04ff0d14610634576104b4565b806312065fe0146104b65780631746bd1b146104e157806325d0c53d146105135780632e1a7d4d1461053c57806333df048e146105655780634585e33b14610590576104b4565b366104b45760066000600154815260200190815260200160002060020154341015610126576040517f08c379a000000000000000000000000000000000000000000000000000000000815260040161011d90612eb2565b60405180910390fd5b600060066000600154815260200190815260200160002060090160003373ffffffffffffffffffffffffffffffffffffffff1673ffffffffffffffffffffffffffffffffffffffff16815260200190815260200160002054146101be576040517f08c379a00000000000000000000000000000000000000000000000000000000081526004016101b590612f32565b60405180910390fd5b426006600060015481526020019081526020016000206006015411610218576040517f08c379a000000000000000000000000000000000000000000000000000000000815260040161020f90612ef2565b60405180910390fd5b60405180608001604052803373ffffffffffffffffffffffffffffffffffffffff16815260200134815260200142815260200161025560006106d5565b815250600660006001548152602001908152602001600020600801600060016006600060015481526020019081526020016000206004015461029791906131eb565b815260200190815260200160002060008201518160000160006101000a81548173ffffffffffffffffffffffffffffffffffffffff021916908373ffffffffffffffffffffffffffffffffffffffff160217905550602082015181600101556040820151816002015560608201518160030160008201518160000155505090505060016006600060015481526020019081526020016000206004015461033d91906131eb565b60066000600154815260200190815260200160002060090160003373ffffffffffffffffffffffffffffffffffffffff1673ffffffffffffffffffffffffffffffffffffffff16815260200190815260200160002081905550600160066000600154815260200190815260200160002060040160008282546103bf91906131eb565b925050819055503460066000600154815260200190815260200160002060030160008282546103ee91906131eb565b9250508190555061043f61041960066000600154815260200190815260200160002060030154610752565b61043a600660006001548152602001908152602001600020600401546106d5565b610770565b600660006001548152602001908152602001600020600701600082015181600001559050503373ffffffffffffffffffffffffffffffffffffffff167fe1fffcc4923d04b559f4d29a8bfc6cda04eb5b0d3c460751c2402c5c5cc9109c346040516104aa9190613052565b60405180910390a2005b005b3480156104c257600080fd5b506104cb610860565b6040516104d89190613052565b60405180910390f35b3480156104ed57600080fd5b506104f6610868565b60405161050a989796959493929190613096565b60405180910390f35b34801561051f57600080fd5b5061053a6004803603810190610535919061289c565b610974565b005b34801561054857600080fd5b50610563600480360381019061055e919061289c565b610a0e565b005b34801561057157600080fd5b5061057a610b43565b6040516105879190612cf0565b60405180910390f35b34801561059c57600080fd5b506105b760048036038101906105b2919061284f565b610bdd565b005b3480156105c557600080fd5b506105e060048036038101906105db9190612822565b610be9565b6040516105ed9190613052565b60405180910390f35b34801561060257600080fd5b5061061d60048036038101906106189190612822565b610c32565b60405161062b92919061306d565b60405180910390f35b34801561064057600080fd5b5061065b6004803603810190610656919061284f565b610ddb565b604051610669929190612cc0565b60405180910390f35b61067a610e04565b005b34801561068857600080fd5b50610691610f16565b005b34801561069f57600080fd5b506106a8610fe1565b6040516106b59190612ca5565b60405180910390f35b3480156106ca57600080fd5b506106d3611007565b005b6106dd61278f565b6106e56110a1565b821115610727576040517f08c379a000000000000000000000000000000000000000000000000000000000815260040161071e90612e72565b60405180910390fd5b604051806020016040528069d3c21bcecceda1000000846107489190613272565b8152509050919050565b61075a61278f565b6040518060200160405280838152509050919050565b61077861278f565b6000826000015114156107c0576040517f08c379a00000000000000000000000000000000000000000000000000000000081526004016107b790612e32565b60405180910390fd5b600069d3c21bcecceda100000084600001516107dc9190613272565b9050836000015169d3c21bcecceda1000000826107f99190613241565b14610839576040517f08c379a000000000000000000000000000000000000000000000000000000000815260040161083090612f12565b60405180910390fd5b60405180602001604052808460000151836108549190613241565b81525091505092915050565b600047905090565b600080600080600080600061087b61278f565b60066000600154815260200190815260200160002060000154600660006001548152602001908152602001600020600101546006600060015481526020019081526020016000206002015460066000600154815260200190815260200160002060030154600660006001548152602001908152602001600020600401546006600060015481526020019081526020016000206005015460066000600154815260200190815260200160002060060154600660006001548152602001908152602001600020600701806040518060200160405290816000820154815250509050975097509750975097509750975097509091929394959697565b600460009054906101000a900473ffffffffffffffffffffffffffffffffffffffff1673ffffffffffffffffffffffffffffffffffffffff163373ffffffffffffffffffffffffffffffffffffffff1614610a04576040517f08c379a00000000000000000000000000000000000000000000000000000000081526004016109fb90613032565b60405180910390fd5b8060028190555050565b600460009054906101000a900473ffffffffffffffffffffffffffffffffffffffff1673ffffffffffffffffffffffffffffffffffffffff163373ffffffffffffffffffffffffffffffffffffffff1614610a9e576040517f08c379a0000000000000000000000000000000000000000000000000000000008152600401610a9590613032565b60405180910390fd5b610aaa600354826110c0565b503373ffffffffffffffffffffffffffffffffffffffff166108fc829081150290604051600060405180830381858888f19350505050158015610af1573d6000803e3d6000fd5b503373ffffffffffffffffffffffffffffffffffffffff167f884edad9ce6fa2440d8a54cc123490eb96d2768479d49ff9c7366125a942436482604051610b389190613052565b60405180910390a250565b6000600460009054906101000a900473ffffffffffffffffffffffffffffffffffffffff1673ffffffffffffffffffffffffffffffffffffffff163373ffffffffffffffffffffffffffffffffffffffff1614610bd5576040517f08c379a0000000000000000000000000000000000000000000000000000000008152600401610bcc90613032565b60405180910390fd5b600354905090565b610be56110d6565b5050565b6000600560008373ffffffffffffffffffffffffffffffffffffffff1673ffffffffffffffffffffffffffffffffffffffff168152602001908152602001600020549050919050565b600080600060066000600154815260200190815260200160002060090160008573ffffffffffffffffffffffffffffffffffffffff1673ffffffffffffffffffffffffffffffffffffffff168152602001908152602001600020541415610cce576040517f08c379a0000000000000000000000000000000000000000000000000000000008152600401610cc590613012565b60405180910390fd5b600660006001548152602001908152602001600020600801600060066000600154815260200190815260200160002060090160008673ffffffffffffffffffffffffffffffffffffffff1673ffffffffffffffffffffffffffffffffffffffff16815260200190815260200160002054815260200190815260200160002060010154600660006001548152602001908152602001600020600801600060066000600154815260200190815260200160002060090160008773ffffffffffffffffffffffffffffffffffffffff1673ffffffffffffffffffffffffffffffffffffffff1681526020019081526020016000205481526020019081526020016000206002015491509150915091565b600060604260066000600154815260200190815260200160002060060154111591509250929050565b6000600560003373ffffffffffffffffffffffffffffffffffffffff1673ffffffffffffffffffffffffffffffffffffffff1681526020019081526020016000205411610e86576040517f08c379a0000000000000000000000000000000000000000000000000000000008152600401610e7d90612ed2565b60405180910390fd5b610ecf33600560003373ffffffffffffffffffffffffffffffffffffffff1673ffffffffffffffffffffffffffffffffffffffff1681526020019081526020016000205461128e565b6000600560003373ffffffffffffffffffffffffffffffffffffffff1673ffffffffffffffffffffffffffffffffffffffff16815260200190815260200160002081905550565b600460009054906101000a900473ffffffffffffffffffffffffffffffffffffffff1673ffffffffffffffffffffffffffffffffffffffff163373ffffffffffffffffffffffffffffffffffffffff1614610fa6576040517f08c379a0000000000000000000000000000000000000000000000000000000008152600401610f9d90613032565b60405180910390fd5b600460009054906101000a900473ffffffffffffffffffffffffffffffffffffffff1673ffffffffffffffffffffffffffffffffffffffff16ff5b600460009054906101000a900473ffffffffffffffffffffffffffffffffffffffff1681565b600460009054906101000a900473ffffffffffffffffffffffffffffffffffffffff1673ffffffffffffffffffffffffffffffffffffffff163373ffffffffffffffffffffffffffffffffffffffff1614611097576040517f08c379a000000000000000000000000000000000000000000000000000000000815260040161108e90613032565b60405180910390fd5b61109f6110d6565b565b60007601357c299a88ea76a58924d52ce4f26a85af186c2b9e74905090565b600081836110ce91906132cc565b905092915050565b60006110e0611342565b14611120576040517f08c379a000000000000000000000000000000000000000000000000000000000815260040161111790612e92565b60405180910390fd5b6000600660006001548152602001908152602001600020600401541461114957611148611396565b5b600180600082825461115b91906131eb565b92505081905550600154600660006001548152602001908152602001600020600001819055506002546006600060015481526020019081526020016000206001018190555066038d7ea4c68000600660006001548152602001908152602001600020600201819055506000600660006001548152602001908152602001600020600301819055506111ec60006106d5565b600660006001548152602001908152602001600020600701600082015181600001559050506000600660006001548152602001908152602001600020600401819055504260066000600154815260200190815260200160002060050181905550600660006001548152602001908152602001600020600101544261127091906131eb565b60066000600154815260200190815260200160002060060181905550565b6000808373ffffffffffffffffffffffffffffffffffffffff16836040516112b590612c90565b60006040518083038185875af1925050503d80600081146112f2576040519150601f19603f3d011682016040523d82523d6000602084013e6112f7565b606091505b50915091508161133c576040517f08c379a000000000000000000000000000000000000000000000000000000000815260040161133390612e52565b60405180910390fd5b50505050565b600042600660006001548152602001908152602001600020600601541161136c5760009050611393565b42600660006001548152602001908152602001600020600601546113909190613360565b90505b90565b6113ed6040518060400160405280601a81526020017f506179696e67206f75742077696e6e657273206f662067616d6500000000000081525060066000600154815260200190815260200160002060000154611d80565b60008060006113fc60006106d5565b9050600080600190505b60066000600154815260200190815260200160002060040154811161150a5761148f61145d600660006001548152602001908152602001600020600801600084815260200190815260200160002060010154610752565b600660006001548152602001908152602001600020600701604051806020016040529081600082015481525050611e1c565b156114e2576001856114a191906131eb565b9450600660006001548152602001908152602001600020600801600082815260200190815260200160002060010154826114db91906131eb565b91506114f7565b6114f4836114ef83611e31565b611f18565b92505b80806115029061342b565b915050611406565b5061154a6040518060400160405280600b81526020017f6e756d4c6f736572733a2000000000000000000000000000000000000000000081525085611d80565b6115896040518060400160405280600b81526020017f6c6f73657273506f743a2000000000000000000000000000000000000000000081525082611d80565b83600660006001548152602001908152602001600020600401546115ad9190613360565b92506115ee6040518060400160405280600c81526020017f6e756d57696e6e6572733a20000000000000000000000000000000000000000081525084611d80565b600083141561163e576116356040518060400160405280600a81526020017f4e6f2077696e6e65727300000000000000000000000000000000000000000000815250611f97565b50505050611d7e565b6000600190505b600660006001548152602001908152602001600020600401548111611bbd576116ce61169c600660006001548152602001908152602001600020600801600084815260200190815260200160002060010154610752565b600660006001548152602001908152602001600020600701604051806020016040529081600082015481525050612030565b15611baa576117486040518060400160405280601b81526020017f2d2d2d2d2d2d2d2d2d2d2d2d2057696e6e657220506c61796572200000000000815250826040518060400160405280600d81526020017f202d2d2d2d2d2d2d2d2d2d2d2d00000000000000000000000000000000000000815250612046565b60008083146117db576117d86117d36117c261176386610752565b6117bd6117af60066000600154815260200190815260200160002060080160008981526020019081526020016000206003016040518060200160405290816000820154815250506120e5565b6117b88a6120e5565b6120f3565b612129565b6117ce606360646120f3565b612129565b6120e5565b90505b60008160066000600154815260200190815260200160002060080160008581526020019081526020016000206001015461181591906131eb565b90506118826040518060400160405280600581526020017f6265743a20000000000000000000000000000000000000000000000000000000815250600660006001548152602001908152602001600020600801600086815260200190815260200160002060010154611d80565b6118f06040518060400160405280600d81526020017f63757276655765696768743a2000000000000000000000000000000000000000815250600660006001548152602001908152602001600020600801600086815260200190815260200160002060030160000154611d80565b6119336040518060400160405280601c81526020017f77696e6e657273546f74616c437572766557656967687453756d3a20000000008152508660000151611d80565b6119726040518060400160405280601981526020017f77696e6e696e67732066726f6d206c6f73657220706f743a200000000000000081525083611d80565b6119b16040518060400160405280600881526020017f7061796f75743a2000000000000000000000000000000000000000000000000081525082611d80565b8060056000600660006001548152602001908152602001600020600801600087815260200190815260200160002060000160009054906101000a900473ffffffffffffffffffffffffffffffffffffffff1673ffffffffffffffffffffffffffffffffffffffff1673ffffffffffffffffffffffffffffffffffffffff1681526020019081526020016000206000828254611a4c91906131eb565b92505081905550806006600060015481526020019081526020016000206003016000828254611a7b9190613360565b92505081905550600660006001548152602001908152602001600020600801600084815260200190815260200160002060000160009054906101000a900473ffffffffffffffffffffffffffffffffffffffff1673ffffffffffffffffffffffffffffffffffffffff167f5afeca38b2064c23a692c4cf353015d80ab3ecc417b4f893f372690c11fbd9a682604051611b149190613052565b60405180910390a2611ba76040518060400160405280601081526020017f5061796f75742073656e7420746f3a2000000000000000000000000000000000815250600660006001548152602001908152602001600020600801600086815260200190815260200160002060000160009054906101000a900473ffffffffffffffffffffffffffffffffffffffff166124c2565b50505b8080611bb59061342b565b915050611645565b50611c156040518060400160405280600581526020017f506f743a2000000000000000000000000000000000000000000000000000000081525060066000600154815260200190815260200160002060030154611d80565b6000600660006001548152602001908152602001600020600301541115611d6357611c5a6003546006600060015481526020019081526020016000206003015461255e565b50600460009054906101000a900473ffffffffffffffffffffffffffffffffffffffff1673ffffffffffffffffffffffffffffffffffffffff167f5afeca38b2064c23a692c4cf353015d80ab3ecc417b4f893f372690c11fbd9a660066000600154815260200190815260200160002060030154604051611cdb9190613052565b60405180910390a2600060066000600154815260200190815260200160002060030181905550611d626040518060400160405280601881526020017f52656d61696e696e6720706f7420737765707420746f3a200000000000000000815250600460009054906101000a900473ffffffffffffffffffffffffffffffffffffffff166124c2565b5b6000935060009250611d7361278f565b915060009050505050505b565b611e188282604051602401611d96929190612d5d565b6040516020818303038152906040527f9710a9d0000000000000000000000000000000000000000000000000000000007bffffffffffffffffffffffffffffffffffffffffffffffffffffffff19166020820180517bffffffffffffffffffffffffffffffffffffffffffffffffffffffff8381831617835250505050612574565b5050565b60008160000151836000015110905092915050565b611e3961278f565b60018210158015611e625750600660006001548152602001908152602001600020600401548211155b611ea1576040517f08c379a0000000000000000000000000000000000000000000000000000000008152600401611e9890612f52565b60405180910390fd5b6000611ec583600660006001548152602001908152602001600020600401546120f3565b90506000611ed28261259d565b9050806006600060015481526020019081526020016000206008016000868152602001908152602001600020600301600082015181600001559050508092505050919050565b611f2061278f565b600082600001518460000151611f3691906131eb565b90508360000151811015611f7f576040517f08c379a0000000000000000000000000000000000000000000000000000000008152600401611f7690612f92565b60405180910390fd5b60405180602001604052808281525091505092915050565b61202d81604051602401611fab9190612d0b565b6040516020818303038152906040527f41304fac000000000000000000000000000000000000000000000000000000007bffffffffffffffffffffffffffffffffffffffffffffffffffffffff19166020820180517bffffffffffffffffffffffffffffffffffffffffffffffffffffffff8381831617835250505050612574565b50565b6000816000015183600001511015905092915050565b6120e083838360405160240161205e93929190612d8d565b6040516020818303038152906040527fa3f5c739000000000000000000000000000000000000000000000000000000007bffffffffffffffffffffffffffffffffffffffffffffffffffffffff19166020820180517bffffffffffffffffffffffffffffffffffffffffffffffffffffffff8381831617835250505050612574565b505050565b600081600001519050919050565b6120fb61278f565b6000612106846106d5565b90506000612113846106d5565b905061211f8282610770565b9250505092915050565b61213161278f565b600083600001511480612148575060008260000151145b15612164576040518060200160405280600081525090506124bc565b69d3c21bcecceda100000082600001511415612182578290506124bc565b69d3c21bcecceda1000000836000015114156121a0578190506124bc565b600069d3c21bcecceda10000006121b685612636565b600001516121c49190613241565b905060006121d185612678565b600001519050600069d3c21bcecceda10000006121ed86612636565b600001516121fb9190613241565b9050600061220886612678565b6000015190506000828561221c9190613272565b905060008514612274578285826122339190613241565b14612273576040517f08c379a000000000000000000000000000000000000000000000000000000000815260040161226a90612dd2565b60405180910390fd5b5b600069d3c21bcecceda10000008261228c9190613272565b9050600082146122ee5769d3c21bcecceda100000082826122ad9190613241565b146122ed576040517f08c379a00000000000000000000000000000000000000000000000000000000081526004016122e490612fb2565b60405180910390fd5b5b809150600084866122ff9190613272565b905060008614612357578486826123169190613241565b14612356576040517f08c379a000000000000000000000000000000000000000000000000000000000815260040161234d90612ff2565b60405180910390fd5b5b600084886123659190613272565b9050600088146123bd5784888261237c9190613241565b146123bc576040517f08c379a00000000000000000000000000000000000000000000000000000000081526004016123b390612f72565b60405180910390fd5b5b6123c56126c9565b876123d09190613241565b96506123da6126c9565b856123e59190613241565b9450600085886123f59190613272565b90506000881461244d5785888261240c9190613241565b1461244c576040517f08c379a000000000000000000000000000000000000000000000000000000000815260040161244390612e12565b60405180910390fd5b5b6000604051806020016040528087815250905061247881604051806020016040528087815250611f18565b905061249281604051806020016040528086815250611f18565b90506124ac81604051806020016040528085815250611f18565b9050809a50505050505050505050505b92915050565b61255a82826040516024016124d8929190612d2d565b6040516020818303038152906040527f319af333000000000000000000000000000000000000000000000000000000007bffffffffffffffffffffffffffffffffffffffffffffffffffffffff19166020820180517bffffffffffffffffffffffffffffffffffffffffffffffffffffffff8381831617835250505050612574565b5050565b6000818361256c9190613157565b905092915050565b60008151905060006a636f6e736f6c652e6c6f679050602083016000808483855afa5050505050565b6125a561278f565b60008260000151101580156125c757506125c6826125c16126d6565b6126fc565b5b612606576040517f08c379a00000000000000000000000000000000000000000000000000000000081526004016125fd90612fd2565b60405180910390fd5b600061261b6126158485612129565b84612129565b905061262e6126286126d6565b82612712565b915050919050565b61263e61278f565b604051806020016040528069d3c21bcecceda10000008085600001516126649190613241565b61266e9190613272565b8152509050919050565b61268061278f565b604051806020016040528069d3c21bcecceda10000008085600001516126a69190613241565b6126b09190613272565b84600001516126bf9190613360565b8152509050919050565b600064e8d4a51000905090565b6126de61278f565b604051806020016040528069d3c21bcecceda1000000815250905090565b6000816000015183600001511115905092915050565b61271a61278f565b816000015183600001511015612765576040517f08c379a000000000000000000000000000000000000000000000000000000000815260040161275c90612df2565b60405180910390fd5b6040518060200160405280836000015185600001516127849190613360565b815250905092915050565b6040518060200160405280600081525090565b6000813590506127b18161387f565b92915050565b60008083601f8401126127cd576127cc6134d7565b5b8235905067ffffffffffffffff8111156127ea576127e96134d2565b5b602083019150836001820283011115612806576128056134dc565b5b9250929050565b60008135905061281c81613896565b92915050565b600060208284031215612838576128376134e6565b5b6000612846848285016127a2565b91505092915050565b60008060208385031215612866576128656134e6565b5b600083013567ffffffffffffffff811115612884576128836134e1565b5b612890858286016127b7565b92509250509250929050565b6000602082840312156128b2576128b16134e6565b5b60006128c08482850161280d565b91505092915050565b6128d2816133a6565b82525050565b6128e181613394565b82525050565b6128f0816133b8565b82525050565b600061290182613114565b61290b818561312a565b935061291b8185602086016133f8565b612924816134eb565b840191505092915050565b612938816133c4565b82525050565b60006129498261311f565b6129538185613146565b93506129638185602086016133f8565b61296c816134eb565b840191505092915050565b6000612984601683613146565b915061298f826134fc565b602082019050919050565b60006129a7601f83613146565b91506129b282613525565b602082019050919050565b60006129ca601683613146565b91506129d58261354e565b602082019050919050565b60006129ed601183613146565b91506129f882613577565b602082019050919050565b6000612a10601483613146565b9150612a1b826135a0565b602082019050919050565b6000612a33603683613146565b9150612a3e826135c9565b604082019050919050565b6000612a56601483613146565b9150612a6182613618565b602082019050919050565b6000612a79603c83613146565b9150612a8482613641565b604082019050919050565b6000612a9c601483613146565b9150612aa782613690565b602082019050919050565b6000612abf601283613146565b9150612aca826136b9565b602082019050919050565b6000612ae2601283613146565b9150612aed826136e2565b602082019050919050565b6000612b05601b83613146565b9150612b108261370b565b602082019050919050565b6000612b28601a83613146565b9150612b3382613734565b602082019050919050565b6000612b4b601683613146565b9150612b568261375d565b602082019050919050565b6000612b6e60008361313b565b9150612b7982613786565b600082019050919050565b6000612b91601583613146565b9150612b9c82613789565b602082019050919050565b6000612bb4601f83613146565b9150612bbf826137b2565b602082019050919050565b6000612bd7601383613146565b9150612be2826137db565b602082019050919050565b6000612bfa601683613146565b9150612c0582613804565b602082019050919050565b6000612c1d601983613146565b9150612c288261382d565b602082019050919050565b6000612c40601683613146565b9150612c4b82613856565b602082019050919050565b602082016000820151612c6c6000850182612c72565b50505050565b612c7b816133ee565b82525050565b612c8a816133ee565b82525050565b6000612c9b82612b61565b9150819050919050565b6000602082019050612cba60008301846128c9565b92915050565b6000604082019050612cd560008301856128e7565b8181036020830152612ce781846128f6565b90509392505050565b6000602082019050612d05600083018461292f565b92915050565b60006020820190508181036000830152612d25818461293e565b905092915050565b60006040820190508181036000830152612d47818561293e565b9050612d5660208301846128d8565b9392505050565b60006040820190508181036000830152612d77818561293e565b9050612d866020830184612c81565b9392505050565b60006060820190508181036000830152612da7818661293e565b9050612db66020830185612c81565b8181036040830152612dc8818461293e565b9050949350505050565b60006020820190508181036000830152612deb81612977565b9050919050565b60006020820190508181036000830152612e0b8161299a565b9050919050565b60006020820190508181036000830152612e2b816129bd565b9050919050565b60006020820190508181036000830152612e4b816129e0565b9050919050565b60006020820190508181036000830152612e6b81612a03565b9050919050565b60006020820190508181036000830152612e8b81612a26565b9050919050565b60006020820190508181036000830152612eab81612a49565b9050919050565b60006020820190508181036000830152612ecb81612a6c565b9050919050565b60006020820190508181036000830152612eeb81612a8f565b9050919050565b60006020820190508181036000830152612f0b81612ab2565b9050919050565b60006020820190508181036000830152612f2b81612ad5565b9050919050565b60006020820190508181036000830152612f4b81612af8565b9050919050565b60006020820190508181036000830152612f6b81612b1b565b9050919050565b60006020820190508181036000830152612f8b81612b3e565b9050919050565b60006020820190508181036000830152612fab81612b84565b9050919050565b60006020820190508181036000830152612fcb81612ba7565b9050919050565b60006020820190508181036000830152612feb81612bca565b9050919050565b6000602082019050818103600083015261300b81612bed565b9050919050565b6000602082019050818103600083015261302b81612c10565b9050919050565b6000602082019050818103600083015261304b81612c33565b9050919050565b60006020820190506130676000830184612c81565b92915050565b60006040820190506130826000830185612c81565b61308f6020830184612c81565b9392505050565b6000610100820190506130ac600083018b612c81565b6130b9602083018a612c81565b6130c66040830189612c81565b6130d36060830188612c81565b6130e06080830187612c81565b6130ed60a0830186612c81565b6130fa60c0830185612c81565b61310760e0830184612c56565b9998505050505050505050565b600081519050919050565b600081519050919050565b600082825260208201905092915050565b600081905092915050565b600082825260208201905092915050565b6000613162826133c4565b915061316d836133c4565b9250817f7fffffffffffffffffffffffffffffffffffffffffffffffffffffffffffffff038313600083121516156131a8576131a7613474565b5b817f80000000000000000000000000000000000000000000000000000000000000000383126000831216156131e0576131df613474565b5b828201905092915050565b60006131f6826133ee565b9150613201836133ee565b9250827fffffffffffffffffffffffffffffffffffffffffffffffffffffffffffffffff0382111561323657613235613474565b5b828201905092915050565b600061324c826133ee565b9150613257836133ee565b925082613267576132666134a3565b5b828204905092915050565b600061327d826133ee565b9150613288836133ee565b9250817fffffffffffffffffffffffffffffffffffffffffffffffffffffffffffffffff04831182151516156132c1576132c0613474565b5b828202905092915050565b60006132d7826133c4565b91506132e2836133c4565b9250827f80000000000000000000000000000000000000000000000000000000000000000182126000841215161561331d5761331c613474565b5b827f7fffffffffffffffffffffffffffffffffffffffffffffffffffffffffffffff01821360008412161561335557613354613474565b5b828203905092915050565b600061336b826133ee565b9150613376836133ee565b92508282101561338957613388613474565b5b828203905092915050565b600061339f826133ce565b9050919050565b60006133b1826133ce565b9050919050565b60008115159050919050565b6000819050919050565b600073ffffffffffffffffffffffffffffffffffffffff82169050919050565b6000819050919050565b60005b838110156134165780820151818401526020810190506133fb565b83811115613425576000848401525b50505050565b6000613436826133ee565b91507fffffffffffffffffffffffffffffffffffffffffffffffffffffffffffffffff82141561346957613468613474565b5b600182019050919050565b7f4e487b7100000000000000000000000000000000000000000000000000000000600052601160045260246000fd5b7f4e487b7100000000000000000000000000000000000000000000000000000000600052601260045260246000fd5b600080fd5b600080fd5b600080fd5b600080fd5b600080fd5b6000601f19601f8301169050919050565b7f6f766572666c6f77207831793120646574656374656400000000000000000000600082015250565b7f737562737472616374696f6e20756e646572666c6f7720646574656374656400600082015250565b7f6f766572666c6f77207832793220646574656374656400000000000000000000600082015250565b7f63616e2774206469766964652062792030000000000000000000000000000000600082015250565b7f4661696c656420746f2073656e64204574686572000000000000000000000000600082015250565b7f63616e277420637265617465206669786964697479206e756d626572206c617260008201527f676572207468616e206d61784e65774669786564282900000000000000000000602082015250565b7f47616d65206973206e6f74206f76657220796574000000000000000000000000600082015250565b7f4465706f736974206d7573742062652067726561746572207468616e206f722060008201527f657175616c20746f20746865206d696e696d756d206465706f73697400000000602082015250565b7f596f752068617665206e6f2077696e6e696e6773000000000000000000000000600082015250565b7f5468652067616d652068617320656e6465640000000000000000000000000000600082015250565b7f6f766572666c6f77206174206469766964650000000000000000000000000000600082015250565b7f596f752061726520616c726561647920696e207468652067616d650000000000600082015250565b7f506c6179657220696e646578206f7574206f6620626f756e6473000000000000600082015250565b7f6f766572666c6f77207831793220646574656374656400000000000000000000600082015250565b50565b7f616464206f766572666c6f772064657465637465640000000000000000000000600082015250565b7f6f766572666c6f772078317931202a2066697865643120646574656374656400600082015250565b7f496e646578206f7574206f6620626f756e647300000000000000000000000000600082015250565b7f6f766572666c6f77207832793120646574656374656400000000000000000000600082015250565b7f506c61796572206973206e6f7420696e207468652067616d6500000000000000600082015250565b7f53656e646572206e6f7420617574686f72697a65642e00000000000000000000600082015250565b61388881613394565b811461389357600080fd5b50565b61389f816133ee565b81146138aa57600080fd5b5056fea2646970667358221220bbbd67091643cd9e2827fd45b12af745ee759c4a7d96e9596624ae535862b7cb64736f6c63430008070033",
			"opcodes": "PUSH1 0x80 PUSH1 0x40 MSTORE PUSH1 0x0 PUSH1 0x1 SSTORE PUSH2 0x12C PUSH1 0x2 SSTORE PUSH1 0x0 PUSH1 0x3 SSTORE PUSH1 0x1 PUSH1 0x0 DUP2 SWAP1 SSTORE POP CALLER PUSH1 0x4 PUSH1 0x0 PUSH2 0x100 EXP DUP2 SLOAD DUP2 PUSH20 0xFFFFFFFFFFFFFFFFFFFFFFFFFFFFFFFFFFFFFFFF MUL NOT AND SWAP1 DUP4 PUSH20 0xFFFFFFFFFFFFFFFFFFFFFFFFFFFFFFFFFFFFFFFF AND MUL OR SWAP1 SSTORE POP PUSH1 0x1 SLOAD PUSH1 0x6 PUSH1 0x0 PUSH1 0x1 SLOAD DUP2 MSTORE PUSH1 0x20 ADD SWAP1 DUP2 MSTORE PUSH1 0x20 ADD PUSH1 0x0 KECCAK256 PUSH1 0x0 ADD DUP2 SWAP1 SSTORE POP PUSH1 0x2 SLOAD PUSH1 0x6 PUSH1 0x0 PUSH1 0x1 SLOAD DUP2 MSTORE PUSH1 0x20 ADD SWAP1 DUP2 MSTORE PUSH1 0x20 ADD PUSH1 0x0 KECCAK256 PUSH1 0x1 ADD DUP2 SWAP1 SSTORE POP PUSH7 0x38D7EA4C68000 PUSH1 0x6 PUSH1 0x0 PUSH1 0x1 SLOAD DUP2 MSTORE PUSH1 0x20 ADD SWAP1 DUP2 MSTORE PUSH1 0x20 ADD PUSH1 0x0 KECCAK256 PUSH1 0x2 ADD DUP2 SWAP1 SSTORE POP PUSH1 0x0 PUSH1 0x6 PUSH1 0x0 PUSH1 0x1 SLOAD DUP2 MSTORE PUSH1 0x20 ADD SWAP1 DUP2 MSTORE PUSH1 0x20 ADD PUSH1 0x0 KECCAK256 PUSH1 0x3 ADD DUP2 SWAP1 SSTORE POP PUSH3 0xF4 PUSH1 0x0 PUSH3 0x19C PUSH1 0x20 SHL PUSH3 0x6D5 OR PUSH1 0x20 SHR JUMP JUMPDEST PUSH1 0x6 PUSH1 0x0 PUSH1 0x1 SLOAD DUP2 MSTORE PUSH1 0x20 ADD SWAP1 DUP2 MSTORE PUSH1 0x20 ADD PUSH1 0x0 KECCAK256 PUSH1 0x7 ADD PUSH1 0x0 DUP3 ADD MLOAD DUP2 PUSH1 0x0 ADD SSTORE SWAP1 POP POP PUSH1 0x0 PUSH1 0x6 PUSH1 0x0 PUSH1 0x1 SLOAD DUP2 MSTORE PUSH1 0x20 ADD SWAP1 DUP2 MSTORE PUSH1 0x20 ADD PUSH1 0x0 KECCAK256 PUSH1 0x4 ADD DUP2 SWAP1 SSTORE POP TIMESTAMP PUSH1 0x6 PUSH1 0x0 PUSH1 0x1 SLOAD DUP2 MSTORE PUSH1 0x20 ADD SWAP1 DUP2 MSTORE PUSH1 0x20 ADD PUSH1 0x0 KECCAK256 PUSH1 0x5 ADD DUP2 SWAP1 SSTORE POP PUSH1 0x6 PUSH1 0x0 PUSH1 0x1 SLOAD DUP2 MSTORE PUSH1 0x20 ADD SWAP1 DUP2 MSTORE PUSH1 0x20 ADD PUSH1 0x0 KECCAK256 PUSH1 0x1 ADD SLOAD TIMESTAMP PUSH3 0x17A SWAP2 SWAP1 PUSH3 0x2B4 JUMP JUMPDEST PUSH1 0x6 PUSH1 0x0 PUSH1 0x1 SLOAD DUP2 MSTORE PUSH1 0x20 ADD SWAP1 DUP2 MSTORE PUSH1 0x20 ADD PUSH1 0x0 KECCAK256 PUSH1 0x6 ADD DUP2 SWAP1 SSTORE POP PUSH3 0x3FA JUMP JUMPDEST PUSH3 0x1A6 PUSH3 0x247 JUMP JUMPDEST PUSH3 0x1B6 PUSH3 0x228 PUSH1 0x20 SHL PUSH1 0x20 SHR JUMP JUMPDEST DUP3 GT ISZERO PUSH3 0x1FB JUMPI PUSH1 0x40 MLOAD PUSH32 0x8C379A000000000000000000000000000000000000000000000000000000000 DUP2 MSTORE PUSH1 0x4 ADD PUSH3 0x1F2 SWAP1 PUSH3 0x281 JUMP JUMPDEST PUSH1 0x40 MLOAD DUP1 SWAP2 SUB SWAP1 REVERT JUMPDEST PUSH1 0x40 MLOAD DUP1 PUSH1 0x20 ADD PUSH1 0x40 MSTORE DUP1 PUSH10 0xD3C21BCECCEDA1000000 DUP5 PUSH3 0x21E SWAP2 SWAP1 PUSH3 0x311 JUMP JUMPDEST DUP2 MSTORE POP SWAP1 POP SWAP2 SWAP1 POP JUMP JUMPDEST PUSH1 0x0 PUSH23 0x1357C299A88EA76A58924D52CE4F26A85AF186C2B9E74 SWAP1 POP SWAP1 JUMP JUMPDEST PUSH1 0x40 MLOAD DUP1 PUSH1 0x20 ADD PUSH1 0x40 MSTORE DUP1 PUSH1 0x0 DUP2 MSTORE POP SWAP1 JUMP JUMPDEST PUSH1 0x0 PUSH3 0x269 PUSH1 0x36 DUP4 PUSH3 0x2A3 JUMP JUMPDEST SWAP2 POP PUSH3 0x276 DUP3 PUSH3 0x3AB JUMP JUMPDEST PUSH1 0x40 DUP3 ADD SWAP1 POP SWAP2 SWAP1 POP JUMP JUMPDEST PUSH1 0x0 PUSH1 0x20 DUP3 ADD SWAP1 POP DUP2 DUP2 SUB PUSH1 0x0 DUP4 ADD MSTORE PUSH3 0x29C DUP2 PUSH3 0x25A JUMP JUMPDEST SWAP1 POP SWAP2 SWAP1 POP JUMP JUMPDEST PUSH1 0x0 DUP3 DUP3 MSTORE PUSH1 0x20 DUP3 ADD SWAP1 POP SWAP3 SWAP2 POP POP JUMP JUMPDEST PUSH1 0x0 PUSH3 0x2C1 DUP3 PUSH3 0x372 JUMP JUMPDEST SWAP2 POP PUSH3 0x2CE DUP4 PUSH3 0x372 JUMP JUMPDEST SWAP3 POP DUP3 PUSH32 0xFFFFFFFFFFFFFFFFFFFFFFFFFFFFFFFFFFFFFFFFFFFFFFFFFFFFFFFFFFFFFFFF SUB DUP3 GT ISZERO PUSH3 0x306 JUMPI PUSH3 0x305 PUSH3 0x37C JUMP JUMPDEST JUMPDEST DUP3 DUP3 ADD SWAP1 POP SWAP3 SWAP2 POP POP JUMP JUMPDEST PUSH1 0x0 PUSH3 0x31E DUP3 PUSH3 0x372 JUMP JUMPDEST SWAP2 POP PUSH3 0x32B DUP4 PUSH3 0x372 JUMP JUMPDEST SWAP3 POP DUP2 PUSH32 0xFFFFFFFFFFFFFFFFFFFFFFFFFFFFFFFFFFFFFFFFFFFFFFFFFFFFFFFFFFFFFFFF DIV DUP4 GT DUP3 ISZERO ISZERO AND ISZERO PUSH3 0x367 JUMPI PUSH3 0x366 PUSH3 0x37C JUMP JUMPDEST JUMPDEST DUP3 DUP3 MUL SWAP1 POP SWAP3 SWAP2 POP POP JUMP JUMPDEST PUSH1 0x0 DUP2 SWAP1 POP SWAP2 SWAP1 POP JUMP JUMPDEST PUSH32 0x4E487B7100000000000000000000000000000000000000000000000000000000 PUSH1 0x0 MSTORE PUSH1 0x11 PUSH1 0x4 MSTORE PUSH1 0x24 PUSH1 0x0 REVERT JUMPDEST PUSH32 0x63616E277420637265617465206669786964697479206E756D626572206C6172 PUSH1 0x0 DUP3 ADD MSTORE PUSH32 0x676572207468616E206D61784E65774669786564282900000000000000000000 PUSH1 0x20 DUP3 ADD MSTORE POP JUMP JUMPDEST PUSH2 0x38E3 DUP1 PUSH3 0x40A PUSH1 0x0 CODECOPY PUSH1 0x0 RETURN INVALID PUSH1 0x80 PUSH1 0x40 MSTORE PUSH1 0x4 CALLDATASIZE LT PUSH2 0xC6 JUMPI PUSH1 0x0 CALLDATALOAD PUSH1 0xE0 SHR DUP1 PUSH4 0x47734892 GT PUSH2 0x7F JUMPI DUP1 PUSH4 0x7D065C93 GT PUSH2 0x59 JUMPI DUP1 PUSH4 0x7D065C93 EQ PUSH2 0x672 JUMPI DUP1 PUSH4 0x83197EF0 EQ PUSH2 0x67C JUMPI DUP1 PUSH4 0x8DA5CB5B EQ PUSH2 0x693 JUMPI DUP1 PUSH4 0xD757A4A1 EQ PUSH2 0x6BE JUMPI PUSH2 0x4B4 JUMP JUMPDEST DUP1 PUSH4 0x47734892 EQ PUSH2 0x5B9 JUMPI DUP1 PUSH4 0x5C12CD4B EQ PUSH2 0x5F6 JUMPI DUP1 PUSH4 0x6E04FF0D EQ PUSH2 0x634 JUMPI PUSH2 0x4B4 JUMP JUMPDEST DUP1 PUSH4 0x12065FE0 EQ PUSH2 0x4B6 JUMPI DUP1 PUSH4 0x1746BD1B EQ PUSH2 0x4E1 JUMPI DUP1 PUSH4 0x25D0C53D EQ PUSH2 0x513 JUMPI DUP1 PUSH4 0x2E1A7D4D EQ PUSH2 0x53C JUMPI DUP1 PUSH4 0x33DF048E EQ PUSH2 0x565 JUMPI DUP1 PUSH4 0x4585E33B EQ PUSH2 0x590 JUMPI PUSH2 0x4B4 JUMP JUMPDEST CALLDATASIZE PUSH2 0x4B4 JUMPI PUSH1 0x6 PUSH1 0x0 PUSH1 0x1 SLOAD DUP2 MSTORE PUSH1 0x20 ADD SWAP1 DUP2 MSTORE PUSH1 0x20 ADD PUSH1 0x0 KECCAK256 PUSH1 0x2 ADD SLOAD CALLVALUE LT ISZERO PUSH2 0x126 JUMPI PUSH1 0x40 MLOAD PUSH32 0x8C379A000000000000000000000000000000000000000000000000000000000 DUP2 MSTORE PUSH1 0x4 ADD PUSH2 0x11D SWAP1 PUSH2 0x2EB2 JUMP JUMPDEST PUSH1 0x40 MLOAD DUP1 SWAP2 SUB SWAP1 REVERT JUMPDEST PUSH1 0x0 PUSH1 0x6 PUSH1 0x0 PUSH1 0x1 SLOAD DUP2 MSTORE PUSH1 0x20 ADD SWAP1 DUP2 MSTORE PUSH1 0x20 ADD PUSH1 0x0 KECCAK256 PUSH1 0x9 ADD PUSH1 0x0 CALLER PUSH20 0xFFFFFFFFFFFFFFFFFFFFFFFFFFFFFFFFFFFFFFFF AND PUSH20 0xFFFFFFFFFFFFFFFFFFFFFFFFFFFFFFFFFFFFFFFF AND DUP2 MSTORE PUSH1 0x20 ADD SWAP1 DUP2 MSTORE PUSH1 0x20 ADD PUSH1 0x0 KECCAK256 SLOAD EQ PUSH2 0x1BE JUMPI PUSH1 0x40 MLOAD PUSH32 0x8C379A000000000000000000000000000000000000000000000000000000000 DUP2 MSTORE PUSH1 0x4 ADD PUSH2 0x1B5 SWAP1 PUSH2 0x2F32 JUMP JUMPDEST PUSH1 0x40 MLOAD DUP1 SWAP2 SUB SWAP1 REVERT JUMPDEST TIMESTAMP PUSH1 0x6 PUSH1 0x0 PUSH1 0x1 SLOAD DUP2 MSTORE PUSH1 0x20 ADD SWAP1 DUP2 MSTORE PUSH1 0x20 ADD PUSH1 0x0 KECCAK256 PUSH1 0x6 ADD SLOAD GT PUSH2 0x218 JUMPI PUSH1 0x40 MLOAD PUSH32 0x8C379A000000000000000000000000000000000000000000000000000000000 DUP2 MSTORE PUSH1 0x4 ADD PUSH2 0x20F SWAP1 PUSH2 0x2EF2 JUMP JUMPDEST PUSH1 0x40 MLOAD DUP1 SWAP2 SUB SWAP1 REVERT JUMPDEST PUSH1 0x40 MLOAD DUP1 PUSH1 0x80 ADD PUSH1 0x40 MSTORE DUP1 CALLER PUSH20 0xFFFFFFFFFFFFFFFFFFFFFFFFFFFFFFFFFFFFFFFF AND DUP2 MSTORE PUSH1 0x20 ADD CALLVALUE DUP2 MSTORE PUSH1 0x20 ADD TIMESTAMP DUP2 MSTORE PUSH1 0x20 ADD PUSH2 0x255 PUSH1 0x0 PUSH2 0x6D5 JUMP JUMPDEST DUP2 MSTORE POP PUSH1 0x6 PUSH1 0x0 PUSH1 0x1 SLOAD DUP2 MSTORE PUSH1 0x20 ADD SWAP1 DUP2 MSTORE PUSH1 0x20 ADD PUSH1 0x0 KECCAK256 PUSH1 0x8 ADD PUSH1 0x0 PUSH1 0x1 PUSH1 0x6 PUSH1 0x0 PUSH1 0x1 SLOAD DUP2 MSTORE PUSH1 0x20 ADD SWAP1 DUP2 MSTORE PUSH1 0x20 ADD PUSH1 0x0 KECCAK256 PUSH1 0x4 ADD SLOAD PUSH2 0x297 SWAP2 SWAP1 PUSH2 0x31EB JUMP JUMPDEST DUP2 MSTORE PUSH1 0x20 ADD SWAP1 DUP2 MSTORE PUSH1 0x20 ADD PUSH1 0x0 KECCAK256 PUSH1 0x0 DUP3 ADD MLOAD DUP2 PUSH1 0x0 ADD PUSH1 0x0 PUSH2 0x100 EXP DUP2 SLOAD DUP2 PUSH20 0xFFFFFFFFFFFFFFFFFFFFFFFFFFFFFFFFFFFFFFFF MUL NOT AND SWAP1 DUP4 PUSH20 0xFFFFFFFFFFFFFFFFFFFFFFFFFFFFFFFFFFFFFFFF AND MUL OR SWAP1 SSTORE POP PUSH1 0x20 DUP3 ADD MLOAD DUP2 PUSH1 0x1 ADD SSTORE PUSH1 0x40 DUP3 ADD MLOAD DUP2 PUSH1 0x2 ADD SSTORE PUSH1 0x60 DUP3 ADD MLOAD DUP2 PUSH1 0x3 ADD PUSH1 0x0 DUP3 ADD MLOAD DUP2 PUSH1 0x0 ADD SSTORE POP POP SWAP1 POP POP PUSH1 0x1 PUSH1 0x6 PUSH1 0x0 PUSH1 0x1 SLOAD DUP2 MSTORE PUSH1 0x20 ADD SWAP1 DUP2 MSTORE PUSH1 0x20 ADD PUSH1 0x0 KECCAK256 PUSH1 0x4 ADD SLOAD PUSH2 0x33D SWAP2 SWAP1 PUSH2 0x31EB JUMP JUMPDEST PUSH1 0x6 PUSH1 0x0 PUSH1 0x1 SLOAD DUP2 MSTORE PUSH1 0x20 ADD SWAP1 DUP2 MSTORE PUSH1 0x20 ADD PUSH1 0x0 KECCAK256 PUSH1 0x9 ADD PUSH1 0x0 CALLER PUSH20 0xFFFFFFFFFFFFFFFFFFFFFFFFFFFFFFFFFFFFFFFF AND PUSH20 0xFFFFFFFFFFFFFFFFFFFFFFFFFFFFFFFFFFFFFFFF AND DUP2 MSTORE PUSH1 0x20 ADD SWAP1 DUP2 MSTORE PUSH1 0x20 ADD PUSH1 0x0 KECCAK256 DUP2 SWAP1 SSTORE POP PUSH1 0x1 PUSH1 0x6 PUSH1 0x0 PUSH1 0x1 SLOAD DUP2 MSTORE PUSH1 0x20 ADD SWAP1 DUP2 MSTORE PUSH1 0x20 ADD PUSH1 0x0 KECCAK256 PUSH1 0x4 ADD PUSH1 0x0 DUP3 DUP3 SLOAD PUSH2 0x3BF SWAP2 SWAP1 PUSH2 0x31EB JUMP JUMPDEST SWAP3 POP POP DUP2 SWAP1 SSTORE POP CALLVALUE PUSH1 0x6 PUSH1 0x0 PUSH1 0x1 SLOAD DUP2 MSTORE PUSH1 0x20 ADD SWAP1 DUP2 MSTORE PUSH1 0x20 ADD PUSH1 0x0 KECCAK256 PUSH1 0x3 ADD PUSH1 0x0 DUP3 DUP3 SLOAD PUSH2 0x3EE SWAP2 SWAP1 PUSH2 0x31EB JUMP JUMPDEST SWAP3 POP POP DUP2 SWAP1 SSTORE POP PUSH2 0x43F PUSH2 0x419 PUSH1 0x6 PUSH1 0x0 PUSH1 0x1 SLOAD DUP2 MSTORE PUSH1 0x20 ADD SWAP1 DUP2 MSTORE PUSH1 0x20 ADD PUSH1 0x0 KECCAK256 PUSH1 0x3 ADD SLOAD PUSH2 0x752 JUMP JUMPDEST PUSH2 0x43A PUSH1 0x6 PUSH1 0x0 PUSH1 0x1 SLOAD DUP2 MSTORE PUSH1 0x20 ADD SWAP1 DUP2 MSTORE PUSH1 0x20 ADD PUSH1 0x0 KECCAK256 PUSH1 0x4 ADD SLOAD PUSH2 0x6D5 JUMP JUMPDEST PUSH2 0x770 JUMP JUMPDEST PUSH1 0x6 PUSH1 0x0 PUSH1 0x1 SLOAD DUP2 MSTORE PUSH1 0x20 ADD SWAP1 DUP2 MSTORE PUSH1 0x20 ADD PUSH1 0x0 KECCAK256 PUSH1 0x7 ADD PUSH1 0x0 DUP3 ADD MLOAD DUP2 PUSH1 0x0 ADD SSTORE SWAP1 POP POP CALLER PUSH20 0xFFFFFFFFFFFFFFFFFFFFFFFFFFFFFFFFFFFFFFFF AND PUSH32 0xE1FFFCC4923D04B559F4D29A8BFC6CDA04EB5B0D3C460751C2402C5C5CC9109C CALLVALUE PUSH1 0x40 MLOAD PUSH2 0x4AA SWAP2 SWAP1 PUSH2 0x3052 JUMP JUMPDEST PUSH1 0x40 MLOAD DUP1 SWAP2 SUB SWAP1 LOG2 STOP JUMPDEST STOP JUMPDEST CALLVALUE DUP1 ISZERO PUSH2 0x4C2 JUMPI PUSH1 0x0 DUP1 REVERT JUMPDEST POP PUSH2 0x4CB PUSH2 0x860 JUMP JUMPDEST PUSH1 0x40 MLOAD PUSH2 0x4D8 SWAP2 SWAP1 PUSH2 0x3052 JUMP JUMPDEST PUSH1 0x40 MLOAD DUP1 SWAP2 SUB SWAP1 RETURN JUMPDEST CALLVALUE DUP1 ISZERO PUSH2 0x4ED JUMPI PUSH1 0x0 DUP1 REVERT JUMPDEST POP PUSH2 0x4F6 PUSH2 0x868 JUMP JUMPDEST PUSH1 0x40 MLOAD PUSH2 0x50A SWAP9 SWAP8 SWAP7 SWAP6 SWAP5 SWAP4 SWAP3 SWAP2 SWAP1 PUSH2 0x3096 JUMP JUMPDEST PUSH1 0x40 MLOAD DUP1 SWAP2 SUB SWAP1 RETURN JUMPDEST CALLVALUE DUP1 ISZERO PUSH2 0x51F JUMPI PUSH1 0x0 DUP1 REVERT JUMPDEST POP PUSH2 0x53A PUSH1 0x4 DUP1 CALLDATASIZE SUB DUP2 ADD SWAP1 PUSH2 0x535 SWAP2 SWAP1 PUSH2 0x289C JUMP JUMPDEST PUSH2 0x974 JUMP JUMPDEST STOP JUMPDEST CALLVALUE DUP1 ISZERO PUSH2 0x548 JUMPI PUSH1 0x0 DUP1 REVERT JUMPDEST POP PUSH2 0x563 PUSH1 0x4 DUP1 CALLDATASIZE SUB DUP2 ADD SWAP1 PUSH2 0x55E SWAP2 SWAP1 PUSH2 0x289C JUMP JUMPDEST PUSH2 0xA0E JUMP JUMPDEST STOP JUMPDEST CALLVALUE DUP1 ISZERO PUSH2 0x571 JUMPI PUSH1 0x0 DUP1 REVERT JUMPDEST POP PUSH2 0x57A PUSH2 0xB43 JUMP JUMPDEST PUSH1 0x40 MLOAD PUSH2 0x587 SWAP2 SWAP1 PUSH2 0x2CF0 JUMP JUMPDEST PUSH1 0x40 MLOAD DUP1 SWAP2 SUB SWAP1 RETURN JUMPDEST CALLVALUE DUP1 ISZERO PUSH2 0x59C JUMPI PUSH1 0x0 DUP1 REVERT JUMPDEST POP PUSH2 0x5B7 PUSH1 0x4 DUP1 CALLDATASIZE SUB DUP2 ADD SWAP1 PUSH2 0x5B2 SWAP2 SWAP1 PUSH2 0x284F JUMP JUMPDEST PUSH2 0xBDD JUMP JUMPDEST STOP JUMPDEST CALLVALUE DUP1 ISZERO PUSH2 0x5C5 JUMPI PUSH1 0x0 DUP1 REVERT JUMPDEST POP PUSH2 0x5E0 PUSH1 0x4 DUP1 CALLDATASIZE SUB DUP2 ADD SWAP1 PUSH2 0x5DB SWAP2 SWAP1 PUSH2 0x2822 JUMP JUMPDEST PUSH2 0xBE9 JUMP JUMPDEST PUSH1 0x40 MLOAD PUSH2 0x5ED SWAP2 SWAP1 PUSH2 0x3052 JUMP JUMPDEST PUSH1 0x40 MLOAD DUP1 SWAP2 SUB SWAP1 RETURN JUMPDEST CALLVALUE DUP1 ISZERO PUSH2 0x602 JUMPI PUSH1 0x0 DUP1 REVERT JUMPDEST POP PUSH2 0x61D PUSH1 0x4 DUP1 CALLDATASIZE SUB DUP2 ADD SWAP1 PUSH2 0x618 SWAP2 SWAP1 PUSH2 0x2822 JUMP JUMPDEST PUSH2 0xC32 JUMP JUMPDEST PUSH1 0x40 MLOAD PUSH2 0x62B SWAP3 SWAP2 SWAP1 PUSH2 0x306D JUMP JUMPDEST PUSH1 0x40 MLOAD DUP1 SWAP2 SUB SWAP1 RETURN JUMPDEST CALLVALUE DUP1 ISZERO PUSH2 0x640 JUMPI PUSH1 0x0 DUP1 REVERT JUMPDEST POP PUSH2 0x65B PUSH1 0x4 DUP1 CALLDATASIZE SUB DUP2 ADD SWAP1 PUSH2 0x656 SWAP2 SWAP1 PUSH2 0x284F JUMP JUMPDEST PUSH2 0xDDB JUMP JUMPDEST PUSH1 0x40 MLOAD PUSH2 0x669 SWAP3 SWAP2 SWAP1 PUSH2 0x2CC0 JUMP JUMPDEST PUSH1 0x40 MLOAD DUP1 SWAP2 SUB SWAP1 RETURN JUMPDEST PUSH2 0x67A PUSH2 0xE04 JUMP JUMPDEST STOP JUMPDEST CALLVALUE DUP1 ISZERO PUSH2 0x688 JUMPI PUSH1 0x0 DUP1 REVERT JUMPDEST POP PUSH2 0x691 PUSH2 0xF16 JUMP JUMPDEST STOP JUMPDEST CALLVALUE DUP1 ISZERO PUSH2 0x69F JUMPI PUSH1 0x0 DUP1 REVERT JUMPDEST POP PUSH2 0x6A8 PUSH2 0xFE1 JUMP JUMPDEST PUSH1 0x40 MLOAD PUSH2 0x6B5 SWAP2 SWAP1 PUSH2 0x2CA5 JUMP JUMPDEST PUSH1 0x40 MLOAD DUP1 SWAP2 SUB SWAP1 RETURN JUMPDEST CALLVALUE DUP1 ISZERO PUSH2 0x6CA JUMPI PUSH1 0x0 DUP1 REVERT JUMPDEST POP PUSH2 0x6D3 PUSH2 0x1007 JUMP JUMPDEST STOP JUMPDEST PUSH2 0x6DD PUSH2 0x278F JUMP JUMPDEST PUSH2 0x6E5 PUSH2 0x10A1 JUMP JUMPDEST DUP3 GT ISZERO PUSH2 0x727 JUMPI PUSH1 0x40 MLOAD PUSH32 0x8C379A000000000000000000000000000000000000000000000000000000000 DUP2 MSTORE PUSH1 0x4 ADD PUSH2 0x71E SWAP1 PUSH2 0x2E72 JUMP JUMPDEST PUSH1 0x40 MLOAD DUP1 SWAP2 SUB SWAP1 REVERT JUMPDEST PUSH1 0x40 MLOAD DUP1 PUSH1 0x20 ADD PUSH1 0x40 MSTORE DUP1 PUSH10 0xD3C21BCECCEDA1000000 DUP5 PUSH2 0x748 SWAP2 SWAP1 PUSH2 0x3272 JUMP JUMPDEST DUP2 MSTORE POP SWAP1 POP SWAP2 SWAP1 POP JUMP JUMPDEST PUSH2 0x75A PUSH2 0x278F JUMP JUMPDEST PUSH1 0x40 MLOAD DUP1 PUSH1 0x20 ADD PUSH1 0x40 MSTORE DUP1 DUP4 DUP2 MSTORE POP SWAP1 POP SWAP2 SWAP1 POP JUMP JUMPDEST PUSH2 0x778 PUSH2 0x278F JUMP JUMPDEST PUSH1 0x0 DUP3 PUSH1 0x0 ADD MLOAD EQ ISZERO PUSH2 0x7C0 JUMPI PUSH1 0x40 MLOAD PUSH32 0x8C379A000000000000000000000000000000000000000000000000000000000 DUP2 MSTORE PUSH1 0x4 ADD PUSH2 0x7B7 SWAP1 PUSH2 0x2E32 JUMP JUMPDEST PUSH1 0x40 MLOAD DUP1 SWAP2 SUB SWAP1 REVERT JUMPDEST PUSH1 0x0 PUSH10 0xD3C21BCECCEDA1000000 DUP5 PUSH1 0x0 ADD MLOAD PUSH2 0x7DC SWAP2 SWAP1 PUSH2 0x3272 JUMP JUMPDEST SWAP1 POP DUP4 PUSH1 0x0 ADD MLOAD PUSH10 0xD3C21BCECCEDA1000000 DUP3 PUSH2 0x7F9 SWAP2 SWAP1 PUSH2 0x3241 JUMP JUMPDEST EQ PUSH2 0x839 JUMPI PUSH1 0x40 MLOAD PUSH32 0x8C379A000000000000000000000000000000000000000000000000000000000 DUP2 MSTORE PUSH1 0x4 ADD PUSH2 0x830 SWAP1 PUSH2 0x2F12 JUMP JUMPDEST PUSH1 0x40 MLOAD DUP1 SWAP2 SUB SWAP1 REVERT JUMPDEST PUSH1 0x40 MLOAD DUP1 PUSH1 0x20 ADD PUSH1 0x40 MSTORE DUP1 DUP5 PUSH1 0x0 ADD MLOAD DUP4 PUSH2 0x854 SWAP2 SWAP1 PUSH2 0x3241 JUMP JUMPDEST DUP2 MSTORE POP SWAP2 POP POP SWAP3 SWAP2 POP POP JUMP JUMPDEST PUSH1 0x0 SELFBALANCE SWAP1 POP SWAP1 JUMP JUMPDEST PUSH1 0x0 DUP1 PUSH1 0x0 DUP1 PUSH1 0x0 DUP1 PUSH1 0x0 PUSH2 0x87B PUSH2 0x278F JUMP JUMPDEST PUSH1 0x6 PUSH1 0x0 PUSH1 0x1 SLOAD DUP2 MSTORE PUSH1 0x20 ADD SWAP1 DUP2 MSTORE PUSH1 0x20 ADD PUSH1 0x0 KECCAK256 PUSH1 0x0 ADD SLOAD PUSH1 0x6 PUSH1 0x0 PUSH1 0x1 SLOAD DUP2 MSTORE PUSH1 0x20 ADD SWAP1 DUP2 MSTORE PUSH1 0x20 ADD PUSH1 0x0 KECCAK256 PUSH1 0x1 ADD SLOAD PUSH1 0x6 PUSH1 0x0 PUSH1 0x1 SLOAD DUP2 MSTORE PUSH1 0x20 ADD SWAP1 DUP2 MSTORE PUSH1 0x20 ADD PUSH1 0x0 KECCAK256 PUSH1 0x2 ADD SLOAD PUSH1 0x6 PUSH1 0x0 PUSH1 0x1 SLOAD DUP2 MSTORE PUSH1 0x20 ADD SWAP1 DUP2 MSTORE PUSH1 0x20 ADD PUSH1 0x0 KECCAK256 PUSH1 0x3 ADD SLOAD PUSH1 0x6 PUSH1 0x0 PUSH1 0x1 SLOAD DUP2 MSTORE PUSH1 0x20 ADD SWAP1 DUP2 MSTORE PUSH1 0x20 ADD PUSH1 0x0 KECCAK256 PUSH1 0x4 ADD SLOAD PUSH1 0x6 PUSH1 0x0 PUSH1 0x1 SLOAD DUP2 MSTORE PUSH1 0x20 ADD SWAP1 DUP2 MSTORE PUSH1 0x20 ADD PUSH1 0x0 KECCAK256 PUSH1 0x5 ADD SLOAD PUSH1 0x6 PUSH1 0x0 PUSH1 0x1 SLOAD DUP2 MSTORE PUSH1 0x20 ADD SWAP1 DUP2 MSTORE PUSH1 0x20 ADD PUSH1 0x0 KECCAK256 PUSH1 0x6 ADD SLOAD PUSH1 0x6 PUSH1 0x0 PUSH1 0x1 SLOAD DUP2 MSTORE PUSH1 0x20 ADD SWAP1 DUP2 MSTORE PUSH1 0x20 ADD PUSH1 0x0 KECCAK256 PUSH1 0x7 ADD DUP1 PUSH1 0x40 MLOAD DUP1 PUSH1 0x20 ADD PUSH1 0x40 MSTORE SWAP1 DUP2 PUSH1 0x0 DUP3 ADD SLOAD DUP2 MSTORE POP POP SWAP1 POP SWAP8 POP SWAP8 POP SWAP8 POP SWAP8 POP SWAP8 POP SWAP8 POP SWAP8 POP SWAP8 POP SWAP1 SWAP2 SWAP3 SWAP4 SWAP5 SWAP6 SWAP7 SWAP8 JUMP JUMPDEST PUSH1 0x4 PUSH1 0x0 SWAP1 SLOAD SWAP1 PUSH2 0x100 EXP SWAP1 DIV PUSH20 0xFFFFFFFFFFFFFFFFFFFFFFFFFFFFFFFFFFFFFFFF AND PUSH20 0xFFFFFFFFFFFFFFFFFFFFFFFFFFFFFFFFFFFFFFFF AND CALLER PUSH20 0xFFFFFFFFFFFFFFFFFFFFFFFFFFFFFFFFFFFFFFFF AND EQ PUSH2 0xA04 JUMPI PUSH1 0x40 MLOAD PUSH32 0x8C379A000000000000000000000000000000000000000000000000000000000 DUP2 MSTORE PUSH1 0x4 ADD PUSH2 0x9FB SWAP1 PUSH2 0x3032 JUMP JUMPDEST PUSH1 0x40 MLOAD DUP1 SWAP2 SUB SWAP1 REVERT JUMPDEST DUP1 PUSH1 0x2 DUP2 SWAP1 SSTORE POP POP JUMP JUMPDEST PUSH1 0x4 PUSH1 0x0 SWAP1 SLOAD SWAP1 PUSH2 0x100 EXP SWAP1 DIV PUSH20 0xFFFFFFFFFFFFFFFFFFFFFFFFFFFFFFFFFFFFFFFF AND PUSH20 0xFFFFFFFFFFFFFFFFFFFFFFFFFFFFFFFFFFFFFFFF AND CALLER PUSH20 0xFFFFFFFFFFFFFFFFFFFFFFFFFFFFFFFFFFFFFFFF AND EQ PUSH2 0xA9E JUMPI PUSH1 0x40 MLOAD PUSH32 0x8C379A000000000000000000000000000000000000000000000000000000000 DUP2 MSTORE PUSH1 0x4 ADD PUSH2 0xA95 SWAP1 PUSH2 0x3032 JUMP JUMPDEST PUSH1 0x40 MLOAD DUP1 SWAP2 SUB SWAP1 REVERT JUMPDEST PUSH2 0xAAA PUSH1 0x3 SLOAD DUP3 PUSH2 0x10C0 JUMP JUMPDEST POP CALLER PUSH20 0xFFFFFFFFFFFFFFFFFFFFFFFFFFFFFFFFFFFFFFFF AND PUSH2 0x8FC DUP3 SWAP1 DUP2 ISZERO MUL SWAP1 PUSH1 0x40 MLOAD PUSH1 0x0 PUSH1 0x40 MLOAD DUP1 DUP4 SUB DUP2 DUP6 DUP9 DUP9 CALL SWAP4 POP POP POP POP ISZERO DUP1 ISZERO PUSH2 0xAF1 JUMPI RETURNDATASIZE PUSH1 0x0 DUP1 RETURNDATACOPY RETURNDATASIZE PUSH1 0x0 REVERT JUMPDEST POP CALLER PUSH20 0xFFFFFFFFFFFFFFFFFFFFFFFFFFFFFFFFFFFFFFFF AND PUSH32 0x884EDAD9CE6FA2440D8A54CC123490EB96D2768479D49FF9C7366125A9424364 DUP3 PUSH1 0x40 MLOAD PUSH2 0xB38 SWAP2 SWAP1 PUSH2 0x3052 JUMP JUMPDEST PUSH1 0x40 MLOAD DUP1 SWAP2 SUB SWAP1 LOG2 POP JUMP JUMPDEST PUSH1 0x0 PUSH1 0x4 PUSH1 0x0 SWAP1 SLOAD SWAP1 PUSH2 0x100 EXP SWAP1 DIV PUSH20 0xFFFFFFFFFFFFFFFFFFFFFFFFFFFFFFFFFFFFFFFF AND PUSH20 0xFFFFFFFFFFFFFFFFFFFFFFFFFFFFFFFFFFFFFFFF AND CALLER PUSH20 0xFFFFFFFFFFFFFFFFFFFFFFFFFFFFFFFFFFFFFFFF AND EQ PUSH2 0xBD5 JUMPI PUSH1 0x40 MLOAD PUSH32 0x8C379A000000000000000000000000000000000000000000000000000000000 DUP2 MSTORE PUSH1 0x4 ADD PUSH2 0xBCC SWAP1 PUSH2 0x3032 JUMP JUMPDEST PUSH1 0x40 MLOAD DUP1 SWAP2 SUB SWAP1 REVERT JUMPDEST PUSH1 0x3 SLOAD SWAP1 POP SWAP1 JUMP JUMPDEST PUSH2 0xBE5 PUSH2 0x10D6 JUMP JUMPDEST POP POP JUMP JUMPDEST PUSH1 0x0 PUSH1 0x5 PUSH1 0x0 DUP4 PUSH20 0xFFFFFFFFFFFFFFFFFFFFFFFFFFFFFFFFFFFFFFFF AND PUSH20 0xFFFFFFFFFFFFFFFFFFFFFFFFFFFFFFFFFFFFFFFF AND DUP2 MSTORE PUSH1 0x20 ADD SWAP1 DUP2 MSTORE PUSH1 0x20 ADD PUSH1 0x0 KECCAK256 SLOAD SWAP1 POP SWAP2 SWAP1 POP JUMP JUMPDEST PUSH1 0x0 DUP1 PUSH1 0x0 PUSH1 0x6 PUSH1 0x0 PUSH1 0x1 SLOAD DUP2 MSTORE PUSH1 0x20 ADD SWAP1 DUP2 MSTORE PUSH1 0x20 ADD PUSH1 0x0 KECCAK256 PUSH1 0x9 ADD PUSH1 0x0 DUP6 PUSH20 0xFFFFFFFFFFFFFFFFFFFFFFFFFFFFFFFFFFFFFFFF AND PUSH20 0xFFFFFFFFFFFFFFFFFFFFFFFFFFFFFFFFFFFFFFFF AND DUP2 MSTORE PUSH1 0x20 ADD SWAP1 DUP2 MSTORE PUSH1 0x20 ADD PUSH1 0x0 KECCAK256 SLOAD EQ ISZERO PUSH2 0xCCE JUMPI PUSH1 0x40 MLOAD PUSH32 0x8C379A000000000000000000000000000000000000000000000000000000000 DUP2 MSTORE PUSH1 0x4 ADD PUSH2 0xCC5 SWAP1 PUSH2 0x3012 JUMP JUMPDEST PUSH1 0x40 MLOAD DUP1 SWAP2 SUB SWAP1 REVERT JUMPDEST PUSH1 0x6 PUSH1 0x0 PUSH1 0x1 SLOAD DUP2 MSTORE PUSH1 0x20 ADD SWAP1 DUP2 MSTORE PUSH1 0x20 ADD PUSH1 0x0 KECCAK256 PUSH1 0x8 ADD PUSH1 0x0 PUSH1 0x6 PUSH1 0x0 PUSH1 0x1 SLOAD DUP2 MSTORE PUSH1 0x20 ADD SWAP1 DUP2 MSTORE PUSH1 0x20 ADD PUSH1 0x0 KECCAK256 PUSH1 0x9 ADD PUSH1 0x0 DUP7 PUSH20 0xFFFFFFFFFFFFFFFFFFFFFFFFFFFFFFFFFFFFFFFF AND PUSH20 0xFFFFFFFFFFFFFFFFFFFFFFFFFFFFFFFFFFFFFFFF AND DUP2 MSTORE PUSH1 0x20 ADD SWAP1 DUP2 MSTORE PUSH1 0x20 ADD PUSH1 0x0 KECCAK256 SLOAD DUP2 MSTORE PUSH1 0x20 ADD SWAP1 DUP2 MSTORE PUSH1 0x20 ADD PUSH1 0x0 KECCAK256 PUSH1 0x1 ADD SLOAD PUSH1 0x6 PUSH1 0x0 PUSH1 0x1 SLOAD DUP2 MSTORE PUSH1 0x20 ADD SWAP1 DUP2 MSTORE PUSH1 0x20 ADD PUSH1 0x0 KECCAK256 PUSH1 0x8 ADD PUSH1 0x0 PUSH1 0x6 PUSH1 0x0 PUSH1 0x1 SLOAD DUP2 MSTORE PUSH1 0x20 ADD SWAP1 DUP2 MSTORE PUSH1 0x20 ADD PUSH1 0x0 KECCAK256 PUSH1 0x9 ADD PUSH1 0x0 DUP8 PUSH20 0xFFFFFFFFFFFFFFFFFFFFFFFFFFFFFFFFFFFFFFFF AND PUSH20 0xFFFFFFFFFFFFFFFFFFFFFFFFFFFFFFFFFFFFFFFF AND DUP2 MSTORE PUSH1 0x20 ADD SWAP1 DUP2 MSTORE PUSH1 0x20 ADD PUSH1 0x0 KECCAK256 SLOAD DUP2 MSTORE PUSH1 0x20 ADD SWAP1 DUP2 MSTORE PUSH1 0x20 ADD PUSH1 0x0 KECCAK256 PUSH1 0x2 ADD SLOAD SWAP2 POP SWAP2 POP SWAP2 POP SWAP2 JUMP JUMPDEST PUSH1 0x0 PUSH1 0x60 TIMESTAMP PUSH1 0x6 PUSH1 0x0 PUSH1 0x1 SLOAD DUP2 MSTORE PUSH1 0x20 ADD SWAP1 DUP2 MSTORE PUSH1 0x20 ADD PUSH1 0x0 KECCAK256 PUSH1 0x6 ADD SLOAD GT ISZERO SWAP2 POP SWAP3 POP SWAP3 SWAP1 POP JUMP JUMPDEST PUSH1 0x0 PUSH1 0x5 PUSH1 0x0 CALLER PUSH20 0xFFFFFFFFFFFFFFFFFFFFFFFFFFFFFFFFFFFFFFFF AND PUSH20 0xFFFFFFFFFFFFFFFFFFFFFFFFFFFFFFFFFFFFFFFF AND DUP2 MSTORE PUSH1 0x20 ADD SWAP1 DUP2 MSTORE PUSH1 0x20 ADD PUSH1 0x0 KECCAK256 SLOAD GT PUSH2 0xE86 JUMPI PUSH1 0x40 MLOAD PUSH32 0x8C379A000000000000000000000000000000000000000000000000000000000 DUP2 MSTORE PUSH1 0x4 ADD PUSH2 0xE7D SWAP1 PUSH2 0x2ED2 JUMP JUMPDEST PUSH1 0x40 MLOAD DUP1 SWAP2 SUB SWAP1 REVERT JUMPDEST PUSH2 0xECF CALLER PUSH1 0x5 PUSH1 0x0 CALLER PUSH20 0xFFFFFFFFFFFFFFFFFFFFFFFFFFFFFFFFFFFFFFFF AND PUSH20 0xFFFFFFFFFFFFFFFFFFFFFFFFFFFFFFFFFFFFFFFF AND DUP2 MSTORE PUSH1 0x20 ADD SWAP1 DUP2 MSTORE PUSH1 0x20 ADD PUSH1 0x0 KECCAK256 SLOAD PUSH2 0x128E JUMP JUMPDEST PUSH1 0x0 PUSH1 0x5 PUSH1 0x0 CALLER PUSH20 0xFFFFFFFFFFFFFFFFFFFFFFFFFFFFFFFFFFFFFFFF AND PUSH20 0xFFFFFFFFFFFFFFFFFFFFFFFFFFFFFFFFFFFFFFFF AND DUP2 MSTORE PUSH1 0x20 ADD SWAP1 DUP2 MSTORE PUSH1 0x20 ADD PUSH1 0x0 KECCAK256 DUP2 SWAP1 SSTORE POP JUMP JUMPDEST PUSH1 0x4 PUSH1 0x0 SWAP1 SLOAD SWAP1 PUSH2 0x100 EXP SWAP1 DIV PUSH20 0xFFFFFFFFFFFFFFFFFFFFFFFFFFFFFFFFFFFFFFFF AND PUSH20 0xFFFFFFFFFFFFFFFFFFFFFFFFFFFFFFFFFFFFFFFF AND CALLER PUSH20 0xFFFFFFFFFFFFFFFFFFFFFFFFFFFFFFFFFFFFFFFF AND EQ PUSH2 0xFA6 JUMPI PUSH1 0x40 MLOAD PUSH32 0x8C379A000000000000000000000000000000000000000000000000000000000 DUP2 MSTORE PUSH1 0x4 ADD PUSH2 0xF9D SWAP1 PUSH2 0x3032 JUMP JUMPDEST PUSH1 0x40 MLOAD DUP1 SWAP2 SUB SWAP1 REVERT JUMPDEST PUSH1 0x4 PUSH1 0x0 SWAP1 SLOAD SWAP1 PUSH2 0x100 EXP SWAP1 DIV PUSH20 0xFFFFFFFFFFFFFFFFFFFFFFFFFFFFFFFFFFFFFFFF AND PUSH20 0xFFFFFFFFFFFFFFFFFFFFFFFFFFFFFFFFFFFFFFFF AND SELFDESTRUCT JUMPDEST PUSH1 0x4 PUSH1 0x0 SWAP1 SLOAD SWAP1 PUSH2 0x100 EXP SWAP1 DIV PUSH20 0xFFFFFFFFFFFFFFFFFFFFFFFFFFFFFFFFFFFFFFFF AND DUP2 JUMP JUMPDEST PUSH1 0x4 PUSH1 0x0 SWAP1 SLOAD SWAP1 PUSH2 0x100 EXP SWAP1 DIV PUSH20 0xFFFFFFFFFFFFFFFFFFFFFFFFFFFFFFFFFFFFFFFF AND PUSH20 0xFFFFFFFFFFFFFFFFFFFFFFFFFFFFFFFFFFFFFFFF AND CALLER PUSH20 0xFFFFFFFFFFFFFFFFFFFFFFFFFFFFFFFFFFFFFFFF AND EQ PUSH2 0x1097 JUMPI PUSH1 0x40 MLOAD PUSH32 0x8C379A000000000000000000000000000000000000000000000000000000000 DUP2 MSTORE PUSH1 0x4 ADD PUSH2 0x108E SWAP1 PUSH2 0x3032 JUMP JUMPDEST PUSH1 0x40 MLOAD DUP1 SWAP2 SUB SWAP1 REVERT JUMPDEST PUSH2 0x109F PUSH2 0x10D6 JUMP JUMPDEST JUMP JUMPDEST PUSH1 0x0 PUSH23 0x1357C299A88EA76A58924D52CE4F26A85AF186C2B9E74 SWAP1 POP SWAP1 JUMP JUMPDEST PUSH1 0x0 DUP2 DUP4 PUSH2 0x10CE SWAP2 SWAP1 PUSH2 0x32CC JUMP JUMPDEST SWAP1 POP SWAP3 SWAP2 POP POP JUMP JUMPDEST PUSH1 0x0 PUSH2 0x10E0 PUSH2 0x1342 JUMP JUMPDEST EQ PUSH2 0x1120 JUMPI PUSH1 0x40 MLOAD PUSH32 0x8C379A000000000000000000000000000000000000000000000000000000000 DUP2 MSTORE PUSH1 0x4 ADD PUSH2 0x1117 SWAP1 PUSH2 0x2E92 JUMP JUMPDEST PUSH1 0x40 MLOAD DUP1 SWAP2 SUB SWAP1 REVERT JUMPDEST PUSH1 0x0 PUSH1 0x6 PUSH1 0x0 PUSH1 0x1 SLOAD DUP2 MSTORE PUSH1 0x20 ADD SWAP1 DUP2 MSTORE PUSH1 0x20 ADD PUSH1 0x0 KECCAK256 PUSH1 0x4 ADD SLOAD EQ PUSH2 0x1149 JUMPI PUSH2 0x1148 PUSH2 0x1396 JUMP JUMPDEST JUMPDEST PUSH1 0x1 DUP1 PUSH1 0x0 DUP3 DUP3 SLOAD PUSH2 0x115B SWAP2 SWAP1 PUSH2 0x31EB JUMP JUMPDEST SWAP3 POP POP DUP2 SWAP1 SSTORE POP PUSH1 0x1 SLOAD PUSH1 0x6 PUSH1 0x0 PUSH1 0x1 SLOAD DUP2 MSTORE PUSH1 0x20 ADD SWAP1 DUP2 MSTORE PUSH1 0x20 ADD PUSH1 0x0 KECCAK256 PUSH1 0x0 ADD DUP2 SWAP1 SSTORE POP PUSH1 0x2 SLOAD PUSH1 0x6 PUSH1 0x0 PUSH1 0x1 SLOAD DUP2 MSTORE PUSH1 0x20 ADD SWAP1 DUP2 MSTORE PUSH1 0x20 ADD PUSH1 0x0 KECCAK256 PUSH1 0x1 ADD DUP2 SWAP1 SSTORE POP PUSH7 0x38D7EA4C68000 PUSH1 0x6 PUSH1 0x0 PUSH1 0x1 SLOAD DUP2 MSTORE PUSH1 0x20 ADD SWAP1 DUP2 MSTORE PUSH1 0x20 ADD PUSH1 0x0 KECCAK256 PUSH1 0x2 ADD DUP2 SWAP1 SSTORE POP PUSH1 0x0 PUSH1 0x6 PUSH1 0x0 PUSH1 0x1 SLOAD DUP2 MSTORE PUSH1 0x20 ADD SWAP1 DUP2 MSTORE PUSH1 0x20 ADD PUSH1 0x0 KECCAK256 PUSH1 0x3 ADD DUP2 SWAP1 SSTORE POP PUSH2 0x11EC PUSH1 0x0 PUSH2 0x6D5 JUMP JUMPDEST PUSH1 0x6 PUSH1 0x0 PUSH1 0x1 SLOAD DUP2 MSTORE PUSH1 0x20 ADD SWAP1 DUP2 MSTORE PUSH1 0x20 ADD PUSH1 0x0 KECCAK256 PUSH1 0x7 ADD PUSH1 0x0 DUP3 ADD MLOAD DUP2 PUSH1 0x0 ADD SSTORE SWAP1 POP POP PUSH1 0x0 PUSH1 0x6 PUSH1 0x0 PUSH1 0x1 SLOAD DUP2 MSTORE PUSH1 0x20 ADD SWAP1 DUP2 MSTORE PUSH1 0x20 ADD PUSH1 0x0 KECCAK256 PUSH1 0x4 ADD DUP2 SWAP1 SSTORE POP TIMESTAMP PUSH1 0x6 PUSH1 0x0 PUSH1 0x1 SLOAD DUP2 MSTORE PUSH1 0x20 ADD SWAP1 DUP2 MSTORE PUSH1 0x20 ADD PUSH1 0x0 KECCAK256 PUSH1 0x5 ADD DUP2 SWAP1 SSTORE POP PUSH1 0x6 PUSH1 0x0 PUSH1 0x1 SLOAD DUP2 MSTORE PUSH1 0x20 ADD SWAP1 DUP2 MSTORE PUSH1 0x20 ADD PUSH1 0x0 KECCAK256 PUSH1 0x1 ADD SLOAD TIMESTAMP PUSH2 0x1270 SWAP2 SWAP1 PUSH2 0x31EB JUMP JUMPDEST PUSH1 0x6 PUSH1 0x0 PUSH1 0x1 SLOAD DUP2 MSTORE PUSH1 0x20 ADD SWAP1 DUP2 MSTORE PUSH1 0x20 ADD PUSH1 0x0 KECCAK256 PUSH1 0x6 ADD DUP2 SWAP1 SSTORE POP JUMP JUMPDEST PUSH1 0x0 DUP1 DUP4 PUSH20 0xFFFFFFFFFFFFFFFFFFFFFFFFFFFFFFFFFFFFFFFF AND DUP4 PUSH1 0x40 MLOAD PUSH2 0x12B5 SWAP1 PUSH2 0x2C90 JUMP JUMPDEST PUSH1 0x0 PUSH1 0x40 MLOAD DUP1 DUP4 SUB DUP2 DUP6 DUP8 GAS CALL SWAP3 POP POP POP RETURNDATASIZE DUP1 PUSH1 0x0 DUP2 EQ PUSH2 0x12F2 JUMPI PUSH1 0x40 MLOAD SWAP2 POP PUSH1 0x1F NOT PUSH1 0x3F RETURNDATASIZE ADD AND DUP3 ADD PUSH1 0x40 MSTORE RETURNDATASIZE DUP3 MSTORE RETURNDATASIZE PUSH1 0x0 PUSH1 0x20 DUP5 ADD RETURNDATACOPY PUSH2 0x12F7 JUMP JUMPDEST PUSH1 0x60 SWAP2 POP JUMPDEST POP SWAP2 POP SWAP2 POP DUP2 PUSH2 0x133C JUMPI PUSH1 0x40 MLOAD PUSH32 0x8C379A000000000000000000000000000000000000000000000000000000000 DUP2 MSTORE PUSH1 0x4 ADD PUSH2 0x1333 SWAP1 PUSH2 0x2E52 JUMP JUMPDEST PUSH1 0x40 MLOAD DUP1 SWAP2 SUB SWAP1 REVERT JUMPDEST POP POP POP POP JUMP JUMPDEST PUSH1 0x0 TIMESTAMP PUSH1 0x6 PUSH1 0x0 PUSH1 0x1 SLOAD DUP2 MSTORE PUSH1 0x20 ADD SWAP1 DUP2 MSTORE PUSH1 0x20 ADD PUSH1 0x0 KECCAK256 PUSH1 0x6 ADD SLOAD GT PUSH2 0x136C JUMPI PUSH1 0x0 SWAP1 POP PUSH2 0x1393 JUMP JUMPDEST TIMESTAMP PUSH1 0x6 PUSH1 0x0 PUSH1 0x1 SLOAD DUP2 MSTORE PUSH1 0x20 ADD SWAP1 DUP2 MSTORE PUSH1 0x20 ADD PUSH1 0x0 KECCAK256 PUSH1 0x6 ADD SLOAD PUSH2 0x1390 SWAP2 SWAP1 PUSH2 0x3360 JUMP JUMPDEST SWAP1 POP JUMPDEST SWAP1 JUMP JUMPDEST PUSH2 0x13ED PUSH1 0x40 MLOAD DUP1 PUSH1 0x40 ADD PUSH1 0x40 MSTORE DUP1 PUSH1 0x1A DUP2 MSTORE PUSH1 0x20 ADD PUSH32 0x506179696E67206F75742077696E6E657273206F662067616D65000000000000 DUP2 MSTORE POP PUSH1 0x6 PUSH1 0x0 PUSH1 0x1 SLOAD DUP2 MSTORE PUSH1 0x20 ADD SWAP1 DUP2 MSTORE PUSH1 0x20 ADD PUSH1 0x0 KECCAK256 PUSH1 0x0 ADD SLOAD PUSH2 0x1D80 JUMP JUMPDEST PUSH1 0x0 DUP1 PUSH1 0x0 PUSH2 0x13FC PUSH1 0x0 PUSH2 0x6D5 JUMP JUMPDEST SWAP1 POP PUSH1 0x0 DUP1 PUSH1 0x1 SWAP1 POP JUMPDEST PUSH1 0x6 PUSH1 0x0 PUSH1 0x1 SLOAD DUP2 MSTORE PUSH1 0x20 ADD SWAP1 DUP2 MSTORE PUSH1 0x20 ADD PUSH1 0x0 KECCAK256 PUSH1 0x4 ADD SLOAD DUP2 GT PUSH2 0x150A JUMPI PUSH2 0x148F PUSH2 0x145D PUSH1 0x6 PUSH1 0x0 PUSH1 0x1 SLOAD DUP2 MSTORE PUSH1 0x20 ADD SWAP1 DUP2 MSTORE PUSH1 0x20 ADD PUSH1 0x0 KECCAK256 PUSH1 0x8 ADD PUSH1 0x0 DUP5 DUP2 MSTORE PUSH1 0x20 ADD SWAP1 DUP2 MSTORE PUSH1 0x20 ADD PUSH1 0x0 KECCAK256 PUSH1 0x1 ADD SLOAD PUSH2 0x752 JUMP JUMPDEST PUSH1 0x6 PUSH1 0x0 PUSH1 0x1 SLOAD DUP2 MSTORE PUSH1 0x20 ADD SWAP1 DUP2 MSTORE PUSH1 0x20 ADD PUSH1 0x0 KECCAK256 PUSH1 0x7 ADD PUSH1 0x40 MLOAD DUP1 PUSH1 0x20 ADD PUSH1 0x40 MSTORE SWAP1 DUP2 PUSH1 0x0 DUP3 ADD SLOAD DUP2 MSTORE POP POP PUSH2 0x1E1C JUMP JUMPDEST ISZERO PUSH2 0x14E2 JUMPI PUSH1 0x1 DUP6 PUSH2 0x14A1 SWAP2 SWAP1 PUSH2 0x31EB JUMP JUMPDEST SWAP5 POP PUSH1 0x6 PUSH1 0x0 PUSH1 0x1 SLOAD DUP2 MSTORE PUSH1 0x20 ADD SWAP1 DUP2 MSTORE PUSH1 0x20 ADD PUSH1 0x0 KECCAK256 PUSH1 0x8 ADD PUSH1 0x0 DUP3 DUP2 MSTORE PUSH1 0x20 ADD SWAP1 DUP2 MSTORE PUSH1 0x20 ADD PUSH1 0x0 KECCAK256 PUSH1 0x1 ADD SLOAD DUP3 PUSH2 0x14DB SWAP2 SWAP1 PUSH2 0x31EB JUMP JUMPDEST SWAP2 POP PUSH2 0x14F7 JUMP JUMPDEST PUSH2 0x14F4 DUP4 PUSH2 0x14EF DUP4 PUSH2 0x1E31 JUMP JUMPDEST PUSH2 0x1F18 JUMP JUMPDEST SWAP3 POP JUMPDEST DUP1 DUP1 PUSH2 0x1502 SWAP1 PUSH2 0x342B JUMP JUMPDEST SWAP2 POP POP PUSH2 0x1406 JUMP JUMPDEST POP PUSH2 0x154A PUSH1 0x40 MLOAD DUP1 PUSH1 0x40 ADD PUSH1 0x40 MSTORE DUP1 PUSH1 0xB DUP2 MSTORE PUSH1 0x20 ADD PUSH32 0x6E756D4C6F736572733A20000000000000000000000000000000000000000000 DUP2 MSTORE POP DUP6 PUSH2 0x1D80 JUMP JUMPDEST PUSH2 0x1589 PUSH1 0x40 MLOAD DUP1 PUSH1 0x40 ADD PUSH1 0x40 MSTORE DUP1 PUSH1 0xB DUP2 MSTORE PUSH1 0x20 ADD PUSH32 0x6C6F73657273506F743A20000000000000000000000000000000000000000000 DUP2 MSTORE POP DUP3 PUSH2 0x1D80 JUMP JUMPDEST DUP4 PUSH1 0x6 PUSH1 0x0 PUSH1 0x1 SLOAD DUP2 MSTORE PUSH1 0x20 ADD SWAP1 DUP2 MSTORE PUSH1 0x20 ADD PUSH1 0x0 KECCAK256 PUSH1 0x4 ADD SLOAD PUSH2 0x15AD SWAP2 SWAP1 PUSH2 0x3360 JUMP JUMPDEST SWAP3 POP PUSH2 0x15EE PUSH1 0x40 MLOAD DUP1 PUSH1 0x40 ADD PUSH1 0x40 MSTORE DUP1 PUSH1 0xC DUP2 MSTORE PUSH1 0x20 ADD PUSH32 0x6E756D57696E6E6572733A200000000000000000000000000000000000000000 DUP2 MSTORE POP DUP5 PUSH2 0x1D80 JUMP JUMPDEST PUSH1 0x0 DUP4 EQ ISZERO PUSH2 0x163E JUMPI PUSH2 0x1635 PUSH1 0x40 MLOAD DUP1 PUSH1 0x40 ADD PUSH1 0x40 MSTORE DUP1 PUSH1 0xA DUP2 MSTORE PUSH1 0x20 ADD PUSH32 0x4E6F2077696E6E65727300000000000000000000000000000000000000000000 DUP2 MSTORE POP PUSH2 0x1F97 JUMP JUMPDEST POP POP POP POP PUSH2 0x1D7E JUMP JUMPDEST PUSH1 0x0 PUSH1 0x1 SWAP1 POP JUMPDEST PUSH1 0x6 PUSH1 0x0 PUSH1 0x1 SLOAD DUP2 MSTORE PUSH1 0x20 ADD SWAP1 DUP2 MSTORE PUSH1 0x20 ADD PUSH1 0x0 KECCAK256 PUSH1 0x4 ADD SLOAD DUP2 GT PUSH2 0x1BBD JUMPI PUSH2 0x16CE PUSH2 0x169C PUSH1 0x6 PUSH1 0x0 PUSH1 0x1 SLOAD DUP2 MSTORE PUSH1 0x20 ADD SWAP1 DUP2 MSTORE PUSH1 0x20 ADD PUSH1 0x0 KECCAK256 PUSH1 0x8 ADD PUSH1 0x0 DUP5 DUP2 MSTORE PUSH1 0x20 ADD SWAP1 DUP2 MSTORE PUSH1 0x20 ADD PUSH1 0x0 KECCAK256 PUSH1 0x1 ADD SLOAD PUSH2 0x752 JUMP JUMPDEST PUSH1 0x6 PUSH1 0x0 PUSH1 0x1 SLOAD DUP2 MSTORE PUSH1 0x20 ADD SWAP1 DUP2 MSTORE PUSH1 0x20 ADD PUSH1 0x0 KECCAK256 PUSH1 0x7 ADD PUSH1 0x40 MLOAD DUP1 PUSH1 0x20 ADD PUSH1 0x40 MSTORE SWAP1 DUP2 PUSH1 0x0 DUP3 ADD SLOAD DUP2 MSTORE POP POP PUSH2 0x2030 JUMP JUMPDEST ISZERO PUSH2 0x1BAA JUMPI PUSH2 0x1748 PUSH1 0x40 MLOAD DUP1 PUSH1 0x40 ADD PUSH1 0x40 MSTORE DUP1 PUSH1 0x1B DUP2 MSTORE PUSH1 0x20 ADD PUSH32 0x2D2D2D2D2D2D2D2D2D2D2D2D2057696E6E657220506C61796572200000000000 DUP2 MSTORE POP DUP3 PUSH1 0x40 MLOAD DUP1 PUSH1 0x40 ADD PUSH1 0x40 MSTORE DUP1 PUSH1 0xD DUP2 MSTORE PUSH1 0x20 ADD PUSH32 0x202D2D2D2D2D2D2D2D2D2D2D2D00000000000000000000000000000000000000 DUP2 MSTORE POP PUSH2 0x2046 JUMP JUMPDEST PUSH1 0x0 DUP1 DUP4 EQ PUSH2 0x17DB JUMPI PUSH2 0x17D8 PUSH2 0x17D3 PUSH2 0x17C2 PUSH2 0x1763 DUP7 PUSH2 0x752 JUMP JUMPDEST PUSH2 0x17BD PUSH2 0x17AF PUSH1 0x6 PUSH1 0x0 PUSH1 0x1 SLOAD DUP2 MSTORE PUSH1 0x20 ADD SWAP1 DUP2 MSTORE PUSH1 0x20 ADD PUSH1 0x0 KECCAK256 PUSH1 0x8 ADD PUSH1 0x0 DUP10 DUP2 MSTORE PUSH1 0x20 ADD SWAP1 DUP2 MSTORE PUSH1 0x20 ADD PUSH1 0x0 KECCAK256 PUSH1 0x3 ADD PUSH1 0x40 MLOAD DUP1 PUSH1 0x20 ADD PUSH1 0x40 MSTORE SWAP1 DUP2 PUSH1 0x0 DUP3 ADD SLOAD DUP2 MSTORE POP POP PUSH2 0x20E5 JUMP JUMPDEST PUSH2 0x17B8 DUP11 PUSH2 0x20E5 JUMP JUMPDEST PUSH2 0x20F3 JUMP JUMPDEST PUSH2 0x2129 JUMP JUMPDEST PUSH2 0x17CE PUSH1 0x63 PUSH1 0x64 PUSH2 0x20F3 JUMP JUMPDEST PUSH2 0x2129 JUMP JUMPDEST PUSH2 0x20E5 JUMP JUMPDEST SWAP1 POP JUMPDEST PUSH1 0x0 DUP2 PUSH1 0x6 PUSH1 0x0 PUSH1 0x1 SLOAD DUP2 MSTORE PUSH1 0x20 ADD SWAP1 DUP2 MSTORE PUSH1 0x20 ADD PUSH1 0x0 KECCAK256 PUSH1 0x8 ADD PUSH1 0x0 DUP6 DUP2 MSTORE PUSH1 0x20 ADD SWAP1 DUP2 MSTORE PUSH1 0x20 ADD PUSH1 0x0 KECCAK256 PUSH1 0x1 ADD SLOAD PUSH2 0x1815 SWAP2 SWAP1 PUSH2 0x31EB JUMP JUMPDEST SWAP1 POP PUSH2 0x1882 PUSH1 0x40 MLOAD DUP1 PUSH1 0x40 ADD PUSH1 0x40 MSTORE DUP1 PUSH1 0x5 DUP2 MSTORE PUSH1 0x20 ADD PUSH32 0x6265743A20000000000000000000000000000000000000000000000000000000 DUP2 MSTORE POP PUSH1 0x6 PUSH1 0x0 PUSH1 0x1 SLOAD DUP2 MSTORE PUSH1 0x20 ADD SWAP1 DUP2 MSTORE PUSH1 0x20 ADD PUSH1 0x0 KECCAK256 PUSH1 0x8 ADD PUSH1 0x0 DUP7 DUP2 MSTORE PUSH1 0x20 ADD SWAP1 DUP2 MSTORE PUSH1 0x20 ADD PUSH1 0x0 KECCAK256 PUSH1 0x1 ADD SLOAD PUSH2 0x1D80 JUMP JUMPDEST PUSH2 0x18F0 PUSH1 0x40 MLOAD DUP1 PUSH1 0x40 ADD PUSH1 0x40 MSTORE DUP1 PUSH1 0xD DUP2 MSTORE PUSH1 0x20 ADD PUSH32 0x63757276655765696768743A2000000000000000000000000000000000000000 DUP2 MSTORE POP PUSH1 0x6 PUSH1 0x0 PUSH1 0x1 SLOAD DUP2 MSTORE PUSH1 0x20 ADD SWAP1 DUP2 MSTORE PUSH1 0x20 ADD PUSH1 0x0 KECCAK256 PUSH1 0x8 ADD PUSH1 0x0 DUP7 DUP2 MSTORE PUSH1 0x20 ADD SWAP1 DUP2 MSTORE PUSH1 0x20 ADD PUSH1 0x0 KECCAK256 PUSH1 0x3 ADD PUSH1 0x0 ADD SLOAD PUSH2 0x1D80 JUMP JUMPDEST PUSH2 0x1933 PUSH1 0x40 MLOAD DUP1 PUSH1 0x40 ADD PUSH1 0x40 MSTORE DUP1 PUSH1 0x1C DUP2 MSTORE PUSH1 0x20 ADD PUSH32 0x77696E6E657273546F74616C437572766557656967687453756D3A2000000000 DUP2 MSTORE POP DUP7 PUSH1 0x0 ADD MLOAD PUSH2 0x1D80 JUMP JUMPDEST PUSH2 0x1972 PUSH1 0x40 MLOAD DUP1 PUSH1 0x40 ADD PUSH1 0x40 MSTORE DUP1 PUSH1 0x19 DUP2 MSTORE PUSH1 0x20 ADD PUSH32 0x77696E6E696E67732066726F6D206C6F73657220706F743A2000000000000000 DUP2 MSTORE POP DUP4 PUSH2 0x1D80 JUMP JUMPDEST PUSH2 0x19B1 PUSH1 0x40 MLOAD DUP1 PUSH1 0x40 ADD PUSH1 0x40 MSTORE DUP1 PUSH1 0x8 DUP2 MSTORE PUSH1 0x20 ADD PUSH32 0x7061796F75743A20000000000000000000000000000000000000000000000000 DUP2 MSTORE POP DUP3 PUSH2 0x1D80 JUMP JUMPDEST DUP1 PUSH1 0x5 PUSH1 0x0 PUSH1 0x6 PUSH1 0x0 PUSH1 0x1 SLOAD DUP2 MSTORE PUSH1 0x20 ADD SWAP1 DUP2 MSTORE PUSH1 0x20 ADD PUSH1 0x0 KECCAK256 PUSH1 0x8 ADD PUSH1 0x0 DUP8 DUP2 MSTORE PUSH1 0x20 ADD SWAP1 DUP2 MSTORE PUSH1 0x20 ADD PUSH1 0x0 KECCAK256 PUSH1 0x0 ADD PUSH1 0x0 SWAP1 SLOAD SWAP1 PUSH2 0x100 EXP SWAP1 DIV PUSH20 0xFFFFFFFFFFFFFFFFFFFFFFFFFFFFFFFFFFFFFFFF AND PUSH20 0xFFFFFFFFFFFFFFFFFFFFFFFFFFFFFFFFFFFFFFFF AND PUSH20 0xFFFFFFFFFFFFFFFFFFFFFFFFFFFFFFFFFFFFFFFF AND DUP2 MSTORE PUSH1 0x20 ADD SWAP1 DUP2 MSTORE PUSH1 0x20 ADD PUSH1 0x0 KECCAK256 PUSH1 0x0 DUP3 DUP3 SLOAD PUSH2 0x1A4C SWAP2 SWAP1 PUSH2 0x31EB JUMP JUMPDEST SWAP3 POP POP DUP2 SWAP1 SSTORE POP DUP1 PUSH1 0x6 PUSH1 0x0 PUSH1 0x1 SLOAD DUP2 MSTORE PUSH1 0x20 ADD SWAP1 DUP2 MSTORE PUSH1 0x20 ADD PUSH1 0x0 KECCAK256 PUSH1 0x3 ADD PUSH1 0x0 DUP3 DUP3 SLOAD PUSH2 0x1A7B SWAP2 SWAP1 PUSH2 0x3360 JUMP JUMPDEST SWAP3 POP POP DUP2 SWAP1 SSTORE POP PUSH1 0x6 PUSH1 0x0 PUSH1 0x1 SLOAD DUP2 MSTORE PUSH1 0x20 ADD SWAP1 DUP2 MSTORE PUSH1 0x20 ADD PUSH1 0x0 KECCAK256 PUSH1 0x8 ADD PUSH1 0x0 DUP5 DUP2 MSTORE PUSH1 0x20 ADD SWAP1 DUP2 MSTORE PUSH1 0x20 ADD PUSH1 0x0 KECCAK256 PUSH1 0x0 ADD PUSH1 0x0 SWAP1 SLOAD SWAP1 PUSH2 0x100 EXP SWAP1 DIV PUSH20 0xFFFFFFFFFFFFFFFFFFFFFFFFFFFFFFFFFFFFFFFF AND PUSH20 0xFFFFFFFFFFFFFFFFFFFFFFFFFFFFFFFFFFFFFFFF AND PUSH32 0x5AFECA38B2064C23A692C4CF353015D80AB3ECC417B4F893F372690C11FBD9A6 DUP3 PUSH1 0x40 MLOAD PUSH2 0x1B14 SWAP2 SWAP1 PUSH2 0x3052 JUMP JUMPDEST PUSH1 0x40 MLOAD DUP1 SWAP2 SUB SWAP1 LOG2 PUSH2 0x1BA7 PUSH1 0x40 MLOAD DUP1 PUSH1 0x40 ADD PUSH1 0x40 MSTORE DUP1 PUSH1 0x10 DUP2 MSTORE PUSH1 0x20 ADD PUSH32 0x5061796F75742073656E7420746F3A2000000000000000000000000000000000 DUP2 MSTORE POP PUSH1 0x6 PUSH1 0x0 PUSH1 0x1 SLOAD DUP2 MSTORE PUSH1 0x20 ADD SWAP1 DUP2 MSTORE PUSH1 0x20 ADD PUSH1 0x0 KECCAK256 PUSH1 0x8 ADD PUSH1 0x0 DUP7 DUP2 MSTORE PUSH1 0x20 ADD SWAP1 DUP2 MSTORE PUSH1 0x20 ADD PUSH1 0x0 KECCAK256 PUSH1 0x0 ADD PUSH1 0x0 SWAP1 SLOAD SWAP1 PUSH2 0x100 EXP SWAP1 DIV PUSH20 0xFFFFFFFFFFFFFFFFFFFFFFFFFFFFFFFFFFFFFFFF AND PUSH2 0x24C2 JUMP JUMPDEST POP POP JUMPDEST DUP1 DUP1 PUSH2 0x1BB5 SWAP1 PUSH2 0x342B JUMP JUMPDEST SWAP2 POP POP PUSH2 0x1645 JUMP JUMPDEST POP PUSH2 0x1C15 PUSH1 0x40 MLOAD DUP1 PUSH1 0x40 ADD PUSH1 0x40 MSTORE DUP1 PUSH1 0x5 DUP2 MSTORE PUSH1 0x20 ADD PUSH32 0x506F743A20000000000000000000000000000000000000000000000000000000 DUP2 MSTORE POP PUSH1 0x6 PUSH1 0x0 PUSH1 0x1 SLOAD DUP2 MSTORE PUSH1 0x20 ADD SWAP1 DUP2 MSTORE PUSH1 0x20 ADD PUSH1 0x0 KECCAK256 PUSH1 0x3 ADD SLOAD PUSH2 0x1D80 JUMP JUMPDEST PUSH1 0x0 PUSH1 0x6 PUSH1 0x0 PUSH1 0x1 SLOAD DUP2 MSTORE PUSH1 0x20 ADD SWAP1 DUP2 MSTORE PUSH1 0x20 ADD PUSH1 0x0 KECCAK256 PUSH1 0x3 ADD SLOAD GT ISZERO PUSH2 0x1D63 JUMPI PUSH2 0x1C5A PUSH1 0x3 SLOAD PUSH1 0x6 PUSH1 0x0 PUSH1 0x1 SLOAD DUP2 MSTORE PUSH1 0x20 ADD SWAP1 DUP2 MSTORE PUSH1 0x20 ADD PUSH1 0x0 KECCAK256 PUSH1 0x3 ADD SLOAD PUSH2 0x255E JUMP JUMPDEST POP PUSH1 0x4 PUSH1 0x0 SWAP1 SLOAD SWAP1 PUSH2 0x100 EXP SWAP1 DIV PUSH20 0xFFFFFFFFFFFFFFFFFFFFFFFFFFFFFFFFFFFFFFFF AND PUSH20 0xFFFFFFFFFFFFFFFFFFFFFFFFFFFFFFFFFFFFFFFF AND PUSH32 0x5AFECA38B2064C23A692C4CF353015D80AB3ECC417B4F893F372690C11FBD9A6 PUSH1 0x6 PUSH1 0x0 PUSH1 0x1 SLOAD DUP2 MSTORE PUSH1 0x20 ADD SWAP1 DUP2 MSTORE PUSH1 0x20 ADD PUSH1 0x0 KECCAK256 PUSH1 0x3 ADD SLOAD PUSH1 0x40 MLOAD PUSH2 0x1CDB SWAP2 SWAP1 PUSH2 0x3052 JUMP JUMPDEST PUSH1 0x40 MLOAD DUP1 SWAP2 SUB SWAP1 LOG2 PUSH1 0x0 PUSH1 0x6 PUSH1 0x0 PUSH1 0x1 SLOAD DUP2 MSTORE PUSH1 0x20 ADD SWAP1 DUP2 MSTORE PUSH1 0x20 ADD PUSH1 0x0 KECCAK256 PUSH1 0x3 ADD DUP2 SWAP1 SSTORE POP PUSH2 0x1D62 PUSH1 0x40 MLOAD DUP1 PUSH1 0x40 ADD PUSH1 0x40 MSTORE DUP1 PUSH1 0x18 DUP2 MSTORE PUSH1 0x20 ADD PUSH32 0x52656D61696E696E6720706F7420737765707420746F3A200000000000000000 DUP2 MSTORE POP PUSH1 0x4 PUSH1 0x0 SWAP1 SLOAD SWAP1 PUSH2 0x100 EXP SWAP1 DIV PUSH20 0xFFFFFFFFFFFFFFFFFFFFFFFFFFFFFFFFFFFFFFFF AND PUSH2 0x24C2 JUMP JUMPDEST JUMPDEST PUSH1 0x0 SWAP4 POP PUSH1 0x0 SWAP3 POP PUSH2 0x1D73 PUSH2 0x278F JUMP JUMPDEST SWAP2 POP PUSH1 0x0 SWAP1 POP POP POP POP POP JUMPDEST JUMP JUMPDEST PUSH2 0x1E18 DUP3 DUP3 PUSH1 0x40 MLOAD PUSH1 0x24 ADD PUSH2 0x1D96 SWAP3 SWAP2 SWAP1 PUSH2 0x2D5D JUMP JUMPDEST PUSH1 0x40 MLOAD PUSH1 0x20 DUP2 DUP4 SUB SUB DUP2 MSTORE SWAP1 PUSH1 0x40 MSTORE PUSH32 0x9710A9D000000000000000000000000000000000000000000000000000000000 PUSH28 0xFFFFFFFFFFFFFFFFFFFFFFFFFFFFFFFFFFFFFFFFFFFFFFFFFFFFFFFF NOT AND PUSH1 0x20 DUP3 ADD DUP1 MLOAD PUSH28 0xFFFFFFFFFFFFFFFFFFFFFFFFFFFFFFFFFFFFFFFFFFFFFFFFFFFFFFFF DUP4 DUP2 DUP4 AND OR DUP4 MSTORE POP POP POP POP PUSH2 0x2574 JUMP JUMPDEST POP POP JUMP JUMPDEST PUSH1 0x0 DUP2 PUSH1 0x0 ADD MLOAD DUP4 PUSH1 0x0 ADD MLOAD LT SWAP1 POP SWAP3 SWAP2 POP POP JUMP JUMPDEST PUSH2 0x1E39 PUSH2 0x278F JUMP JUMPDEST PUSH1 0x1 DUP3 LT ISZERO DUP1 ISZERO PUSH2 0x1E62 JUMPI POP PUSH1 0x6 PUSH1 0x0 PUSH1 0x1 SLOAD DUP2 MSTORE PUSH1 0x20 ADD SWAP1 DUP2 MSTORE PUSH1 0x20 ADD PUSH1 0x0 KECCAK256 PUSH1 0x4 ADD SLOAD DUP3 GT ISZERO JUMPDEST PUSH2 0x1EA1 JUMPI PUSH1 0x40 MLOAD PUSH32 0x8C379A000000000000000000000000000000000000000000000000000000000 DUP2 MSTORE PUSH1 0x4 ADD PUSH2 0x1E98 SWAP1 PUSH2 0x2F52 JUMP JUMPDEST PUSH1 0x40 MLOAD DUP1 SWAP2 SUB SWAP1 REVERT JUMPDEST PUSH1 0x0 PUSH2 0x1EC5 DUP4 PUSH1 0x6 PUSH1 0x0 PUSH1 0x1 SLOAD DUP2 MSTORE PUSH1 0x20 ADD SWAP1 DUP2 MSTORE PUSH1 0x20 ADD PUSH1 0x0 KECCAK256 PUSH1 0x4 ADD SLOAD PUSH2 0x20F3 JUMP JUMPDEST SWAP1 POP PUSH1 0x0 PUSH2 0x1ED2 DUP3 PUSH2 0x259D JUMP JUMPDEST SWAP1 POP DUP1 PUSH1 0x6 PUSH1 0x0 PUSH1 0x1 SLOAD DUP2 MSTORE PUSH1 0x20 ADD SWAP1 DUP2 MSTORE PUSH1 0x20 ADD PUSH1 0x0 KECCAK256 PUSH1 0x8 ADD PUSH1 0x0 DUP7 DUP2 MSTORE PUSH1 0x20 ADD SWAP1 DUP2 MSTORE PUSH1 0x20 ADD PUSH1 0x0 KECCAK256 PUSH1 0x3 ADD PUSH1 0x0 DUP3 ADD MLOAD DUP2 PUSH1 0x0 ADD SSTORE SWAP1 POP POP DUP1 SWAP3 POP POP POP SWAP2 SWAP1 POP JUMP JUMPDEST PUSH2 0x1F20 PUSH2 0x278F JUMP JUMPDEST PUSH1 0x0 DUP3 PUSH1 0x0 ADD MLOAD DUP5 PUSH1 0x0 ADD MLOAD PUSH2 0x1F36 SWAP2 SWAP1 PUSH2 0x31EB JUMP JUMPDEST SWAP1 POP DUP4 PUSH1 0x0 ADD MLOAD DUP2 LT ISZERO PUSH2 0x1F7F JUMPI PUSH1 0x40 MLOAD PUSH32 0x8C379A000000000000000000000000000000000000000000000000000000000 DUP2 MSTORE PUSH1 0x4 ADD PUSH2 0x1F76 SWAP1 PUSH2 0x2F92 JUMP JUMPDEST PUSH1 0x40 MLOAD DUP1 SWAP2 SUB SWAP1 REVERT JUMPDEST PUSH1 0x40 MLOAD DUP1 PUSH1 0x20 ADD PUSH1 0x40 MSTORE DUP1 DUP3 DUP2 MSTORE POP SWAP2 POP POP SWAP3 SWAP2 POP POP JUMP JUMPDEST PUSH2 0x202D DUP2 PUSH1 0x40 MLOAD PUSH1 0x24 ADD PUSH2 0x1FAB SWAP2 SWAP1 PUSH2 0x2D0B JUMP JUMPDEST PUSH1 0x40 MLOAD PUSH1 0x20 DUP2 DUP4 SUB SUB DUP2 MSTORE SWAP1 PUSH1 0x40 MSTORE PUSH32 0x41304FAC00000000000000000000000000000000000000000000000000000000 PUSH28 0xFFFFFFFFFFFFFFFFFFFFFFFFFFFFFFFFFFFFFFFFFFFFFFFFFFFFFFFF NOT AND PUSH1 0x20 DUP3 ADD DUP1 MLOAD PUSH28 0xFFFFFFFFFFFFFFFFFFFFFFFFFFFFFFFFFFFFFFFFFFFFFFFFFFFFFFFF DUP4 DUP2 DUP4 AND OR DUP4 MSTORE POP POP POP POP PUSH2 0x2574 JUMP JUMPDEST POP JUMP JUMPDEST PUSH1 0x0 DUP2 PUSH1 0x0 ADD MLOAD DUP4 PUSH1 0x0 ADD MLOAD LT ISZERO SWAP1 POP SWAP3 SWAP2 POP POP JUMP JUMPDEST PUSH2 0x20E0 DUP4 DUP4 DUP4 PUSH1 0x40 MLOAD PUSH1 0x24 ADD PUSH2 0x205E SWAP4 SWAP3 SWAP2 SWAP1 PUSH2 0x2D8D JUMP JUMPDEST PUSH1 0x40 MLOAD PUSH1 0x20 DUP2 DUP4 SUB SUB DUP2 MSTORE SWAP1 PUSH1 0x40 MSTORE PUSH32 0xA3F5C73900000000000000000000000000000000000000000000000000000000 PUSH28 0xFFFFFFFFFFFFFFFFFFFFFFFFFFFFFFFFFFFFFFFFFFFFFFFFFFFFFFFF NOT AND PUSH1 0x20 DUP3 ADD DUP1 MLOAD PUSH28 0xFFFFFFFFFFFFFFFFFFFFFFFFFFFFFFFFFFFFFFFFFFFFFFFFFFFFFFFF DUP4 DUP2 DUP4 AND OR DUP4 MSTORE POP POP POP POP PUSH2 0x2574 JUMP JUMPDEST POP POP POP JUMP JUMPDEST PUSH1 0x0 DUP2 PUSH1 0x0 ADD MLOAD SWAP1 POP SWAP2 SWAP1 POP JUMP JUMPDEST PUSH2 0x20FB PUSH2 0x278F JUMP JUMPDEST PUSH1 0x0 PUSH2 0x2106 DUP5 PUSH2 0x6D5 JUMP JUMPDEST SWAP1 POP PUSH1 0x0 PUSH2 0x2113 DUP5 PUSH2 0x6D5 JUMP JUMPDEST SWAP1 POP PUSH2 0x211F DUP3 DUP3 PUSH2 0x770 JUMP JUMPDEST SWAP3 POP POP POP SWAP3 SWAP2 POP POP JUMP JUMPDEST PUSH2 0x2131 PUSH2 0x278F JUMP JUMPDEST PUSH1 0x0 DUP4 PUSH1 0x0 ADD MLOAD EQ DUP1 PUSH2 0x2148 JUMPI POP PUSH1 0x0 DUP3 PUSH1 0x0 ADD MLOAD EQ JUMPDEST ISZERO PUSH2 0x2164 JUMPI PUSH1 0x40 MLOAD DUP1 PUSH1 0x20 ADD PUSH1 0x40 MSTORE DUP1 PUSH1 0x0 DUP2 MSTORE POP SWAP1 POP PUSH2 0x24BC JUMP JUMPDEST PUSH10 0xD3C21BCECCEDA1000000 DUP3 PUSH1 0x0 ADD MLOAD EQ ISZERO PUSH2 0x2182 JUMPI DUP3 SWAP1 POP PUSH2 0x24BC JUMP JUMPDEST PUSH10 0xD3C21BCECCEDA1000000 DUP4 PUSH1 0x0 ADD MLOAD EQ ISZERO PUSH2 0x21A0 JUMPI DUP2 SWAP1 POP PUSH2 0x24BC JUMP JUMPDEST PUSH1 0x0 PUSH10 0xD3C21BCECCEDA1000000 PUSH2 0x21B6 DUP6 PUSH2 0x2636 JUMP JUMPDEST PUSH1 0x0 ADD MLOAD PUSH2 0x21C4 SWAP2 SWAP1 PUSH2 0x3241 JUMP JUMPDEST SWAP1 POP PUSH1 0x0 PUSH2 0x21D1 DUP6 PUSH2 0x2678 JUMP JUMPDEST PUSH1 0x0 ADD MLOAD SWAP1 POP PUSH1 0x0 PUSH10 0xD3C21BCECCEDA1000000 PUSH2 0x21ED DUP7 PUSH2 0x2636 JUMP JUMPDEST PUSH1 0x0 ADD MLOAD PUSH2 0x21FB SWAP2 SWAP1 PUSH2 0x3241 JUMP JUMPDEST SWAP1 POP PUSH1 0x0 PUSH2 0x2208 DUP7 PUSH2 0x2678 JUMP JUMPDEST PUSH1 0x0 ADD MLOAD SWAP1 POP PUSH1 0x0 DUP3 DUP6 PUSH2 0x221C SWAP2 SWAP1 PUSH2 0x3272 JUMP JUMPDEST SWAP1 POP PUSH1 0x0 DUP6 EQ PUSH2 0x2274 JUMPI DUP3 DUP6 DUP3 PUSH2 0x2233 SWAP2 SWAP1 PUSH2 0x3241 JUMP JUMPDEST EQ PUSH2 0x2273 JUMPI PUSH1 0x40 MLOAD PUSH32 0x8C379A000000000000000000000000000000000000000000000000000000000 DUP2 MSTORE PUSH1 0x4 ADD PUSH2 0x226A SWAP1 PUSH2 0x2DD2 JUMP JUMPDEST PUSH1 0x40 MLOAD DUP1 SWAP2 SUB SWAP1 REVERT JUMPDEST JUMPDEST PUSH1 0x0 PUSH10 0xD3C21BCECCEDA1000000 DUP3 PUSH2 0x228C SWAP2 SWAP1 PUSH2 0x3272 JUMP JUMPDEST SWAP1 POP PUSH1 0x0 DUP3 EQ PUSH2 0x22EE JUMPI PUSH10 0xD3C21BCECCEDA1000000 DUP3 DUP3 PUSH2 0x22AD SWAP2 SWAP1 PUSH2 0x3241 JUMP JUMPDEST EQ PUSH2 0x22ED JUMPI PUSH1 0x40 MLOAD PUSH32 0x8C379A000000000000000000000000000000000000000000000000000000000 DUP2 MSTORE PUSH1 0x4 ADD PUSH2 0x22E4 SWAP1 PUSH2 0x2FB2 JUMP JUMPDEST PUSH1 0x40 MLOAD DUP1 SWAP2 SUB SWAP1 REVERT JUMPDEST JUMPDEST DUP1 SWAP2 POP PUSH1 0x0 DUP5 DUP7 PUSH2 0x22FF SWAP2 SWAP1 PUSH2 0x3272 JUMP JUMPDEST SWAP1 POP PUSH1 0x0 DUP7 EQ PUSH2 0x2357 JUMPI DUP5 DUP7 DUP3 PUSH2 0x2316 SWAP2 SWAP1 PUSH2 0x3241 JUMP JUMPDEST EQ PUSH2 0x2356 JUMPI PUSH1 0x40 MLOAD PUSH32 0x8C379A000000000000000000000000000000000000000000000000000000000 DUP2 MSTORE PUSH1 0x4 ADD PUSH2 0x234D SWAP1 PUSH2 0x2FF2 JUMP JUMPDEST PUSH1 0x40 MLOAD DUP1 SWAP2 SUB SWAP1 REVERT JUMPDEST JUMPDEST PUSH1 0x0 DUP5 DUP9 PUSH2 0x2365 SWAP2 SWAP1 PUSH2 0x3272 JUMP JUMPDEST SWAP1 POP PUSH1 0x0 DUP9 EQ PUSH2 0x23BD JUMPI DUP5 DUP9 DUP3 PUSH2 0x237C SWAP2 SWAP1 PUSH2 0x3241 JUMP JUMPDEST EQ PUSH2 0x23BC JUMPI PUSH1 0x40 MLOAD PUSH32 0x8C379A000000000000000000000000000000000000000000000000000000000 DUP2 MSTORE PUSH1 0x4 ADD PUSH2 0x23B3 SWAP1 PUSH2 0x2F72 JUMP JUMPDEST PUSH1 0x40 MLOAD DUP1 SWAP2 SUB SWAP1 REVERT JUMPDEST JUMPDEST PUSH2 0x23C5 PUSH2 0x26C9 JUMP JUMPDEST DUP8 PUSH2 0x23D0 SWAP2 SWAP1 PUSH2 0x3241 JUMP JUMPDEST SWAP7 POP PUSH2 0x23DA PUSH2 0x26C9 JUMP JUMPDEST DUP6 PUSH2 0x23E5 SWAP2 SWAP1 PUSH2 0x3241 JUMP JUMPDEST SWAP5 POP PUSH1 0x0 DUP6 DUP9 PUSH2 0x23F5 SWAP2 SWAP1 PUSH2 0x3272 JUMP JUMPDEST SWAP1 POP PUSH1 0x0 DUP9 EQ PUSH2 0x244D JUMPI DUP6 DUP9 DUP3 PUSH2 0x240C SWAP2 SWAP1 PUSH2 0x3241 JUMP JUMPDEST EQ PUSH2 0x244C JUMPI PUSH1 0x40 MLOAD PUSH32 0x8C379A000000000000000000000000000000000000000000000000000000000 DUP2 MSTORE PUSH1 0x4 ADD PUSH2 0x2443 SWAP1 PUSH2 0x2E12 JUMP JUMPDEST PUSH1 0x40 MLOAD DUP1 SWAP2 SUB SWAP1 REVERT JUMPDEST JUMPDEST PUSH1 0x0 PUSH1 0x40 MLOAD DUP1 PUSH1 0x20 ADD PUSH1 0x40 MSTORE DUP1 DUP8 DUP2 MSTORE POP SWAP1 POP PUSH2 0x2478 DUP2 PUSH1 0x40 MLOAD DUP1 PUSH1 0x20 ADD PUSH1 0x40 MSTORE DUP1 DUP8 DUP2 MSTORE POP PUSH2 0x1F18 JUMP JUMPDEST SWAP1 POP PUSH2 0x2492 DUP2 PUSH1 0x40 MLOAD DUP1 PUSH1 0x20 ADD PUSH1 0x40 MSTORE DUP1 DUP7 DUP2 MSTORE POP PUSH2 0x1F18 JUMP JUMPDEST SWAP1 POP PUSH2 0x24AC DUP2 PUSH1 0x40 MLOAD DUP1 PUSH1 0x20 ADD PUSH1 0x40 MSTORE DUP1 DUP6 DUP2 MSTORE POP PUSH2 0x1F18 JUMP JUMPDEST SWAP1 POP DUP1 SWAP11 POP POP POP POP POP POP POP POP POP POP POP JUMPDEST SWAP3 SWAP2 POP POP JUMP JUMPDEST PUSH2 0x255A DUP3 DUP3 PUSH1 0x40 MLOAD PUSH1 0x24 ADD PUSH2 0x24D8 SWAP3 SWAP2 SWAP1 PUSH2 0x2D2D JUMP JUMPDEST PUSH1 0x40 MLOAD PUSH1 0x20 DUP2 DUP4 SUB SUB DUP2 MSTORE SWAP1 PUSH1 0x40 MSTORE PUSH32 0x319AF33300000000000000000000000000000000000000000000000000000000 PUSH28 0xFFFFFFFFFFFFFFFFFFFFFFFFFFFFFFFFFFFFFFFFFFFFFFFFFFFFFFFF NOT AND PUSH1 0x20 DUP3 ADD DUP1 MLOAD PUSH28 0xFFFFFFFFFFFFFFFFFFFFFFFFFFFFFFFFFFFFFFFFFFFFFFFFFFFFFFFF DUP4 DUP2 DUP4 AND OR DUP4 MSTORE POP POP POP POP PUSH2 0x2574 JUMP JUMPDEST POP POP JUMP JUMPDEST PUSH1 0x0 DUP2 DUP4 PUSH2 0x256C SWAP2 SWAP1 PUSH2 0x3157 JUMP JUMPDEST SWAP1 POP SWAP3 SWAP2 POP POP JUMP JUMPDEST PUSH1 0x0 DUP2 MLOAD SWAP1 POP PUSH1 0x0 PUSH11 0x636F6E736F6C652E6C6F67 SWAP1 POP PUSH1 0x20 DUP4 ADD PUSH1 0x0 DUP1 DUP5 DUP4 DUP6 GAS STATICCALL POP POP POP POP POP JUMP JUMPDEST PUSH2 0x25A5 PUSH2 0x278F JUMP JUMPDEST PUSH1 0x0 DUP3 PUSH1 0x0 ADD MLOAD LT ISZERO DUP1 ISZERO PUSH2 0x25C7 JUMPI POP PUSH2 0x25C6 DUP3 PUSH2 0x25C1 PUSH2 0x26D6 JUMP JUMPDEST PUSH2 0x26FC JUMP JUMPDEST JUMPDEST PUSH2 0x2606 JUMPI PUSH1 0x40 MLOAD PUSH32 0x8C379A000000000000000000000000000000000000000000000000000000000 DUP2 MSTORE PUSH1 0x4 ADD PUSH2 0x25FD SWAP1 PUSH2 0x2FD2 JUMP JUMPDEST PUSH1 0x40 MLOAD DUP1 SWAP2 SUB SWAP1 REVERT JUMPDEST PUSH1 0x0 PUSH2 0x261B PUSH2 0x2615 DUP5 DUP6 PUSH2 0x2129 JUMP JUMPDEST DUP5 PUSH2 0x2129 JUMP JUMPDEST SWAP1 POP PUSH2 0x262E PUSH2 0x2628 PUSH2 0x26D6 JUMP JUMPDEST DUP3 PUSH2 0x2712 JUMP JUMPDEST SWAP2 POP POP SWAP2 SWAP1 POP JUMP JUMPDEST PUSH2 0x263E PUSH2 0x278F JUMP JUMPDEST PUSH1 0x40 MLOAD DUP1 PUSH1 0x20 ADD PUSH1 0x40 MSTORE DUP1 PUSH10 0xD3C21BCECCEDA1000000 DUP1 DUP6 PUSH1 0x0 ADD MLOAD PUSH2 0x2664 SWAP2 SWAP1 PUSH2 0x3241 JUMP JUMPDEST PUSH2 0x266E SWAP2 SWAP1 PUSH2 0x3272 JUMP JUMPDEST DUP2 MSTORE POP SWAP1 POP SWAP2 SWAP1 POP JUMP JUMPDEST PUSH2 0x2680 PUSH2 0x278F JUMP JUMPDEST PUSH1 0x40 MLOAD DUP1 PUSH1 0x20 ADD PUSH1 0x40 MSTORE DUP1 PUSH10 0xD3C21BCECCEDA1000000 DUP1 DUP6 PUSH1 0x0 ADD MLOAD PUSH2 0x26A6 SWAP2 SWAP1 PUSH2 0x3241 JUMP JUMPDEST PUSH2 0x26B0 SWAP2 SWAP1 PUSH2 0x3272 JUMP JUMPDEST DUP5 PUSH1 0x0 ADD MLOAD PUSH2 0x26BF SWAP2 SWAP1 PUSH2 0x3360 JUMP JUMPDEST DUP2 MSTORE POP SWAP1 POP SWAP2 SWAP1 POP JUMP JUMPDEST PUSH1 0x0 PUSH5 0xE8D4A51000 SWAP1 POP SWAP1 JUMP JUMPDEST PUSH2 0x26DE PUSH2 0x278F JUMP JUMPDEST PUSH1 0x40 MLOAD DUP1 PUSH1 0x20 ADD PUSH1 0x40 MSTORE DUP1 PUSH10 0xD3C21BCECCEDA1000000 DUP2 MSTORE POP SWAP1 POP SWAP1 JUMP JUMPDEST PUSH1 0x0 DUP2 PUSH1 0x0 ADD MLOAD DUP4 PUSH1 0x0 ADD MLOAD GT ISZERO SWAP1 POP SWAP3 SWAP2 POP POP JUMP JUMPDEST PUSH2 0x271A PUSH2 0x278F JUMP JUMPDEST DUP2 PUSH1 0x0 ADD MLOAD DUP4 PUSH1 0x0 ADD MLOAD LT ISZERO PUSH2 0x2765 JUMPI PUSH1 0x40 MLOAD PUSH32 0x8C379A000000000000000000000000000000000000000000000000000000000 DUP2 MSTORE PUSH1 0x4 ADD PUSH2 0x275C SWAP1 PUSH2 0x2DF2 JUMP JUMPDEST PUSH1 0x40 MLOAD DUP1 SWAP2 SUB SWAP1 REVERT JUMPDEST PUSH1 0x40 MLOAD DUP1 PUSH1 0x20 ADD PUSH1 0x40 MSTORE DUP1 DUP4 PUSH1 0x0 ADD MLOAD DUP6 PUSH1 0x0 ADD MLOAD PUSH2 0x2784 SWAP2 SWAP1 PUSH2 0x3360 JUMP JUMPDEST DUP2 MSTORE POP SWAP1 POP SWAP3 SWAP2 POP POP JUMP JUMPDEST PUSH1 0x40 MLOAD DUP1 PUSH1 0x20 ADD PUSH1 0x40 MSTORE DUP1 PUSH1 0x0 DUP2 MSTORE POP SWAP1 JUMP JUMPDEST PUSH1 0x0 DUP2 CALLDATALOAD SWAP1 POP PUSH2 0x27B1 DUP2 PUSH2 0x387F JUMP JUMPDEST SWAP3 SWAP2 POP POP JUMP JUMPDEST PUSH1 0x0 DUP1 DUP4 PUSH1 0x1F DUP5 ADD SLT PUSH2 0x27CD JUMPI PUSH2 0x27CC PUSH2 0x34D7 JUMP JUMPDEST JUMPDEST DUP3 CALLDATALOAD SWAP1 POP PUSH8 0xFFFFFFFFFFFFFFFF DUP2 GT ISZERO PUSH2 0x27EA JUMPI PUSH2 0x27E9 PUSH2 0x34D2 JUMP JUMPDEST JUMPDEST PUSH1 0x20 DUP4 ADD SWAP2 POP DUP4 PUSH1 0x1 DUP3 MUL DUP4 ADD GT ISZERO PUSH2 0x2806 JUMPI PUSH2 0x2805 PUSH2 0x34DC JUMP JUMPDEST JUMPDEST SWAP3 POP SWAP3 SWAP1 POP JUMP JUMPDEST PUSH1 0x0 DUP2 CALLDATALOAD SWAP1 POP PUSH2 0x281C DUP2 PUSH2 0x3896 JUMP JUMPDEST SWAP3 SWAP2 POP POP JUMP JUMPDEST PUSH1 0x0 PUSH1 0x20 DUP3 DUP5 SUB SLT ISZERO PUSH2 0x2838 JUMPI PUSH2 0x2837 PUSH2 0x34E6 JUMP JUMPDEST JUMPDEST PUSH1 0x0 PUSH2 0x2846 DUP5 DUP3 DUP6 ADD PUSH2 0x27A2 JUMP JUMPDEST SWAP2 POP POP SWAP3 SWAP2 POP POP JUMP JUMPDEST PUSH1 0x0 DUP1 PUSH1 0x20 DUP4 DUP6 SUB SLT ISZERO PUSH2 0x2866 JUMPI PUSH2 0x2865 PUSH2 0x34E6 JUMP JUMPDEST JUMPDEST PUSH1 0x0 DUP4 ADD CALLDATALOAD PUSH8 0xFFFFFFFFFFFFFFFF DUP2 GT ISZERO PUSH2 0x2884 JUMPI PUSH2 0x2883 PUSH2 0x34E1 JUMP JUMPDEST JUMPDEST PUSH2 0x2890 DUP6 DUP3 DUP7 ADD PUSH2 0x27B7 JUMP JUMPDEST SWAP3 POP SWAP3 POP POP SWAP3 POP SWAP3 SWAP1 POP JUMP JUMPDEST PUSH1 0x0 PUSH1 0x20 DUP3 DUP5 SUB SLT ISZERO PUSH2 0x28B2 JUMPI PUSH2 0x28B1 PUSH2 0x34E6 JUMP JUMPDEST JUMPDEST PUSH1 0x0 PUSH2 0x28C0 DUP5 DUP3 DUP6 ADD PUSH2 0x280D JUMP JUMPDEST SWAP2 POP POP SWAP3 SWAP2 POP POP JUMP JUMPDEST PUSH2 0x28D2 DUP2 PUSH2 0x33A6 JUMP JUMPDEST DUP3 MSTORE POP POP JUMP JUMPDEST PUSH2 0x28E1 DUP2 PUSH2 0x3394 JUMP JUMPDEST DUP3 MSTORE POP POP JUMP JUMPDEST PUSH2 0x28F0 DUP2 PUSH2 0x33B8 JUMP JUMPDEST DUP3 MSTORE POP POP JUMP JUMPDEST PUSH1 0x0 PUSH2 0x2901 DUP3 PUSH2 0x3114 JUMP JUMPDEST PUSH2 0x290B DUP2 DUP6 PUSH2 0x312A JUMP JUMPDEST SWAP4 POP PUSH2 0x291B DUP2 DUP6 PUSH1 0x20 DUP7 ADD PUSH2 0x33F8 JUMP JUMPDEST PUSH2 0x2924 DUP2 PUSH2 0x34EB JUMP JUMPDEST DUP5 ADD SWAP2 POP POP SWAP3 SWAP2 POP POP JUMP JUMPDEST PUSH2 0x2938 DUP2 PUSH2 0x33C4 JUMP JUMPDEST DUP3 MSTORE POP POP JUMP JUMPDEST PUSH1 0x0 PUSH2 0x2949 DUP3 PUSH2 0x311F JUMP JUMPDEST PUSH2 0x2953 DUP2 DUP6 PUSH2 0x3146 JUMP JUMPDEST SWAP4 POP PUSH2 0x2963 DUP2 DUP6 PUSH1 0x20 DUP7 ADD PUSH2 0x33F8 JUMP JUMPDEST PUSH2 0x296C DUP2 PUSH2 0x34EB JUMP JUMPDEST DUP5 ADD SWAP2 POP POP SWAP3 SWAP2 POP POP JUMP JUMPDEST PUSH1 0x0 PUSH2 0x2984 PUSH1 0x16 DUP4 PUSH2 0x3146 JUMP JUMPDEST SWAP2 POP PUSH2 0x298F DUP3 PUSH2 0x34FC JUMP JUMPDEST PUSH1 0x20 DUP3 ADD SWAP1 POP SWAP2 SWAP1 POP JUMP JUMPDEST PUSH1 0x0 PUSH2 0x29A7 PUSH1 0x1F DUP4 PUSH2 0x3146 JUMP JUMPDEST SWAP2 POP PUSH2 0x29B2 DUP3 PUSH2 0x3525 JUMP JUMPDEST PUSH1 0x20 DUP3 ADD SWAP1 POP SWAP2 SWAP1 POP JUMP JUMPDEST PUSH1 0x0 PUSH2 0x29CA PUSH1 0x16 DUP4 PUSH2 0x3146 JUMP JUMPDEST SWAP2 POP PUSH2 0x29D5 DUP3 PUSH2 0x354E JUMP JUMPDEST PUSH1 0x20 DUP3 ADD SWAP1 POP SWAP2 SWAP1 POP JUMP JUMPDEST PUSH1 0x0 PUSH2 0x29ED PUSH1 0x11 DUP4 PUSH2 0x3146 JUMP JUMPDEST SWAP2 POP PUSH2 0x29F8 DUP3 PUSH2 0x3577 JUMP JUMPDEST PUSH1 0x20 DUP3 ADD SWAP1 POP SWAP2 SWAP1 POP JUMP JUMPDEST PUSH1 0x0 PUSH2 0x2A10 PUSH1 0x14 DUP4 PUSH2 0x3146 JUMP JUMPDEST SWAP2 POP PUSH2 0x2A1B DUP3 PUSH2 0x35A0 JUMP JUMPDEST PUSH1 0x20 DUP3 ADD SWAP1 POP SWAP2 SWAP1 POP JUMP JUMPDEST PUSH1 0x0 PUSH2 0x2A33 PUSH1 0x36 DUP4 PUSH2 0x3146 JUMP JUMPDEST SWAP2 POP PUSH2 0x2A3E DUP3 PUSH2 0x35C9 JUMP JUMPDEST PUSH1 0x40 DUP3 ADD SWAP1 POP SWAP2 SWAP1 POP JUMP JUMPDEST PUSH1 0x0 PUSH2 0x2A56 PUSH1 0x14 DUP4 PUSH2 0x3146 JUMP JUMPDEST SWAP2 POP PUSH2 0x2A61 DUP3 PUSH2 0x3618 JUMP JUMPDEST PUSH1 0x20 DUP3 ADD SWAP1 POP SWAP2 SWAP1 POP JUMP JUMPDEST PUSH1 0x0 PUSH2 0x2A79 PUSH1 0x3C DUP4 PUSH2 0x3146 JUMP JUMPDEST SWAP2 POP PUSH2 0x2A84 DUP3 PUSH2 0x3641 JUMP JUMPDEST PUSH1 0x40 DUP3 ADD SWAP1 POP SWAP2 SWAP1 POP JUMP JUMPDEST PUSH1 0x0 PUSH2 0x2A9C PUSH1 0x14 DUP4 PUSH2 0x3146 JUMP JUMPDEST SWAP2 POP PUSH2 0x2AA7 DUP3 PUSH2 0x3690 JUMP JUMPDEST PUSH1 0x20 DUP3 ADD SWAP1 POP SWAP2 SWAP1 POP JUMP JUMPDEST PUSH1 0x0 PUSH2 0x2ABF PUSH1 0x12 DUP4 PUSH2 0x3146 JUMP JUMPDEST SWAP2 POP PUSH2 0x2ACA DUP3 PUSH2 0x36B9 JUMP JUMPDEST PUSH1 0x20 DUP3 ADD SWAP1 POP SWAP2 SWAP1 POP JUMP JUMPDEST PUSH1 0x0 PUSH2 0x2AE2 PUSH1 0x12 DUP4 PUSH2 0x3146 JUMP JUMPDEST SWAP2 POP PUSH2 0x2AED DUP3 PUSH2 0x36E2 JUMP JUMPDEST PUSH1 0x20 DUP3 ADD SWAP1 POP SWAP2 SWAP1 POP JUMP JUMPDEST PUSH1 0x0 PUSH2 0x2B05 PUSH1 0x1B DUP4 PUSH2 0x3146 JUMP JUMPDEST SWAP2 POP PUSH2 0x2B10 DUP3 PUSH2 0x370B JUMP JUMPDEST PUSH1 0x20 DUP3 ADD SWAP1 POP SWAP2 SWAP1 POP JUMP JUMPDEST PUSH1 0x0 PUSH2 0x2B28 PUSH1 0x1A DUP4 PUSH2 0x3146 JUMP JUMPDEST SWAP2 POP PUSH2 0x2B33 DUP3 PUSH2 0x3734 JUMP JUMPDEST PUSH1 0x20 DUP3 ADD SWAP1 POP SWAP2 SWAP1 POP JUMP JUMPDEST PUSH1 0x0 PUSH2 0x2B4B PUSH1 0x16 DUP4 PUSH2 0x3146 JUMP JUMPDEST SWAP2 POP PUSH2 0x2B56 DUP3 PUSH2 0x375D JUMP JUMPDEST PUSH1 0x20 DUP3 ADD SWAP1 POP SWAP2 SWAP1 POP JUMP JUMPDEST PUSH1 0x0 PUSH2 0x2B6E PUSH1 0x0 DUP4 PUSH2 0x313B JUMP JUMPDEST SWAP2 POP PUSH2 0x2B79 DUP3 PUSH2 0x3786 JUMP JUMPDEST PUSH1 0x0 DUP3 ADD SWAP1 POP SWAP2 SWAP1 POP JUMP JUMPDEST PUSH1 0x0 PUSH2 0x2B91 PUSH1 0x15 DUP4 PUSH2 0x3146 JUMP JUMPDEST SWAP2 POP PUSH2 0x2B9C DUP3 PUSH2 0x3789 JUMP JUMPDEST PUSH1 0x20 DUP3 ADD SWAP1 POP SWAP2 SWAP1 POP JUMP JUMPDEST PUSH1 0x0 PUSH2 0x2BB4 PUSH1 0x1F DUP4 PUSH2 0x3146 JUMP JUMPDEST SWAP2 POP PUSH2 0x2BBF DUP3 PUSH2 0x37B2 JUMP JUMPDEST PUSH1 0x20 DUP3 ADD SWAP1 POP SWAP2 SWAP1 POP JUMP JUMPDEST PUSH1 0x0 PUSH2 0x2BD7 PUSH1 0x13 DUP4 PUSH2 0x3146 JUMP JUMPDEST SWAP2 POP PUSH2 0x2BE2 DUP3 PUSH2 0x37DB JUMP JUMPDEST PUSH1 0x20 DUP3 ADD SWAP1 POP SWAP2 SWAP1 POP JUMP JUMPDEST PUSH1 0x0 PUSH2 0x2BFA PUSH1 0x16 DUP4 PUSH2 0x3146 JUMP JUMPDEST SWAP2 POP PUSH2 0x2C05 DUP3 PUSH2 0x3804 JUMP JUMPDEST PUSH1 0x20 DUP3 ADD SWAP1 POP SWAP2 SWAP1 POP JUMP JUMPDEST PUSH1 0x0 PUSH2 0x2C1D PUSH1 0x19 DUP4 PUSH2 0x3146 JUMP JUMPDEST SWAP2 POP PUSH2 0x2C28 DUP3 PUSH2 0x382D JUMP JUMPDEST PUSH1 0x20 DUP3 ADD SWAP1 POP SWAP2 SWAP1 POP JUMP JUMPDEST PUSH1 0x0 PUSH2 0x2C40 PUSH1 0x16 DUP4 PUSH2 0x3146 JUMP JUMPDEST SWAP2 POP PUSH2 0x2C4B DUP3 PUSH2 0x3856 JUMP JUMPDEST PUSH1 0x20 DUP3 ADD SWAP1 POP SWAP2 SWAP1 POP JUMP JUMPDEST PUSH1 0x20 DUP3 ADD PUSH1 0x0 DUP3 ADD MLOAD PUSH2 0x2C6C PUSH1 0x0 DUP6 ADD DUP3 PUSH2 0x2C72 JUMP JUMPDEST POP POP POP POP JUMP JUMPDEST PUSH2 0x2C7B DUP2 PUSH2 0x33EE JUMP JUMPDEST DUP3 MSTORE POP POP JUMP JUMPDEST PUSH2 0x2C8A DUP2 PUSH2 0x33EE JUMP JUMPDEST DUP3 MSTORE POP POP JUMP JUMPDEST PUSH1 0x0 PUSH2 0x2C9B DUP3 PUSH2 0x2B61 JUMP JUMPDEST SWAP2 POP DUP2 SWAP1 POP SWAP2 SWAP1 POP JUMP JUMPDEST PUSH1 0x0 PUSH1 0x20 DUP3 ADD SWAP1 POP PUSH2 0x2CBA PUSH1 0x0 DUP4 ADD DUP5 PUSH2 0x28C9 JUMP JUMPDEST SWAP3 SWAP2 POP POP JUMP JUMPDEST PUSH1 0x0 PUSH1 0x40 DUP3 ADD SWAP1 POP PUSH2 0x2CD5 PUSH1 0x0 DUP4 ADD DUP6 PUSH2 0x28E7 JUMP JUMPDEST DUP2 DUP2 SUB PUSH1 0x20 DUP4 ADD MSTORE PUSH2 0x2CE7 DUP2 DUP5 PUSH2 0x28F6 JUMP JUMPDEST SWAP1 POP SWAP4 SWAP3 POP POP POP JUMP JUMPDEST PUSH1 0x0 PUSH1 0x20 DUP3 ADD SWAP1 POP PUSH2 0x2D05 PUSH1 0x0 DUP4 ADD DUP5 PUSH2 0x292F JUMP JUMPDEST SWAP3 SWAP2 POP POP JUMP JUMPDEST PUSH1 0x0 PUSH1 0x20 DUP3 ADD SWAP1 POP DUP2 DUP2 SUB PUSH1 0x0 DUP4 ADD MSTORE PUSH2 0x2D25 DUP2 DUP5 PUSH2 0x293E JUMP JUMPDEST SWAP1 POP SWAP3 SWAP2 POP POP JUMP JUMPDEST PUSH1 0x0 PUSH1 0x40 DUP3 ADD SWAP1 POP DUP2 DUP2 SUB PUSH1 0x0 DUP4 ADD MSTORE PUSH2 0x2D47 DUP2 DUP6 PUSH2 0x293E JUMP JUMPDEST SWAP1 POP PUSH2 0x2D56 PUSH1 0x20 DUP4 ADD DUP5 PUSH2 0x28D8 JUMP JUMPDEST SWAP4 SWAP3 POP POP POP JUMP JUMPDEST PUSH1 0x0 PUSH1 0x40 DUP3 ADD SWAP1 POP DUP2 DUP2 SUB PUSH1 0x0 DUP4 ADD MSTORE PUSH2 0x2D77 DUP2 DUP6 PUSH2 0x293E JUMP JUMPDEST SWAP1 POP PUSH2 0x2D86 PUSH1 0x20 DUP4 ADD DUP5 PUSH2 0x2C81 JUMP JUMPDEST SWAP4 SWAP3 POP POP POP JUMP JUMPDEST PUSH1 0x0 PUSH1 0x60 DUP3 ADD SWAP1 POP DUP2 DUP2 SUB PUSH1 0x0 DUP4 ADD MSTORE PUSH2 0x2DA7 DUP2 DUP7 PUSH2 0x293E JUMP JUMPDEST SWAP1 POP PUSH2 0x2DB6 PUSH1 0x20 DUP4 ADD DUP6 PUSH2 0x2C81 JUMP JUMPDEST DUP2 DUP2 SUB PUSH1 0x40 DUP4 ADD MSTORE PUSH2 0x2DC8 DUP2 DUP5 PUSH2 0x293E JUMP JUMPDEST SWAP1 POP SWAP5 SWAP4 POP POP POP POP JUMP JUMPDEST PUSH1 0x0 PUSH1 0x20 DUP3 ADD SWAP1 POP DUP2 DUP2 SUB PUSH1 0x0 DUP4 ADD MSTORE PUSH2 0x2DEB DUP2 PUSH2 0x2977 JUMP JUMPDEST SWAP1 POP SWAP2 SWAP1 POP JUMP JUMPDEST PUSH1 0x0 PUSH1 0x20 DUP3 ADD SWAP1 POP DUP2 DUP2 SUB PUSH1 0x0 DUP4 ADD MSTORE PUSH2 0x2E0B DUP2 PUSH2 0x299A JUMP JUMPDEST SWAP1 POP SWAP2 SWAP1 POP JUMP JUMPDEST PUSH1 0x0 PUSH1 0x20 DUP3 ADD SWAP1 POP DUP2 DUP2 SUB PUSH1 0x0 DUP4 ADD MSTORE PUSH2 0x2E2B DUP2 PUSH2 0x29BD JUMP JUMPDEST SWAP1 POP SWAP2 SWAP1 POP JUMP JUMPDEST PUSH1 0x0 PUSH1 0x20 DUP3 ADD SWAP1 POP DUP2 DUP2 SUB PUSH1 0x0 DUP4 ADD MSTORE PUSH2 0x2E4B DUP2 PUSH2 0x29E0 JUMP JUMPDEST SWAP1 POP SWAP2 SWAP1 POP JUMP JUMPDEST PUSH1 0x0 PUSH1 0x20 DUP3 ADD SWAP1 POP DUP2 DUP2 SUB PUSH1 0x0 DUP4 ADD MSTORE PUSH2 0x2E6B DUP2 PUSH2 0x2A03 JUMP JUMPDEST SWAP1 POP SWAP2 SWAP1 POP JUMP JUMPDEST PUSH1 0x0 PUSH1 0x20 DUP3 ADD SWAP1 POP DUP2 DUP2 SUB PUSH1 0x0 DUP4 ADD MSTORE PUSH2 0x2E8B DUP2 PUSH2 0x2A26 JUMP JUMPDEST SWAP1 POP SWAP2 SWAP1 POP JUMP JUMPDEST PUSH1 0x0 PUSH1 0x20 DUP3 ADD SWAP1 POP DUP2 DUP2 SUB PUSH1 0x0 DUP4 ADD MSTORE PUSH2 0x2EAB DUP2 PUSH2 0x2A49 JUMP JUMPDEST SWAP1 POP SWAP2 SWAP1 POP JUMP JUMPDEST PUSH1 0x0 PUSH1 0x20 DUP3 ADD SWAP1 POP DUP2 DUP2 SUB PUSH1 0x0 DUP4 ADD MSTORE PUSH2 0x2ECB DUP2 PUSH2 0x2A6C JUMP JUMPDEST SWAP1 POP SWAP2 SWAP1 POP JUMP JUMPDEST PUSH1 0x0 PUSH1 0x20 DUP3 ADD SWAP1 POP DUP2 DUP2 SUB PUSH1 0x0 DUP4 ADD MSTORE PUSH2 0x2EEB DUP2 PUSH2 0x2A8F JUMP JUMPDEST SWAP1 POP SWAP2 SWAP1 POP JUMP JUMPDEST PUSH1 0x0 PUSH1 0x20 DUP3 ADD SWAP1 POP DUP2 DUP2 SUB PUSH1 0x0 DUP4 ADD MSTORE PUSH2 0x2F0B DUP2 PUSH2 0x2AB2 JUMP JUMPDEST SWAP1 POP SWAP2 SWAP1 POP JUMP JUMPDEST PUSH1 0x0 PUSH1 0x20 DUP3 ADD SWAP1 POP DUP2 DUP2 SUB PUSH1 0x0 DUP4 ADD MSTORE PUSH2 0x2F2B DUP2 PUSH2 0x2AD5 JUMP JUMPDEST SWAP1 POP SWAP2 SWAP1 POP JUMP JUMPDEST PUSH1 0x0 PUSH1 0x20 DUP3 ADD SWAP1 POP DUP2 DUP2 SUB PUSH1 0x0 DUP4 ADD MSTORE PUSH2 0x2F4B DUP2 PUSH2 0x2AF8 JUMP JUMPDEST SWAP1 POP SWAP2 SWAP1 POP JUMP JUMPDEST PUSH1 0x0 PUSH1 0x20 DUP3 ADD SWAP1 POP DUP2 DUP2 SUB PUSH1 0x0 DUP4 ADD MSTORE PUSH2 0x2F6B DUP2 PUSH2 0x2B1B JUMP JUMPDEST SWAP1 POP SWAP2 SWAP1 POP JUMP JUMPDEST PUSH1 0x0 PUSH1 0x20 DUP3 ADD SWAP1 POP DUP2 DUP2 SUB PUSH1 0x0 DUP4 ADD MSTORE PUSH2 0x2F8B DUP2 PUSH2 0x2B3E JUMP JUMPDEST SWAP1 POP SWAP2 SWAP1 POP JUMP JUMPDEST PUSH1 0x0 PUSH1 0x20 DUP3 ADD SWAP1 POP DUP2 DUP2 SUB PUSH1 0x0 DUP4 ADD MSTORE PUSH2 0x2FAB DUP2 PUSH2 0x2B84 JUMP JUMPDEST SWAP1 POP SWAP2 SWAP1 POP JUMP JUMPDEST PUSH1 0x0 PUSH1 0x20 DUP3 ADD SWAP1 POP DUP2 DUP2 SUB PUSH1 0x0 DUP4 ADD MSTORE PUSH2 0x2FCB DUP2 PUSH2 0x2BA7 JUMP JUMPDEST SWAP1 POP SWAP2 SWAP1 POP JUMP JUMPDEST PUSH1 0x0 PUSH1 0x20 DUP3 ADD SWAP1 POP DUP2 DUP2 SUB PUSH1 0x0 DUP4 ADD MSTORE PUSH2 0x2FEB DUP2 PUSH2 0x2BCA JUMP JUMPDEST SWAP1 POP SWAP2 SWAP1 POP JUMP JUMPDEST PUSH1 0x0 PUSH1 0x20 DUP3 ADD SWAP1 POP DUP2 DUP2 SUB PUSH1 0x0 DUP4 ADD MSTORE PUSH2 0x300B DUP2 PUSH2 0x2BED JUMP JUMPDEST SWAP1 POP SWAP2 SWAP1 POP JUMP JUMPDEST PUSH1 0x0 PUSH1 0x20 DUP3 ADD SWAP1 POP DUP2 DUP2 SUB PUSH1 0x0 DUP4 ADD MSTORE PUSH2 0x302B DUP2 PUSH2 0x2C10 JUMP JUMPDEST SWAP1 POP SWAP2 SWAP1 POP JUMP JUMPDEST PUSH1 0x0 PUSH1 0x20 DUP3 ADD SWAP1 POP DUP2 DUP2 SUB PUSH1 0x0 DUP4 ADD MSTORE PUSH2 0x304B DUP2 PUSH2 0x2C33 JUMP JUMPDEST SWAP1 POP SWAP2 SWAP1 POP JUMP JUMPDEST PUSH1 0x0 PUSH1 0x20 DUP3 ADD SWAP1 POP PUSH2 0x3067 PUSH1 0x0 DUP4 ADD DUP5 PUSH2 0x2C81 JUMP JUMPDEST SWAP3 SWAP2 POP POP JUMP JUMPDEST PUSH1 0x0 PUSH1 0x40 DUP3 ADD SWAP1 POP PUSH2 0x3082 PUSH1 0x0 DUP4 ADD DUP6 PUSH2 0x2C81 JUMP JUMPDEST PUSH2 0x308F PUSH1 0x20 DUP4 ADD DUP5 PUSH2 0x2C81 JUMP JUMPDEST SWAP4 SWAP3 POP POP POP JUMP JUMPDEST PUSH1 0x0 PUSH2 0x100 DUP3 ADD SWAP1 POP PUSH2 0x30AC PUSH1 0x0 DUP4 ADD DUP12 PUSH2 0x2C81 JUMP JUMPDEST PUSH2 0x30B9 PUSH1 0x20 DUP4 ADD DUP11 PUSH2 0x2C81 JUMP JUMPDEST PUSH2 0x30C6 PUSH1 0x40 DUP4 ADD DUP10 PUSH2 0x2C81 JUMP JUMPDEST PUSH2 0x30D3 PUSH1 0x60 DUP4 ADD DUP9 PUSH2 0x2C81 JUMP JUMPDEST PUSH2 0x30E0 PUSH1 0x80 DUP4 ADD DUP8 PUSH2 0x2C81 JUMP JUMPDEST PUSH2 0x30ED PUSH1 0xA0 DUP4 ADD DUP7 PUSH2 0x2C81 JUMP JUMPDEST PUSH2 0x30FA PUSH1 0xC0 DUP4 ADD DUP6 PUSH2 0x2C81 JUMP JUMPDEST PUSH2 0x3107 PUSH1 0xE0 DUP4 ADD DUP5 PUSH2 0x2C56 JUMP JUMPDEST SWAP10 SWAP9 POP POP POP POP POP POP POP POP POP JUMP JUMPDEST PUSH1 0x0 DUP2 MLOAD SWAP1 POP SWAP2 SWAP1 POP JUMP JUMPDEST PUSH1 0x0 DUP2 MLOAD SWAP1 POP SWAP2 SWAP1 POP JUMP JUMPDEST PUSH1 0x0 DUP3 DUP3 MSTORE PUSH1 0x20 DUP3 ADD SWAP1 POP SWAP3 SWAP2 POP POP JUMP JUMPDEST PUSH1 0x0 DUP2 SWAP1 POP SWAP3 SWAP2 POP POP JUMP JUMPDEST PUSH1 0x0 DUP3 DUP3 MSTORE PUSH1 0x20 DUP3 ADD SWAP1 POP SWAP3 SWAP2 POP POP JUMP JUMPDEST PUSH1 0x0 PUSH2 0x3162 DUP3 PUSH2 0x33C4 JUMP JUMPDEST SWAP2 POP PUSH2 0x316D DUP4 PUSH2 0x33C4 JUMP JUMPDEST SWAP3 POP DUP2 PUSH32 0x7FFFFFFFFFFFFFFFFFFFFFFFFFFFFFFFFFFFFFFFFFFFFFFFFFFFFFFFFFFFFFFF SUB DUP4 SGT PUSH1 0x0 DUP4 SLT ISZERO AND ISZERO PUSH2 0x31A8 JUMPI PUSH2 0x31A7 PUSH2 0x3474 JUMP JUMPDEST JUMPDEST DUP2 PUSH32 0x8000000000000000000000000000000000000000000000000000000000000000 SUB DUP4 SLT PUSH1 0x0 DUP4 SLT AND ISZERO PUSH2 0x31E0 JUMPI PUSH2 0x31DF PUSH2 0x3474 JUMP JUMPDEST JUMPDEST DUP3 DUP3 ADD SWAP1 POP SWAP3 SWAP2 POP POP JUMP JUMPDEST PUSH1 0x0 PUSH2 0x31F6 DUP3 PUSH2 0x33EE JUMP JUMPDEST SWAP2 POP PUSH2 0x3201 DUP4 PUSH2 0x33EE JUMP JUMPDEST SWAP3 POP DUP3 PUSH32 0xFFFFFFFFFFFFFFFFFFFFFFFFFFFFFFFFFFFFFFFFFFFFFFFFFFFFFFFFFFFFFFFF SUB DUP3 GT ISZERO PUSH2 0x3236 JUMPI PUSH2 0x3235 PUSH2 0x3474 JUMP JUMPDEST JUMPDEST DUP3 DUP3 ADD SWAP1 POP SWAP3 SWAP2 POP POP JUMP JUMPDEST PUSH1 0x0 PUSH2 0x324C DUP3 PUSH2 0x33EE JUMP JUMPDEST SWAP2 POP PUSH2 0x3257 DUP4 PUSH2 0x33EE JUMP JUMPDEST SWAP3 POP DUP3 PUSH2 0x3267 JUMPI PUSH2 0x3266 PUSH2 0x34A3 JUMP JUMPDEST JUMPDEST DUP3 DUP3 DIV SWAP1 POP SWAP3 SWAP2 POP POP JUMP JUMPDEST PUSH1 0x0 PUSH2 0x327D DUP3 PUSH2 0x33EE JUMP JUMPDEST SWAP2 POP PUSH2 0x3288 DUP4 PUSH2 0x33EE JUMP JUMPDEST SWAP3 POP DUP2 PUSH32 0xFFFFFFFFFFFFFFFFFFFFFFFFFFFFFFFFFFFFFFFFFFFFFFFFFFFFFFFFFFFFFFFF DIV DUP4 GT DUP3 ISZERO ISZERO AND ISZERO PUSH2 0x32C1 JUMPI PUSH2 0x32C0 PUSH2 0x3474 JUMP JUMPDEST JUMPDEST DUP3 DUP3 MUL SWAP1 POP SWAP3 SWAP2 POP POP JUMP JUMPDEST PUSH1 0x0 PUSH2 0x32D7 DUP3 PUSH2 0x33C4 JUMP JUMPDEST SWAP2 POP PUSH2 0x32E2 DUP4 PUSH2 0x33C4 JUMP JUMPDEST SWAP3 POP DUP3 PUSH32 0x8000000000000000000000000000000000000000000000000000000000000000 ADD DUP3 SLT PUSH1 0x0 DUP5 SLT ISZERO AND ISZERO PUSH2 0x331D JUMPI PUSH2 0x331C PUSH2 0x3474 JUMP JUMPDEST JUMPDEST DUP3 PUSH32 0x7FFFFFFFFFFFFFFFFFFFFFFFFFFFFFFFFFFFFFFFFFFFFFFFFFFFFFFFFFFFFFFF ADD DUP3 SGT PUSH1 0x0 DUP5 SLT AND ISZERO PUSH2 0x3355 JUMPI PUSH2 0x3354 PUSH2 0x3474 JUMP JUMPDEST JUMPDEST DUP3 DUP3 SUB SWAP1 POP SWAP3 SWAP2 POP POP JUMP JUMPDEST PUSH1 0x0 PUSH2 0x336B DUP3 PUSH2 0x33EE JUMP JUMPDEST SWAP2 POP PUSH2 0x3376 DUP4 PUSH2 0x33EE JUMP JUMPDEST SWAP3 POP DUP3 DUP3 LT ISZERO PUSH2 0x3389 JUMPI PUSH2 0x3388 PUSH2 0x3474 JUMP JUMPDEST JUMPDEST DUP3 DUP3 SUB SWAP1 POP SWAP3 SWAP2 POP POP JUMP JUMPDEST PUSH1 0x0 PUSH2 0x339F DUP3 PUSH2 0x33CE JUMP JUMPDEST SWAP1 POP SWAP2 SWAP1 POP JUMP JUMPDEST PUSH1 0x0 PUSH2 0x33B1 DUP3 PUSH2 0x33CE JUMP JUMPDEST SWAP1 POP SWAP2 SWAP1 POP JUMP JUMPDEST PUSH1 0x0 DUP2 ISZERO ISZERO SWAP1 POP SWAP2 SWAP1 POP JUMP JUMPDEST PUSH1 0x0 DUP2 SWAP1 POP SWAP2 SWAP1 POP JUMP JUMPDEST PUSH1 0x0 PUSH20 0xFFFFFFFFFFFFFFFFFFFFFFFFFFFFFFFFFFFFFFFF DUP3 AND SWAP1 POP SWAP2 SWAP1 POP JUMP JUMPDEST PUSH1 0x0 DUP2 SWAP1 POP SWAP2 SWAP1 POP JUMP JUMPDEST PUSH1 0x0 JUMPDEST DUP4 DUP2 LT ISZERO PUSH2 0x3416 JUMPI DUP1 DUP3 ADD MLOAD DUP2 DUP5 ADD MSTORE PUSH1 0x20 DUP2 ADD SWAP1 POP PUSH2 0x33FB JUMP JUMPDEST DUP4 DUP2 GT ISZERO PUSH2 0x3425 JUMPI PUSH1 0x0 DUP5 DUP5 ADD MSTORE JUMPDEST POP POP POP POP JUMP JUMPDEST PUSH1 0x0 PUSH2 0x3436 DUP3 PUSH2 0x33EE JUMP JUMPDEST SWAP2 POP PUSH32 0xFFFFFFFFFFFFFFFFFFFFFFFFFFFFFFFFFFFFFFFFFFFFFFFFFFFFFFFFFFFFFFFF DUP3 EQ ISZERO PUSH2 0x3469 JUMPI PUSH2 0x3468 PUSH2 0x3474 JUMP JUMPDEST JUMPDEST PUSH1 0x1 DUP3 ADD SWAP1 POP SWAP2 SWAP1 POP JUMP JUMPDEST PUSH32 0x4E487B7100000000000000000000000000000000000000000000000000000000 PUSH1 0x0 MSTORE PUSH1 0x11 PUSH1 0x4 MSTORE PUSH1 0x24 PUSH1 0x0 REVERT JUMPDEST PUSH32 0x4E487B7100000000000000000000000000000000000000000000000000000000 PUSH1 0x0 MSTORE PUSH1 0x12 PUSH1 0x4 MSTORE PUSH1 0x24 PUSH1 0x0 REVERT JUMPDEST PUSH1 0x0 DUP1 REVERT JUMPDEST PUSH1 0x0 DUP1 REVERT JUMPDEST PUSH1 0x0 DUP1 REVERT JUMPDEST PUSH1 0x0 DUP1 REVERT JUMPDEST PUSH1 0x0 DUP1 REVERT JUMPDEST PUSH1 0x0 PUSH1 0x1F NOT PUSH1 0x1F DUP4 ADD AND SWAP1 POP SWAP2 SWAP1 POP JUMP JUMPDEST PUSH32 0x6F766572666C6F77207831793120646574656374656400000000000000000000 PUSH1 0x0 DUP3 ADD MSTORE POP JUMP JUMPDEST PUSH32 0x737562737472616374696F6E20756E646572666C6F7720646574656374656400 PUSH1 0x0 DUP3 ADD MSTORE POP JUMP JUMPDEST PUSH32 0x6F766572666C6F77207832793220646574656374656400000000000000000000 PUSH1 0x0 DUP3 ADD MSTORE POP JUMP JUMPDEST PUSH32 0x63616E2774206469766964652062792030000000000000000000000000000000 PUSH1 0x0 DUP3 ADD MSTORE POP JUMP JUMPDEST PUSH32 0x4661696C656420746F2073656E64204574686572000000000000000000000000 PUSH1 0x0 DUP3 ADD MSTORE POP JUMP JUMPDEST PUSH32 0x63616E277420637265617465206669786964697479206E756D626572206C6172 PUSH1 0x0 DUP3 ADD MSTORE PUSH32 0x676572207468616E206D61784E65774669786564282900000000000000000000 PUSH1 0x20 DUP3 ADD MSTORE POP JUMP JUMPDEST PUSH32 0x47616D65206973206E6F74206F76657220796574000000000000000000000000 PUSH1 0x0 DUP3 ADD MSTORE POP JUMP JUMPDEST PUSH32 0x4465706F736974206D7573742062652067726561746572207468616E206F7220 PUSH1 0x0 DUP3 ADD MSTORE PUSH32 0x657175616C20746F20746865206D696E696D756D206465706F73697400000000 PUSH1 0x20 DUP3 ADD MSTORE POP JUMP JUMPDEST PUSH32 0x596F752068617665206E6F2077696E6E696E6773000000000000000000000000 PUSH1 0x0 DUP3 ADD MSTORE POP JUMP JUMPDEST PUSH32 0x5468652067616D652068617320656E6465640000000000000000000000000000 PUSH1 0x0 DUP3 ADD MSTORE POP JUMP JUMPDEST PUSH32 0x6F766572666C6F77206174206469766964650000000000000000000000000000 PUSH1 0x0 DUP3 ADD MSTORE POP JUMP JUMPDEST PUSH32 0x596F752061726520616C726561647920696E207468652067616D650000000000 PUSH1 0x0 DUP3 ADD MSTORE POP JUMP JUMPDEST PUSH32 0x506C6179657220696E646578206F7574206F6620626F756E6473000000000000 PUSH1 0x0 DUP3 ADD MSTORE POP JUMP JUMPDEST PUSH32 0x6F766572666C6F77207831793220646574656374656400000000000000000000 PUSH1 0x0 DUP3 ADD MSTORE POP JUMP JUMPDEST POP JUMP JUMPDEST PUSH32 0x616464206F766572666C6F772064657465637465640000000000000000000000 PUSH1 0x0 DUP3 ADD MSTORE POP JUMP JUMPDEST PUSH32 0x6F766572666C6F772078317931202A2066697865643120646574656374656400 PUSH1 0x0 DUP3 ADD MSTORE POP JUMP JUMPDEST PUSH32 0x496E646578206F7574206F6620626F756E647300000000000000000000000000 PUSH1 0x0 DUP3 ADD MSTORE POP JUMP JUMPDEST PUSH32 0x6F766572666C6F77207832793120646574656374656400000000000000000000 PUSH1 0x0 DUP3 ADD MSTORE POP JUMP JUMPDEST PUSH32 0x506C61796572206973206E6F7420696E207468652067616D6500000000000000 PUSH1 0x0 DUP3 ADD MSTORE POP JUMP JUMPDEST PUSH32 0x53656E646572206E6F7420617574686F72697A65642E00000000000000000000 PUSH1 0x0 DUP3 ADD MSTORE POP JUMP JUMPDEST PUSH2 0x3888 DUP2 PUSH2 0x3394 JUMP JUMPDEST DUP2 EQ PUSH2 0x3893 JUMPI PUSH1 0x0 DUP1 REVERT JUMPDEST POP JUMP JUMPDEST PUSH2 0x389F DUP2 PUSH2 0x33EE JUMP JUMPDEST DUP2 EQ PUSH2 0x38AA JUMPI PUSH1 0x0 DUP1 REVERT JUMPDEST POP JUMP INVALID LOG2 PUSH5 0x6970667358 0x22 SLT KECCAK256 0xBB 0xBD PUSH8 0x91643CD9E2827FD GASLIMIT 0xB1 0x2A 0xF7 GASLIMIT 0xEE PUSH22 0x9C4A7D96E9596624AE535862B7CB64736F6C63430008 SMOD STOP CALLER "
		},
		"gasEstimates": {
			"creation": {
				"codeDepositCost": "2912600",
				"executionCost": "infinite",
				"totalCost": "infinite"
			},
			"external": {
				"": "218",
				"adminCallHandleGameOver()": "infinite",
				"adminSetTime(uint256)": "24735",
				"checkUpkeep(bytes)": "infinite",
				"destroy()": "32094",
				"getBalance()": "340",
				"getGameInfo()": "infinite",
				"getPayout()": "infinite",
				"getPlayer(address)": "infinite",
				"getRoyalties()": "4696",
				"getUserBalance(address)": "2864",
				"owner()": "2580",
				"performUpkeep(bytes)": "infinite",
				"withdraw(uint256)": "infinite"
			},
			"internal": {
				"calculatePlayerAbsWeight(uint256)": "infinite",
				"handleGameOver()": "infinite",
				"normalizedTimePenaltyCurve(struct FixidityLib.Fraction memory)": "infinite",
				"payoutWinnings()": "infinite",
				"secondsRemaining()": "infinite",
				"sendViaCall(address payable,uint256)": "infinite"
			}
		},
		"methodIdentifiers": {
			"adminCallHandleGameOver()": "d757a4a1",
			"adminSetTime(uint256)": "25d0c53d",
			"checkUpkeep(bytes)": "6e04ff0d",
			"destroy()": "83197ef0",
			"getBalance()": "12065fe0",
			"getGameInfo()": "1746bd1b",
			"getPayout()": "7d065c93",
			"getPlayer(address)": "5c12cd4b",
			"getRoyalties()": "33df048e",
			"getUserBalance(address)": "47734892",
			"owner()": "8da5cb5b",
			"performUpkeep(bytes)": "4585e33b",
			"withdraw(uint256)": "2e1a7d4d"
		}
	},
	"abi": [
		{
			"inputs": [],
			"stateMutability": "payable",
			"type": "constructor"
		},
		{
			"anonymous": false,
			"inputs": [
				{
					"indexed": true,
					"internalType": "address",
					"name": "sender",
					"type": "address"
				},
				{
					"indexed": false,
					"internalType": "uint256",
					"name": "amount",
					"type": "uint256"
				}
			],
			"name": "Deposit",
			"type": "event"
		},
		{
			"anonymous": false,
			"inputs": [
				{
					"indexed": true,
					"internalType": "address",
					"name": "receiver",
					"type": "address"
				},
				{
					"indexed": false,
					"internalType": "uint256",
					"name": "amount",
					"type": "uint256"
				}
			],
			"name": "Payout",
			"type": "event"
		},
		{
			"anonymous": false,
			"inputs": [
				{
					"indexed": true,
					"internalType": "address",
					"name": "sender",
					"type": "address"
				},
				{
					"indexed": false,
					"internalType": "uint256",
					"name": "amount",
					"type": "uint256"
				}
			],
			"name": "Withdraw",
			"type": "event"
		},
		{
			"stateMutability": "payable",
			"type": "fallback"
		},
		{
			"inputs": [],
			"name": "adminCallHandleGameOver",
			"outputs": [],
			"stateMutability": "nonpayable",
			"type": "function"
		},
		{
			"inputs": [
				{
					"internalType": "uint256",
					"name": "_time",
					"type": "uint256"
				}
			],
			"name": "adminSetTime",
			"outputs": [],
			"stateMutability": "nonpayable",
			"type": "function"
		},
		{
			"inputs": [
				{
					"internalType": "bytes",
					"name": "",
					"type": "bytes"
				}
			],
			"name": "checkUpkeep",
			"outputs": [
				{
					"internalType": "bool",
					"name": "upkeepNeeded",
					"type": "bool"
				},
				{
					"internalType": "bytes",
					"name": "",
					"type": "bytes"
				}
			],
			"stateMutability": "nonpayable",
			"type": "function"
		},
		{
			"inputs": [],
			"name": "destroy",
			"outputs": [],
			"stateMutability": "nonpayable",
			"type": "function"
		},
		{
			"inputs": [],
			"name": "getBalance",
			"outputs": [
				{
					"internalType": "uint256",
					"name": "",
					"type": "uint256"
				}
			],
			"stateMutability": "view",
			"type": "function"
		},
		{
			"inputs": [],
			"name": "getGameInfo",
			"outputs": [
				{
					"internalType": "uint256",
					"name": "id",
					"type": "uint256"
				},
				{
					"internalType": "uint256",
					"name": "timeLimit",
					"type": "uint256"
				},
				{
					"internalType": "uint256",
					"name": "minDeposit",
					"type": "uint256"
				},
				{
					"internalType": "uint256",
					"name": "pot",
					"type": "uint256"
				},
				{
					"internalType": "uint256",
					"name": "playersSize",
					"type": "uint256"
				},
				{
					"internalType": "uint256",
					"name": "createdAt",
					"type": "uint256"
				},
				{
					"internalType": "uint256",
					"name": "endingAt",
					"type": "uint256"
				},
				{
					"components": [
						{
							"internalType": "uint256",
							"name": "value",
							"type": "uint256"
						}
					],
					"internalType": "struct FixidityLib.Fraction",
					"name": "avg",
					"type": "tuple"
				}
			],
			"stateMutability": "view",
			"type": "function"
		},
		{
			"inputs": [],
			"name": "getPayout",
			"outputs": [],
			"stateMutability": "payable",
			"type": "function"
		},
		{
			"inputs": [
				{
					"internalType": "address",
					"name": "_addr",
					"type": "address"
				}
			],
			"name": "getPlayer",
			"outputs": [
				{
					"internalType": "uint256",
					"name": "bet",
					"type": "uint256"
				},
				{
					"internalType": "uint256",
					"name": "timestamp",
					"type": "uint256"
				}
			],
			"stateMutability": "view",
			"type": "function"
		},
		{
			"inputs": [],
			"name": "getRoyalties",
			"outputs": [
				{
					"internalType": "int256",
					"name": "",
					"type": "int256"
				}
			],
			"stateMutability": "view",
			"type": "function"
		},
		{
			"inputs": [
				{
					"internalType": "address",
					"name": "_addr",
					"type": "address"
				}
			],
			"name": "getUserBalance",
			"outputs": [
				{
					"internalType": "uint256",
					"name": "",
					"type": "uint256"
				}
			],
			"stateMutability": "view",
			"type": "function"
		},
		{
			"inputs": [],
			"name": "owner",
			"outputs": [
				{
					"internalType": "address payable",
					"name": "",
					"type": "address"
				}
			],
			"stateMutability": "view",
			"type": "function"
		},
		{
			"inputs": [
				{
					"internalType": "bytes",
					"name": "",
					"type": "bytes"
				}
			],
			"name": "performUpkeep",
			"outputs": [],
			"stateMutability": "nonpayable",
			"type": "function"
		},
		{
			"inputs": [
				{
					"internalType": "uint256",
					"name": "_amount",
					"type": "uint256"
				}
			],
			"name": "withdraw",
			"outputs": [],
			"stateMutability": "nonpayable",
			"type": "function"
		},
		{
			"stateMutability": "payable",
			"type": "receive"
		}
	]
}