{
  "_format": "hh-sol-artifact-1",
  "contractName": "DiveBar",
  "sourceName": "contracts/DiveBar.sol",
  "abi": [
    {
      "inputs": [],
      "stateMutability": "payable",
      "type": "constructor"
    },
    {
      "anonymous": false,
      "inputs": [
        {
          "indexed": true,
          "internalType": "address",
          "name": "sender",
          "type": "address"
        },
        {
          "indexed": false,
          "internalType": "uint256",
          "name": "amount",
          "type": "uint256"
        }
      ],
      "name": "Deposit",
      "type": "event"
    },
    {
      "anonymous": false,
      "inputs": [
        {
          "indexed": true,
          "internalType": "address",
          "name": "receiver",
          "type": "address"
        },
        {
          "indexed": false,
          "internalType": "uint256",
          "name": "amount",
          "type": "uint256"
        }
      ],
      "name": "Payout",
      "type": "event"
    },
    {
      "anonymous": false,
      "inputs": [
        {
          "indexed": true,
          "internalType": "address",
          "name": "sender",
          "type": "address"
        },
        {
          "indexed": false,
          "internalType": "uint256",
          "name": "amount",
          "type": "uint256"
        }
      ],
      "name": "Withdraw",
      "type": "event"
    },
    {
      "stateMutability": "payable",
      "type": "fallback"
    },
    {
      "inputs": [],
      "name": "adminCallHandleGameOver",
      "outputs": [],
      "stateMutability": "nonpayable",
      "type": "function"
    },
    {
      "inputs": [
        {
          "internalType": "uint256",
          "name": "_time",
          "type": "uint256"
        }
      ],
      "name": "adminSetTime",
      "outputs": [],
      "stateMutability": "nonpayable",
      "type": "function"
    },
    {
      "inputs": [
        {
          "internalType": "bytes",
          "name": "",
          "type": "bytes"
        }
      ],
      "name": "checkUpkeep",
      "outputs": [
        {
          "internalType": "bool",
          "name": "upkeepNeeded",
          "type": "bool"
        },
        {
          "internalType": "bytes",
          "name": "",
          "type": "bytes"
        }
      ],
      "stateMutability": "nonpayable",
      "type": "function"
    },
    {
      "inputs": [],
      "name": "destroy",
      "outputs": [],
      "stateMutability": "nonpayable",
      "type": "function"
    },
    {
      "inputs": [],
      "name": "getBalance",
      "outputs": [
        {
          "internalType": "uint256",
          "name": "",
          "type": "uint256"
        }
      ],
      "stateMutability": "view",
      "type": "function"
    },
    {
      "inputs": [],
      "name": "getGameInfo",
      "outputs": [
        {
          "internalType": "uint256",
          "name": "id",
          "type": "uint256"
        },
        {
          "internalType": "uint256",
          "name": "timeLimit",
          "type": "uint256"
        },
        {
          "internalType": "uint256",
          "name": "minDeposit",
          "type": "uint256"
        },
        {
          "internalType": "uint256",
          "name": "pot",
          "type": "uint256"
        },
        {
          "internalType": "uint256",
          "name": "playersSize",
          "type": "uint256"
        },
        {
          "internalType": "uint256",
          "name": "createdAt",
          "type": "uint256"
        },
        {
          "internalType": "uint256",
          "name": "endingAt",
          "type": "uint256"
        },
        {
          "components": [
            {
              "internalType": "uint256",
              "name": "value",
              "type": "uint256"
            }
          ],
          "internalType": "struct FixidityLib.Fraction",
          "name": "avg",
          "type": "tuple"
        }
      ],
      "stateMutability": "view",
      "type": "function"
    },
    {
      "inputs": [],
      "name": "getPayout",
      "outputs": [],
      "stateMutability": "payable",
      "type": "function"
    },
    {
      "inputs": [
        {
          "internalType": "address",
          "name": "_addr",
          "type": "address"
        }
      ],
      "name": "getPlayer",
      "outputs": [
        {
          "internalType": "uint256",
          "name": "bet",
          "type": "uint256"
        },
        {
          "internalType": "uint256",
          "name": "timestamp",
          "type": "uint256"
        }
      ],
      "stateMutability": "view",
      "type": "function"
    },
    {
      "inputs": [],
      "name": "getRoyalties",
      "outputs": [
        {
          "internalType": "int256",
          "name": "",
          "type": "int256"
        }
      ],
      "stateMutability": "view",
      "type": "function"
    },
    {
      "inputs": [
        {
          "internalType": "address",
          "name": "_addr",
          "type": "address"
        }
      ],
      "name": "getUserBalance",
      "outputs": [
        {
          "internalType": "uint256",
          "name": "",
          "type": "uint256"
        }
      ],
      "stateMutability": "view",
      "type": "function"
    },
    {
      "inputs": [],
      "name": "owner",
      "outputs": [
        {
          "internalType": "address payable",
          "name": "",
          "type": "address"
        }
      ],
      "stateMutability": "view",
      "type": "function"
    },
    {
      "inputs": [
        {
          "internalType": "bytes",
          "name": "",
          "type": "bytes"
        }
      ],
      "name": "performUpkeep",
      "outputs": [],
      "stateMutability": "nonpayable",
      "type": "function"
    },
    {
      "inputs": [
        {
          "internalType": "uint256",
          "name": "_amount",
          "type": "uint256"
        }
      ],
      "name": "withdraw",
      "outputs": [],
      "stateMutability": "nonpayable",
      "type": "function"
    },
    {
      "stateMutability": "payable",
      "type": "receive"
    }
  ],
  "bytecode": "0x6080604052600060015561012c6002556000600355600160008190555033600460006101000a81548173ffffffffffffffffffffffffffffffffffffffff021916908373ffffffffffffffffffffffffffffffffffffffff160217905550600154600660006001548152602001908152602001600020600001819055506002546006600060015481526020019081526020016000206001018190555066038d7ea4c6800060066000600154815260200190815260200160002060020181905550600060066000600154815260200190815260200160002060030181905550620000f460006200019c60201b620006d51760201c565b60066000600154815260200190815260200160002060070160008201518160000155905050600060066000600154815260200190815260200160002060040181905550426006600060015481526020019081526020016000206005018190555060066000600154815260200190815260200160002060010154426200017a9190620002b4565b60066000600154815260200190815260200160002060060181905550620003fa565b620001a662000247565b620001b66200022860201b60201c565b821115620001fb576040517f08c379a0000000000000000000000000000000000000000000000000000000008152600401620001f29062000281565b60405180910390fd5b604051806020016040528069d3c21bcecceda1000000846200021e919062000311565b8152509050919050565b60007601357c299a88ea76a58924d52ce4f26a85af186c2b9e74905090565b6040518060200160405280600081525090565b600062000269603683620002a3565b91506200027682620003ab565b604082019050919050565b600060208201905081810360008301526200029c816200025a565b9050919050565b600082825260208201905092915050565b6000620002c18262000372565b9150620002ce8362000372565b9250827fffffffffffffffffffffffffffffffffffffffffffffffffffffffffffffffff038211156200030657620003056200037c565b5b828201905092915050565b60006200031e8262000372565b91506200032b8362000372565b9250817fffffffffffffffffffffffffffffffffffffffffffffffffffffffffffffffff04831182151516156200036757620003666200037c565b5b828202905092915050565b6000819050919050565b7f4e487b7100000000000000000000000000000000000000000000000000000000600052601160045260246000fd5b7f63616e277420637265617465206669786964697479206e756d626572206c617260008201527f676572207468616e206d61784e65774669786564282900000000000000000000602082015250565b6138ae806200040a6000396000f3fe6080604052600436106100c65760003560e01c8063477348921161007f5780637d065c93116100595780637d065c931461067257806383197ef01461067c5780638da5cb5b14610693578063d757a4a1146106be576104b4565b806347734892146105b95780635c12cd4b146105f65780636e04ff0d14610634576104b4565b806312065fe0146104b65780631746bd1b146104e157806325d0c53d146105135780632e1a7d4d1461053c57806333df048e146105655780634585e33b14610590576104b4565b366104b45760066000600154815260200190815260200160002060020154341015610126576040517f08c379a000000000000000000000000000000000000000000000000000000000815260040161011d90612e96565b60405180910390fd5b600060066000600154815260200190815260200160002060090160003373ffffffffffffffffffffffffffffffffffffffff1673ffffffffffffffffffffffffffffffffffffffff16815260200190815260200160002054146101be576040517f08c379a00000000000000000000000000000000000000000000000000000000081526004016101b590612f16565b60405180910390fd5b426006600060015481526020019081526020016000206006015411610218576040517f08c379a000000000000000000000000000000000000000000000000000000000815260040161020f90612ed6565b60405180910390fd5b60405180608001604052803373ffffffffffffffffffffffffffffffffffffffff16815260200134815260200142815260200161025560006106d5565b815250600660006001548152602001908152602001600020600801600060016006600060015481526020019081526020016000206004015461029791906131cf565b815260200190815260200160002060008201518160000160006101000a81548173ffffffffffffffffffffffffffffffffffffffff021916908373ffffffffffffffffffffffffffffffffffffffff160217905550602082015181600101556040820151816002015560608201518160030160008201518160000155505090505060016006600060015481526020019081526020016000206004015461033d91906131cf565b60066000600154815260200190815260200160002060090160003373ffffffffffffffffffffffffffffffffffffffff1673ffffffffffffffffffffffffffffffffffffffff16815260200190815260200160002081905550600160066000600154815260200190815260200160002060040160008282546103bf91906131cf565b925050819055503460066000600154815260200190815260200160002060030160008282546103ee91906131cf565b9250508190555061043f61041960066000600154815260200190815260200160002060030154610752565b61043a600660006001548152602001908152602001600020600401546106d5565b610770565b600660006001548152602001908152602001600020600701600082015181600001559050503373ffffffffffffffffffffffffffffffffffffffff167fe1fffcc4923d04b559f4d29a8bfc6cda04eb5b0d3c460751c2402c5c5cc9109c346040516104aa9190613036565b60405180910390a2005b005b3480156104c257600080fd5b506104cb610860565b6040516104d89190613036565b60405180910390f35b3480156104ed57600080fd5b506104f6610868565b60405161050a98979695949392919061307a565b60405180910390f35b34801561051f57600080fd5b5061053a60048036038101906105359190612884565b610974565b005b34801561054857600080fd5b50610563600480360381019061055e9190612884565b610a0e565b005b34801561057157600080fd5b5061057a610b43565b6040516105879190612cd4565b60405180910390f35b34801561059c57600080fd5b506105b760048036038101906105b2919061283f565b610bdd565b005b3480156105c557600080fd5b506105e060048036038101906105db9190612816565b610be9565b6040516105ed9190613036565b60405180910390f35b34801561060257600080fd5b5061061d60048036038101906106189190612816565b610c32565b60405161062b929190613051565b60405180910390f35b34801561064057600080fd5b5061065b6004803603810190610656919061283f565b610ddb565b604051610669929190612ca4565b60405180910390f35b61067a610e04565b005b34801561068857600080fd5b50610691610f16565b005b34801561069f57600080fd5b506106a8610fe1565b6040516106b59190612c89565b60405180910390f35b3480156106ca57600080fd5b506106d3611007565b005b6106dd61278f565b6106e56110a1565b821115610727576040517f08c379a000000000000000000000000000000000000000000000000000000000815260040161071e90612e56565b60405180910390fd5b604051806020016040528069d3c21bcecceda1000000846107489190613256565b8152509050919050565b61075a61278f565b6040518060200160405280838152509050919050565b61077861278f565b6000826000015114156107c0576040517f08c379a00000000000000000000000000000000000000000000000000000000081526004016107b790612e16565b60405180910390fd5b600069d3c21bcecceda100000084600001516107dc9190613256565b9050836000015169d3c21bcecceda1000000826107f99190613225565b14610839576040517f08c379a000000000000000000000000000000000000000000000000000000000815260040161083090612ef6565b60405180910390fd5b60405180602001604052808460000151836108549190613225565b81525091505092915050565b600047905090565b600080600080600080600061087b61278f565b60066000600154815260200190815260200160002060000154600660006001548152602001908152602001600020600101546006600060015481526020019081526020016000206002015460066000600154815260200190815260200160002060030154600660006001548152602001908152602001600020600401546006600060015481526020019081526020016000206005015460066000600154815260200190815260200160002060060154600660006001548152602001908152602001600020600701806040518060200160405290816000820154815250509050975097509750975097509750975097509091929394959697565b600460009054906101000a900473ffffffffffffffffffffffffffffffffffffffff1673ffffffffffffffffffffffffffffffffffffffff163373ffffffffffffffffffffffffffffffffffffffff1614610a04576040517f08c379a00000000000000000000000000000000000000000000000000000000081526004016109fb90613016565b60405180910390fd5b8060028190555050565b600460009054906101000a900473ffffffffffffffffffffffffffffffffffffffff1673ffffffffffffffffffffffffffffffffffffffff163373ffffffffffffffffffffffffffffffffffffffff1614610a9e576040517f08c379a0000000000000000000000000000000000000000000000000000000008152600401610a9590613016565b60405180910390fd5b610aaa600354826110c0565b503373ffffffffffffffffffffffffffffffffffffffff166108fc829081150290604051600060405180830381858888f19350505050158015610af1573d6000803e3d6000fd5b503373ffffffffffffffffffffffffffffffffffffffff167f884edad9ce6fa2440d8a54cc123490eb96d2768479d49ff9c7366125a942436482604051610b389190613036565b60405180910390a250565b6000600460009054906101000a900473ffffffffffffffffffffffffffffffffffffffff1673ffffffffffffffffffffffffffffffffffffffff163373ffffffffffffffffffffffffffffffffffffffff1614610bd5576040517f08c379a0000000000000000000000000000000000000000000000000000000008152600401610bcc90613016565b60405180910390fd5b600354905090565b610be56110d6565b5050565b6000600560008373ffffffffffffffffffffffffffffffffffffffff1673ffffffffffffffffffffffffffffffffffffffff168152602001908152602001600020549050919050565b600080600060066000600154815260200190815260200160002060090160008573ffffffffffffffffffffffffffffffffffffffff1673ffffffffffffffffffffffffffffffffffffffff168152602001908152602001600020541415610cce576040517f08c379a0000000000000000000000000000000000000000000000000000000008152600401610cc590612ff6565b60405180910390fd5b600660006001548152602001908152602001600020600801600060066000600154815260200190815260200160002060090160008673ffffffffffffffffffffffffffffffffffffffff1673ffffffffffffffffffffffffffffffffffffffff16815260200190815260200160002054815260200190815260200160002060010154600660006001548152602001908152602001600020600801600060066000600154815260200190815260200160002060090160008773ffffffffffffffffffffffffffffffffffffffff1673ffffffffffffffffffffffffffffffffffffffff1681526020019081526020016000205481526020019081526020016000206002015491509150915091565b600060604260066000600154815260200190815260200160002060060154111591509250929050565b6000600560003373ffffffffffffffffffffffffffffffffffffffff1673ffffffffffffffffffffffffffffffffffffffff1681526020019081526020016000205411610e86576040517f08c379a0000000000000000000000000000000000000000000000000000000008152600401610e7d90612eb6565b60405180910390fd5b610ecf33600560003373ffffffffffffffffffffffffffffffffffffffff1673ffffffffffffffffffffffffffffffffffffffff1681526020019081526020016000205461128e565b6000600560003373ffffffffffffffffffffffffffffffffffffffff1673ffffffffffffffffffffffffffffffffffffffff16815260200190815260200160002081905550565b600460009054906101000a900473ffffffffffffffffffffffffffffffffffffffff1673ffffffffffffffffffffffffffffffffffffffff163373ffffffffffffffffffffffffffffffffffffffff1614610fa6576040517f08c379a0000000000000000000000000000000000000000000000000000000008152600401610f9d90613016565b60405180910390fd5b600460009054906101000a900473ffffffffffffffffffffffffffffffffffffffff1673ffffffffffffffffffffffffffffffffffffffff16ff5b600460009054906101000a900473ffffffffffffffffffffffffffffffffffffffff1681565b600460009054906101000a900473ffffffffffffffffffffffffffffffffffffffff1673ffffffffffffffffffffffffffffffffffffffff163373ffffffffffffffffffffffffffffffffffffffff1614611097576040517f08c379a000000000000000000000000000000000000000000000000000000000815260040161108e90613016565b60405180910390fd5b61109f6110d6565b565b60007601357c299a88ea76a58924d52ce4f26a85af186c2b9e74905090565b600081836110ce91906132b0565b905092915050565b60006110e0611342565b14611120576040517f08c379a000000000000000000000000000000000000000000000000000000000815260040161111790612e76565b60405180910390fd5b6000600660006001548152602001908152602001600020600401541461114957611148611396565b5b600180600082825461115b91906131cf565b92505081905550600154600660006001548152602001908152602001600020600001819055506002546006600060015481526020019081526020016000206001018190555066038d7ea4c68000600660006001548152602001908152602001600020600201819055506000600660006001548152602001908152602001600020600301819055506111ec60006106d5565b600660006001548152602001908152602001600020600701600082015181600001559050506000600660006001548152602001908152602001600020600401819055504260066000600154815260200190815260200160002060050181905550600660006001548152602001908152602001600020600101544261127091906131cf565b60066000600154815260200190815260200160002060060181905550565b6000808373ffffffffffffffffffffffffffffffffffffffff16836040516112b590612c74565b60006040518083038185875af1925050503d80600081146112f2576040519150601f19603f3d011682016040523d82523d6000602084013e6112f7565b606091505b50915091508161133c576040517f08c379a000000000000000000000000000000000000000000000000000000000815260040161133390612e36565b60405180910390fd5b50505050565b600042600660006001548152602001908152602001600020600601541161136c5760009050611393565b42600660006001548152602001908152602001600020600601546113909190613344565b90505b90565b6113ed6040518060400160405280601a81526020017f506179696e67206f75742077696e6e657273206f662067616d6500000000000081525060066000600154815260200190815260200160002060000154611d80565b60008060006113fc60006106d5565b9050600080600190505b60066000600154815260200190815260200160002060040154811161150a5761148f61145d600660006001548152602001908152602001600020600801600084815260200190815260200160002060010154610752565b600660006001548152602001908152602001600020600701604051806020016040529081600082015481525050611e1c565b156114e2576001856114a191906131cf565b9450600660006001548152602001908152602001600020600801600082815260200190815260200160002060010154826114db91906131cf565b91506114f7565b6114f4836114ef83611e31565b611f18565b92505b80806115029061340f565b915050611406565b5061154a6040518060400160405280600b81526020017f6e756d4c6f736572733a2000000000000000000000000000000000000000000081525085611d80565b6115896040518060400160405280600b81526020017f6c6f73657273506f743a2000000000000000000000000000000000000000000081525082611d80565b83600660006001548152602001908152602001600020600401546115ad9190613344565b92506115ee6040518060400160405280600c81526020017f6e756d57696e6e6572733a20000000000000000000000000000000000000000081525084611d80565b600083141561163e576116356040518060400160405280600a81526020017f4e6f2077696e6e65727300000000000000000000000000000000000000000000815250611f97565b50505050611d7e565b6000600190505b600660006001548152602001908152602001600020600401548111611bbd576116ce61169c600660006001548152602001908152602001600020600801600084815260200190815260200160002060010154610752565b600660006001548152602001908152602001600020600701604051806020016040529081600082015481525050612030565b15611baa576117486040518060400160405280601b81526020017f2d2d2d2d2d2d2d2d2d2d2d2d2057696e6e657220506c61796572200000000000815250826040518060400160405280600d81526020017f202d2d2d2d2d2d2d2d2d2d2d2d00000000000000000000000000000000000000815250612046565b60008083146117db576117d86117d36117c261176386610752565b6117bd6117af60066000600154815260200190815260200160002060080160008981526020019081526020016000206003016040518060200160405290816000820154815250506120e5565b6117b88a6120e5565b6120f3565b612129565b6117ce606360646120f3565b612129565b6120e5565b90505b60008160066000600154815260200190815260200160002060080160008581526020019081526020016000206001015461181591906131cf565b90506118826040518060400160405280600581526020017f6265743a20000000000000000000000000000000000000000000000000000000815250600660006001548152602001908152602001600020600801600086815260200190815260200160002060010154611d80565b6118f06040518060400160405280600d81526020017f63757276655765696768743a2000000000000000000000000000000000000000815250600660006001548152602001908152602001600020600801600086815260200190815260200160002060030160000154611d80565b6119336040518060400160405280601c81526020017f77696e6e657273546f74616c437572766557656967687453756d3a20000000008152508660000151611d80565b6119726040518060400160405280601981526020017f77696e6e696e67732066726f6d206c6f73657220706f743a200000000000000081525083611d80565b6119b16040518060400160405280600881526020017f7061796f75743a2000000000000000000000000000000000000000000000000081525082611d80565b8060056000600660006001548152602001908152602001600020600801600087815260200190815260200160002060000160009054906101000a900473ffffffffffffffffffffffffffffffffffffffff1673ffffffffffffffffffffffffffffffffffffffff1673ffffffffffffffffffffffffffffffffffffffff1681526020019081526020016000206000828254611a4c91906131cf565b92505081905550806006600060015481526020019081526020016000206003016000828254611a7b9190613344565b92505081905550600660006001548152602001908152602001600020600801600084815260200190815260200160002060000160009054906101000a900473ffffffffffffffffffffffffffffffffffffffff1673ffffffffffffffffffffffffffffffffffffffff167f5afeca38b2064c23a692c4cf353015d80ab3ecc417b4f893f372690c11fbd9a682604051611b149190613036565b60405180910390a2611ba76040518060400160405280601081526020017f5061796f75742073656e7420746f3a2000000000000000000000000000000000815250600660006001548152602001908152602001600020600801600086815260200190815260200160002060000160009054906101000a900473ffffffffffffffffffffffffffffffffffffffff166124c2565b50505b8080611bb59061340f565b915050611645565b50611c156040518060400160405280600581526020017f506f743a2000000000000000000000000000000000000000000000000000000081525060066000600154815260200190815260200160002060030154611d80565b6000600660006001548152602001908152602001600020600301541115611d6357611c5a6003546006600060015481526020019081526020016000206003015461255e565b50600460009054906101000a900473ffffffffffffffffffffffffffffffffffffffff1673ffffffffffffffffffffffffffffffffffffffff167f5afeca38b2064c23a692c4cf353015d80ab3ecc417b4f893f372690c11fbd9a660066000600154815260200190815260200160002060030154604051611cdb9190613036565b60405180910390a2600060066000600154815260200190815260200160002060030181905550611d626040518060400160405280601881526020017f52656d61696e696e6720706f7420737765707420746f3a200000000000000000815250600460009054906101000a900473ffffffffffffffffffffffffffffffffffffffff166124c2565b5b6000935060009250611d7361278f565b915060009050505050505b565b611e188282604051602401611d96929190612d41565b6040516020818303038152906040527f9710a9d0000000000000000000000000000000000000000000000000000000007bffffffffffffffffffffffffffffffffffffffffffffffffffffffff19166020820180517bffffffffffffffffffffffffffffffffffffffffffffffffffffffff8381831617835250505050612574565b5050565b60008160000151836000015110905092915050565b611e3961278f565b60018210158015611e625750600660006001548152602001908152602001600020600401548211155b611ea1576040517f08c379a0000000000000000000000000000000000000000000000000000000008152600401611e9890612f36565b60405180910390fd5b6000611ec583600660006001548152602001908152602001600020600401546120f3565b90506000611ed28261259d565b9050806006600060015481526020019081526020016000206008016000868152602001908152602001600020600301600082015181600001559050508092505050919050565b611f2061278f565b600082600001518460000151611f3691906131cf565b90508360000151811015611f7f576040517f08c379a0000000000000000000000000000000000000000000000000000000008152600401611f7690612f76565b60405180910390fd5b60405180602001604052808281525091505092915050565b61202d81604051602401611fab9190612cef565b6040516020818303038152906040527f41304fac000000000000000000000000000000000000000000000000000000007bffffffffffffffffffffffffffffffffffffffffffffffffffffffff19166020820180517bffffffffffffffffffffffffffffffffffffffffffffffffffffffff8381831617835250505050612574565b50565b6000816000015183600001511015905092915050565b6120e083838360405160240161205e93929190612d71565b6040516020818303038152906040527fa3f5c739000000000000000000000000000000000000000000000000000000007bffffffffffffffffffffffffffffffffffffffffffffffffffffffff19166020820180517bffffffffffffffffffffffffffffffffffffffffffffffffffffffff8381831617835250505050612574565b505050565b600081600001519050919050565b6120fb61278f565b6000612106846106d5565b90506000612113846106d5565b905061211f8282610770565b9250505092915050565b61213161278f565b600083600001511480612148575060008260000151145b15612164576040518060200160405280600081525090506124bc565b69d3c21bcecceda100000082600001511415612182578290506124bc565b69d3c21bcecceda1000000836000015114156121a0578190506124bc565b600069d3c21bcecceda10000006121b685612636565b600001516121c49190613225565b905060006121d185612678565b600001519050600069d3c21bcecceda10000006121ed86612636565b600001516121fb9190613225565b9050600061220886612678565b6000015190506000828561221c9190613256565b905060008514612274578285826122339190613225565b14612273576040517f08c379a000000000000000000000000000000000000000000000000000000000815260040161226a90612db6565b60405180910390fd5b5b600069d3c21bcecceda10000008261228c9190613256565b9050600082146122ee5769d3c21bcecceda100000082826122ad9190613225565b146122ed576040517f08c379a00000000000000000000000000000000000000000000000000000000081526004016122e490612f96565b60405180910390fd5b5b809150600084866122ff9190613256565b905060008614612357578486826123169190613225565b14612356576040517f08c379a000000000000000000000000000000000000000000000000000000000815260040161234d90612fd6565b60405180910390fd5b5b600084886123659190613256565b9050600088146123bd5784888261237c9190613225565b146123bc576040517f08c379a00000000000000000000000000000000000000000000000000000000081526004016123b390612f56565b60405180910390fd5b5b6123c56126c9565b876123d09190613225565b96506123da6126c9565b856123e59190613225565b9450600085886123f59190613256565b90506000881461244d5785888261240c9190613225565b1461244c576040517f08c379a000000000000000000000000000000000000000000000000000000000815260040161244390612df6565b60405180910390fd5b5b6000604051806020016040528087815250905061247881604051806020016040528087815250611f18565b905061249281604051806020016040528086815250611f18565b90506124ac81604051806020016040528085815250611f18565b9050809a50505050505050505050505b92915050565b61255a82826040516024016124d8929190612d11565b6040516020818303038152906040527f319af333000000000000000000000000000000000000000000000000000000007bffffffffffffffffffffffffffffffffffffffffffffffffffffffff19166020820180517bffffffffffffffffffffffffffffffffffffffffffffffffffffffff8381831617835250505050612574565b5050565b6000818361256c919061313b565b905092915050565b60008151905060006a636f6e736f6c652e6c6f679050602083016000808483855afa5050505050565b6125a561278f565b60008260000151101580156125c757506125c6826125c16126d6565b6126fc565b5b612606576040517f08c379a00000000000000000000000000000000000000000000000000000000081526004016125fd90612fb6565b60405180910390fd5b600061261b6126158485612129565b84612129565b905061262e6126286126d6565b82612712565b915050919050565b61263e61278f565b604051806020016040528069d3c21bcecceda10000008085600001516126649190613225565b61266e9190613256565b8152509050919050565b61268061278f565b604051806020016040528069d3c21bcecceda10000008085600001516126a69190613225565b6126b09190613256565b84600001516126bf9190613344565b8152509050919050565b600064e8d4a51000905090565b6126de61278f565b604051806020016040528069d3c21bcecceda1000000815250905090565b6000816000015183600001511115905092915050565b61271a61278f565b816000015183600001511015612765576040517f08c379a000000000000000000000000000000000000000000000000000000000815260040161275c90612dd6565b60405180910390fd5b6040518060200160405280836000015185600001516127849190613344565b815250905092915050565b6040518060200160405280600081525090565b6000813590506127b18161384a565b92915050565b60008083601f8401126127c957600080fd5b8235905067ffffffffffffffff8111156127e257600080fd5b6020830191508360018202830111156127fa57600080fd5b9250929050565b60008135905061281081613861565b92915050565b60006020828403121561282857600080fd5b6000612836848285016127a2565b91505092915050565b6000806020838503121561285257600080fd5b600083013567ffffffffffffffff81111561286c57600080fd5b612878858286016127b7565b92509250509250929050565b60006020828403121561289657600080fd5b60006128a484828501612801565b91505092915050565b6128b68161338a565b82525050565b6128c581613378565b82525050565b6128d48161339c565b82525050565b60006128e5826130f8565b6128ef818561310e565b93506128ff8185602086016133dc565b612908816134b6565b840191505092915050565b61291c816133a8565b82525050565b600061292d82613103565b612937818561312a565b93506129478185602086016133dc565b612950816134b6565b840191505092915050565b600061296860168361312a565b9150612973826134c7565b602082019050919050565b600061298b601f8361312a565b9150612996826134f0565b602082019050919050565b60006129ae60168361312a565b91506129b982613519565b602082019050919050565b60006129d160118361312a565b91506129dc82613542565b602082019050919050565b60006129f460148361312a565b91506129ff8261356b565b602082019050919050565b6000612a1760368361312a565b9150612a2282613594565b604082019050919050565b6000612a3a60148361312a565b9150612a45826135e3565b602082019050919050565b6000612a5d603c8361312a565b9150612a688261360c565b604082019050919050565b6000612a8060148361312a565b9150612a8b8261365b565b602082019050919050565b6000612aa360128361312a565b9150612aae82613684565b602082019050919050565b6000612ac660128361312a565b9150612ad1826136ad565b602082019050919050565b6000612ae9601b8361312a565b9150612af4826136d6565b602082019050919050565b6000612b0c601a8361312a565b9150612b17826136ff565b602082019050919050565b6000612b2f60168361312a565b9150612b3a82613728565b602082019050919050565b6000612b5260008361311f565b9150612b5d82613751565b600082019050919050565b6000612b7560158361312a565b9150612b8082613754565b602082019050919050565b6000612b98601f8361312a565b9150612ba38261377d565b602082019050919050565b6000612bbb60138361312a565b9150612bc6826137a6565b602082019050919050565b6000612bde60168361312a565b9150612be9826137cf565b602082019050919050565b6000612c0160198361312a565b9150612c0c826137f8565b602082019050919050565b6000612c2460168361312a565b9150612c2f82613821565b602082019050919050565b602082016000820151612c506000850182612c56565b50505050565b612c5f816133d2565b82525050565b612c6e816133d2565b82525050565b6000612c7f82612b45565b9150819050919050565b6000602082019050612c9e60008301846128ad565b92915050565b6000604082019050612cb960008301856128cb565b8181036020830152612ccb81846128da565b90509392505050565b6000602082019050612ce96000830184612913565b92915050565b60006020820190508181036000830152612d098184612922565b905092915050565b60006040820190508181036000830152612d2b8185612922565b9050612d3a60208301846128bc565b9392505050565b60006040820190508181036000830152612d5b8185612922565b9050612d6a6020830184612c65565b9392505050565b60006060820190508181036000830152612d8b8186612922565b9050612d9a6020830185612c65565b8181036040830152612dac8184612922565b9050949350505050565b60006020820190508181036000830152612dcf8161295b565b9050919050565b60006020820190508181036000830152612def8161297e565b9050919050565b60006020820190508181036000830152612e0f816129a1565b9050919050565b60006020820190508181036000830152612e2f816129c4565b9050919050565b60006020820190508181036000830152612e4f816129e7565b9050919050565b60006020820190508181036000830152612e6f81612a0a565b9050919050565b60006020820190508181036000830152612e8f81612a2d565b9050919050565b60006020820190508181036000830152612eaf81612a50565b9050919050565b60006020820190508181036000830152612ecf81612a73565b9050919050565b60006020820190508181036000830152612eef81612a96565b9050919050565b60006020820190508181036000830152612f0f81612ab9565b9050919050565b60006020820190508181036000830152612f2f81612adc565b9050919050565b60006020820190508181036000830152612f4f81612aff565b9050919050565b60006020820190508181036000830152612f6f81612b22565b9050919050565b60006020820190508181036000830152612f8f81612b68565b9050919050565b60006020820190508181036000830152612faf81612b8b565b9050919050565b60006020820190508181036000830152612fcf81612bae565b9050919050565b60006020820190508181036000830152612fef81612bd1565b9050919050565b6000602082019050818103600083015261300f81612bf4565b9050919050565b6000602082019050818103600083015261302f81612c17565b9050919050565b600060208201905061304b6000830184612c65565b92915050565b60006040820190506130666000830185612c65565b6130736020830184612c65565b9392505050565b600061010082019050613090600083018b612c65565b61309d602083018a612c65565b6130aa6040830189612c65565b6130b76060830188612c65565b6130c46080830187612c65565b6130d160a0830186612c65565b6130de60c0830185612c65565b6130eb60e0830184612c3a565b9998505050505050505050565b600081519050919050565b600081519050919050565b600082825260208201905092915050565b600081905092915050565b600082825260208201905092915050565b6000613146826133a8565b9150613151836133a8565b9250817f7fffffffffffffffffffffffffffffffffffffffffffffffffffffffffffffff0383136000831215161561318c5761318b613458565b5b817f80000000000000000000000000000000000000000000000000000000000000000383126000831216156131c4576131c3613458565b5b828201905092915050565b60006131da826133d2565b91506131e5836133d2565b9250827fffffffffffffffffffffffffffffffffffffffffffffffffffffffffffffffff0382111561321a57613219613458565b5b828201905092915050565b6000613230826133d2565b915061323b836133d2565b92508261324b5761324a613487565b5b828204905092915050565b6000613261826133d2565b915061326c836133d2565b9250817fffffffffffffffffffffffffffffffffffffffffffffffffffffffffffffffff04831182151516156132a5576132a4613458565b5b828202905092915050565b60006132bb826133a8565b91506132c6836133a8565b9250827f80000000000000000000000000000000000000000000000000000000000000000182126000841215161561330157613300613458565b5b827f7fffffffffffffffffffffffffffffffffffffffffffffffffffffffffffffff01821360008412161561333957613338613458565b5b828203905092915050565b600061334f826133d2565b915061335a836133d2565b92508282101561336d5761336c613458565b5b828203905092915050565b6000613383826133b2565b9050919050565b6000613395826133b2565b9050919050565b60008115159050919050565b6000819050919050565b600073ffffffffffffffffffffffffffffffffffffffff82169050919050565b6000819050919050565b60005b838110156133fa5780820151818401526020810190506133df565b83811115613409576000848401525b50505050565b600061341a826133d2565b91507fffffffffffffffffffffffffffffffffffffffffffffffffffffffffffffffff82141561344d5761344c613458565b5b600182019050919050565b7f4e487b7100000000000000000000000000000000000000000000000000000000600052601160045260246000fd5b7f4e487b7100000000000000000000000000000000000000000000000000000000600052601260045260246000fd5b6000601f19601f8301169050919050565b7f6f766572666c6f77207831793120646574656374656400000000000000000000600082015250565b7f737562737472616374696f6e20756e646572666c6f7720646574656374656400600082015250565b7f6f766572666c6f77207832793220646574656374656400000000000000000000600082015250565b7f63616e2774206469766964652062792030000000000000000000000000000000600082015250565b7f4661696c656420746f2073656e64204574686572000000000000000000000000600082015250565b7f63616e277420637265617465206669786964697479206e756d626572206c617260008201527f676572207468616e206d61784e65774669786564282900000000000000000000602082015250565b7f47616d65206973206e6f74206f76657220796574000000000000000000000000600082015250565b7f4465706f736974206d7573742062652067726561746572207468616e206f722060008201527f657175616c20746f20746865206d696e696d756d206465706f73697400000000602082015250565b7f596f752068617665206e6f2077696e6e696e6773000000000000000000000000600082015250565b7f5468652067616d652068617320656e6465640000000000000000000000000000600082015250565b7f6f766572666c6f77206174206469766964650000000000000000000000000000600082015250565b7f596f752061726520616c726561647920696e207468652067616d650000000000600082015250565b7f506c6179657220696e646578206f7574206f6620626f756e6473000000000000600082015250565b7f6f766572666c6f77207831793220646574656374656400000000000000000000600082015250565b50565b7f616464206f766572666c6f772064657465637465640000000000000000000000600082015250565b7f6f766572666c6f772078317931202a2066697865643120646574656374656400600082015250565b7f496e646578206f7574206f6620626f756e647300000000000000000000000000600082015250565b7f6f766572666c6f77207832793120646574656374656400000000000000000000600082015250565b7f506c61796572206973206e6f7420696e207468652067616d6500000000000000600082015250565b7f53656e646572206e6f7420617574686f72697a65642e00000000000000000000600082015250565b61385381613378565b811461385e57600080fd5b50565b61386a816133d2565b811461387557600080fd5b5056fea2646970667358221220657dccee405c7379d9d58e5c97aeaf983a35e54843ec5b1ec73cd3e4e52c119664736f6c63430008040033",
  "linkReferences": {},
  "deployedLinkReferences": {}
}