{
  "_format": "hh-sol-artifact-1",
  "contractName": "DiveBar",
  "sourceName": "contracts/DiveBar.sol",
  "abi": [
    {
      "inputs": [],
      "stateMutability": "payable",
      "type": "constructor"
    },
    {
      "anonymous": false,
      "inputs": [
        {
          "indexed": true,
          "internalType": "address",
          "name": "sender",
          "type": "address"
        },
        {
          "indexed": false,
          "internalType": "uint256",
          "name": "amount",
          "type": "uint256"
        }
      ],
      "name": "Deposit",
      "type": "event"
    },
    {
      "anonymous": false,
      "inputs": [
        {
          "indexed": true,
          "internalType": "address",
          "name": "receiver",
          "type": "address"
        },
        {
          "indexed": false,
          "internalType": "uint256",
          "name": "amount",
          "type": "uint256"
        }
      ],
      "name": "Payout",
      "type": "event"
    },
    {
      "anonymous": false,
      "inputs": [
        {
          "indexed": true,
          "internalType": "address",
          "name": "sender",
          "type": "address"
        },
        {
          "indexed": false,
          "internalType": "uint256",
          "name": "amount",
          "type": "uint256"
        }
      ],
      "name": "Withdraw",
      "type": "event"
    },
    {
      "stateMutability": "payable",
      "type": "fallback"
    },
    {
      "inputs": [],
      "name": "DEFAULT_AVG",
      "outputs": [
        {
          "internalType": "uint256",
          "name": "",
          "type": "uint256"
        }
      ],
      "stateMutability": "view",
      "type": "function"
    },
    {
      "inputs": [],
      "name": "DEFAULT_MIN_DEPOSIT",
      "outputs": [
        {
          "internalType": "uint256",
          "name": "",
          "type": "uint256"
        }
      ],
      "stateMutability": "view",
      "type": "function"
    },
    {
      "inputs": [],
      "name": "DEFAULT_PLAYERS_SIZE",
      "outputs": [
        {
          "internalType": "uint256",
          "name": "",
          "type": "uint256"
        }
      ],
      "stateMutability": "view",
      "type": "function"
    },
    {
      "inputs": [],
      "name": "DEFAULT_POT",
      "outputs": [
        {
          "internalType": "uint256",
          "name": "",
          "type": "uint256"
        }
      ],
      "stateMutability": "view",
      "type": "function"
    },
    {
      "inputs": [],
      "name": "getBalance",
      "outputs": [
        {
          "internalType": "uint256",
          "name": "",
          "type": "uint256"
        }
      ],
      "stateMutability": "view",
      "type": "function"
    },
    {
      "inputs": [],
      "name": "getGameInfo",
      "outputs": [
        {
          "internalType": "uint256",
          "name": "id",
          "type": "uint256"
        },
        {
          "internalType": "uint256",
          "name": "timeLimit",
          "type": "uint256"
        },
        {
          "internalType": "uint256",
          "name": "minDeposit",
          "type": "uint256"
        },
        {
          "internalType": "uint256",
          "name": "pot",
          "type": "uint256"
        },
        {
          "internalType": "uint256",
          "name": "avg",
          "type": "uint256"
        },
        {
          "internalType": "uint256",
          "name": "playersSize",
          "type": "uint256"
        },
        {
          "internalType": "uint256",
          "name": "createdAt",
          "type": "uint256"
        },
        {
          "internalType": "uint256",
          "name": "endingAt",
          "type": "uint256"
        }
      ],
      "stateMutability": "view",
      "type": "function"
    },
    {
      "inputs": [],
      "name": "getPayout",
      "outputs": [],
      "stateMutability": "payable",
      "type": "function"
    },
    {
      "inputs": [
        {
          "internalType": "address",
          "name": "_addr",
          "type": "address"
        }
      ],
      "name": "getPlayer",
      "outputs": [
        {
          "internalType": "uint256",
          "name": "bet",
          "type": "uint256"
        },
        {
          "internalType": "uint256",
          "name": "timestamp",
          "type": "uint256"
        }
      ],
      "stateMutability": "view",
      "type": "function"
    },
    {
      "inputs": [
        {
          "internalType": "address",
          "name": "_addr",
          "type": "address"
        }
      ],
      "name": "getUserBalance",
      "outputs": [
        {
          "internalType": "uint256",
          "name": "",
          "type": "uint256"
        }
      ],
      "stateMutability": "view",
      "type": "function"
    },
    {
      "inputs": [],
      "name": "handleGameOver",
      "outputs": [],
      "stateMutability": "nonpayable",
      "type": "function"
    },
    {
      "inputs": [],
      "name": "owner",
      "outputs": [
        {
          "internalType": "address payable",
          "name": "",
          "type": "address"
        }
      ],
      "stateMutability": "view",
      "type": "function"
    },
    {
      "inputs": [
        {
          "internalType": "uint256",
          "name": "_amount",
          "type": "uint256"
        }
      ],
      "name": "withdraw",
      "outputs": [],
      "stateMutability": "nonpayable",
      "type": "function"
    },
    {
      "stateMutability": "payable",
      "type": "receive"
    }
  ],
  "bytecode": "0x60806040526000600155620f4240600255600160008190555033600360006101000a81548173ffffffffffffffffffffffffffffffffffffffff021916908373ffffffffffffffffffffffffffffffffffffffff1602179055506001546005600060015481526020019081526020016000206000018190555061012c6005600060015481526020019081526020016000206001018190555066038d7ea4c6800060056000600154815260200190815260200160002060020181905550600060056000600154815260200190815260200160002060030181905550600060056000600154815260200190815260200160002060040181905550600060056000600154815260200190815260200160002060050181905550426005600060015481526020019081526020016000206006018190555060056000600154815260200190815260200160002060010154426200015891906200017a565b6005600060015481526020019081526020016000206007018190555062000210565b60006200018782620001d7565b91506200019483620001d7565b9250827fffffffffffffffffffffffffffffffffffffffffffffffffffffffffffffffff03821115620001cc57620001cb620001e1565b5b828201905092915050565b6000819050919050565b7f4e487b7100000000000000000000000000000000000000000000000000000000600052601160045260246000fd5b61319080620002206000396000f3fe6080604052600436106100ab5760003560e01c80635c12cd4b116100645780635c12cd4b146105895780637d065c93146105c75780638da5cb5b146105d1578063ad99014c146105fc578063c1ace04b14610627578063c59580a31461065257610482565b8063038ce42d1461048457806312065fe01461049b57806316105405146104c65780631746bd1b146104f15780632e1a7d4d14610523578063477348921461054c57610482565b36610482576005600060015481526020019081526020016000206002015434101561010b576040517f08c379a0000000000000000000000000000000000000000000000000000000008152600401610102906128f2565b60405180910390fd5b600060056000600154815260200190815260200160002060090160003373ffffffffffffffffffffffffffffffffffffffff1673ffffffffffffffffffffffffffffffffffffffff16815260200190815260200160002054146101a3576040517f08c379a000000000000000000000000000000000000000000000000000000000815260040161019a90612972565b60405180910390fd5b4260056000600154815260200190815260200160002060070154116101fd576040517f08c379a00000000000000000000000000000000000000000000000000000000081526004016101f490612932565b60405180910390fd5b60405180608001604052803373ffffffffffffffffffffffffffffffffffffffff16815260200134815260200142815260200161023a600061067d565b815250600560006001548152602001908152602001600020600801600060016005600060015481526020019081526020016000206005015461027c9190612b5b565b815260200190815260200160002060008201518160000160006101000a81548173ffffffffffffffffffffffffffffffffffffffff021916908373ffffffffffffffffffffffffffffffffffffffff16021790555060208201518160010155604082015181600201556060820151816003016000820151816000015550509050506001600560006001548152602001908152602001600020600501546103229190612b5b565b60056000600154815260200190815260200160002060090160003373ffffffffffffffffffffffffffffffffffffffff1673ffffffffffffffffffffffffffffffffffffffff16815260200190815260200160002081905550600160056000600154815260200190815260200160002060050160008282546103a49190612b5b565b925050819055503460056000600154815260200190815260200160002060030160008282546103d39190612b5b565b9250508190555060056000600154815260200190815260200160002060050154600560006001548152602001908152602001600020600301546104169190612bb1565b600560006001548152602001908152602001600020600401819055503373ffffffffffffffffffffffffffffffffffffffff167fe1fffcc4923d04b559f4d29a8bfc6cda04eb5b0d3c460751c2402c5c5cc9109c346040516104789190612a72565b60405180910390a2005b005b34801561049057600080fd5b506104996106fa565b005b3480156104a757600080fd5b506104b06108a1565b6040516104bd9190612a72565b60405180910390f35b3480156104d257600080fd5b506104db6108a9565b6040516104e89190612a72565b60405180910390f35b3480156104fd57600080fd5b506105066108ae565b60405161051a989796959493929190612ab6565b60405180910390f35b34801561052f57600080fd5b5061054a6004803603810190610545919061238d565b61099c565b005b34801561055857600080fd5b50610573600480360381019061056e9190612364565b610ac4565b6040516105809190612a72565b60405180910390f35b34801561059557600080fd5b506105b060048036038101906105ab9190612364565b610b0d565b6040516105be929190612a8d565b60405180910390f35b6105cf610cb6565b005b3480156105dd57600080fd5b506105e6610d83565b6040516105f39190612710565b60405180910390f35b34801561060857600080fd5b50610611610da9565b60405161061e9190612a72565b60405180910390f35b34801561063357600080fd5b5061063c610dae565b6040516106499190612a72565b60405180910390f35b34801561065e57600080fd5b50610667610db9565b6040516106749190612a72565b60405180910390f35b610685612327565b61068d610dbe565b8211156106cf576040517f08c379a00000000000000000000000000000000000000000000000000000000081526004016106c690612892565b60405180910390fd5b604051806020016040528069d3c21bcecceda1000000846106f09190612be2565b8152509050919050565b6000610704610ddd565b14610744576040517f08c379a000000000000000000000000000000000000000000000000000000000815260040161073b906128b2565b60405180910390fd5b6000600560006001548152602001908152602001600020600501541461076d5761076c610e31565b5b600180600082825461077f9190612b5b565b925050819055506001546005600060015481526020019081526020016000206000018190555061012c6005600060015481526020019081526020016000206001018190555066038d7ea4c6800060056000600154815260200190815260200160002060020181905550600060056000600154815260200190815260200160002060030181905550600060056000600154815260200190815260200160002060040181905550600060056000600154815260200190815260200160002060050181905550426005600060015481526020019081526020016000206006018190555060056000600154815260200190815260200160002060010154426108839190612b5b565b60056000600154815260200190815260200160002060070181905550565b600047905090565b600081565b6000806000806000806000806005600060015481526020019081526020016000206000015460056000600154815260200190815260200160002060010154600560006001548152602001908152602001600020600201546005600060015481526020019081526020016000206003015460056000600154815260200190815260200160002060040154600560006001548152602001908152602001600020600501546005600060015481526020019081526020016000206006015460056000600154815260200190815260200160002060070154975097509750975097509750975097509091929394959697565b600360009054906101000a900473ffffffffffffffffffffffffffffffffffffffff1673ffffffffffffffffffffffffffffffffffffffff163373ffffffffffffffffffffffffffffffffffffffff1614610a2c576040517f08c379a0000000000000000000000000000000000000000000000000000000008152600401610a23906128d2565b60405180910390fd5b3373ffffffffffffffffffffffffffffffffffffffff166108fc829081150290604051600060405180830381858888f19350505050158015610a72573d6000803e3d6000fd5b503373ffffffffffffffffffffffffffffffffffffffff167f884edad9ce6fa2440d8a54cc123490eb96d2768479d49ff9c7366125a942436482604051610ab99190612a72565b60405180910390a250565b6000600460008373ffffffffffffffffffffffffffffffffffffffff1673ffffffffffffffffffffffffffffffffffffffff168152602001908152602001600020549050919050565b600080600060056000600154815260200190815260200160002060090160008573ffffffffffffffffffffffffffffffffffffffff1673ffffffffffffffffffffffffffffffffffffffff168152602001908152602001600020541415610ba9576040517f08c379a0000000000000000000000000000000000000000000000000000000008152600401610ba090612a52565b60405180910390fd5b600560006001548152602001908152602001600020600801600060056000600154815260200190815260200160002060090160008673ffffffffffffffffffffffffffffffffffffffff1673ffffffffffffffffffffffffffffffffffffffff16815260200190815260200160002054815260200190815260200160002060010154600560006001548152602001908152602001600020600801600060056000600154815260200190815260200160002060090160008773ffffffffffffffffffffffffffffffffffffffff1673ffffffffffffffffffffffffffffffffffffffff1681526020019081526020016000205481526020019081526020016000206002015491509150915091565b6000600460003373ffffffffffffffffffffffffffffffffffffffff1673ffffffffffffffffffffffffffffffffffffffff1681526020019081526020016000205411610d38576040517f08c379a0000000000000000000000000000000000000000000000000000000008152600401610d2f90612912565b60405180910390fd5b610d8133600460003373ffffffffffffffffffffffffffffffffffffffff1673ffffffffffffffffffffffffffffffffffffffff16815260200190815260200160002054611797565b565b600360009054906101000a900473ffffffffffffffffffffffffffffffffffffffff1681565b600081565b66038d7ea4c6800081565b600081565b60007601357c299a88ea76a58924d52ce4f26a85af186c2b9e74905090565b6000426005600060015481526020019081526020016000206007015411610e075760009050610e2e565b4260056000600154815260200190815260200160002060070154610e2b9190612c3c565b90505b90565b610e886040518060400160405280601a81526020017f506179696e67206f75742077696e6e657273206f662067616d650000000000008152506005600060015481526020019081526020016000206000015461184b565b6000806000610e97600061067d565b9050600080600190505b600560006001548152602001908152602001600020600501548111610f8257600560006001548152602001908152602001600020600401546005600060015481526020019081526020016000206008016000838152602001908152602001600020600101541015610f5a57600185610f199190612b5b565b945060056000600154815260200190815260200160002060080160008281526020019081526020016000206001015482610f539190612b5b565b9150610f6f565b610f6c83610f67836118e7565b6119ce565b92505b8080610f7a90612cf1565b915050610ea1565b50610fc26040518060400160405280600b81526020017f6e756d4c6f736572733a200000000000000000000000000000000000000000008152508561184b565b6110016040518060400160405280600b81526020017f6c6f73657273506f743a200000000000000000000000000000000000000000008152508261184b565b83600560006001548152602001908152602001600020600501546110259190612c3c565b92506110666040518060400160405280600c81526020017f6e756d57696e6e6572733a2000000000000000000000000000000000000000008152508461184b565b60008314156110b6576110ad6040518060400160405280600a81526020017f4e6f2077696e6e65727300000000000000000000000000000000000000000000815250611a4d565b50505050611795565b6000600190505b6005600060015481526020019081526020016000206005015481116116115760056000600154815260200190815260200160002060040154600560006001548152602001908152602001600020600801600083815260200190815260200160002060010154106115fe5761119c6040518060400160405280601b81526020017f2d2d2d2d2d2d2d2d2d2d2d2d2057696e6e657220506c61796572200000000000815250826040518060400160405280600d81526020017f202d2d2d2d2d2d2d2d2d2d2d2d00000000000000000000000000000000000000815250611ae6565b600080831461122f5761122c6112276112166111b786611b85565b6112116112036005600060015481526020019081526020016000206008016000898152602001908152602001600020600301604051806020016040529081600082015481525050611ba3565b61120c8a611ba3565b611bb1565b611be7565b61122260636064611bb1565b611be7565b611ba3565b90505b6000816005600060015481526020019081526020016000206008016000858152602001908152602001600020600101546112699190612b5b565b90506112d66040518060400160405280600581526020017f6265743a2000000000000000000000000000000000000000000000000000000081525060056000600154815260200190815260200160002060080160008681526020019081526020016000206001015461184b565b6113446040518060400160405280600d81526020017f63757276655765696768743a200000000000000000000000000000000000000081525060056000600154815260200190815260200160002060080160008681526020019081526020016000206003016000015461184b565b6113876040518060400160405280601c81526020017f77696e6e657273546f74616c437572766557656967687453756d3a2000000000815250866000015161184b565b6113c66040518060400160405280601981526020017f77696e6e696e67732066726f6d206c6f73657220706f743a20000000000000008152508361184b565b6114056040518060400160405280600881526020017f7061796f75743a200000000000000000000000000000000000000000000000008152508261184b565b8060046000600560006001548152602001908152602001600020600801600087815260200190815260200160002060000160009054906101000a900473ffffffffffffffffffffffffffffffffffffffff1673ffffffffffffffffffffffffffffffffffffffff1673ffffffffffffffffffffffffffffffffffffffff16815260200190815260200160002060008282546114a09190612b5b565b925050819055508060056000600154815260200190815260200160002060030160008282546114cf9190612c3c565b92505081905550600560006001548152602001908152602001600020600801600084815260200190815260200160002060000160009054906101000a900473ffffffffffffffffffffffffffffffffffffffff1673ffffffffffffffffffffffffffffffffffffffff167f5afeca38b2064c23a692c4cf353015d80ab3ecc417b4f893f372690c11fbd9a6826040516115689190612a72565b60405180910390a26115fb6040518060400160405280601081526020017f5061796f75742073656e7420746f3a2000000000000000000000000000000000815250600560006001548152602001908152602001600020600801600086815260200190815260200160002060000160009054906101000a900473ffffffffffffffffffffffffffffffffffffffff16611f80565b50505b808061160990612cf1565b9150506110bd565b506116696040518060400160405280600581526020017f506f743a200000000000000000000000000000000000000000000000000000008152506005600060015481526020019081526020016000206003015461184b565b600060056000600154815260200190815260200160002060030154111561177a57600060056000600154815260200190815260200160002060030181905550600360009054906101000a900473ffffffffffffffffffffffffffffffffffffffff1673ffffffffffffffffffffffffffffffffffffffff167f5afeca38b2064c23a692c4cf353015d80ab3ecc417b4f893f372690c11fbd9a6346040516117109190612a72565b60405180910390a26117796040518060400160405280601881526020017f52656d61696e696e6720706f7420737765707420746f3a200000000000000000815250600360009054906101000a900473ffffffffffffffffffffffffffffffffffffffff16611f80565b5b600093506000925061178a612327565b915060009050505050505b565b6000808373ffffffffffffffffffffffffffffffffffffffff16836040516117be906126fb565b60006040518083038185875af1925050503d80600081146117fb576040519150601f19603f3d011682016040523d82523d6000602084013e611800565b606091505b509150915081611845576040517f08c379a000000000000000000000000000000000000000000000000000000000815260040161183c90612872565b60405180910390fd5b50505050565b6118e3828260405160240161186192919061277d565b6040516020818303038152906040527f9710a9d0000000000000000000000000000000000000000000000000000000007bffffffffffffffffffffffffffffffffffffffffffffffffffffffff19166020820180517bffffffffffffffffffffffffffffffffffffffffffffffffffffffff838183161783525050505061201c565b5050565b6118ef612327565b600182101580156119185750600560006001548152602001908152602001600020600501548211155b611957576040517f08c379a000000000000000000000000000000000000000000000000000000000815260040161194e90612992565b60405180910390fd5b600061197b8360056000600154815260200190815260200160002060050154611bb1565b9050600061198882612045565b9050806005600060015481526020019081526020016000206008016000868152602001908152602001600020600301600082015181600001559050508092505050919050565b6119d6612327565b6000826000015184600001516119ec9190612b5b565b90508360000151811015611a35576040517f08c379a0000000000000000000000000000000000000000000000000000000008152600401611a2c906129d2565b60405180910390fd5b60405180602001604052808281525091505092915050565b611ae381604051602401611a61919061272b565b6040516020818303038152906040527f41304fac000000000000000000000000000000000000000000000000000000007bffffffffffffffffffffffffffffffffffffffffffffffffffffffff19166020820180517bffffffffffffffffffffffffffffffffffffffffffffffffffffffff838183161783525050505061201c565b50565b611b80838383604051602401611afe939291906127ad565b6040516020818303038152906040527fa3f5c739000000000000000000000000000000000000000000000000000000007bffffffffffffffffffffffffffffffffffffffffffffffffffffffff19166020820180517bffffffffffffffffffffffffffffffffffffffffffffffffffffffff838183161783525050505061201c565b505050565b611b8d612327565b6040518060200160405280838152509050919050565b600081600001519050919050565b611bb9612327565b6000611bc48461067d565b90506000611bd18461067d565b9050611bdd82826120de565b9250505092915050565b611bef612327565b600083600001511480611c06575060008260000151145b15611c2257604051806020016040528060008152509050611f7a565b69d3c21bcecceda100000082600001511415611c4057829050611f7a565b69d3c21bcecceda100000083600001511415611c5e57819050611f7a565b600069d3c21bcecceda1000000611c74856121ce565b60000151611c829190612bb1565b90506000611c8f85612210565b600001519050600069d3c21bcecceda1000000611cab866121ce565b60000151611cb99190612bb1565b90506000611cc686612210565b60000151905060008285611cda9190612be2565b905060008514611d3257828582611cf19190612bb1565b14611d31576040517f08c379a0000000000000000000000000000000000000000000000000000000008152600401611d28906127f2565b60405180910390fd5b5b600069d3c21bcecceda100000082611d4a9190612be2565b905060008214611dac5769d3c21bcecceda10000008282611d6b9190612bb1565b14611dab576040517f08c379a0000000000000000000000000000000000000000000000000000000008152600401611da2906129f2565b60405180910390fd5b5b80915060008486611dbd9190612be2565b905060008614611e1557848682611dd49190612bb1565b14611e14576040517f08c379a0000000000000000000000000000000000000000000000000000000008152600401611e0b90612a32565b60405180910390fd5b5b60008488611e239190612be2565b905060008814611e7b57848882611e3a9190612bb1565b14611e7a576040517f08c379a0000000000000000000000000000000000000000000000000000000008152600401611e71906129b2565b60405180910390fd5b5b611e83612261565b87611e8e9190612bb1565b9650611e98612261565b85611ea39190612bb1565b945060008588611eb39190612be2565b905060008814611f0b57858882611eca9190612bb1565b14611f0a576040517f08c379a0000000000000000000000000000000000000000000000000000000008152600401611f0190612832565b60405180910390fd5b5b60006040518060200160405280878152509050611f36816040518060200160405280878152506119ce565b9050611f50816040518060200160405280868152506119ce565b9050611f6a816040518060200160405280858152506119ce565b9050809a50505050505050505050505b92915050565b6120188282604051602401611f9692919061274d565b6040516020818303038152906040527f319af333000000000000000000000000000000000000000000000000000000007bffffffffffffffffffffffffffffffffffffffffffffffffffffffff19166020820180517bffffffffffffffffffffffffffffffffffffffffffffffffffffffff838183161783525050505061201c565b5050565b60008151905060006a636f6e736f6c652e6c6f679050602083016000808483855afa5050505050565b61204d612327565b600082600001511015801561206f575061206e8261206961226e565b612294565b5b6120ae576040517f08c379a00000000000000000000000000000000000000000000000000000000081526004016120a590612a12565b60405180910390fd5b60006120c36120bd8485611be7565b84611be7565b90506120d66120d061226e565b826122aa565b915050919050565b6120e6612327565b60008260000151141561212e576040517f08c379a000000000000000000000000000000000000000000000000000000000815260040161212590612852565b60405180910390fd5b600069d3c21bcecceda1000000846000015161214a9190612be2565b9050836000015169d3c21bcecceda1000000826121679190612bb1565b146121a7576040517f08c379a000000000000000000000000000000000000000000000000000000000815260040161219e90612952565b60405180910390fd5b60405180602001604052808460000151836121c29190612bb1565b81525091505092915050565b6121d6612327565b604051806020016040528069d3c21bcecceda10000008085600001516121fc9190612bb1565b6122069190612be2565b8152509050919050565b612218612327565b604051806020016040528069d3c21bcecceda100000080856000015161223e9190612bb1565b6122489190612be2565b84600001516122579190612c3c565b8152509050919050565b600064e8d4a51000905090565b612276612327565b604051806020016040528069d3c21bcecceda1000000815250905090565b6000816000015183600001511115905092915050565b6122b2612327565b8160000151836000015110156122fd576040517f08c379a00000000000000000000000000000000000000000000000000000000081526004016122f490612812565b60405180910390fd5b60405180602001604052808360000151856000015161231c9190612c3c565b815250905092915050565b6040518060200160405280600081525090565b6000813590506123498161312c565b92915050565b60008135905061235e81613143565b92915050565b60006020828403121561237657600080fd5b60006123848482850161233a565b91505092915050565b60006020828403121561239f57600080fd5b60006123ad8482850161234f565b91505092915050565b6123bf81612c82565b82525050565b6123ce81612c70565b82525050565b60006123df82612b34565b6123e98185612b4a565b93506123f9818560208601612cbe565b61240281612d98565b840191505092915050565b600061241a601683612b4a565b915061242582612da9565b602082019050919050565b600061243d601f83612b4a565b915061244882612dd2565b602082019050919050565b6000612460601683612b4a565b915061246b82612dfb565b602082019050919050565b6000612483601183612b4a565b915061248e82612e24565b602082019050919050565b60006124a6601483612b4a565b91506124b182612e4d565b602082019050919050565b60006124c9603683612b4a565b91506124d482612e76565b604082019050919050565b60006124ec601483612b4a565b91506124f782612ec5565b602082019050919050565b600061250f601383612b4a565b915061251a82612eee565b602082019050919050565b6000612532603c83612b4a565b915061253d82612f17565b604082019050919050565b6000612555601483612b4a565b915061256082612f66565b602082019050919050565b6000612578601283612b4a565b915061258382612f8f565b602082019050919050565b600061259b601283612b4a565b91506125a682612fb8565b602082019050919050565b60006125be601b83612b4a565b91506125c982612fe1565b602082019050919050565b60006125e1601a83612b4a565b91506125ec8261300a565b602082019050919050565b6000612604601683612b4a565b915061260f82613033565b602082019050919050565b6000612627600083612b3f565b91506126328261305c565b600082019050919050565b600061264a601583612b4a565b91506126558261305f565b602082019050919050565b600061266d601f83612b4a565b915061267882613088565b602082019050919050565b6000612690601383612b4a565b915061269b826130b1565b602082019050919050565b60006126b3601683612b4a565b91506126be826130da565b602082019050919050565b60006126d6601983612b4a565b91506126e182613103565b602082019050919050565b6126f581612cb4565b82525050565b60006127068261261a565b9150819050919050565b600060208201905061272560008301846123b6565b92915050565b6000602082019050818103600083015261274581846123d4565b905092915050565b6000604082019050818103600083015261276781856123d4565b905061277660208301846123c5565b9392505050565b6000604082019050818103600083015261279781856123d4565b90506127a660208301846126ec565b9392505050565b600060608201905081810360008301526127c781866123d4565b90506127d660208301856126ec565b81810360408301526127e881846123d4565b9050949350505050565b6000602082019050818103600083015261280b8161240d565b9050919050565b6000602082019050818103600083015261282b81612430565b9050919050565b6000602082019050818103600083015261284b81612453565b9050919050565b6000602082019050818103600083015261286b81612476565b9050919050565b6000602082019050818103600083015261288b81612499565b9050919050565b600060208201905081810360008301526128ab816124bc565b9050919050565b600060208201905081810360008301526128cb816124df565b9050919050565b600060208201905081810360008301526128eb81612502565b9050919050565b6000602082019050818103600083015261290b81612525565b9050919050565b6000602082019050818103600083015261292b81612548565b9050919050565b6000602082019050818103600083015261294b8161256b565b9050919050565b6000602082019050818103600083015261296b8161258e565b9050919050565b6000602082019050818103600083015261298b816125b1565b9050919050565b600060208201905081810360008301526129ab816125d4565b9050919050565b600060208201905081810360008301526129cb816125f7565b9050919050565b600060208201905081810360008301526129eb8161263d565b9050919050565b60006020820190508181036000830152612a0b81612660565b9050919050565b60006020820190508181036000830152612a2b81612683565b9050919050565b60006020820190508181036000830152612a4b816126a6565b9050919050565b60006020820190508181036000830152612a6b816126c9565b9050919050565b6000602082019050612a8760008301846126ec565b92915050565b6000604082019050612aa260008301856126ec565b612aaf60208301846126ec565b9392505050565b600061010082019050612acc600083018b6126ec565b612ad9602083018a6126ec565b612ae660408301896126ec565b612af360608301886126ec565b612b0060808301876126ec565b612b0d60a08301866126ec565b612b1a60c08301856126ec565b612b2760e08301846126ec565b9998505050505050505050565b600081519050919050565b600081905092915050565b600082825260208201905092915050565b6000612b6682612cb4565b9150612b7183612cb4565b9250827fffffffffffffffffffffffffffffffffffffffffffffffffffffffffffffffff03821115612ba657612ba5612d3a565b5b828201905092915050565b6000612bbc82612cb4565b9150612bc783612cb4565b925082612bd757612bd6612d69565b5b828204905092915050565b6000612bed82612cb4565b9150612bf883612cb4565b9250817fffffffffffffffffffffffffffffffffffffffffffffffffffffffffffffffff0483118215151615612c3157612c30612d3a565b5b828202905092915050565b6000612c4782612cb4565b9150612c5283612cb4565b925082821015612c6557612c64612d3a565b5b828203905092915050565b6000612c7b82612c94565b9050919050565b6000612c8d82612c94565b9050919050565b600073ffffffffffffffffffffffffffffffffffffffff82169050919050565b6000819050919050565b60005b83811015612cdc578082015181840152602081019050612cc1565b83811115612ceb576000848401525b50505050565b6000612cfc82612cb4565b91507fffffffffffffffffffffffffffffffffffffffffffffffffffffffffffffffff821415612d2f57612d2e612d3a565b5b600182019050919050565b7f4e487b7100000000000000000000000000000000000000000000000000000000600052601160045260246000fd5b7f4e487b7100000000000000000000000000000000000000000000000000000000600052601260045260246000fd5b6000601f19601f8301169050919050565b7f6f766572666c6f77207831793120646574656374656400000000000000000000600082015250565b7f737562737472616374696f6e20756e646572666c6f7720646574656374656400600082015250565b7f6f766572666c6f77207832793220646574656374656400000000000000000000600082015250565b7f63616e2774206469766964652062792030000000000000000000000000000000600082015250565b7f4661696c656420746f2073656e64204574686572000000000000000000000000600082015250565b7f63616e277420637265617465206669786964697479206e756d626572206c617260008201527f676572207468616e206d61784e65774669786564282900000000000000000000602082015250565b7f47616d65206973206e6f74206f76657220796574000000000000000000000000600082015250565b7f63616c6c6572206973206e6f74206f776e657200000000000000000000000000600082015250565b7f4465706f736974206d7573742062652067726561746572207468616e206f722060008201527f657175616c20746f20746865206d696e696d756d206465706f73697400000000602082015250565b7f596f752068617665206e6f2077696e6e696e6773000000000000000000000000600082015250565b7f5468652067616d652068617320656e6465640000000000000000000000000000600082015250565b7f6f766572666c6f77206174206469766964650000000000000000000000000000600082015250565b7f596f752061726520616c726561647920696e207468652067616d650000000000600082015250565b7f506c6179657220696e646578206f7574206f6620626f756e6473000000000000600082015250565b7f6f766572666c6f77207831793220646574656374656400000000000000000000600082015250565b50565b7f616464206f766572666c6f772064657465637465640000000000000000000000600082015250565b7f6f766572666c6f772078317931202a2066697865643120646574656374656400600082015250565b7f496e646578206f7574206f6620626f756e647300000000000000000000000000600082015250565b7f6f766572666c6f77207832793120646574656374656400000000000000000000600082015250565b7f506c61796572206973206e6f7420696e207468652067616d6500000000000000600082015250565b61313581612c70565b811461314057600080fd5b50565b61314c81612cb4565b811461315757600080fd5b5056fea2646970667358221220f189c7a87b820e9c1653284b4f16e45d6a257aa5f3611f3bb31dfee5af523d0564736f6c63430008040033",
  "linkReferences": {},
  "deployedLinkReferences": {}
}